
senior_test_stream_SD_ver3.elf:     file format elf32-littlearm

Sections:
Idx Name          Size      VMA       LMA       File off  Algn
  0 .isr_vector   0000010c  08000000  08000000  00010000  2**0
                  CONTENTS, ALLOC, LOAD, READONLY, DATA
  1 .text         00008a5c  08000110  08000110  00010110  2**4
                  CONTENTS, ALLOC, LOAD, READONLY, CODE
  2 .rodata       00000f28  08008b6c  08008b6c  00018b6c  2**2
                  CONTENTS, ALLOC, LOAD, READONLY, DATA
  3 .ARM.extab    00000000  08009a94  08009a94  000200b4  2**0
                  CONTENTS
  4 .ARM          00000000  08009a94  08009a94  000200b4  2**0
                  CONTENTS
  5 .preinit_array 00000000  08009a94  08009a94  000200b4  2**0
                  CONTENTS, ALLOC, LOAD, DATA
  6 .init_array   00000004  08009a94  08009a94  00019a94  2**2
                  CONTENTS, ALLOC, LOAD, DATA
  7 .fini_array   00000004  08009a98  08009a98  00019a98  2**2
                  CONTENTS, ALLOC, LOAD, DATA
  8 .data         000000b4  20000000  08009a9c  00020000  2**2
                  CONTENTS, ALLOC, LOAD, DATA
  9 .bss          000028b4  200000b4  08009b50  000200b4  2**2
                  ALLOC
 10 ._user_heap_stack 00000600  20002968  08009b50  00022968  2**0
                  ALLOC
 11 .ARM.attributes 00000029  00000000  00000000  000200b4  2**0
                  CONTENTS, READONLY
 12 .comment      00000043  00000000  00000000  000200dd  2**0
                  CONTENTS, READONLY
 13 .debug_frame  00000760  00000000  00000000  00020120  2**2
                  CONTENTS, READONLY, DEBUGGING, OCTETS

Disassembly of section .text:

08000110 <__do_global_dtors_aux>:
 8000110:	b510      	push	{r4, lr}
 8000112:	4c05      	ldr	r4, [pc, #20]	; (8000128 <__do_global_dtors_aux+0x18>)
 8000114:	7823      	ldrb	r3, [r4, #0]
 8000116:	b933      	cbnz	r3, 8000126 <__do_global_dtors_aux+0x16>
 8000118:	4b04      	ldr	r3, [pc, #16]	; (800012c <__do_global_dtors_aux+0x1c>)
 800011a:	b113      	cbz	r3, 8000122 <__do_global_dtors_aux+0x12>
 800011c:	4804      	ldr	r0, [pc, #16]	; (8000130 <__do_global_dtors_aux+0x20>)
 800011e:	f3af 8000 	nop.w
 8000122:	2301      	movs	r3, #1
 8000124:	7023      	strb	r3, [r4, #0]
 8000126:	bd10      	pop	{r4, pc}
 8000128:	200000b4 	.word	0x200000b4
 800012c:	00000000 	.word	0x00000000
 8000130:	08008b54 	.word	0x08008b54

08000134 <frame_dummy>:
 8000134:	b508      	push	{r3, lr}
 8000136:	4b03      	ldr	r3, [pc, #12]	; (8000144 <frame_dummy+0x10>)
 8000138:	b11b      	cbz	r3, 8000142 <frame_dummy+0xe>
 800013a:	4903      	ldr	r1, [pc, #12]	; (8000148 <frame_dummy+0x14>)
 800013c:	4803      	ldr	r0, [pc, #12]	; (800014c <frame_dummy+0x18>)
 800013e:	f3af 8000 	nop.w
 8000142:	bd08      	pop	{r3, pc}
 8000144:	00000000 	.word	0x00000000
 8000148:	200000b8 	.word	0x200000b8
 800014c:	08008b54 	.word	0x08008b54

08000150 <__aeabi_dmul>:
 8000150:	b570      	push	{r4, r5, r6, lr}
 8000152:	f04f 0cff 	mov.w	ip, #255	; 0xff
 8000156:	f44c 6ce0 	orr.w	ip, ip, #1792	; 0x700
 800015a:	ea1c 5411 	ands.w	r4, ip, r1, lsr #20
 800015e:	bf1d      	ittte	ne
 8000160:	ea1c 5513 	andsne.w	r5, ip, r3, lsr #20
 8000164:	ea94 0f0c 	teqne	r4, ip
 8000168:	ea95 0f0c 	teqne	r5, ip
 800016c:	f000 f8de 	bleq	800032c <__aeabi_dmul+0x1dc>
 8000170:	442c      	add	r4, r5
 8000172:	ea81 0603 	eor.w	r6, r1, r3
 8000176:	ea21 514c 	bic.w	r1, r1, ip, lsl #21
 800017a:	ea23 534c 	bic.w	r3, r3, ip, lsl #21
 800017e:	ea50 3501 	orrs.w	r5, r0, r1, lsl #12
 8000182:	bf18      	it	ne
 8000184:	ea52 3503 	orrsne.w	r5, r2, r3, lsl #12
 8000188:	f441 1180 	orr.w	r1, r1, #1048576	; 0x100000
 800018c:	f443 1380 	orr.w	r3, r3, #1048576	; 0x100000
 8000190:	d038      	beq.n	8000204 <__aeabi_dmul+0xb4>
 8000192:	fba0 ce02 	umull	ip, lr, r0, r2
 8000196:	f04f 0500 	mov.w	r5, #0
 800019a:	fbe1 e502 	umlal	lr, r5, r1, r2
 800019e:	f006 4200 	and.w	r2, r6, #2147483648	; 0x80000000
 80001a2:	fbe0 e503 	umlal	lr, r5, r0, r3
 80001a6:	f04f 0600 	mov.w	r6, #0
 80001aa:	fbe1 5603 	umlal	r5, r6, r1, r3
 80001ae:	f09c 0f00 	teq	ip, #0
 80001b2:	bf18      	it	ne
 80001b4:	f04e 0e01 	orrne.w	lr, lr, #1
 80001b8:	f1a4 04ff 	sub.w	r4, r4, #255	; 0xff
 80001bc:	f5b6 7f00 	cmp.w	r6, #512	; 0x200
 80001c0:	f564 7440 	sbc.w	r4, r4, #768	; 0x300
 80001c4:	d204      	bcs.n	80001d0 <__aeabi_dmul+0x80>
 80001c6:	ea5f 0e4e 	movs.w	lr, lr, lsl #1
 80001ca:	416d      	adcs	r5, r5
 80001cc:	eb46 0606 	adc.w	r6, r6, r6
 80001d0:	ea42 21c6 	orr.w	r1, r2, r6, lsl #11
 80001d4:	ea41 5155 	orr.w	r1, r1, r5, lsr #21
 80001d8:	ea4f 20c5 	mov.w	r0, r5, lsl #11
 80001dc:	ea40 505e 	orr.w	r0, r0, lr, lsr #21
 80001e0:	ea4f 2ece 	mov.w	lr, lr, lsl #11
 80001e4:	f1b4 0cfd 	subs.w	ip, r4, #253	; 0xfd
 80001e8:	bf88      	it	hi
 80001ea:	f5bc 6fe0 	cmphi.w	ip, #1792	; 0x700
 80001ee:	d81e      	bhi.n	800022e <__aeabi_dmul+0xde>
 80001f0:	f1be 4f00 	cmp.w	lr, #2147483648	; 0x80000000
 80001f4:	bf08      	it	eq
 80001f6:	ea5f 0e50 	movseq.w	lr, r0, lsr #1
 80001fa:	f150 0000 	adcs.w	r0, r0, #0
 80001fe:	eb41 5104 	adc.w	r1, r1, r4, lsl #20
 8000202:	bd70      	pop	{r4, r5, r6, pc}
 8000204:	f006 4600 	and.w	r6, r6, #2147483648	; 0x80000000
 8000208:	ea46 0101 	orr.w	r1, r6, r1
 800020c:	ea40 0002 	orr.w	r0, r0, r2
 8000210:	ea81 0103 	eor.w	r1, r1, r3
 8000214:	ebb4 045c 	subs.w	r4, r4, ip, lsr #1
 8000218:	bfc2      	ittt	gt
 800021a:	ebd4 050c 	rsbsgt	r5, r4, ip
 800021e:	ea41 5104 	orrgt.w	r1, r1, r4, lsl #20
 8000222:	bd70      	popgt	{r4, r5, r6, pc}
 8000224:	f441 1180 	orr.w	r1, r1, #1048576	; 0x100000
 8000228:	f04f 0e00 	mov.w	lr, #0
 800022c:	3c01      	subs	r4, #1
 800022e:	f300 80ab 	bgt.w	8000388 <__aeabi_dmul+0x238>
 8000232:	f114 0f36 	cmn.w	r4, #54	; 0x36
 8000236:	bfde      	ittt	le
 8000238:	2000      	movle	r0, #0
 800023a:	f001 4100 	andle.w	r1, r1, #2147483648	; 0x80000000
 800023e:	bd70      	pople	{r4, r5, r6, pc}
 8000240:	f1c4 0400 	rsb	r4, r4, #0
 8000244:	3c20      	subs	r4, #32
 8000246:	da35      	bge.n	80002b4 <__aeabi_dmul+0x164>
 8000248:	340c      	adds	r4, #12
 800024a:	dc1b      	bgt.n	8000284 <__aeabi_dmul+0x134>
 800024c:	f104 0414 	add.w	r4, r4, #20
 8000250:	f1c4 0520 	rsb	r5, r4, #32
 8000254:	fa00 f305 	lsl.w	r3, r0, r5
 8000258:	fa20 f004 	lsr.w	r0, r0, r4
 800025c:	fa01 f205 	lsl.w	r2, r1, r5
 8000260:	ea40 0002 	orr.w	r0, r0, r2
 8000264:	f001 4200 	and.w	r2, r1, #2147483648	; 0x80000000
 8000268:	f021 4100 	bic.w	r1, r1, #2147483648	; 0x80000000
 800026c:	eb10 70d3 	adds.w	r0, r0, r3, lsr #31
 8000270:	fa21 f604 	lsr.w	r6, r1, r4
 8000274:	eb42 0106 	adc.w	r1, r2, r6
 8000278:	ea5e 0e43 	orrs.w	lr, lr, r3, lsl #1
 800027c:	bf08      	it	eq
 800027e:	ea20 70d3 	biceq.w	r0, r0, r3, lsr #31
 8000282:	bd70      	pop	{r4, r5, r6, pc}
 8000284:	f1c4 040c 	rsb	r4, r4, #12
 8000288:	f1c4 0520 	rsb	r5, r4, #32
 800028c:	fa00 f304 	lsl.w	r3, r0, r4
 8000290:	fa20 f005 	lsr.w	r0, r0, r5
 8000294:	fa01 f204 	lsl.w	r2, r1, r4
 8000298:	ea40 0002 	orr.w	r0, r0, r2
 800029c:	f001 4100 	and.w	r1, r1, #2147483648	; 0x80000000
 80002a0:	eb10 70d3 	adds.w	r0, r0, r3, lsr #31
 80002a4:	f141 0100 	adc.w	r1, r1, #0
 80002a8:	ea5e 0e43 	orrs.w	lr, lr, r3, lsl #1
 80002ac:	bf08      	it	eq
 80002ae:	ea20 70d3 	biceq.w	r0, r0, r3, lsr #31
 80002b2:	bd70      	pop	{r4, r5, r6, pc}
 80002b4:	f1c4 0520 	rsb	r5, r4, #32
 80002b8:	fa00 f205 	lsl.w	r2, r0, r5
 80002bc:	ea4e 0e02 	orr.w	lr, lr, r2
 80002c0:	fa20 f304 	lsr.w	r3, r0, r4
 80002c4:	fa01 f205 	lsl.w	r2, r1, r5
 80002c8:	ea43 0302 	orr.w	r3, r3, r2
 80002cc:	fa21 f004 	lsr.w	r0, r1, r4
 80002d0:	f001 4100 	and.w	r1, r1, #2147483648	; 0x80000000
 80002d4:	fa21 f204 	lsr.w	r2, r1, r4
 80002d8:	ea20 0002 	bic.w	r0, r0, r2
 80002dc:	eb00 70d3 	add.w	r0, r0, r3, lsr #31
 80002e0:	ea5e 0e43 	orrs.w	lr, lr, r3, lsl #1
 80002e4:	bf08      	it	eq
 80002e6:	ea20 70d3 	biceq.w	r0, r0, r3, lsr #31
 80002ea:	bd70      	pop	{r4, r5, r6, pc}
 80002ec:	f094 0f00 	teq	r4, #0
 80002f0:	d10f      	bne.n	8000312 <__aeabi_dmul+0x1c2>
 80002f2:	f001 4600 	and.w	r6, r1, #2147483648	; 0x80000000
 80002f6:	0040      	lsls	r0, r0, #1
 80002f8:	eb41 0101 	adc.w	r1, r1, r1
 80002fc:	f411 1f80 	tst.w	r1, #1048576	; 0x100000
 8000300:	bf08      	it	eq
 8000302:	3c01      	subeq	r4, #1
 8000304:	d0f7      	beq.n	80002f6 <__aeabi_dmul+0x1a6>
 8000306:	ea41 0106 	orr.w	r1, r1, r6
 800030a:	f095 0f00 	teq	r5, #0
 800030e:	bf18      	it	ne
 8000310:	4770      	bxne	lr
 8000312:	f003 4600 	and.w	r6, r3, #2147483648	; 0x80000000
 8000316:	0052      	lsls	r2, r2, #1
 8000318:	eb43 0303 	adc.w	r3, r3, r3
 800031c:	f413 1f80 	tst.w	r3, #1048576	; 0x100000
 8000320:	bf08      	it	eq
 8000322:	3d01      	subeq	r5, #1
 8000324:	d0f7      	beq.n	8000316 <__aeabi_dmul+0x1c6>
 8000326:	ea43 0306 	orr.w	r3, r3, r6
 800032a:	4770      	bx	lr
 800032c:	ea94 0f0c 	teq	r4, ip
 8000330:	ea0c 5513 	and.w	r5, ip, r3, lsr #20
 8000334:	bf18      	it	ne
 8000336:	ea95 0f0c 	teqne	r5, ip
 800033a:	d00c      	beq.n	8000356 <__aeabi_dmul+0x206>
 800033c:	ea50 0641 	orrs.w	r6, r0, r1, lsl #1
 8000340:	bf18      	it	ne
 8000342:	ea52 0643 	orrsne.w	r6, r2, r3, lsl #1
 8000346:	d1d1      	bne.n	80002ec <__aeabi_dmul+0x19c>
 8000348:	ea81 0103 	eor.w	r1, r1, r3
 800034c:	f001 4100 	and.w	r1, r1, #2147483648	; 0x80000000
 8000350:	f04f 0000 	mov.w	r0, #0
 8000354:	bd70      	pop	{r4, r5, r6, pc}
 8000356:	ea50 0641 	orrs.w	r6, r0, r1, lsl #1
 800035a:	bf06      	itte	eq
 800035c:	4610      	moveq	r0, r2
 800035e:	4619      	moveq	r1, r3
 8000360:	ea52 0643 	orrsne.w	r6, r2, r3, lsl #1
 8000364:	d019      	beq.n	800039a <__aeabi_dmul+0x24a>
 8000366:	ea94 0f0c 	teq	r4, ip
 800036a:	d102      	bne.n	8000372 <__aeabi_dmul+0x222>
 800036c:	ea50 3601 	orrs.w	r6, r0, r1, lsl #12
 8000370:	d113      	bne.n	800039a <__aeabi_dmul+0x24a>
 8000372:	ea95 0f0c 	teq	r5, ip
 8000376:	d105      	bne.n	8000384 <__aeabi_dmul+0x234>
 8000378:	ea52 3603 	orrs.w	r6, r2, r3, lsl #12
 800037c:	bf1c      	itt	ne
 800037e:	4610      	movne	r0, r2
 8000380:	4619      	movne	r1, r3
 8000382:	d10a      	bne.n	800039a <__aeabi_dmul+0x24a>
 8000384:	ea81 0103 	eor.w	r1, r1, r3
 8000388:	f001 4100 	and.w	r1, r1, #2147483648	; 0x80000000
 800038c:	f041 41fe 	orr.w	r1, r1, #2130706432	; 0x7f000000
 8000390:	f441 0170 	orr.w	r1, r1, #15728640	; 0xf00000
 8000394:	f04f 0000 	mov.w	r0, #0
 8000398:	bd70      	pop	{r4, r5, r6, pc}
 800039a:	f041 41fe 	orr.w	r1, r1, #2130706432	; 0x7f000000
 800039e:	f441 0178 	orr.w	r1, r1, #16252928	; 0xf80000
 80003a2:	bd70      	pop	{r4, r5, r6, pc}

080003a4 <__aeabi_fmul>:
 80003a4:	f04f 0cff 	mov.w	ip, #255	; 0xff
 80003a8:	ea1c 52d0 	ands.w	r2, ip, r0, lsr #23
 80003ac:	bf1e      	ittt	ne
 80003ae:	ea1c 53d1 	andsne.w	r3, ip, r1, lsr #23
 80003b2:	ea92 0f0c 	teqne	r2, ip
 80003b6:	ea93 0f0c 	teqne	r3, ip
 80003ba:	d06f      	beq.n	800049c <__aeabi_fmul+0xf8>
 80003bc:	441a      	add	r2, r3
 80003be:	ea80 0c01 	eor.w	ip, r0, r1
 80003c2:	0240      	lsls	r0, r0, #9
 80003c4:	bf18      	it	ne
 80003c6:	ea5f 2141 	movsne.w	r1, r1, lsl #9
 80003ca:	d01e      	beq.n	800040a <__aeabi_fmul+0x66>
 80003cc:	f04f 6300 	mov.w	r3, #134217728	; 0x8000000
 80003d0:	ea43 1050 	orr.w	r0, r3, r0, lsr #5
 80003d4:	ea43 1151 	orr.w	r1, r3, r1, lsr #5
 80003d8:	fba0 3101 	umull	r3, r1, r0, r1
 80003dc:	f00c 4000 	and.w	r0, ip, #2147483648	; 0x80000000
 80003e0:	f5b1 0f00 	cmp.w	r1, #8388608	; 0x800000
 80003e4:	bf3e      	ittt	cc
 80003e6:	0049      	lslcc	r1, r1, #1
 80003e8:	ea41 71d3 	orrcc.w	r1, r1, r3, lsr #31
 80003ec:	005b      	lslcc	r3, r3, #1
 80003ee:	ea40 0001 	orr.w	r0, r0, r1
 80003f2:	f162 027f 	sbc.w	r2, r2, #127	; 0x7f
 80003f6:	2afd      	cmp	r2, #253	; 0xfd
 80003f8:	d81d      	bhi.n	8000436 <__aeabi_fmul+0x92>
 80003fa:	f1b3 4f00 	cmp.w	r3, #2147483648	; 0x80000000
 80003fe:	eb40 50c2 	adc.w	r0, r0, r2, lsl #23
 8000402:	bf08      	it	eq
 8000404:	f020 0001 	biceq.w	r0, r0, #1
 8000408:	4770      	bx	lr
 800040a:	f090 0f00 	teq	r0, #0
 800040e:	f00c 4c00 	and.w	ip, ip, #2147483648	; 0x80000000
 8000412:	bf08      	it	eq
 8000414:	0249      	lsleq	r1, r1, #9
 8000416:	ea4c 2050 	orr.w	r0, ip, r0, lsr #9
 800041a:	ea40 2051 	orr.w	r0, r0, r1, lsr #9
 800041e:	3a7f      	subs	r2, #127	; 0x7f
 8000420:	bfc2      	ittt	gt
 8000422:	f1d2 03ff 	rsbsgt	r3, r2, #255	; 0xff
 8000426:	ea40 50c2 	orrgt.w	r0, r0, r2, lsl #23
 800042a:	4770      	bxgt	lr
 800042c:	f440 0000 	orr.w	r0, r0, #8388608	; 0x800000
 8000430:	f04f 0300 	mov.w	r3, #0
 8000434:	3a01      	subs	r2, #1
 8000436:	dc5d      	bgt.n	80004f4 <__aeabi_fmul+0x150>
 8000438:	f112 0f19 	cmn.w	r2, #25
 800043c:	bfdc      	itt	le
 800043e:	f000 4000 	andle.w	r0, r0, #2147483648	; 0x80000000
 8000442:	4770      	bxle	lr
 8000444:	f1c2 0200 	rsb	r2, r2, #0
 8000448:	0041      	lsls	r1, r0, #1
 800044a:	fa21 f102 	lsr.w	r1, r1, r2
 800044e:	f1c2 0220 	rsb	r2, r2, #32
 8000452:	fa00 fc02 	lsl.w	ip, r0, r2
 8000456:	ea5f 0031 	movs.w	r0, r1, rrx
 800045a:	f140 0000 	adc.w	r0, r0, #0
 800045e:	ea53 034c 	orrs.w	r3, r3, ip, lsl #1
 8000462:	bf08      	it	eq
 8000464:	ea20 70dc 	biceq.w	r0, r0, ip, lsr #31
 8000468:	4770      	bx	lr
 800046a:	f092 0f00 	teq	r2, #0
 800046e:	f000 4c00 	and.w	ip, r0, #2147483648	; 0x80000000
 8000472:	bf02      	ittt	eq
 8000474:	0040      	lsleq	r0, r0, #1
 8000476:	f410 0f00 	tsteq.w	r0, #8388608	; 0x800000
 800047a:	3a01      	subeq	r2, #1
 800047c:	d0f9      	beq.n	8000472 <__aeabi_fmul+0xce>
 800047e:	ea40 000c 	orr.w	r0, r0, ip
 8000482:	f093 0f00 	teq	r3, #0
 8000486:	f001 4c00 	and.w	ip, r1, #2147483648	; 0x80000000
 800048a:	bf02      	ittt	eq
 800048c:	0049      	lsleq	r1, r1, #1
 800048e:	f411 0f00 	tsteq.w	r1, #8388608	; 0x800000
 8000492:	3b01      	subeq	r3, #1
 8000494:	d0f9      	beq.n	800048a <__aeabi_fmul+0xe6>
 8000496:	ea41 010c 	orr.w	r1, r1, ip
 800049a:	e78f      	b.n	80003bc <__aeabi_fmul+0x18>
 800049c:	ea0c 53d1 	and.w	r3, ip, r1, lsr #23
 80004a0:	ea92 0f0c 	teq	r2, ip
 80004a4:	bf18      	it	ne
 80004a6:	ea93 0f0c 	teqne	r3, ip
 80004aa:	d00a      	beq.n	80004c2 <__aeabi_fmul+0x11e>
 80004ac:	f030 4c00 	bics.w	ip, r0, #2147483648	; 0x80000000
 80004b0:	bf18      	it	ne
 80004b2:	f031 4c00 	bicsne.w	ip, r1, #2147483648	; 0x80000000
 80004b6:	d1d8      	bne.n	800046a <__aeabi_fmul+0xc6>
 80004b8:	ea80 0001 	eor.w	r0, r0, r1
 80004bc:	f000 4000 	and.w	r0, r0, #2147483648	; 0x80000000
 80004c0:	4770      	bx	lr
 80004c2:	f090 0f00 	teq	r0, #0
 80004c6:	bf17      	itett	ne
 80004c8:	f090 4f00 	teqne	r0, #2147483648	; 0x80000000
 80004cc:	4608      	moveq	r0, r1
 80004ce:	f091 0f00 	teqne	r1, #0
 80004d2:	f091 4f00 	teqne	r1, #2147483648	; 0x80000000
 80004d6:	d014      	beq.n	8000502 <__aeabi_fmul+0x15e>
 80004d8:	ea92 0f0c 	teq	r2, ip
 80004dc:	d101      	bne.n	80004e2 <__aeabi_fmul+0x13e>
 80004de:	0242      	lsls	r2, r0, #9
 80004e0:	d10f      	bne.n	8000502 <__aeabi_fmul+0x15e>
 80004e2:	ea93 0f0c 	teq	r3, ip
 80004e6:	d103      	bne.n	80004f0 <__aeabi_fmul+0x14c>
 80004e8:	024b      	lsls	r3, r1, #9
 80004ea:	bf18      	it	ne
 80004ec:	4608      	movne	r0, r1
 80004ee:	d108      	bne.n	8000502 <__aeabi_fmul+0x15e>
 80004f0:	ea80 0001 	eor.w	r0, r0, r1
 80004f4:	f000 4000 	and.w	r0, r0, #2147483648	; 0x80000000
 80004f8:	f040 40fe 	orr.w	r0, r0, #2130706432	; 0x7f000000
 80004fc:	f440 0000 	orr.w	r0, r0, #8388608	; 0x800000
 8000500:	4770      	bx	lr
 8000502:	f040 40fe 	orr.w	r0, r0, #2130706432	; 0x7f000000
 8000506:	f440 0040 	orr.w	r0, r0, #12582912	; 0xc00000
 800050a:	4770      	bx	lr

0800050c <__aeabi_drsub>:
 800050c:	f081 4100 	eor.w	r1, r1, #2147483648	; 0x80000000
 8000510:	e002      	b.n	8000518 <__adddf3>
 8000512:	bf00      	nop

08000514 <__aeabi_dsub>:
 8000514:	f083 4300 	eor.w	r3, r3, #2147483648	; 0x80000000

08000518 <__adddf3>:
 8000518:	b530      	push	{r4, r5, lr}
 800051a:	ea4f 0441 	mov.w	r4, r1, lsl #1
 800051e:	ea4f 0543 	mov.w	r5, r3, lsl #1
 8000522:	ea94 0f05 	teq	r4, r5
 8000526:	bf08      	it	eq
 8000528:	ea90 0f02 	teqeq	r0, r2
 800052c:	bf1f      	itttt	ne
 800052e:	ea54 0c00 	orrsne.w	ip, r4, r0
 8000532:	ea55 0c02 	orrsne.w	ip, r5, r2
 8000536:	ea7f 5c64 	mvnsne.w	ip, r4, asr #21
 800053a:	ea7f 5c65 	mvnsne.w	ip, r5, asr #21
 800053e:	f000 80e2 	beq.w	8000706 <__adddf3+0x1ee>
 8000542:	ea4f 5454 	mov.w	r4, r4, lsr #21
 8000546:	ebd4 5555 	rsbs	r5, r4, r5, lsr #21
 800054a:	bfb8      	it	lt
 800054c:	426d      	neglt	r5, r5
 800054e:	dd0c      	ble.n	800056a <__adddf3+0x52>
 8000550:	442c      	add	r4, r5
 8000552:	ea80 0202 	eor.w	r2, r0, r2
 8000556:	ea81 0303 	eor.w	r3, r1, r3
 800055a:	ea82 0000 	eor.w	r0, r2, r0
 800055e:	ea83 0101 	eor.w	r1, r3, r1
 8000562:	ea80 0202 	eor.w	r2, r0, r2
 8000566:	ea81 0303 	eor.w	r3, r1, r3
 800056a:	2d36      	cmp	r5, #54	; 0x36
 800056c:	bf88      	it	hi
 800056e:	bd30      	pophi	{r4, r5, pc}
 8000570:	f011 4f00 	tst.w	r1, #2147483648	; 0x80000000
 8000574:	ea4f 3101 	mov.w	r1, r1, lsl #12
 8000578:	f44f 1c80 	mov.w	ip, #1048576	; 0x100000
 800057c:	ea4c 3111 	orr.w	r1, ip, r1, lsr #12
 8000580:	d002      	beq.n	8000588 <__adddf3+0x70>
 8000582:	4240      	negs	r0, r0
 8000584:	eb61 0141 	sbc.w	r1, r1, r1, lsl #1
 8000588:	f013 4f00 	tst.w	r3, #2147483648	; 0x80000000
 800058c:	ea4f 3303 	mov.w	r3, r3, lsl #12
 8000590:	ea4c 3313 	orr.w	r3, ip, r3, lsr #12
 8000594:	d002      	beq.n	800059c <__adddf3+0x84>
 8000596:	4252      	negs	r2, r2
 8000598:	eb63 0343 	sbc.w	r3, r3, r3, lsl #1
 800059c:	ea94 0f05 	teq	r4, r5
 80005a0:	f000 80a7 	beq.w	80006f2 <__adddf3+0x1da>
 80005a4:	f1a4 0401 	sub.w	r4, r4, #1
 80005a8:	f1d5 0e20 	rsbs	lr, r5, #32
 80005ac:	db0d      	blt.n	80005ca <__adddf3+0xb2>
 80005ae:	fa02 fc0e 	lsl.w	ip, r2, lr
 80005b2:	fa22 f205 	lsr.w	r2, r2, r5
 80005b6:	1880      	adds	r0, r0, r2
 80005b8:	f141 0100 	adc.w	r1, r1, #0
 80005bc:	fa03 f20e 	lsl.w	r2, r3, lr
 80005c0:	1880      	adds	r0, r0, r2
 80005c2:	fa43 f305 	asr.w	r3, r3, r5
 80005c6:	4159      	adcs	r1, r3
 80005c8:	e00e      	b.n	80005e8 <__adddf3+0xd0>
 80005ca:	f1a5 0520 	sub.w	r5, r5, #32
 80005ce:	f10e 0e20 	add.w	lr, lr, #32
 80005d2:	2a01      	cmp	r2, #1
 80005d4:	fa03 fc0e 	lsl.w	ip, r3, lr
 80005d8:	bf28      	it	cs
 80005da:	f04c 0c02 	orrcs.w	ip, ip, #2
 80005de:	fa43 f305 	asr.w	r3, r3, r5
 80005e2:	18c0      	adds	r0, r0, r3
 80005e4:	eb51 71e3 	adcs.w	r1, r1, r3, asr #31
 80005e8:	f001 4500 	and.w	r5, r1, #2147483648	; 0x80000000
 80005ec:	d507      	bpl.n	80005fe <__adddf3+0xe6>
 80005ee:	f04f 0e00 	mov.w	lr, #0
 80005f2:	f1dc 0c00 	rsbs	ip, ip, #0
 80005f6:	eb7e 0000 	sbcs.w	r0, lr, r0
 80005fa:	eb6e 0101 	sbc.w	r1, lr, r1
 80005fe:	f5b1 1f80 	cmp.w	r1, #1048576	; 0x100000
 8000602:	d31b      	bcc.n	800063c <__adddf3+0x124>
 8000604:	f5b1 1f00 	cmp.w	r1, #2097152	; 0x200000
 8000608:	d30c      	bcc.n	8000624 <__adddf3+0x10c>
 800060a:	0849      	lsrs	r1, r1, #1
 800060c:	ea5f 0030 	movs.w	r0, r0, rrx
 8000610:	ea4f 0c3c 	mov.w	ip, ip, rrx
 8000614:	f104 0401 	add.w	r4, r4, #1
 8000618:	ea4f 5244 	mov.w	r2, r4, lsl #21
 800061c:	f512 0f80 	cmn.w	r2, #4194304	; 0x400000
 8000620:	f080 809a 	bcs.w	8000758 <__adddf3+0x240>
 8000624:	f1bc 4f00 	cmp.w	ip, #2147483648	; 0x80000000
 8000628:	bf08      	it	eq
 800062a:	ea5f 0c50 	movseq.w	ip, r0, lsr #1
 800062e:	f150 0000 	adcs.w	r0, r0, #0
 8000632:	eb41 5104 	adc.w	r1, r1, r4, lsl #20
 8000636:	ea41 0105 	orr.w	r1, r1, r5
 800063a:	bd30      	pop	{r4, r5, pc}
 800063c:	ea5f 0c4c 	movs.w	ip, ip, lsl #1
 8000640:	4140      	adcs	r0, r0
 8000642:	eb41 0101 	adc.w	r1, r1, r1
 8000646:	3c01      	subs	r4, #1
 8000648:	bf28      	it	cs
 800064a:	f5b1 1f80 	cmpcs.w	r1, #1048576	; 0x100000
 800064e:	d2e9      	bcs.n	8000624 <__adddf3+0x10c>
 8000650:	f091 0f00 	teq	r1, #0
 8000654:	bf04      	itt	eq
 8000656:	4601      	moveq	r1, r0
 8000658:	2000      	moveq	r0, #0
 800065a:	fab1 f381 	clz	r3, r1
 800065e:	bf08      	it	eq
 8000660:	3320      	addeq	r3, #32
 8000662:	f1a3 030b 	sub.w	r3, r3, #11
 8000666:	f1b3 0220 	subs.w	r2, r3, #32
 800066a:	da0c      	bge.n	8000686 <__adddf3+0x16e>
 800066c:	320c      	adds	r2, #12
 800066e:	dd08      	ble.n	8000682 <__adddf3+0x16a>
 8000670:	f102 0c14 	add.w	ip, r2, #20
 8000674:	f1c2 020c 	rsb	r2, r2, #12
 8000678:	fa01 f00c 	lsl.w	r0, r1, ip
 800067c:	fa21 f102 	lsr.w	r1, r1, r2
 8000680:	e00c      	b.n	800069c <__adddf3+0x184>
 8000682:	f102 0214 	add.w	r2, r2, #20
 8000686:	bfd8      	it	le
 8000688:	f1c2 0c20 	rsble	ip, r2, #32
 800068c:	fa01 f102 	lsl.w	r1, r1, r2
 8000690:	fa20 fc0c 	lsr.w	ip, r0, ip
 8000694:	bfdc      	itt	le
 8000696:	ea41 010c 	orrle.w	r1, r1, ip
 800069a:	4090      	lslle	r0, r2
 800069c:	1ae4      	subs	r4, r4, r3
 800069e:	bfa2      	ittt	ge
 80006a0:	eb01 5104 	addge.w	r1, r1, r4, lsl #20
 80006a4:	4329      	orrge	r1, r5
 80006a6:	bd30      	popge	{r4, r5, pc}
 80006a8:	ea6f 0404 	mvn.w	r4, r4
 80006ac:	3c1f      	subs	r4, #31
 80006ae:	da1c      	bge.n	80006ea <__adddf3+0x1d2>
 80006b0:	340c      	adds	r4, #12
 80006b2:	dc0e      	bgt.n	80006d2 <__adddf3+0x1ba>
 80006b4:	f104 0414 	add.w	r4, r4, #20
 80006b8:	f1c4 0220 	rsb	r2, r4, #32
 80006bc:	fa20 f004 	lsr.w	r0, r0, r4
 80006c0:	fa01 f302 	lsl.w	r3, r1, r2
 80006c4:	ea40 0003 	orr.w	r0, r0, r3
 80006c8:	fa21 f304 	lsr.w	r3, r1, r4
 80006cc:	ea45 0103 	orr.w	r1, r5, r3
 80006d0:	bd30      	pop	{r4, r5, pc}
 80006d2:	f1c4 040c 	rsb	r4, r4, #12
 80006d6:	f1c4 0220 	rsb	r2, r4, #32
 80006da:	fa20 f002 	lsr.w	r0, r0, r2
 80006de:	fa01 f304 	lsl.w	r3, r1, r4
 80006e2:	ea40 0003 	orr.w	r0, r0, r3
 80006e6:	4629      	mov	r1, r5
 80006e8:	bd30      	pop	{r4, r5, pc}
 80006ea:	fa21 f004 	lsr.w	r0, r1, r4
 80006ee:	4629      	mov	r1, r5
 80006f0:	bd30      	pop	{r4, r5, pc}
 80006f2:	f094 0f00 	teq	r4, #0
 80006f6:	f483 1380 	eor.w	r3, r3, #1048576	; 0x100000
 80006fa:	bf06      	itte	eq
 80006fc:	f481 1180 	eoreq.w	r1, r1, #1048576	; 0x100000
 8000700:	3401      	addeq	r4, #1
 8000702:	3d01      	subne	r5, #1
 8000704:	e74e      	b.n	80005a4 <__adddf3+0x8c>
 8000706:	ea7f 5c64 	mvns.w	ip, r4, asr #21
 800070a:	bf18      	it	ne
 800070c:	ea7f 5c65 	mvnsne.w	ip, r5, asr #21
 8000710:	d029      	beq.n	8000766 <__adddf3+0x24e>
 8000712:	ea94 0f05 	teq	r4, r5
 8000716:	bf08      	it	eq
 8000718:	ea90 0f02 	teqeq	r0, r2
 800071c:	d005      	beq.n	800072a <__adddf3+0x212>
 800071e:	ea54 0c00 	orrs.w	ip, r4, r0
 8000722:	bf04      	itt	eq
 8000724:	4619      	moveq	r1, r3
 8000726:	4610      	moveq	r0, r2
 8000728:	bd30      	pop	{r4, r5, pc}
 800072a:	ea91 0f03 	teq	r1, r3
 800072e:	bf1e      	ittt	ne
 8000730:	2100      	movne	r1, #0
 8000732:	2000      	movne	r0, #0
 8000734:	bd30      	popne	{r4, r5, pc}
 8000736:	ea5f 5c54 	movs.w	ip, r4, lsr #21
 800073a:	d105      	bne.n	8000748 <__adddf3+0x230>
 800073c:	0040      	lsls	r0, r0, #1
 800073e:	4149      	adcs	r1, r1
 8000740:	bf28      	it	cs
 8000742:	f041 4100 	orrcs.w	r1, r1, #2147483648	; 0x80000000
 8000746:	bd30      	pop	{r4, r5, pc}
 8000748:	f514 0480 	adds.w	r4, r4, #4194304	; 0x400000
 800074c:	bf3c      	itt	cc
 800074e:	f501 1180 	addcc.w	r1, r1, #1048576	; 0x100000
 8000752:	bd30      	popcc	{r4, r5, pc}
 8000754:	f001 4500 	and.w	r5, r1, #2147483648	; 0x80000000
 8000758:	f045 41fe 	orr.w	r1, r5, #2130706432	; 0x7f000000
 800075c:	f441 0170 	orr.w	r1, r1, #15728640	; 0xf00000
 8000760:	f04f 0000 	mov.w	r0, #0
 8000764:	bd30      	pop	{r4, r5, pc}
 8000766:	ea7f 5c64 	mvns.w	ip, r4, asr #21
 800076a:	bf1a      	itte	ne
 800076c:	4619      	movne	r1, r3
 800076e:	4610      	movne	r0, r2
 8000770:	ea7f 5c65 	mvnseq.w	ip, r5, asr #21
 8000774:	bf1c      	itt	ne
 8000776:	460b      	movne	r3, r1
 8000778:	4602      	movne	r2, r0
 800077a:	ea50 3401 	orrs.w	r4, r0, r1, lsl #12
 800077e:	bf06      	itte	eq
 8000780:	ea52 3503 	orrseq.w	r5, r2, r3, lsl #12
 8000784:	ea91 0f03 	teqeq	r1, r3
 8000788:	f441 2100 	orrne.w	r1, r1, #524288	; 0x80000
 800078c:	bd30      	pop	{r4, r5, pc}
 800078e:	bf00      	nop

08000790 <__aeabi_ui2d>:
 8000790:	f090 0f00 	teq	r0, #0
 8000794:	bf04      	itt	eq
 8000796:	2100      	moveq	r1, #0
 8000798:	4770      	bxeq	lr
 800079a:	b530      	push	{r4, r5, lr}
 800079c:	f44f 6480 	mov.w	r4, #1024	; 0x400
 80007a0:	f104 0432 	add.w	r4, r4, #50	; 0x32
 80007a4:	f04f 0500 	mov.w	r5, #0
 80007a8:	f04f 0100 	mov.w	r1, #0
 80007ac:	e750      	b.n	8000650 <__adddf3+0x138>
 80007ae:	bf00      	nop

080007b0 <__aeabi_i2d>:
 80007b0:	f090 0f00 	teq	r0, #0
 80007b4:	bf04      	itt	eq
 80007b6:	2100      	moveq	r1, #0
 80007b8:	4770      	bxeq	lr
 80007ba:	b530      	push	{r4, r5, lr}
 80007bc:	f44f 6480 	mov.w	r4, #1024	; 0x400
 80007c0:	f104 0432 	add.w	r4, r4, #50	; 0x32
 80007c4:	f010 4500 	ands.w	r5, r0, #2147483648	; 0x80000000
 80007c8:	bf48      	it	mi
 80007ca:	4240      	negmi	r0, r0
 80007cc:	f04f 0100 	mov.w	r1, #0
 80007d0:	e73e      	b.n	8000650 <__adddf3+0x138>
 80007d2:	bf00      	nop

080007d4 <__aeabi_f2d>:
 80007d4:	0042      	lsls	r2, r0, #1
 80007d6:	ea4f 01e2 	mov.w	r1, r2, asr #3
 80007da:	ea4f 0131 	mov.w	r1, r1, rrx
 80007de:	ea4f 7002 	mov.w	r0, r2, lsl #28
 80007e2:	bf1f      	itttt	ne
 80007e4:	f012 437f 	andsne.w	r3, r2, #4278190080	; 0xff000000
 80007e8:	f093 4f7f 	teqne	r3, #4278190080	; 0xff000000
 80007ec:	f081 5160 	eorne.w	r1, r1, #939524096	; 0x38000000
 80007f0:	4770      	bxne	lr
 80007f2:	f032 427f 	bics.w	r2, r2, #4278190080	; 0xff000000
 80007f6:	bf08      	it	eq
 80007f8:	4770      	bxeq	lr
 80007fa:	f093 4f7f 	teq	r3, #4278190080	; 0xff000000
 80007fe:	bf04      	itt	eq
 8000800:	f441 2100 	orreq.w	r1, r1, #524288	; 0x80000
 8000804:	4770      	bxeq	lr
 8000806:	b530      	push	{r4, r5, lr}
 8000808:	f44f 7460 	mov.w	r4, #896	; 0x380
 800080c:	f001 4500 	and.w	r5, r1, #2147483648	; 0x80000000
 8000810:	f021 4100 	bic.w	r1, r1, #2147483648	; 0x80000000
 8000814:	e71c      	b.n	8000650 <__adddf3+0x138>
 8000816:	bf00      	nop

08000818 <__aeabi_ul2d>:
 8000818:	ea50 0201 	orrs.w	r2, r0, r1
 800081c:	bf08      	it	eq
 800081e:	4770      	bxeq	lr
 8000820:	b530      	push	{r4, r5, lr}
 8000822:	f04f 0500 	mov.w	r5, #0
 8000826:	e00a      	b.n	800083e <__aeabi_l2d+0x16>

08000828 <__aeabi_l2d>:
 8000828:	ea50 0201 	orrs.w	r2, r0, r1
 800082c:	bf08      	it	eq
 800082e:	4770      	bxeq	lr
 8000830:	b530      	push	{r4, r5, lr}
 8000832:	f011 4500 	ands.w	r5, r1, #2147483648	; 0x80000000
 8000836:	d502      	bpl.n	800083e <__aeabi_l2d+0x16>
 8000838:	4240      	negs	r0, r0
 800083a:	eb61 0141 	sbc.w	r1, r1, r1, lsl #1
 800083e:	f44f 6480 	mov.w	r4, #1024	; 0x400
 8000842:	f104 0432 	add.w	r4, r4, #50	; 0x32
 8000846:	ea5f 5c91 	movs.w	ip, r1, lsr #22
 800084a:	f43f aed8 	beq.w	80005fe <__adddf3+0xe6>
 800084e:	f04f 0203 	mov.w	r2, #3
 8000852:	ea5f 0cdc 	movs.w	ip, ip, lsr #3
 8000856:	bf18      	it	ne
 8000858:	3203      	addne	r2, #3
 800085a:	ea5f 0cdc 	movs.w	ip, ip, lsr #3
 800085e:	bf18      	it	ne
 8000860:	3203      	addne	r2, #3
 8000862:	eb02 02dc 	add.w	r2, r2, ip, lsr #3
 8000866:	f1c2 0320 	rsb	r3, r2, #32
 800086a:	fa00 fc03 	lsl.w	ip, r0, r3
 800086e:	fa20 f002 	lsr.w	r0, r0, r2
 8000872:	fa01 fe03 	lsl.w	lr, r1, r3
 8000876:	ea40 000e 	orr.w	r0, r0, lr
 800087a:	fa21 f102 	lsr.w	r1, r1, r2
 800087e:	4414      	add	r4, r2
 8000880:	e6bd      	b.n	80005fe <__adddf3+0xe6>
 8000882:	bf00      	nop

08000884 <__aeabi_d2uiz>:
 8000884:	004a      	lsls	r2, r1, #1
 8000886:	d211      	bcs.n	80008ac <__aeabi_d2uiz+0x28>
 8000888:	f512 1200 	adds.w	r2, r2, #2097152	; 0x200000
 800088c:	d211      	bcs.n	80008b2 <__aeabi_d2uiz+0x2e>
 800088e:	d50d      	bpl.n	80008ac <__aeabi_d2uiz+0x28>
 8000890:	f46f 7378 	mvn.w	r3, #992	; 0x3e0
 8000894:	ebb3 5262 	subs.w	r2, r3, r2, asr #21
 8000898:	d40e      	bmi.n	80008b8 <__aeabi_d2uiz+0x34>
 800089a:	ea4f 23c1 	mov.w	r3, r1, lsl #11
 800089e:	f043 4300 	orr.w	r3, r3, #2147483648	; 0x80000000
 80008a2:	ea43 5350 	orr.w	r3, r3, r0, lsr #21
 80008a6:	fa23 f002 	lsr.w	r0, r3, r2
 80008aa:	4770      	bx	lr
 80008ac:	f04f 0000 	mov.w	r0, #0
 80008b0:	4770      	bx	lr
 80008b2:	ea50 3001 	orrs.w	r0, r0, r1, lsl #12
 80008b6:	d102      	bne.n	80008be <__aeabi_d2uiz+0x3a>
 80008b8:	f04f 30ff 	mov.w	r0, #4294967295
 80008bc:	4770      	bx	lr
 80008be:	f04f 0000 	mov.w	r0, #0
 80008c2:	4770      	bx	lr

080008c4 <__aeabi_frsub>:
 80008c4:	f080 4000 	eor.w	r0, r0, #2147483648	; 0x80000000
 80008c8:	e002      	b.n	80008d0 <__addsf3>
 80008ca:	bf00      	nop

080008cc <__aeabi_fsub>:
 80008cc:	f081 4100 	eor.w	r1, r1, #2147483648	; 0x80000000

080008d0 <__addsf3>:
 80008d0:	0042      	lsls	r2, r0, #1
 80008d2:	bf1f      	itttt	ne
 80008d4:	ea5f 0341 	movsne.w	r3, r1, lsl #1
 80008d8:	ea92 0f03 	teqne	r2, r3
 80008dc:	ea7f 6c22 	mvnsne.w	ip, r2, asr #24
 80008e0:	ea7f 6c23 	mvnsne.w	ip, r3, asr #24
 80008e4:	d06a      	beq.n	80009bc <__addsf3+0xec>
 80008e6:	ea4f 6212 	mov.w	r2, r2, lsr #24
 80008ea:	ebd2 6313 	rsbs	r3, r2, r3, lsr #24
 80008ee:	bfc1      	itttt	gt
 80008f0:	18d2      	addgt	r2, r2, r3
 80008f2:	4041      	eorgt	r1, r0
 80008f4:	4048      	eorgt	r0, r1
 80008f6:	4041      	eorgt	r1, r0
 80008f8:	bfb8      	it	lt
 80008fa:	425b      	neglt	r3, r3
 80008fc:	2b19      	cmp	r3, #25
 80008fe:	bf88      	it	hi
 8000900:	4770      	bxhi	lr
 8000902:	f010 4f00 	tst.w	r0, #2147483648	; 0x80000000
 8000906:	f440 0000 	orr.w	r0, r0, #8388608	; 0x800000
 800090a:	f020 407f 	bic.w	r0, r0, #4278190080	; 0xff000000
 800090e:	bf18      	it	ne
 8000910:	4240      	negne	r0, r0
 8000912:	f011 4f00 	tst.w	r1, #2147483648	; 0x80000000
 8000916:	f441 0100 	orr.w	r1, r1, #8388608	; 0x800000
 800091a:	f021 417f 	bic.w	r1, r1, #4278190080	; 0xff000000
 800091e:	bf18      	it	ne
 8000920:	4249      	negne	r1, r1
 8000922:	ea92 0f03 	teq	r2, r3
 8000926:	d03f      	beq.n	80009a8 <__addsf3+0xd8>
 8000928:	f1a2 0201 	sub.w	r2, r2, #1
 800092c:	fa41 fc03 	asr.w	ip, r1, r3
 8000930:	eb10 000c 	adds.w	r0, r0, ip
 8000934:	f1c3 0320 	rsb	r3, r3, #32
 8000938:	fa01 f103 	lsl.w	r1, r1, r3
 800093c:	f000 4300 	and.w	r3, r0, #2147483648	; 0x80000000
 8000940:	d502      	bpl.n	8000948 <__addsf3+0x78>
 8000942:	4249      	negs	r1, r1
 8000944:	eb60 0040 	sbc.w	r0, r0, r0, lsl #1
 8000948:	f5b0 0f00 	cmp.w	r0, #8388608	; 0x800000
 800094c:	d313      	bcc.n	8000976 <__addsf3+0xa6>
 800094e:	f1b0 7f80 	cmp.w	r0, #16777216	; 0x1000000
 8000952:	d306      	bcc.n	8000962 <__addsf3+0x92>
 8000954:	0840      	lsrs	r0, r0, #1
 8000956:	ea4f 0131 	mov.w	r1, r1, rrx
 800095a:	f102 0201 	add.w	r2, r2, #1
 800095e:	2afe      	cmp	r2, #254	; 0xfe
 8000960:	d251      	bcs.n	8000a06 <__addsf3+0x136>
 8000962:	f1b1 4f00 	cmp.w	r1, #2147483648	; 0x80000000
 8000966:	eb40 50c2 	adc.w	r0, r0, r2, lsl #23
 800096a:	bf08      	it	eq
 800096c:	f020 0001 	biceq.w	r0, r0, #1
 8000970:	ea40 0003 	orr.w	r0, r0, r3
 8000974:	4770      	bx	lr
 8000976:	0049      	lsls	r1, r1, #1
 8000978:	eb40 0000 	adc.w	r0, r0, r0
 800097c:	3a01      	subs	r2, #1
 800097e:	bf28      	it	cs
 8000980:	f5b0 0f00 	cmpcs.w	r0, #8388608	; 0x800000
 8000984:	d2ed      	bcs.n	8000962 <__addsf3+0x92>
 8000986:	fab0 fc80 	clz	ip, r0
 800098a:	f1ac 0c08 	sub.w	ip, ip, #8
 800098e:	ebb2 020c 	subs.w	r2, r2, ip
 8000992:	fa00 f00c 	lsl.w	r0, r0, ip
 8000996:	bfaa      	itet	ge
 8000998:	eb00 50c2 	addge.w	r0, r0, r2, lsl #23
 800099c:	4252      	neglt	r2, r2
 800099e:	4318      	orrge	r0, r3
 80009a0:	bfbc      	itt	lt
 80009a2:	40d0      	lsrlt	r0, r2
 80009a4:	4318      	orrlt	r0, r3
 80009a6:	4770      	bx	lr
 80009a8:	f092 0f00 	teq	r2, #0
 80009ac:	f481 0100 	eor.w	r1, r1, #8388608	; 0x800000
 80009b0:	bf06      	itte	eq
 80009b2:	f480 0000 	eoreq.w	r0, r0, #8388608	; 0x800000
 80009b6:	3201      	addeq	r2, #1
 80009b8:	3b01      	subne	r3, #1
 80009ba:	e7b5      	b.n	8000928 <__addsf3+0x58>
 80009bc:	ea4f 0341 	mov.w	r3, r1, lsl #1
 80009c0:	ea7f 6c22 	mvns.w	ip, r2, asr #24
 80009c4:	bf18      	it	ne
 80009c6:	ea7f 6c23 	mvnsne.w	ip, r3, asr #24
 80009ca:	d021      	beq.n	8000a10 <__addsf3+0x140>
 80009cc:	ea92 0f03 	teq	r2, r3
 80009d0:	d004      	beq.n	80009dc <__addsf3+0x10c>
 80009d2:	f092 0f00 	teq	r2, #0
 80009d6:	bf08      	it	eq
 80009d8:	4608      	moveq	r0, r1
 80009da:	4770      	bx	lr
 80009dc:	ea90 0f01 	teq	r0, r1
 80009e0:	bf1c      	itt	ne
 80009e2:	2000      	movne	r0, #0
 80009e4:	4770      	bxne	lr
 80009e6:	f012 4f7f 	tst.w	r2, #4278190080	; 0xff000000
 80009ea:	d104      	bne.n	80009f6 <__addsf3+0x126>
 80009ec:	0040      	lsls	r0, r0, #1
 80009ee:	bf28      	it	cs
 80009f0:	f040 4000 	orrcs.w	r0, r0, #2147483648	; 0x80000000
 80009f4:	4770      	bx	lr
 80009f6:	f112 7200 	adds.w	r2, r2, #33554432	; 0x2000000
 80009fa:	bf3c      	itt	cc
 80009fc:	f500 0000 	addcc.w	r0, r0, #8388608	; 0x800000
 8000a00:	4770      	bxcc	lr
 8000a02:	f000 4300 	and.w	r3, r0, #2147483648	; 0x80000000
 8000a06:	f043 40fe 	orr.w	r0, r3, #2130706432	; 0x7f000000
 8000a0a:	f440 0000 	orr.w	r0, r0, #8388608	; 0x800000
 8000a0e:	4770      	bx	lr
 8000a10:	ea7f 6222 	mvns.w	r2, r2, asr #24
 8000a14:	bf16      	itet	ne
 8000a16:	4608      	movne	r0, r1
 8000a18:	ea7f 6323 	mvnseq.w	r3, r3, asr #24
 8000a1c:	4601      	movne	r1, r0
 8000a1e:	0242      	lsls	r2, r0, #9
 8000a20:	bf06      	itte	eq
 8000a22:	ea5f 2341 	movseq.w	r3, r1, lsl #9
 8000a26:	ea90 0f01 	teqeq	r0, r1
 8000a2a:	f440 0080 	orrne.w	r0, r0, #4194304	; 0x400000
 8000a2e:	4770      	bx	lr

08000a30 <__aeabi_ui2f>:
 8000a30:	f04f 0300 	mov.w	r3, #0
 8000a34:	e004      	b.n	8000a40 <__aeabi_i2f+0x8>
 8000a36:	bf00      	nop

08000a38 <__aeabi_i2f>:
 8000a38:	f010 4300 	ands.w	r3, r0, #2147483648	; 0x80000000
 8000a3c:	bf48      	it	mi
 8000a3e:	4240      	negmi	r0, r0
 8000a40:	ea5f 0c00 	movs.w	ip, r0
 8000a44:	bf08      	it	eq
 8000a46:	4770      	bxeq	lr
 8000a48:	f043 4396 	orr.w	r3, r3, #1258291200	; 0x4b000000
 8000a4c:	4601      	mov	r1, r0
 8000a4e:	f04f 0000 	mov.w	r0, #0
 8000a52:	e01c      	b.n	8000a8e <__aeabi_l2f+0x2a>

08000a54 <__aeabi_ul2f>:
 8000a54:	ea50 0201 	orrs.w	r2, r0, r1
 8000a58:	bf08      	it	eq
 8000a5a:	4770      	bxeq	lr
 8000a5c:	f04f 0300 	mov.w	r3, #0
 8000a60:	e00a      	b.n	8000a78 <__aeabi_l2f+0x14>
 8000a62:	bf00      	nop

08000a64 <__aeabi_l2f>:
 8000a64:	ea50 0201 	orrs.w	r2, r0, r1
 8000a68:	bf08      	it	eq
 8000a6a:	4770      	bxeq	lr
 8000a6c:	f011 4300 	ands.w	r3, r1, #2147483648	; 0x80000000
 8000a70:	d502      	bpl.n	8000a78 <__aeabi_l2f+0x14>
 8000a72:	4240      	negs	r0, r0
 8000a74:	eb61 0141 	sbc.w	r1, r1, r1, lsl #1
 8000a78:	ea5f 0c01 	movs.w	ip, r1
 8000a7c:	bf02      	ittt	eq
 8000a7e:	4684      	moveq	ip, r0
 8000a80:	4601      	moveq	r1, r0
 8000a82:	2000      	moveq	r0, #0
 8000a84:	f043 43b6 	orr.w	r3, r3, #1526726656	; 0x5b000000
 8000a88:	bf08      	it	eq
 8000a8a:	f1a3 5380 	subeq.w	r3, r3, #268435456	; 0x10000000
 8000a8e:	f5a3 0300 	sub.w	r3, r3, #8388608	; 0x800000
 8000a92:	fabc f28c 	clz	r2, ip
 8000a96:	3a08      	subs	r2, #8
 8000a98:	eba3 53c2 	sub.w	r3, r3, r2, lsl #23
 8000a9c:	db10      	blt.n	8000ac0 <__aeabi_l2f+0x5c>
 8000a9e:	fa01 fc02 	lsl.w	ip, r1, r2
 8000aa2:	4463      	add	r3, ip
 8000aa4:	fa00 fc02 	lsl.w	ip, r0, r2
 8000aa8:	f1c2 0220 	rsb	r2, r2, #32
 8000aac:	f1bc 4f00 	cmp.w	ip, #2147483648	; 0x80000000
 8000ab0:	fa20 f202 	lsr.w	r2, r0, r2
 8000ab4:	eb43 0002 	adc.w	r0, r3, r2
 8000ab8:	bf08      	it	eq
 8000aba:	f020 0001 	biceq.w	r0, r0, #1
 8000abe:	4770      	bx	lr
 8000ac0:	f102 0220 	add.w	r2, r2, #32
 8000ac4:	fa01 fc02 	lsl.w	ip, r1, r2
 8000ac8:	f1c2 0220 	rsb	r2, r2, #32
 8000acc:	ea50 004c 	orrs.w	r0, r0, ip, lsl #1
 8000ad0:	fa21 f202 	lsr.w	r2, r1, r2
 8000ad4:	eb43 0002 	adc.w	r0, r3, r2
 8000ad8:	bf08      	it	eq
 8000ada:	ea20 70dc 	biceq.w	r0, r0, ip, lsr #31
 8000ade:	4770      	bx	lr

08000ae0 <__aeabi_f2uiz>:
 8000ae0:	0042      	lsls	r2, r0, #1
 8000ae2:	d20e      	bcs.n	8000b02 <__aeabi_f2uiz+0x22>
 8000ae4:	f1b2 4ffe 	cmp.w	r2, #2130706432	; 0x7f000000
 8000ae8:	d30b      	bcc.n	8000b02 <__aeabi_f2uiz+0x22>
 8000aea:	f04f 039e 	mov.w	r3, #158	; 0x9e
 8000aee:	ebb3 6212 	subs.w	r2, r3, r2, lsr #24
 8000af2:	d409      	bmi.n	8000b08 <__aeabi_f2uiz+0x28>
 8000af4:	ea4f 2300 	mov.w	r3, r0, lsl #8
 8000af8:	f043 4300 	orr.w	r3, r3, #2147483648	; 0x80000000
 8000afc:	fa23 f002 	lsr.w	r0, r3, r2
 8000b00:	4770      	bx	lr
 8000b02:	f04f 0000 	mov.w	r0, #0
 8000b06:	4770      	bx	lr
 8000b08:	f112 0f61 	cmn.w	r2, #97	; 0x61
 8000b0c:	d101      	bne.n	8000b12 <__aeabi_f2uiz+0x32>
 8000b0e:	0242      	lsls	r2, r0, #9
 8000b10:	d102      	bne.n	8000b18 <__aeabi_f2uiz+0x38>
 8000b12:	f04f 30ff 	mov.w	r0, #4294967295
 8000b16:	4770      	bx	lr
 8000b18:	f04f 0000 	mov.w	r0, #0
 8000b1c:	4770      	bx	lr
 8000b1e:	bf00      	nop

08000b20 <vApplicationGetIdleTaskMemory>:
 8000b20:	4b03      	ldr	r3, [pc, #12]	; (8000b30 <vApplicationGetIdleTaskMemory+0x10>)
 8000b22:	6003      	str	r3, [r0, #0]
 8000b24:	4b03      	ldr	r3, [pc, #12]	; (8000b34 <vApplicationGetIdleTaskMemory+0x14>)
 8000b26:	600b      	str	r3, [r1, #0]
 8000b28:	2380      	movs	r3, #128	; 0x80
 8000b2a:	6013      	str	r3, [r2, #0]
 8000b2c:	4770      	bx	lr
 8000b2e:	bf00      	nop
 8000b30:	200002d0 	.word	0x200002d0
 8000b34:	200000d0 	.word	0x200000d0

08000b38 <StartADC>:
 8000b38:	e92d 4ff0 	stmdb	sp!, {r4, r5, r6, r7, r8, r9, sl, fp, lr}
 8000b3c:	2500      	movs	r5, #0
 8000b3e:	462c      	mov	r4, r5
 8000b40:	b089      	sub	sp, #36	; 0x24
 8000b42:	f001 fbb5 	bl	80022b0 <ssd1306_Init>
 8000b46:	20a1      	movs	r0, #161	; 0xa1
 8000b48:	f001 fb66 	bl	8002218 <ssd1306_WriteCommand>
 8000b4c:	20c8      	movs	r0, #200	; 0xc8
 8000b4e:	f001 fb63 	bl	8002218 <ssd1306_WriteCommand>
 8000b52:	f001 fb59 	bl	8002208 <ssd1306_Clear>
 8000b56:	2001      	movs	r0, #1
 8000b58:	f001 fab2 	bl	80020c0 <ssd1306_SetColor>
 8000b5c:	f44f 70fa 	mov.w	r0, #500	; 0x1f4
 8000b60:	f005 ffd7 	bl	8006b12 <osDelay>
 8000b64:	f44f 70fa 	mov.w	r0, #500	; 0x1f4
 8000b68:	f005 ffd3 	bl	8006b12 <osDelay>
 8000b6c:	4ebb      	ldr	r6, [pc, #748]	; (8000e5c <StartADC+0x324>)
 8000b6e:	2203      	movs	r2, #3
 8000b70:	49bb      	ldr	r1, [pc, #748]	; (8000e60 <StartADC+0x328>)
 8000b72:	48bc      	ldr	r0, [pc, #752]	; (8000e64 <StartADC+0x32c>)
 8000b74:	f004 fbb2 	bl	80052dc <HAL_UART_Transmit_DMA>
 8000b78:	e9cd 5505 	strd	r5, r5, [sp, #20]
 8000b7c:	f8cd 501b 	str.w	r5, [sp, #27]
 8000b80:	4bb9      	ldr	r3, [pc, #740]	; (8000e68 <StartADC+0x330>)
 8000b82:	f8df 82e8 	ldr.w	r8, [pc, #744]	; 8000e6c <StartADC+0x334>
 8000b86:	781a      	ldrb	r2, [r3, #0]
 8000b88:	f012 0f01 	tst.w	r2, #1
 8000b8c:	d02e      	beq.n	8000bec <StartADC+0xb4>
 8000b8e:	f04f 0900 	mov.w	r9, #0
 8000b92:	781a      	ldrb	r2, [r3, #0]
 8000b94:	4fb6      	ldr	r7, [pc, #728]	; (8000e70 <StartADC+0x338>)
 8000b96:	f002 02fe 	and.w	r2, r2, #254	; 0xfe
 8000b9a:	701a      	strb	r2, [r3, #0]
 8000b9c:	4bb5      	ldr	r3, [pc, #724]	; (8000e74 <StartADC+0x33c>)
 8000b9e:	f898 2000 	ldrb.w	r2, [r8]
 8000ba2:	f8a3 9000 	strh.w	r9, [r3]
 8000ba6:	4bb4      	ldr	r3, [pc, #720]	; (8000e78 <StartADC+0x340>)
 8000ba8:	4638      	mov	r0, r7
 8000baa:	f853 3022 	ldr.w	r3, [r3, r2, lsl #2]
 8000bae:	4798      	blx	r3
 8000bb0:	f898 3000 	ldrb.w	r3, [r8]
 8000bb4:	2b02      	cmp	r3, #2
 8000bb6:	d119      	bne.n	8000bec <StartADC+0xb4>
 8000bb8:	78bb      	ldrb	r3, [r7, #2]
 8000bba:	2b02      	cmp	r3, #2
 8000bbc:	b2df      	uxtb	r7, r3
 8000bbe:	d115      	bne.n	8000bec <StartADC+0xb4>
 8000bc0:	464a      	mov	r2, r9
 8000bc2:	4639      	mov	r1, r7
 8000bc4:	48ad      	ldr	r0, [pc, #692]	; (8000e7c <StartADC+0x344>)
 8000bc6:	f002 fac1 	bl	800314c <HAL_GPIO_WritePin>
 8000bca:	2064      	movs	r0, #100	; 0x64
 8000bcc:	f005 ffa1 	bl	8006b12 <osDelay>
 8000bd0:	2201      	movs	r2, #1
 8000bd2:	4639      	mov	r1, r7
 8000bd4:	48a9      	ldr	r0, [pc, #676]	; (8000e7c <StartADC+0x344>)
 8000bd6:	f002 fab9 	bl	800314c <HAL_GPIO_WritePin>
 8000bda:	f44f 70fa 	mov.w	r0, #500	; 0x1f4
 8000bde:	f005 ff98 	bl	8006b12 <osDelay>
 8000be2:	2204      	movs	r2, #4
 8000be4:	49a6      	ldr	r1, [pc, #664]	; (8000e80 <StartADC+0x348>)
 8000be6:	489f      	ldr	r0, [pc, #636]	; (8000e64 <StartADC+0x32c>)
 8000be8:	f004 fb78 	bl	80052dc <HAL_UART_Transmit_DMA>
 8000bec:	f898 3000 	ldrb.w	r3, [r8]
 8000bf0:	2b02      	cmp	r3, #2
 8000bf2:	f040 812e 	bne.w	8000e52 <StartADC+0x31a>
 8000bf6:	f8df 9278 	ldr.w	r9, [pc, #632]	; 8000e70 <StartADC+0x338>
 8000bfa:	f899 3002 	ldrb.w	r3, [r9, #2]
 8000bfe:	b123      	cbz	r3, 8000c0a <StartADC+0xd2>
 8000c00:	f899 3002 	ldrb.w	r3, [r9, #2]
 8000c04:	2b01      	cmp	r3, #1
 8000c06:	f040 8124 	bne.w	8000e52 <StartADC+0x31a>
 8000c0a:	7833      	ldrb	r3, [r6, #0]
 8000c0c:	f44f 707a 	mov.w	r0, #1000	; 0x3e8
 8000c10:	f043 0304 	orr.w	r3, r3, #4
 8000c14:	7033      	strb	r3, [r6, #0]
 8000c16:	f005 ff7c 	bl	8006b12 <osDelay>
 8000c1a:	f899 3002 	ldrb.w	r3, [r9, #2]
 8000c1e:	f003 07ff 	and.w	r7, r3, #255	; 0xff
 8000c22:	2b00      	cmp	r3, #0
 8000c24:	d142      	bne.n	8000cac <StartADC+0x174>
 8000c26:	463a      	mov	r2, r7
 8000c28:	2102      	movs	r1, #2
 8000c2a:	4894      	ldr	r0, [pc, #592]	; (8000e7c <StartADC+0x344>)
 8000c2c:	f002 fa8e 	bl	800314c <HAL_GPIO_WritePin>
 8000c30:	2064      	movs	r0, #100	; 0x64
 8000c32:	f005 ff6e 	bl	8006b12 <osDelay>
 8000c36:	2201      	movs	r2, #1
 8000c38:	2102      	movs	r1, #2
 8000c3a:	4890      	ldr	r0, [pc, #576]	; (8000e7c <StartADC+0x344>)
 8000c3c:	f002 fa86 	bl	800314c <HAL_GPIO_WritePin>
 8000c40:	f44f 70fa 	mov.w	r0, #500	; 0x1f4
 8000c44:	f005 ff65 	bl	8006b12 <osDelay>
 8000c48:	2203      	movs	r2, #3
 8000c4a:	498e      	ldr	r1, [pc, #568]	; (8000e84 <StartADC+0x34c>)
 8000c4c:	4885      	ldr	r0, [pc, #532]	; (8000e64 <StartADC+0x32c>)
 8000c4e:	f004 fb45 	bl	80052dc <HAL_UART_Transmit_DMA>
 8000c52:	4b8d      	ldr	r3, [pc, #564]	; (8000e88 <StartADC+0x350>)
 8000c54:	4639      	mov	r1, r7
 8000c56:	781a      	ldrb	r2, [r3, #0]
 8000c58:	488c      	ldr	r0, [pc, #560]	; (8000e8c <StartADC+0x354>)
 8000c5a:	223c      	movs	r2, #60	; 0x3c
 8000c5c:	701f      	strb	r7, [r3, #0]
 8000c5e:	f007 faf1 	bl	8008244 <memset>
 8000c62:	223c      	movs	r2, #60	; 0x3c
 8000c64:	4639      	mov	r1, r7
 8000c66:	488a      	ldr	r0, [pc, #552]	; (8000e90 <StartADC+0x358>)
 8000c68:	f007 faec 	bl	8008244 <memset>
 8000c6c:	b672      	cpsid	i
 8000c6e:	f04f 33ff 	mov.w	r3, #4294967295
 8000c72:	220a      	movs	r2, #10
 8000c74:	a905      	add	r1, sp, #20
 8000c76:	487b      	ldr	r0, [pc, #492]	; (8000e64 <StartADC+0x32c>)
 8000c78:	e9cd 7705 	strd	r7, r7, [sp, #20]
 8000c7c:	f8cd 701b 	str.w	r7, [sp, #27]
 8000c80:	f004 fad7 	bl	8005232 <HAL_UART_Receive>
 8000c84:	4638      	mov	r0, r7
 8000c86:	2114      	movs	r1, #20
 8000c88:	f001 fab8 	bl	80021fc <ssd1306_SetCursor>
 8000c8c:	4b81      	ldr	r3, [pc, #516]	; (8000e94 <StartADC+0x35c>)
 8000c8e:	f10d 0015 	add.w	r0, sp, #21
 8000c92:	e893 0006 	ldmia.w	r3, {r1, r2}
 8000c96:	f001 fa9f 	bl	80021d8 <ssd1306_WriteString>
 8000c9a:	f001 fadb 	bl	8002254 <ssd1306_UpdateScreen>
 8000c9e:	b662      	cpsie	i
 8000ca0:	f44f 60fa 	mov.w	r0, #2000	; 0x7d0
 8000ca4:	f005 ff35 	bl	8006b12 <osDelay>
 8000ca8:	463c      	mov	r4, r7
 8000caa:	463d      	mov	r5, r7
 8000cac:	2300      	movs	r3, #0
 8000cae:	461f      	mov	r7, r3
 8000cb0:	f8df a1e4 	ldr.w	sl, [pc, #484]	; 8000e98 <StartADC+0x360>
 8000cb4:	9300      	str	r3, [sp, #0]
 8000cb6:	f10a 0b0a 	add.w	fp, sl, #10
 8000cba:	f898 3000 	ldrb.w	r3, [r8]
 8000cbe:	2b02      	cmp	r3, #2
 8000cc0:	d06b      	beq.n	8000d9a <StartADC+0x262>
 8000cc2:	f44f 70fa 	mov.w	r0, #500	; 0x1f4
 8000cc6:	f005 ff24 	bl	8006b12 <osDelay>
 8000cca:	2204      	movs	r2, #4
 8000ccc:	4973      	ldr	r1, [pc, #460]	; (8000e9c <StartADC+0x364>)
 8000cce:	4865      	ldr	r0, [pc, #404]	; (8000e64 <StartADC+0x32c>)
 8000cd0:	f004 fb04 	bl	80052dc <HAL_UART_Transmit_DMA>
 8000cd4:	7833      	ldrb	r3, [r6, #0]
 8000cd6:	f043 0302 	orr.w	r3, r3, #2
 8000cda:	7033      	strb	r3, [r6, #0]
 8000cdc:	f898 3000 	ldrb.w	r3, [r8]
 8000ce0:	2b02      	cmp	r3, #2
 8000ce2:	d103      	bne.n	8000cec <StartADC+0x1b4>
 8000ce4:	4b62      	ldr	r3, [pc, #392]	; (8000e70 <StartADC+0x338>)
 8000ce6:	789b      	ldrb	r3, [r3, #2]
 8000ce8:	2b03      	cmp	r3, #3
 8000cea:	d005      	beq.n	8000cf8 <StartADC+0x1c0>
 8000cec:	4b61      	ldr	r3, [pc, #388]	; (8000e74 <StartADC+0x33c>)
 8000cee:	881a      	ldrh	r2, [r3, #0]
 8000cf0:	f644 631f 	movw	r3, #19999	; 0x4e1f
 8000cf4:	429a      	cmp	r2, r3
 8000cf6:	d919      	bls.n	8000d2c <StartADC+0x1f4>
 8000cf8:	2700      	movs	r7, #0
 8000cfa:	4b5e      	ldr	r3, [pc, #376]	; (8000e74 <StartADC+0x33c>)
 8000cfc:	801f      	strh	r7, [r3, #0]
 8000cfe:	7833      	ldrb	r3, [r6, #0]
 8000d00:	7037      	strb	r7, [r6, #0]
 8000d02:	f001 fa81 	bl	8002208 <ssd1306_Clear>
 8000d06:	f001 faa5 	bl	8002254 <ssd1306_UpdateScreen>
 8000d0a:	4955      	ldr	r1, [pc, #340]	; (8000e60 <StartADC+0x328>)
 8000d0c:	2203      	movs	r2, #3
 8000d0e:	4855      	ldr	r0, [pc, #340]	; (8000e64 <StartADC+0x32c>)
 8000d10:	f004 fae4 	bl	80052dc <HAL_UART_Transmit_DMA>
 8000d14:	4b56      	ldr	r3, [pc, #344]	; (8000e70 <StartADC+0x338>)
 8000d16:	f888 7000 	strb.w	r7, [r8]
 8000d1a:	709f      	strb	r7, [r3, #2]
 8000d1c:	705f      	strb	r7, [r3, #1]
 8000d1e:	701f      	strb	r7, [r3, #0]
 8000d20:	f001 fc86 	bl	8002630 <HAL_SuspendTick>
 8000d24:	2101      	movs	r1, #1
 8000d26:	4608      	mov	r0, r1
 8000d28:	f003 fbb4 	bl	8004494 <HAL_PWR_EnterSLEEPMode>
 8000d2c:	2001      	movs	r0, #1
 8000d2e:	f005 fef0 	bl	8006b12 <osDelay>
 8000d32:	e725      	b.n	8000b80 <StartADC+0x48>
 8000d34:	7833      	ldrb	r3, [r6, #0]
 8000d36:	2700      	movs	r7, #0
 8000d38:	f043 0301 	orr.w	r3, r3, #1
 8000d3c:	7033      	strb	r3, [r6, #0]
 8000d3e:	4b58      	ldr	r3, [pc, #352]	; (8000ea0 <StartADC+0x368>)
 8000d40:	6818      	ldr	r0, [r3, #0]
 8000d42:	f005 ff1a 	bl	8006b7a <osMutexRelease>
 8000d46:	e05a      	b.n	8000dfe <StartADC+0x2c6>
 8000d48:	2301      	movs	r3, #1
 8000d4a:	e05b      	b.n	8000e04 <StartADC+0x2cc>
 8000d4c:	4621      	mov	r1, r4
 8000d4e:	484f      	ldr	r0, [pc, #316]	; (8000e8c <StartADC+0x354>)
 8000d50:	f007 fa78 	bl	8008244 <memset>
 8000d54:	223c      	movs	r2, #60	; 0x3c
 8000d56:	494e      	ldr	r1, [pc, #312]	; (8000e90 <StartADC+0x358>)
 8000d58:	4842      	ldr	r0, [pc, #264]	; (8000e64 <StartADC+0x32c>)
 8000d5a:	f004 fabf 	bl	80052dc <HAL_UART_Transmit_DMA>
 8000d5e:	e073      	b.n	8000e48 <StartADC+0x310>
 8000d60:	f8ba 1018 	ldrh.w	r1, [sl, #24]
 8000d64:	a803      	add	r0, sp, #12
 8000d66:	f5b1 6ffa 	cmp.w	r1, #2000	; 0x7d0
 8000d6a:	bf34      	ite	cc
 8000d6c:	2214      	movcc	r2, #20
 8000d6e:	461a      	movcs	r2, r3
 8000d70:	f04f 0300 	mov.w	r3, #0
 8000d74:	bf38      	it	cc
 8000d76:	fbb1 f2f2 	udivcc	r2, r1, r2
 8000d7a:	494a      	ldr	r1, [pc, #296]	; (8000ea4 <StartADC+0x36c>)
 8000d7c:	9303      	str	r3, [sp, #12]
 8000d7e:	f88d 3010 	strb.w	r3, [sp, #16]
 8000d82:	f007 fa25 	bl	80081d0 <siprintf>
 8000d86:	4841      	ldr	r0, [pc, #260]	; (8000e8c <StartADC+0x354>)
 8000d88:	a903      	add	r1, sp, #12
 8000d8a:	7822      	ldrb	r2, [r4, #0]
 8000d8c:	f007 fa62 	bl	8008254 <strcat>
 8000d90:	2300      	movs	r3, #0
 8000d92:	3501      	adds	r5, #1
 8000d94:	461c      	mov	r4, r3
 8000d96:	b2ad      	uxth	r5, r5
 8000d98:	e057      	b.n	8000e4a <StartADC+0x312>
 8000d9a:	f899 3002 	ldrb.w	r3, [r9, #2]
 8000d9e:	b11b      	cbz	r3, 8000da8 <StartADC+0x270>
 8000da0:	f899 3002 	ldrb.w	r3, [r9, #2]
 8000da4:	2b01      	cmp	r3, #1
 8000da6:	d18c      	bne.n	8000cc2 <StartADC+0x18a>
 8000da8:	2201      	movs	r2, #1
 8000daa:	493f      	ldr	r1, [pc, #252]	; (8000ea8 <StartADC+0x370>)
 8000dac:	483f      	ldr	r0, [pc, #252]	; (8000eac <StartADC+0x374>)
 8000dae:	f001 fd43 	bl	8002838 <HAL_ADC_Start_DMA>
 8000db2:	2105      	movs	r1, #5
 8000db4:	4838      	ldr	r0, [pc, #224]	; (8000e98 <StartADC+0x360>)
 8000db6:	f000 fdd3 	bl	8001960 <delay_signal_x>
 8000dba:	4b3b      	ldr	r3, [pc, #236]	; (8000ea8 <StartADC+0x370>)
 8000dbc:	2105      	movs	r1, #5
 8000dbe:	881b      	ldrh	r3, [r3, #0]
 8000dc0:	4658      	mov	r0, fp
 8000dc2:	f8aa 3008 	strh.w	r3, [sl, #8]
 8000dc6:	f000 fdcb 	bl	8001960 <delay_signal_x>
 8000dca:	2205      	movs	r2, #5
 8000dcc:	4659      	mov	r1, fp
 8000dce:	4832      	ldr	r0, [pc, #200]	; (8000e98 <StartADC+0x360>)
 8000dd0:	f000 fd0e 	bl	80017f0 <bandpass_filter_x>
 8000dd4:	2103      	movs	r1, #3
 8000dd6:	f8aa 0012 	strh.w	r0, [sl, #18]
 8000dda:	4835      	ldr	r0, [pc, #212]	; (8000eb0 <StartADC+0x378>)
 8000ddc:	f000 fdc0 	bl	8001960 <delay_signal_x>
 8000de0:	2203      	movs	r2, #3
 8000de2:	4658      	mov	r0, fp
 8000de4:	4932      	ldr	r1, [pc, #200]	; (8000eb0 <StartADC+0x378>)
 8000de6:	f000 fd6d 	bl	80018c4 <notch_filter_1_x>
 8000dea:	9b00      	ldr	r3, [sp, #0]
 8000dec:	f8aa 0018 	strh.w	r0, [sl, #24]
 8000df0:	2b00      	cmp	r3, #0
 8000df2:	d0a9      	beq.n	8000d48 <StartADC+0x210>
 8000df4:	2f13      	cmp	r7, #19
 8000df6:	d89d      	bhi.n	8000d34 <StartADC+0x1fc>
 8000df8:	4b2e      	ldr	r3, [pc, #184]	; (8000eb4 <StartADC+0x37c>)
 8000dfa:	f823 0017 	strh.w	r0, [r3, r7, lsl #1]
 8000dfe:	2300      	movs	r3, #0
 8000e00:	3701      	adds	r7, #1
 8000e02:	b2bf      	uxth	r7, r7
 8000e04:	3401      	adds	r4, #1
 8000e06:	b2e4      	uxtb	r4, r4
 8000e08:	2c05      	cmp	r4, #5
 8000e0a:	9300      	str	r3, [sp, #0]
 8000e0c:	d11d      	bne.n	8000e4a <StartADC+0x312>
 8000e0e:	f899 2002 	ldrb.w	r2, [r9, #2]
 8000e12:	f002 03ff 	and.w	r3, r2, #255	; 0xff
 8000e16:	b9c2      	cbnz	r2, 8000e4a <StartADC+0x312>
 8000e18:	2d13      	cmp	r5, #19
 8000e1a:	4c1b      	ldr	r4, [pc, #108]	; (8000e88 <StartADC+0x350>)
 8000e1c:	d9a0      	bls.n	8000d60 <StartADC+0x228>
 8000e1e:	7822      	ldrb	r2, [r4, #0]
 8000e20:	f082 0208 	eor.w	r2, r2, #8
 8000e24:	7022      	strb	r2, [r4, #0]
 8000e26:	7824      	ldrb	r4, [r4, #0]
 8000e28:	223c      	movs	r2, #60	; 0x3c
 8000e2a:	f014 0408 	ands.w	r4, r4, #8
 8000e2e:	d08d      	beq.n	8000d4c <StartADC+0x214>
 8000e30:	4619      	mov	r1, r3
 8000e32:	4817      	ldr	r0, [pc, #92]	; (8000e90 <StartADC+0x358>)
 8000e34:	9301      	str	r3, [sp, #4]
 8000e36:	f007 fa05 	bl	8008244 <memset>
 8000e3a:	223c      	movs	r2, #60	; 0x3c
 8000e3c:	4913      	ldr	r1, [pc, #76]	; (8000e8c <StartADC+0x354>)
 8000e3e:	4809      	ldr	r0, [pc, #36]	; (8000e64 <StartADC+0x32c>)
 8000e40:	f004 fa4c 	bl	80052dc <HAL_UART_Transmit_DMA>
 8000e44:	9b01      	ldr	r3, [sp, #4]
 8000e46:	461c      	mov	r4, r3
 8000e48:	4625      	mov	r5, r4
 8000e4a:	2002      	movs	r0, #2
 8000e4c:	f005 fe61 	bl	8006b12 <osDelay>
 8000e50:	e733      	b.n	8000cba <StartADC+0x182>
 8000e52:	4a08      	ldr	r2, [pc, #32]	; (8000e74 <StartADC+0x33c>)
 8000e54:	8813      	ldrh	r3, [r2, #0]
 8000e56:	3301      	adds	r3, #1
 8000e58:	8013      	strh	r3, [r2, #0]
 8000e5a:	e73f      	b.n	8000cdc <StartADC+0x1a4>
 8000e5c:	200003f0 	.word	0x200003f0
 8000e60:	08008be4 	.word	0x08008be4
 8000e64:	2000059c 	.word	0x2000059c
 8000e68:	2000000c 	.word	0x2000000c
 8000e6c:	200005e4 	.word	0x200005e4
 8000e70:	200005fc 	.word	0x200005fc
 8000e74:	200005ec 	.word	0x200005ec
 8000e78:	20000000 	.word	0x20000000
 8000e7c:	40010c00 	.word	0x40010c00
 8000e80:	08008be7 	.word	0x08008be7
 8000e84:	08008bea 	.word	0x08008bea
 8000e88:	2000034e 	.word	0x2000034e
 8000e8c:	2000034f 	.word	0x2000034f
 8000e90:	2000038b 	.word	0x2000038b
 8000e94:	20000018 	.word	0x20000018
 8000e98:	20000334 	.word	0x20000334
 8000e9c:	08008bf3 	.word	0x08008bf3
 8000ea0:	20000328 	.word	0x20000328
 8000ea4:	08008bed 	.word	0x08008bed
 8000ea8:	200005f8 	.word	0x200005f8
 8000eac:	200003f4 	.word	0x200003f4
 8000eb0:	20000348 	.word	0x20000348
 8000eb4:	200003c8 	.word	0x200003c8

08000eb8 <StartSD>:
 8000eb8:	e92d 4ff7 	stmdb	sp!, {r0, r1, r2, r4, r5, r6, r7, r8, r9, sl, fp, lr}
 8000ebc:	483e      	ldr	r0, [pc, #248]	; (8000fb8 <StartSD+0x100>)
 8000ebe:	f001 fac3 	bl	8002448 <Mount_SD>
 8000ec2:	f44f 70fa 	mov.w	r0, #500	; 0x1f4
 8000ec6:	f005 fe24 	bl	8006b12 <osDelay>
 8000eca:	483c      	ldr	r0, [pc, #240]	; (8000fbc <StartSD+0x104>)
 8000ecc:	f000 fb6c 	bl	80015a8 <HAL_SPI_MspDeInit>
 8000ed0:	4c3b      	ldr	r4, [pc, #236]	; (8000fc0 <StartSD+0x108>)
 8000ed2:	f8df 80f0 	ldr.w	r8, [pc, #240]	; 8000fc4 <StartSD+0x10c>
 8000ed6:	7823      	ldrb	r3, [r4, #0]
 8000ed8:	0759      	lsls	r1, r3, #29
 8000eda:	d50d      	bpl.n	8000ef8 <StartSD+0x40>
 8000edc:	f44f 70fa 	mov.w	r0, #500	; 0x1f4
 8000ee0:	f005 fe17 	bl	8006b12 <osDelay>
 8000ee4:	4835      	ldr	r0, [pc, #212]	; (8000fbc <StartSD+0x104>)
 8000ee6:	f000 fb1d 	bl	8001524 <HAL_SPI_MspInit>
 8000eea:	7823      	ldrb	r3, [r4, #0]
 8000eec:	4836      	ldr	r0, [pc, #216]	; (8000fc8 <StartSD+0x110>)
 8000eee:	f003 03fb 	and.w	r3, r3, #251	; 0xfb
 8000ef2:	7023      	strb	r3, [r4, #0]
 8000ef4:	f001 fac2 	bl	800247c <Open_File>
 8000ef8:	7823      	ldrb	r3, [r4, #0]
 8000efa:	07da      	lsls	r2, r3, #31
 8000efc:	d53a      	bpl.n	8000f74 <StartSD+0xbc>
 8000efe:	2601      	movs	r6, #1
 8000f00:	f44f 7b7a 	mov.w	fp, #1000	; 0x3e8
 8000f04:	f04f 0a64 	mov.w	sl, #100	; 0x64
 8000f08:	250a      	movs	r5, #10
 8000f0a:	4f30      	ldr	r7, [pc, #192]	; (8000fcc <StartSD+0x114>)
 8000f0c:	f04f 31ff 	mov.w	r1, #4294967295
 8000f10:	6838      	ldr	r0, [r7, #0]
 8000f12:	f005 fe0d 	bl	8006b30 <osMutexWait>
 8000f16:	7823      	ldrb	r3, [r4, #0]
 8000f18:	f8df 90b4 	ldr.w	r9, [pc, #180]	; 8000fd0 <StartSD+0x118>
 8000f1c:	f003 03fe 	and.w	r3, r3, #254	; 0xfe
 8000f20:	7023      	strb	r3, [r4, #0]
 8000f22:	f839 3f02 	ldrh.w	r3, [r9, #2]!
 8000f26:	4668      	mov	r0, sp
 8000f28:	fbb3 f2fb 	udiv	r2, r3, fp
 8000f2c:	3230      	adds	r2, #48	; 0x30
 8000f2e:	f88d 2000 	strb.w	r2, [sp]
 8000f32:	fbb3 f2fa 	udiv	r2, r3, sl
 8000f36:	fbb2 f1f5 	udiv	r1, r2, r5
 8000f3a:	fb05 2211 	mls	r2, r5, r1, r2
 8000f3e:	fbb3 f1f5 	udiv	r1, r3, r5
 8000f42:	3230      	adds	r2, #48	; 0x30
 8000f44:	f88d 2001 	strb.w	r2, [sp, #1]
 8000f48:	fbb1 f2f5 	udiv	r2, r1, r5
 8000f4c:	fb05 3311 	mls	r3, r5, r1, r3
 8000f50:	fb05 1212 	mls	r2, r5, r2, r1
 8000f54:	3330      	adds	r3, #48	; 0x30
 8000f56:	3230      	adds	r2, #48	; 0x30
 8000f58:	3601      	adds	r6, #1
 8000f5a:	f88d 2002 	strb.w	r2, [sp, #2]
 8000f5e:	f88d 3003 	strb.w	r3, [sp, #3]
 8000f62:	f88d 5004 	strb.w	r5, [sp, #4]
 8000f66:	f001 fad7 	bl	8002518 <Write_File>
 8000f6a:	2e14      	cmp	r6, #20
 8000f6c:	d1d9      	bne.n	8000f22 <StartSD+0x6a>
 8000f6e:	6838      	ldr	r0, [r7, #0]
 8000f70:	f005 fe03 	bl	8006b7a <osMutexRelease>
 8000f74:	7823      	ldrb	r3, [r4, #0]
 8000f76:	079b      	lsls	r3, r3, #30
 8000f78:	d519      	bpl.n	8000fae <StartSD+0xf6>
 8000f7a:	7823      	ldrb	r3, [r4, #0]
 8000f7c:	f003 03fd 	and.w	r3, r3, #253	; 0xfd
 8000f80:	7023      	strb	r3, [r4, #0]
 8000f82:	f001 fa6f 	bl	8002464 <Close_File>
 8000f86:	2064      	movs	r0, #100	; 0x64
 8000f88:	f005 fdc3 	bl	8006b12 <osDelay>
 8000f8c:	480b      	ldr	r0, [pc, #44]	; (8000fbc <StartSD+0x104>)
 8000f8e:	f000 fb0b 	bl	80015a8 <HAL_SPI_MspDeInit>
 8000f92:	2200      	movs	r2, #0
 8000f94:	2110      	movs	r1, #16
 8000f96:	4640      	mov	r0, r8
 8000f98:	f002 f8d8 	bl	800314c <HAL_GPIO_WritePin>
 8000f9c:	f44f 707a 	mov.w	r0, #1000	; 0x3e8
 8000fa0:	f005 fdb7 	bl	8006b12 <osDelay>
 8000fa4:	2203      	movs	r2, #3
 8000fa6:	490b      	ldr	r1, [pc, #44]	; (8000fd4 <StartSD+0x11c>)
 8000fa8:	480b      	ldr	r0, [pc, #44]	; (8000fd8 <StartSD+0x120>)
 8000faa:	f004 f997 	bl	80052dc <HAL_UART_Transmit_DMA>
 8000fae:	2001      	movs	r0, #1
 8000fb0:	f005 fdaf 	bl	8006b12 <osDelay>
 8000fb4:	e78f      	b.n	8000ed6 <StartSD+0x1e>
 8000fb6:	bf00      	nop
 8000fb8:	08008bf7 	.word	0x08008bf7
 8000fbc:	20000544 	.word	0x20000544
 8000fc0:	200003f0 	.word	0x200003f0
 8000fc4:	40010800 	.word	0x40010800
 8000fc8:	08008bf2 	.word	0x08008bf2
 8000fcc:	20000328 	.word	0x20000328
 8000fd0:	200003c8 	.word	0x200003c8
 8000fd4:	08008bf9 	.word	0x08008bf9
 8000fd8:	2000059c 	.word	0x2000059c

08000fdc <SystemClock_Config>:
 8000fdc:	b510      	push	{r4, lr}
 8000fde:	b094      	sub	sp, #80	; 0x50
 8000fe0:	2214      	movs	r2, #20
 8000fe2:	2100      	movs	r1, #0
 8000fe4:	a80c      	add	r0, sp, #48	; 0x30
 8000fe6:	f007 f92d 	bl	8008244 <memset>
 8000fea:	2214      	movs	r2, #20
 8000fec:	2100      	movs	r1, #0
 8000fee:	eb0d 0002 	add.w	r0, sp, r2
 8000ff2:	f007 f927 	bl	8008244 <memset>
 8000ff6:	2210      	movs	r2, #16
 8000ff8:	2100      	movs	r1, #0
 8000ffa:	a801      	add	r0, sp, #4
 8000ffc:	f007 f922 	bl	8008244 <memset>
 8001000:	2402      	movs	r4, #2
 8001002:	f44f 3380 	mov.w	r3, #65536	; 0x10000
 8001006:	2201      	movs	r2, #1
 8001008:	e9cd 4311 	strd	r4, r3, [sp, #68]	; 0x44
 800100c:	e9cd 230a 	strd	r2, r3, [sp, #40]	; 0x28
 8001010:	f44f 13e0 	mov.w	r3, #1835008	; 0x1c0000
 8001014:	a80a      	add	r0, sp, #40	; 0x28
 8001016:	920e      	str	r2, [sp, #56]	; 0x38
 8001018:	9313      	str	r3, [sp, #76]	; 0x4c
 800101a:	f003 fa4b 	bl	80044b4 <HAL_RCC_OscConfig>
 800101e:	b108      	cbz	r0, 8001024 <SystemClock_Config+0x48>
 8001020:	b672      	cpsid	i
 8001022:	e7fe      	b.n	8001022 <SystemClock_Config+0x46>
 8001024:	230f      	movs	r3, #15
 8001026:	e9cd 3405 	strd	r3, r4, [sp, #20]
 800102a:	f44f 6380 	mov.w	r3, #1024	; 0x400
 800102e:	9007      	str	r0, [sp, #28]
 8001030:	e9cd 3008 	strd	r3, r0, [sp, #32]
 8001034:	4621      	mov	r1, r4
 8001036:	a805      	add	r0, sp, #20
 8001038:	f003 fbfe 	bl	8004838 <HAL_RCC_ClockConfig>
 800103c:	b108      	cbz	r0, 8001042 <SystemClock_Config+0x66>
 800103e:	b672      	cpsid	i
 8001040:	e7fe      	b.n	8001040 <SystemClock_Config+0x64>
 8001042:	f44f 4300 	mov.w	r3, #32768	; 0x8000
 8001046:	a801      	add	r0, sp, #4
 8001048:	9401      	str	r4, [sp, #4]
 800104a:	9303      	str	r3, [sp, #12]
 800104c:	f003 fcb0 	bl	80049b0 <HAL_RCCEx_PeriphCLKConfig>
 8001050:	b108      	cbz	r0, 8001056 <SystemClock_Config+0x7a>
 8001052:	b672      	cpsid	i
 8001054:	e7fe      	b.n	8001054 <SystemClock_Config+0x78>
 8001056:	b014      	add	sp, #80	; 0x50
 8001058:	bd10      	pop	{r4, pc}
	...

0800105c <main>:
 800105c:	2610      	movs	r6, #16
 800105e:	b580      	push	{r7, lr}
 8001060:	4c8a      	ldr	r4, [pc, #552]	; (800128c <main+0x230>)
 8001062:	b096      	sub	sp, #88	; 0x58
 8001064:	f001 faae 	bl	80025c4 <HAL_Init>
 8001068:	f7ff ffb8 	bl	8000fdc <SystemClock_Config>
 800106c:	4632      	mov	r2, r6
 800106e:	2100      	movs	r1, #0
 8001070:	a80f      	add	r0, sp, #60	; 0x3c
 8001072:	f007 f8e7 	bl	8008244 <memset>
 8001076:	69a3      	ldr	r3, [r4, #24]
 8001078:	2200      	movs	r2, #0
 800107a:	4333      	orrs	r3, r6
 800107c:	61a3      	str	r3, [r4, #24]
 800107e:	69a3      	ldr	r3, [r4, #24]
 8001080:	f44f 5100 	mov.w	r1, #8192	; 0x2000
 8001084:	4033      	ands	r3, r6
 8001086:	9302      	str	r3, [sp, #8]
 8001088:	9b02      	ldr	r3, [sp, #8]
 800108a:	69a3      	ldr	r3, [r4, #24]
 800108c:	4880      	ldr	r0, [pc, #512]	; (8001290 <main+0x234>)
 800108e:	f043 0320 	orr.w	r3, r3, #32
 8001092:	61a3      	str	r3, [r4, #24]
 8001094:	69a3      	ldr	r3, [r4, #24]
 8001096:	2701      	movs	r7, #1
 8001098:	f003 0320 	and.w	r3, r3, #32
 800109c:	9303      	str	r3, [sp, #12]
 800109e:	9b03      	ldr	r3, [sp, #12]
 80010a0:	69a3      	ldr	r3, [r4, #24]
 80010a2:	f04f 0802 	mov.w	r8, #2
 80010a6:	f043 0304 	orr.w	r3, r3, #4
 80010aa:	61a3      	str	r3, [r4, #24]
 80010ac:	69a3      	ldr	r3, [r4, #24]
 80010ae:	2500      	movs	r5, #0
 80010b0:	f003 0304 	and.w	r3, r3, #4
 80010b4:	9304      	str	r3, [sp, #16]
 80010b6:	9b04      	ldr	r3, [sp, #16]
 80010b8:	69a3      	ldr	r3, [r4, #24]
 80010ba:	f043 0308 	orr.w	r3, r3, #8
 80010be:	61a3      	str	r3, [r4, #24]
 80010c0:	69a3      	ldr	r3, [r4, #24]
 80010c2:	f003 0308 	and.w	r3, r3, #8
 80010c6:	9305      	str	r3, [sp, #20]
 80010c8:	9b05      	ldr	r3, [sp, #20]
 80010ca:	f002 f83f 	bl	800314c <HAL_GPIO_WritePin>
 80010ce:	2200      	movs	r2, #0
 80010d0:	4631      	mov	r1, r6
 80010d2:	4870      	ldr	r0, [pc, #448]	; (8001294 <main+0x238>)
 80010d4:	f002 f83a 	bl	800314c <HAL_GPIO_WritePin>
 80010d8:	2201      	movs	r2, #1
 80010da:	2102      	movs	r1, #2
 80010dc:	486e      	ldr	r0, [pc, #440]	; (8001298 <main+0x23c>)
 80010de:	f002 f835 	bl	800314c <HAL_GPIO_WritePin>
 80010e2:	f44f 5300 	mov.w	r3, #8192	; 0x2000
 80010e6:	486a      	ldr	r0, [pc, #424]	; (8001290 <main+0x234>)
 80010e8:	a90f      	add	r1, sp, #60	; 0x3c
 80010ea:	e9cd 370f 	strd	r3, r7, [sp, #60]	; 0x3c
 80010ee:	9711      	str	r7, [sp, #68]	; 0x44
 80010f0:	f8cd 8048 	str.w	r8, [sp, #72]	; 0x48
 80010f4:	f001 fee2 	bl	8002ebc <HAL_GPIO_Init>
 80010f8:	4866      	ldr	r0, [pc, #408]	; (8001294 <main+0x238>)
 80010fa:	a90f      	add	r1, sp, #60	; 0x3c
 80010fc:	e9cd 670f 	strd	r6, r7, [sp, #60]	; 0x3c
 8001100:	e9cd 5811 	strd	r5, r8, [sp, #68]	; 0x44
 8001104:	f001 feda 	bl	8002ebc <HAL_GPIO_Init>
 8001108:	2303      	movs	r3, #3
 800110a:	4863      	ldr	r0, [pc, #396]	; (8001298 <main+0x23c>)
 800110c:	a90f      	add	r1, sp, #60	; 0x3c
 800110e:	9312      	str	r3, [sp, #72]	; 0x48
 8001110:	e9cd 870f 	strd	r8, r7, [sp, #60]	; 0x3c
 8001114:	f8cd 8044 	str.w	r8, [sp, #68]	; 0x44
 8001118:	f001 fed0 	bl	8002ebc <HAL_GPIO_Init>
 800111c:	f44f 4c60 	mov.w	ip, #57344	; 0xe000
 8001120:	4b5e      	ldr	r3, [pc, #376]	; (800129c <main+0x240>)
 8001122:	485d      	ldr	r0, [pc, #372]	; (8001298 <main+0x23c>)
 8001124:	a90f      	add	r1, sp, #60	; 0x3c
 8001126:	e9cd c30f 	strd	ip, r3, [sp, #60]	; 0x3c
 800112a:	9711      	str	r7, [sp, #68]	; 0x44
 800112c:	f001 fec6 	bl	8002ebc <HAL_GPIO_Init>
 8001130:	462a      	mov	r2, r5
 8001132:	2105      	movs	r1, #5
 8001134:	2028      	movs	r0, #40	; 0x28
 8001136:	f001 fcc3 	bl	8002ac0 <HAL_NVIC_SetPriority>
 800113a:	2028      	movs	r0, #40	; 0x28
 800113c:	f001 fcf0 	bl	8002b20 <HAL_NVIC_EnableIRQ>
 8001140:	6963      	ldr	r3, [r4, #20]
 8001142:	462a      	mov	r2, r5
 8001144:	433b      	orrs	r3, r7
 8001146:	6163      	str	r3, [r4, #20]
 8001148:	6963      	ldr	r3, [r4, #20]
 800114a:	2105      	movs	r1, #5
 800114c:	403b      	ands	r3, r7
 800114e:	200b      	movs	r0, #11
 8001150:	9301      	str	r3, [sp, #4]
 8001152:	9b01      	ldr	r3, [sp, #4]
 8001154:	f001 fcb4 	bl	8002ac0 <HAL_NVIC_SetPriority>
 8001158:	200b      	movs	r0, #11
 800115a:	f001 fce1 	bl	8002b20 <HAL_NVIC_EnableIRQ>
 800115e:	462a      	mov	r2, r5
 8001160:	2105      	movs	r1, #5
 8001162:	200e      	movs	r0, #14
 8001164:	f001 fcac 	bl	8002ac0 <HAL_NVIC_SetPriority>
 8001168:	200e      	movs	r0, #14
 800116a:	f001 fcd9 	bl	8002b20 <HAL_NVIC_EnableIRQ>
 800116e:	462a      	mov	r2, r5
 8001170:	2105      	movs	r1, #5
 8001172:	4630      	mov	r0, r6
 8001174:	f001 fca4 	bl	8002ac0 <HAL_NVIC_SetPriority>
 8001178:	4630      	mov	r0, r6
 800117a:	f001 fcd1 	bl	8002b20 <HAL_NVIC_EnableIRQ>
 800117e:	4c48      	ldr	r4, [pc, #288]	; (80012a0 <main+0x244>)
 8001180:	4b48      	ldr	r3, [pc, #288]	; (80012a4 <main+0x248>)
 8001182:	4620      	mov	r0, r4
 8001184:	6023      	str	r3, [r4, #0]
 8001186:	f44f 2360 	mov.w	r3, #917504	; 0xe0000
 800118a:	e9cd 550f 	strd	r5, r5, [sp, #60]	; 0x3c
 800118e:	9511      	str	r5, [sp, #68]	; 0x44
 8001190:	60a5      	str	r5, [r4, #8]
 8001192:	7325      	strb	r5, [r4, #12]
 8001194:	7525      	strb	r5, [r4, #20]
 8001196:	61e3      	str	r3, [r4, #28]
 8001198:	6065      	str	r5, [r4, #4]
 800119a:	6127      	str	r7, [r4, #16]
 800119c:	f001 fc00 	bl	80029a0 <HAL_ADC_Init>
 80011a0:	b108      	cbz	r0, 80011a6 <main+0x14a>
 80011a2:	b672      	cpsid	i
 80011a4:	e7fe      	b.n	80011a4 <main+0x148>
 80011a6:	e9cd 070f 	strd	r0, r7, [sp, #60]	; 0x3c
 80011aa:	9011      	str	r0, [sp, #68]	; 0x44
 80011ac:	a90f      	add	r1, sp, #60	; 0x3c
 80011ae:	4620      	mov	r0, r4
 80011b0:	f001 fa88 	bl	80026c4 <HAL_ADC_ConfigChannel>
 80011b4:	4603      	mov	r3, r0
 80011b6:	b108      	cbz	r0, 80011bc <main+0x160>
 80011b8:	b672      	cpsid	i
 80011ba:	e7fe      	b.n	80011ba <main+0x15e>
 80011bc:	483a      	ldr	r0, [pc, #232]	; (80012a8 <main+0x24c>)
 80011be:	4a3b      	ldr	r2, [pc, #236]	; (80012ac <main+0x250>)
 80011c0:	4d3b      	ldr	r5, [pc, #236]	; (80012b0 <main+0x254>)
 80011c2:	e9c0 3302 	strd	r3, r3, [r0, #8]
 80011c6:	e9c0 5200 	strd	r5, r2, [r0]
 80011ca:	f44f 4280 	mov.w	r2, #16384	; 0x4000
 80011ce:	e9c0 3306 	strd	r3, r3, [r0, #24]
 80011d2:	e9c0 2304 	strd	r2, r3, [r0, #16]
 80011d6:	6203      	str	r3, [r0, #32]
 80011d8:	f002 f8e8 	bl	80033ac <HAL_I2C_Init>
 80011dc:	4603      	mov	r3, r0
 80011de:	b108      	cbz	r0, 80011e4 <main+0x188>
 80011e0:	b672      	cpsid	i
 80011e2:	e7fe      	b.n	80011e2 <main+0x186>
 80011e4:	f44f 32e1 	mov.w	r2, #115200	; 0x1c200
 80011e8:	4832      	ldr	r0, [pc, #200]	; (80012b4 <main+0x258>)
 80011ea:	4c33      	ldr	r4, [pc, #204]	; (80012b8 <main+0x25c>)
 80011ec:	e9c0 3302 	strd	r3, r3, [r0, #8]
 80011f0:	e9c0 4200 	strd	r4, r2, [r0]
 80011f4:	220c      	movs	r2, #12
 80011f6:	6103      	str	r3, [r0, #16]
 80011f8:	e9c0 2305 	strd	r2, r3, [r0, #20]
 80011fc:	61c3      	str	r3, [r0, #28]
 80011fe:	f003 ffcf 	bl	80051a0 <HAL_UART_Init>
 8001202:	4603      	mov	r3, r0
 8001204:	b108      	cbz	r0, 800120a <main+0x1ae>
 8001206:	b672      	cpsid	i
 8001208:	e7fe      	b.n	8001208 <main+0x1ac>
 800120a:	f44f 7282 	mov.w	r2, #260	; 0x104
 800120e:	482b      	ldr	r0, [pc, #172]	; (80012bc <main+0x260>)
 8001210:	492b      	ldr	r1, [pc, #172]	; (80012c0 <main+0x264>)
 8001212:	e9c0 3302 	strd	r3, r3, [r0, #8]
 8001216:	e9c0 1200 	strd	r1, r2, [r0]
 800121a:	e9c0 3304 	strd	r3, r3, [r0, #16]
 800121e:	f44f 7200 	mov.w	r2, #512	; 0x200
 8001222:	e9c0 3308 	strd	r3, r3, [r0, #32]
 8001226:	6283      	str	r3, [r0, #40]	; 0x28
 8001228:	230a      	movs	r3, #10
 800122a:	e9c0 2606 	strd	r2, r6, [r0, #24]
 800122e:	62c3      	str	r3, [r0, #44]	; 0x2c
 8001230:	f003 fc9c 	bl	8004b6c <HAL_SPI_Init>
 8001234:	4606      	mov	r6, r0
 8001236:	b108      	cbz	r0, 800123c <main+0x1e0>
 8001238:	b672      	cpsid	i
 800123a:	e7fe      	b.n	800123a <main+0x1de>
 800123c:	f004 fa92 	bl	8005764 <MX_FATFS_Init>
 8001240:	a806      	add	r0, sp, #24
 8001242:	e9cd 6606 	strd	r6, r6, [sp, #24]
 8001246:	f005 fc6c 	bl	8006b22 <osMutexCreate>
 800124a:	4c1e      	ldr	r4, [pc, #120]	; (80012c4 <main+0x268>)
 800124c:	4b1e      	ldr	r3, [pc, #120]	; (80012c8 <main+0x26c>)
 800124e:	ad08      	add	r5, sp, #32
 8001250:	6018      	str	r0, [r3, #0]
 8001252:	cc0f      	ldmia	r4!, {r0, r1, r2, r3}
 8001254:	c50f      	stmia	r5!, {r0, r1, r2, r3}
 8001256:	e894 0007 	ldmia.w	r4, {r0, r1, r2}
 800125a:	e885 0007 	stmia.w	r5, {r0, r1, r2}
 800125e:	4631      	mov	r1, r6
 8001260:	a808      	add	r0, sp, #32
 8001262:	f005 fc2e 	bl	8006ac2 <osThreadCreate>
 8001266:	4b19      	ldr	r3, [pc, #100]	; (80012cc <main+0x270>)
 8001268:	ad0f      	add	r5, sp, #60	; 0x3c
 800126a:	340c      	adds	r4, #12
 800126c:	6018      	str	r0, [r3, #0]
 800126e:	cc0f      	ldmia	r4!, {r0, r1, r2, r3}
 8001270:	c50f      	stmia	r5!, {r0, r1, r2, r3}
 8001272:	e894 0007 	ldmia.w	r4, {r0, r1, r2}
 8001276:	e885 0007 	stmia.w	r5, {r0, r1, r2}
 800127a:	4631      	mov	r1, r6
 800127c:	a80f      	add	r0, sp, #60	; 0x3c
 800127e:	f005 fc20 	bl	8006ac2 <osThreadCreate>
 8001282:	4b13      	ldr	r3, [pc, #76]	; (80012d0 <main+0x274>)
 8001284:	6018      	str	r0, [r3, #0]
 8001286:	f005 fc17 	bl	8006ab8 <osKernelStart>
 800128a:	e7fe      	b.n	800128a <main+0x22e>
 800128c:	40021000 	.word	0x40021000
 8001290:	40011000 	.word	0x40011000
 8001294:	40010800 	.word	0x40010800
 8001298:	40010c00 	.word	0x40010c00
 800129c:	10210000 	.word	0x10210000
 80012a0:	200003f4 	.word	0x200003f4
 80012a4:	40012400 	.word	0x40012400
 80012a8:	200004f0 	.word	0x200004f0
 80012ac:	00061a80 	.word	0x00061a80
 80012b0:	40005400 	.word	0x40005400
 80012b4:	2000059c 	.word	0x2000059c
 80012b8:	40013800 	.word	0x40013800
 80012bc:	20000544 	.word	0x20000544
 80012c0:	40013000 	.word	0x40013000
 80012c4:	08008b6c 	.word	0x08008b6c
 80012c8:	20000328 	.word	0x20000328
 80012cc:	20000324 	.word	0x20000324
 80012d0:	2000032c 	.word	0x2000032c

080012d4 <HAL_GPIO_EXTI_Callback>:
 80012d4:	2200      	movs	r2, #0
 80012d6:	b538      	push	{r3, r4, r5, lr}
 80012d8:	4b26      	ldr	r3, [pc, #152]	; (8001374 <HAL_GPIO_EXTI_Callback+0xa0>)
 80012da:	4605      	mov	r5, r0
 80012dc:	801a      	strh	r2, [r3, #0]
 80012de:	f001 f9ae 	bl	800263e <HAL_ResumeTick>
 80012e2:	f001 f98d 	bl	8002600 <HAL_GetTick>
 80012e6:	4c24      	ldr	r4, [pc, #144]	; (8001378 <HAL_GPIO_EXTI_Callback+0xa4>)
 80012e8:	4a24      	ldr	r2, [pc, #144]	; (800137c <HAL_GPIO_EXTI_Callback+0xa8>)
 80012ea:	6020      	str	r0, [r4, #0]
 80012ec:	7813      	ldrb	r3, [r2, #0]
 80012ee:	f5b5 4f80 	cmp.w	r5, #16384	; 0x4000
 80012f2:	f043 0301 	orr.w	r3, r3, #1
 80012f6:	7013      	strb	r3, [r2, #0]
 80012f8:	d122      	bne.n	8001340 <HAL_GPIO_EXTI_Callback+0x6c>
 80012fa:	4d21      	ldr	r5, [pc, #132]	; (8001380 <HAL_GPIO_EXTI_Callback+0xac>)
 80012fc:	6823      	ldr	r3, [r4, #0]
 80012fe:	682a      	ldr	r2, [r5, #0]
 8001300:	1a9b      	subs	r3, r3, r2
 8001302:	2b02      	cmp	r3, #2
 8001304:	d915      	bls.n	8001332 <HAL_GPIO_EXTI_Callback+0x5e>
 8001306:	b672      	cpsid	i
 8001308:	f000 ff7e 	bl	8002208 <ssd1306_Clear>
 800130c:	4a1d      	ldr	r2, [pc, #116]	; (8001384 <HAL_GPIO_EXTI_Callback+0xb0>)
 800130e:	7813      	ldrb	r3, [r2, #0]
 8001310:	2b01      	cmp	r3, #1
 8001312:	4b1d      	ldr	r3, [pc, #116]	; (8001388 <HAL_GPIO_EXTI_Callback+0xb4>)
 8001314:	d80e      	bhi.n	8001334 <HAL_GPIO_EXTI_Callback+0x60>
 8001316:	7899      	ldrb	r1, [r3, #2]
 8001318:	2903      	cmp	r1, #3
 800131a:	d80b      	bhi.n	8001334 <HAL_GPIO_EXTI_Callback+0x60>
 800131c:	7813      	ldrb	r3, [r2, #0]
 800131e:	3301      	adds	r3, #1
 8001320:	b2db      	uxtb	r3, r3
 8001322:	7013      	strb	r3, [r2, #0]
 8001324:	f000 ff70 	bl	8002208 <ssd1306_Clear>
 8001328:	6823      	ldr	r3, [r4, #0]
 800132a:	602b      	str	r3, [r5, #0]
 800132c:	f000 ff6c 	bl	8002208 <ssd1306_Clear>
 8001330:	b662      	cpsie	i
 8001332:	bd38      	pop	{r3, r4, r5, pc}
 8001334:	789b      	ldrb	r3, [r3, #2]
 8001336:	2b04      	cmp	r3, #4
 8001338:	d1f6      	bne.n	8001328 <HAL_GPIO_EXTI_Callback+0x54>
 800133a:	2300      	movs	r3, #0
 800133c:	7013      	strb	r3, [r2, #0]
 800133e:	e7f3      	b.n	8001328 <HAL_GPIO_EXTI_Callback+0x54>
 8001340:	f5b5 4f00 	cmp.w	r5, #32768	; 0x8000
 8001344:	d1f5      	bne.n	8001332 <HAL_GPIO_EXTI_Callback+0x5e>
 8001346:	4d0e      	ldr	r5, [pc, #56]	; (8001380 <HAL_GPIO_EXTI_Callback+0xac>)
 8001348:	6823      	ldr	r3, [r4, #0]
 800134a:	682a      	ldr	r2, [r5, #0]
 800134c:	1a9b      	subs	r3, r3, r2
 800134e:	2b02      	cmp	r3, #2
 8001350:	d9ef      	bls.n	8001332 <HAL_GPIO_EXTI_Callback+0x5e>
 8001352:	b672      	cpsid	i
 8001354:	f000 ff58 	bl	8002208 <ssd1306_Clear>
 8001358:	4a0a      	ldr	r2, [pc, #40]	; (8001384 <HAL_GPIO_EXTI_Callback+0xb0>)
 800135a:	480b      	ldr	r0, [pc, #44]	; (8001388 <HAL_GPIO_EXTI_Callback+0xb4>)
 800135c:	7813      	ldrb	r3, [r2, #0]
 800135e:	2b01      	cmp	r3, #1
 8001360:	bf81      	itttt	hi
 8001362:	7813      	ldrbhi	r3, [r2, #0]
 8001364:	f103 33ff 	addhi.w	r3, r3, #4294967295
 8001368:	b2db      	uxtbhi	r3, r3
 800136a:	7013      	strbhi	r3, [r2, #0]
 800136c:	f000 fe86 	bl	800207c <menu_button_plus>
 8001370:	e7da      	b.n	8001328 <HAL_GPIO_EXTI_Callback+0x54>
 8001372:	bf00      	nop
 8001374:	200005ec 	.word	0x200005ec
 8001378:	20000330 	.word	0x20000330
 800137c:	2000000c 	.word	0x2000000c
 8001380:	200005e8 	.word	0x200005e8
 8001384:	200005e4 	.word	0x200005e4
 8001388:	200005fc 	.word	0x200005fc

0800138c <HAL_UART_ErrorCallback>:
 800138c:	f003 bf37 	b.w	80051fe <HAL_UART_DeInit>

08001390 <Error_Handler>:
 8001390:	b672      	cpsid	i
 8001392:	e7fe      	b.n	8001392 <Error_Handler+0x2>

08001394 <HAL_MspInit>:
 8001394:	4b11      	ldr	r3, [pc, #68]	; (80013dc <HAL_MspInit+0x48>)
 8001396:	b507      	push	{r0, r1, r2, lr}
 8001398:	699a      	ldr	r2, [r3, #24]
 800139a:	210f      	movs	r1, #15
 800139c:	f042 0201 	orr.w	r2, r2, #1
 80013a0:	619a      	str	r2, [r3, #24]
 80013a2:	699a      	ldr	r2, [r3, #24]
 80013a4:	f06f 0001 	mvn.w	r0, #1
 80013a8:	f002 0201 	and.w	r2, r2, #1
 80013ac:	9200      	str	r2, [sp, #0]
 80013ae:	9a00      	ldr	r2, [sp, #0]
 80013b0:	69da      	ldr	r2, [r3, #28]
 80013b2:	f042 5280 	orr.w	r2, r2, #268435456	; 0x10000000
 80013b6:	61da      	str	r2, [r3, #28]
 80013b8:	69db      	ldr	r3, [r3, #28]
 80013ba:	2200      	movs	r2, #0
 80013bc:	f003 5380 	and.w	r3, r3, #268435456	; 0x10000000
 80013c0:	9301      	str	r3, [sp, #4]
 80013c2:	9b01      	ldr	r3, [sp, #4]
 80013c4:	f001 fb7c 	bl	8002ac0 <HAL_NVIC_SetPriority>
 80013c8:	4a05      	ldr	r2, [pc, #20]	; (80013e0 <HAL_MspInit+0x4c>)
 80013ca:	6853      	ldr	r3, [r2, #4]
 80013cc:	f023 63e0 	bic.w	r3, r3, #117440512	; 0x7000000
 80013d0:	f043 7300 	orr.w	r3, r3, #33554432	; 0x2000000
 80013d4:	6053      	str	r3, [r2, #4]
 80013d6:	b003      	add	sp, #12
 80013d8:	f85d fb04 	ldr.w	pc, [sp], #4
 80013dc:	40021000 	.word	0x40021000
 80013e0:	40010000 	.word	0x40010000

080013e4 <HAL_ADC_MspInit>:
 80013e4:	b530      	push	{r4, r5, lr}
 80013e6:	4605      	mov	r5, r0
 80013e8:	b087      	sub	sp, #28
 80013ea:	2210      	movs	r2, #16
 80013ec:	2100      	movs	r1, #0
 80013ee:	a802      	add	r0, sp, #8
 80013f0:	f006 ff28 	bl	8008244 <memset>
 80013f4:	682a      	ldr	r2, [r5, #0]
 80013f6:	4b1d      	ldr	r3, [pc, #116]	; (800146c <HAL_ADC_MspInit+0x88>)
 80013f8:	429a      	cmp	r2, r3
 80013fa:	d135      	bne.n	8001468 <HAL_ADC_MspInit+0x84>
 80013fc:	f503 436c 	add.w	r3, r3, #60416	; 0xec00
 8001400:	699a      	ldr	r2, [r3, #24]
 8001402:	481b      	ldr	r0, [pc, #108]	; (8001470 <HAL_ADC_MspInit+0x8c>)
 8001404:	f442 7200 	orr.w	r2, r2, #512	; 0x200
 8001408:	619a      	str	r2, [r3, #24]
 800140a:	699a      	ldr	r2, [r3, #24]
 800140c:	a902      	add	r1, sp, #8
 800140e:	f402 7200 	and.w	r2, r2, #512	; 0x200
 8001412:	9200      	str	r2, [sp, #0]
 8001414:	9a00      	ldr	r2, [sp, #0]
 8001416:	699a      	ldr	r2, [r3, #24]
 8001418:	4c16      	ldr	r4, [pc, #88]	; (8001474 <HAL_ADC_MspInit+0x90>)
 800141a:	f042 0204 	orr.w	r2, r2, #4
 800141e:	619a      	str	r2, [r3, #24]
 8001420:	699b      	ldr	r3, [r3, #24]
 8001422:	2201      	movs	r2, #1
 8001424:	f003 0304 	and.w	r3, r3, #4
 8001428:	9301      	str	r3, [sp, #4]
 800142a:	9b01      	ldr	r3, [sp, #4]
 800142c:	2303      	movs	r3, #3
 800142e:	e9cd 2302 	strd	r2, r3, [sp, #8]
 8001432:	f001 fd43 	bl	8002ebc <HAL_GPIO_Init>
 8001436:	2080      	movs	r0, #128	; 0x80
 8001438:	f44f 7280 	mov.w	r2, #256	; 0x100
 800143c:	2300      	movs	r3, #0
 800143e:	e9c4 0203 	strd	r0, r2, [r4, #12]
 8001442:	f44f 6280 	mov.w	r2, #1024	; 0x400
 8001446:	490c      	ldr	r1, [pc, #48]	; (8001478 <HAL_ADC_MspInit+0x94>)
 8001448:	e9c4 2305 	strd	r2, r3, [r4, #20]
 800144c:	e9c4 1300 	strd	r1, r3, [r4]
 8001450:	60a3      	str	r3, [r4, #8]
 8001452:	f44f 5340 	mov.w	r3, #12288	; 0x3000
 8001456:	4620      	mov	r0, r4
 8001458:	61e3      	str	r3, [r4, #28]
 800145a:	f001 fb95 	bl	8002b88 <HAL_DMA_Init>
 800145e:	b108      	cbz	r0, 8001464 <HAL_ADC_MspInit+0x80>
 8001460:	f7ff ff96 	bl	8001390 <Error_Handler>
 8001464:	622c      	str	r4, [r5, #32]
 8001466:	6265      	str	r5, [r4, #36]	; 0x24
 8001468:	b007      	add	sp, #28
 800146a:	bd30      	pop	{r4, r5, pc}
 800146c:	40012400 	.word	0x40012400
 8001470:	40010800 	.word	0x40010800
 8001474:	20000424 	.word	0x20000424
 8001478:	40020008 	.word	0x40020008

0800147c <HAL_I2C_MspInit>:
 800147c:	b570      	push	{r4, r5, r6, lr}
 800147e:	2610      	movs	r6, #16
 8001480:	4605      	mov	r5, r0
 8001482:	b086      	sub	sp, #24
 8001484:	4632      	mov	r2, r6
 8001486:	2100      	movs	r1, #0
 8001488:	a802      	add	r0, sp, #8
 800148a:	f006 fedb 	bl	8008244 <memset>
 800148e:	682a      	ldr	r2, [r5, #0]
 8001490:	4b1f      	ldr	r3, [pc, #124]	; (8001510 <HAL_I2C_MspInit+0x94>)
 8001492:	429a      	cmp	r2, r3
 8001494:	d13a      	bne.n	800150c <HAL_I2C_MspInit+0x90>
 8001496:	4c1f      	ldr	r4, [pc, #124]	; (8001514 <HAL_I2C_MspInit+0x98>)
 8001498:	22c0      	movs	r2, #192	; 0xc0
 800149a:	69a3      	ldr	r3, [r4, #24]
 800149c:	481e      	ldr	r0, [pc, #120]	; (8001518 <HAL_I2C_MspInit+0x9c>)
 800149e:	f043 0308 	orr.w	r3, r3, #8
 80014a2:	61a3      	str	r3, [r4, #24]
 80014a4:	69a3      	ldr	r3, [r4, #24]
 80014a6:	a902      	add	r1, sp, #8
 80014a8:	f003 0308 	and.w	r3, r3, #8
 80014ac:	9300      	str	r3, [sp, #0]
 80014ae:	9b00      	ldr	r3, [sp, #0]
 80014b0:	2312      	movs	r3, #18
 80014b2:	e9cd 2302 	strd	r2, r3, [sp, #8]
 80014b6:	2303      	movs	r3, #3
 80014b8:	9305      	str	r3, [sp, #20]
 80014ba:	f001 fcff 	bl	8002ebc <HAL_GPIO_Init>
 80014be:	69e3      	ldr	r3, [r4, #28]
 80014c0:	2280      	movs	r2, #128	; 0x80
 80014c2:	f443 1300 	orr.w	r3, r3, #2097152	; 0x200000
 80014c6:	61e3      	str	r3, [r4, #28]
 80014c8:	69e3      	ldr	r3, [r4, #28]
 80014ca:	4c14      	ldr	r4, [pc, #80]	; (800151c <HAL_I2C_MspInit+0xa0>)
 80014cc:	f403 1300 	and.w	r3, r3, #2097152	; 0x200000
 80014d0:	9301      	str	r3, [sp, #4]
 80014d2:	9b01      	ldr	r3, [sp, #4]
 80014d4:	4b12      	ldr	r3, [pc, #72]	; (8001520 <HAL_I2C_MspInit+0xa4>)
 80014d6:	4620      	mov	r0, r4
 80014d8:	e9c4 3600 	strd	r3, r6, [r4]
 80014dc:	2300      	movs	r3, #0
 80014de:	e9c4 3202 	strd	r3, r2, [r4, #8]
 80014e2:	e9c4 3304 	strd	r3, r3, [r4, #16]
 80014e6:	61a3      	str	r3, [r4, #24]
 80014e8:	f44f 5380 	mov.w	r3, #4096	; 0x1000
 80014ec:	61e3      	str	r3, [r4, #28]
 80014ee:	f001 fb4b 	bl	8002b88 <HAL_DMA_Init>
 80014f2:	b108      	cbz	r0, 80014f8 <HAL_I2C_MspInit+0x7c>
 80014f4:	f7ff ff4c 	bl	8001390 <Error_Handler>
 80014f8:	201f      	movs	r0, #31
 80014fa:	2200      	movs	r2, #0
 80014fc:	2105      	movs	r1, #5
 80014fe:	636c      	str	r4, [r5, #52]	; 0x34
 8001500:	6265      	str	r5, [r4, #36]	; 0x24
 8001502:	f001 fadd 	bl	8002ac0 <HAL_NVIC_SetPriority>
 8001506:	201f      	movs	r0, #31
 8001508:	f001 fb0a 	bl	8002b20 <HAL_NVIC_EnableIRQ>
 800150c:	b006      	add	sp, #24
 800150e:	bd70      	pop	{r4, r5, r6, pc}
 8001510:	40005400 	.word	0x40005400
 8001514:	40021000 	.word	0x40021000
 8001518:	40010c00 	.word	0x40010c00
 800151c:	20000468 	.word	0x20000468
 8001520:	4002006c 	.word	0x4002006c

08001524 <HAL_SPI_MspInit>:
 8001524:	b510      	push	{r4, lr}
 8001526:	4604      	mov	r4, r0
 8001528:	b086      	sub	sp, #24
 800152a:	2210      	movs	r2, #16
 800152c:	2100      	movs	r1, #0
 800152e:	a802      	add	r0, sp, #8
 8001530:	f006 fe88 	bl	8008244 <memset>
 8001534:	6822      	ldr	r2, [r4, #0]
 8001536:	4b1a      	ldr	r3, [pc, #104]	; (80015a0 <HAL_SPI_MspInit+0x7c>)
 8001538:	429a      	cmp	r2, r3
 800153a:	d12e      	bne.n	800159a <HAL_SPI_MspInit+0x76>
 800153c:	f503 4360 	add.w	r3, r3, #57344	; 0xe000
 8001540:	699a      	ldr	r2, [r3, #24]
 8001542:	4818      	ldr	r0, [pc, #96]	; (80015a4 <HAL_SPI_MspInit+0x80>)
 8001544:	f442 5280 	orr.w	r2, r2, #4096	; 0x1000
 8001548:	619a      	str	r2, [r3, #24]
 800154a:	699a      	ldr	r2, [r3, #24]
 800154c:	a902      	add	r1, sp, #8
 800154e:	f402 5280 	and.w	r2, r2, #4096	; 0x1000
 8001552:	9200      	str	r2, [sp, #0]
 8001554:	9a00      	ldr	r2, [sp, #0]
 8001556:	699a      	ldr	r2, [r3, #24]
 8001558:	2400      	movs	r4, #0
 800155a:	f042 0204 	orr.w	r2, r2, #4
 800155e:	619a      	str	r2, [r3, #24]
 8001560:	699b      	ldr	r3, [r3, #24]
 8001562:	22a0      	movs	r2, #160	; 0xa0
 8001564:	f003 0304 	and.w	r3, r3, #4
 8001568:	9301      	str	r3, [sp, #4]
 800156a:	9b01      	ldr	r3, [sp, #4]
 800156c:	2302      	movs	r3, #2
 800156e:	e9cd 2302 	strd	r2, r3, [sp, #8]
 8001572:	2303      	movs	r3, #3
 8001574:	9305      	str	r3, [sp, #20]
 8001576:	f001 fca1 	bl	8002ebc <HAL_GPIO_Init>
 800157a:	2340      	movs	r3, #64	; 0x40
 800157c:	4809      	ldr	r0, [pc, #36]	; (80015a4 <HAL_SPI_MspInit+0x80>)
 800157e:	a902      	add	r1, sp, #8
 8001580:	e9cd 3402 	strd	r3, r4, [sp, #8]
 8001584:	9404      	str	r4, [sp, #16]
 8001586:	f001 fc99 	bl	8002ebc <HAL_GPIO_Init>
 800158a:	2023      	movs	r0, #35	; 0x23
 800158c:	4622      	mov	r2, r4
 800158e:	2105      	movs	r1, #5
 8001590:	f001 fa96 	bl	8002ac0 <HAL_NVIC_SetPriority>
 8001594:	2023      	movs	r0, #35	; 0x23
 8001596:	f001 fac3 	bl	8002b20 <HAL_NVIC_EnableIRQ>
 800159a:	b006      	add	sp, #24
 800159c:	bd10      	pop	{r4, pc}
 800159e:	bf00      	nop
 80015a0:	40013000 	.word	0x40013000
 80015a4:	40010800 	.word	0x40010800

080015a8 <HAL_SPI_MspDeInit>:
 80015a8:	b508      	push	{r3, lr}
 80015aa:	6802      	ldr	r2, [r0, #0]
 80015ac:	4b08      	ldr	r3, [pc, #32]	; (80015d0 <HAL_SPI_MspDeInit+0x28>)
 80015ae:	429a      	cmp	r2, r3
 80015b0:	d10d      	bne.n	80015ce <HAL_SPI_MspDeInit+0x26>
 80015b2:	4a08      	ldr	r2, [pc, #32]	; (80015d4 <HAL_SPI_MspDeInit+0x2c>)
 80015b4:	4808      	ldr	r0, [pc, #32]	; (80015d8 <HAL_SPI_MspDeInit+0x30>)
 80015b6:	6993      	ldr	r3, [r2, #24]
 80015b8:	21e0      	movs	r1, #224	; 0xe0
 80015ba:	f423 5380 	bic.w	r3, r3, #4096	; 0x1000
 80015be:	6193      	str	r3, [r2, #24]
 80015c0:	f001 fd56 	bl	8003070 <HAL_GPIO_DeInit>
 80015c4:	e8bd 4008 	ldmia.w	sp!, {r3, lr}
 80015c8:	2023      	movs	r0, #35	; 0x23
 80015ca:	f001 bab7 	b.w	8002b3c <HAL_NVIC_DisableIRQ>
 80015ce:	bd08      	pop	{r3, pc}
 80015d0:	40013000 	.word	0x40013000
 80015d4:	40021000 	.word	0x40021000
 80015d8:	40010800 	.word	0x40010800

080015dc <HAL_UART_MspInit>:
 80015dc:	b5f0      	push	{r4, r5, r6, r7, lr}
 80015de:	2710      	movs	r7, #16
 80015e0:	4606      	mov	r6, r0
 80015e2:	b087      	sub	sp, #28
 80015e4:	463a      	mov	r2, r7
 80015e6:	2100      	movs	r1, #0
 80015e8:	a802      	add	r0, sp, #8
 80015ea:	f006 fe2b 	bl	8008244 <memset>
 80015ee:	6832      	ldr	r2, [r6, #0]
 80015f0:	4b25      	ldr	r3, [pc, #148]	; (8001688 <HAL_UART_MspInit+0xac>)
 80015f2:	429a      	cmp	r2, r3
 80015f4:	d145      	bne.n	8001682 <HAL_UART_MspInit+0xa6>
 80015f6:	f503 4358 	add.w	r3, r3, #55296	; 0xd800
 80015fa:	699a      	ldr	r2, [r3, #24]
 80015fc:	4823      	ldr	r0, [pc, #140]	; (800168c <HAL_UART_MspInit+0xb0>)
 80015fe:	f442 4280 	orr.w	r2, r2, #16384	; 0x4000
 8001602:	619a      	str	r2, [r3, #24]
 8001604:	699a      	ldr	r2, [r3, #24]
 8001606:	2500      	movs	r5, #0
 8001608:	f402 4280 	and.w	r2, r2, #16384	; 0x4000
 800160c:	9200      	str	r2, [sp, #0]
 800160e:	9a00      	ldr	r2, [sp, #0]
 8001610:	6999      	ldr	r1, [r3, #24]
 8001612:	f44f 7200 	mov.w	r2, #512	; 0x200
 8001616:	f041 0104 	orr.w	r1, r1, #4
 800161a:	6199      	str	r1, [r3, #24]
 800161c:	699b      	ldr	r3, [r3, #24]
 800161e:	a902      	add	r1, sp, #8
 8001620:	f003 0304 	and.w	r3, r3, #4
 8001624:	9301      	str	r3, [sp, #4]
 8001626:	9b01      	ldr	r3, [sp, #4]
 8001628:	2302      	movs	r3, #2
 800162a:	e9cd 2302 	strd	r2, r3, [sp, #8]
 800162e:	2303      	movs	r3, #3
 8001630:	9305      	str	r3, [sp, #20]
 8001632:	f001 fc43 	bl	8002ebc <HAL_GPIO_Init>
 8001636:	f44f 6380 	mov.w	r3, #1024	; 0x400
 800163a:	4814      	ldr	r0, [pc, #80]	; (800168c <HAL_UART_MspInit+0xb0>)
 800163c:	a902      	add	r1, sp, #8
 800163e:	4c14      	ldr	r4, [pc, #80]	; (8001690 <HAL_UART_MspInit+0xb4>)
 8001640:	e9cd 3502 	strd	r3, r5, [sp, #8]
 8001644:	9504      	str	r5, [sp, #16]
 8001646:	f001 fc39 	bl	8002ebc <HAL_GPIO_Init>
 800164a:	4b12      	ldr	r3, [pc, #72]	; (8001694 <HAL_UART_MspInit+0xb8>)
 800164c:	4620      	mov	r0, r4
 800164e:	e9c4 3700 	strd	r3, r7, [r4]
 8001652:	2380      	movs	r3, #128	; 0x80
 8001654:	e9c4 3503 	strd	r3, r5, [r4, #12]
 8001658:	f44f 5300 	mov.w	r3, #8192	; 0x2000
 800165c:	e9c4 5505 	strd	r5, r5, [r4, #20]
 8001660:	60a5      	str	r5, [r4, #8]
 8001662:	61e3      	str	r3, [r4, #28]
 8001664:	f001 fa90 	bl	8002b88 <HAL_DMA_Init>
 8001668:	b108      	cbz	r0, 800166e <HAL_UART_MspInit+0x92>
 800166a:	f7ff fe91 	bl	8001390 <Error_Handler>
 800166e:	2025      	movs	r0, #37	; 0x25
 8001670:	2200      	movs	r2, #0
 8001672:	2105      	movs	r1, #5
 8001674:	63b4      	str	r4, [r6, #56]	; 0x38
 8001676:	6266      	str	r6, [r4, #36]	; 0x24
 8001678:	f001 fa22 	bl	8002ac0 <HAL_NVIC_SetPriority>
 800167c:	2025      	movs	r0, #37	; 0x25
 800167e:	f001 fa4f 	bl	8002b20 <HAL_NVIC_EnableIRQ>
 8001682:	b007      	add	sp, #28
 8001684:	bdf0      	pop	{r4, r5, r6, r7, pc}
 8001686:	bf00      	nop
 8001688:	40013800 	.word	0x40013800
 800168c:	40010800 	.word	0x40010800
 8001690:	200004ac 	.word	0x200004ac
 8001694:	40020044 	.word	0x40020044

08001698 <HAL_UART_MspDeInit>:
 8001698:	6802      	ldr	r2, [r0, #0]
 800169a:	4b0c      	ldr	r3, [pc, #48]	; (80016cc <HAL_UART_MspDeInit+0x34>)
 800169c:	b510      	push	{r4, lr}
 800169e:	429a      	cmp	r2, r3
 80016a0:	4604      	mov	r4, r0
 80016a2:	d111      	bne.n	80016c8 <HAL_UART_MspDeInit+0x30>
 80016a4:	4a0a      	ldr	r2, [pc, #40]	; (80016d0 <HAL_UART_MspDeInit+0x38>)
 80016a6:	f44f 61c0 	mov.w	r1, #1536	; 0x600
 80016aa:	6993      	ldr	r3, [r2, #24]
 80016ac:	4809      	ldr	r0, [pc, #36]	; (80016d4 <HAL_UART_MspDeInit+0x3c>)
 80016ae:	f423 4380 	bic.w	r3, r3, #16384	; 0x4000
 80016b2:	6193      	str	r3, [r2, #24]
 80016b4:	f001 fcdc 	bl	8003070 <HAL_GPIO_DeInit>
 80016b8:	6ba0      	ldr	r0, [r4, #56]	; 0x38
 80016ba:	f001 fa97 	bl	8002bec <HAL_DMA_DeInit>
 80016be:	e8bd 4010 	ldmia.w	sp!, {r4, lr}
 80016c2:	2025      	movs	r0, #37	; 0x25
 80016c4:	f001 ba3a 	b.w	8002b3c <HAL_NVIC_DisableIRQ>
 80016c8:	bd10      	pop	{r4, pc}
 80016ca:	bf00      	nop
 80016cc:	40013800 	.word	0x40013800
 80016d0:	40021000 	.word	0x40021000
 80016d4:	40010800 	.word	0x40010800

080016d8 <SDTimer_Handler>:
 80016d8:	4a07      	ldr	r2, [pc, #28]	; (80016f8 <SDTimer_Handler+0x20>)
 80016da:	7813      	ldrb	r3, [r2, #0]
 80016dc:	b11b      	cbz	r3, 80016e6 <SDTimer_Handler+0xe>
 80016de:	7813      	ldrb	r3, [r2, #0]
 80016e0:	3b01      	subs	r3, #1
 80016e2:	b2db      	uxtb	r3, r3
 80016e4:	7013      	strb	r3, [r2, #0]
 80016e6:	4a05      	ldr	r2, [pc, #20]	; (80016fc <SDTimer_Handler+0x24>)
 80016e8:	7813      	ldrb	r3, [r2, #0]
 80016ea:	b11b      	cbz	r3, 80016f4 <SDTimer_Handler+0x1c>
 80016ec:	7813      	ldrb	r3, [r2, #0]
 80016ee:	3b01      	subs	r3, #1
 80016f0:	b2db      	uxtb	r3, r3
 80016f2:	7013      	strb	r3, [r2, #0]
 80016f4:	4770      	bx	lr
 80016f6:	bf00      	nop
 80016f8:	200005ef 	.word	0x200005ef
 80016fc:	200005f0 	.word	0x200005f0

08001700 <NMI_Handler>:
 8001700:	e7fe      	b.n	8001700 <NMI_Handler>

08001702 <HardFault_Handler>:
 8001702:	e7fe      	b.n	8001702 <HardFault_Handler>

08001704 <MemManage_Handler>:
 8001704:	e7fe      	b.n	8001704 <MemManage_Handler>

08001706 <BusFault_Handler>:
 8001706:	e7fe      	b.n	8001706 <BusFault_Handler>

08001708 <UsageFault_Handler>:
 8001708:	e7fe      	b.n	8001708 <UsageFault_Handler>

0800170a <DebugMon_Handler>:
 800170a:	4770      	bx	lr

0800170c <SysTick_Handler>:
 800170c:	b508      	push	{r3, lr}
 800170e:	4a0b      	ldr	r2, [pc, #44]	; (800173c <SysTick_Handler+0x30>)
 8001710:	7813      	ldrb	r3, [r2, #0]
 8001712:	3301      	adds	r3, #1
 8001714:	b2db      	uxtb	r3, r3
 8001716:	7013      	strb	r3, [r2, #0]
 8001718:	7813      	ldrb	r3, [r2, #0]
 800171a:	2b09      	cmp	r3, #9
 800171c:	d903      	bls.n	8001726 <SysTick_Handler+0x1a>
 800171e:	2300      	movs	r3, #0
 8001720:	7013      	strb	r3, [r2, #0]
 8001722:	f7ff ffd9 	bl	80016d8 <SDTimer_Handler>
 8001726:	f000 ff5f 	bl	80025e8 <HAL_IncTick>
 800172a:	f006 faa3 	bl	8007c74 <xTaskGetSchedulerState>
 800172e:	2801      	cmp	r0, #1
 8001730:	d003      	beq.n	800173a <SysTick_Handler+0x2e>
 8001732:	e8bd 4008 	ldmia.w	sp!, {r3, lr}
 8001736:	f006 bc65 	b.w	8008004 <xPortSysTickHandler>
 800173a:	bd08      	pop	{r3, pc}
 800173c:	200005ee 	.word	0x200005ee

08001740 <DMA1_Channel1_IRQHandler>:
 8001740:	4801      	ldr	r0, [pc, #4]	; (8001748 <DMA1_Channel1_IRQHandler+0x8>)
 8001742:	f001 bb23 	b.w	8002d8c <HAL_DMA_IRQHandler>
 8001746:	bf00      	nop
 8001748:	20000424 	.word	0x20000424

0800174c <DMA1_Channel4_IRQHandler>:
 800174c:	4801      	ldr	r0, [pc, #4]	; (8001754 <DMA1_Channel4_IRQHandler+0x8>)
 800174e:	f001 bb1d 	b.w	8002d8c <HAL_DMA_IRQHandler>
 8001752:	bf00      	nop
 8001754:	200004ac 	.word	0x200004ac

08001758 <DMA1_Channel6_IRQHandler>:
 8001758:	4801      	ldr	r0, [pc, #4]	; (8001760 <DMA1_Channel6_IRQHandler+0x8>)
 800175a:	f001 bb17 	b.w	8002d8c <HAL_DMA_IRQHandler>
 800175e:	bf00      	nop
 8001760:	20000468 	.word	0x20000468

08001764 <I2C1_EV_IRQHandler>:
 8001764:	4801      	ldr	r0, [pc, #4]	; (800176c <I2C1_EV_IRQHandler+0x8>)
 8001766:	f002 ba49 	b.w	8003bfc <HAL_I2C_EV_IRQHandler>
 800176a:	bf00      	nop
 800176c:	200004f0 	.word	0x200004f0

08001770 <SPI1_IRQHandler>:
 8001770:	4801      	ldr	r0, [pc, #4]	; (8001778 <SPI1_IRQHandler+0x8>)
 8001772:	f003 bbfd 	b.w	8004f70 <HAL_SPI_IRQHandler>
 8001776:	bf00      	nop
 8001778:	20000544 	.word	0x20000544

0800177c <USART1_IRQHandler>:
 800177c:	4801      	ldr	r0, [pc, #4]	; (8001784 <USART1_IRQHandler+0x8>)
 800177e:	f003 bea7 	b.w	80054d0 <HAL_UART_IRQHandler>
 8001782:	bf00      	nop
 8001784:	2000059c 	.word	0x2000059c

08001788 <EXTI15_10_IRQHandler>:
 8001788:	b508      	push	{r3, lr}
 800178a:	f44f 5000 	mov.w	r0, #8192	; 0x2000
 800178e:	f001 fce3 	bl	8003158 <HAL_GPIO_EXTI_IRQHandler>
 8001792:	f44f 4080 	mov.w	r0, #16384	; 0x4000
 8001796:	f001 fcdf 	bl	8003158 <HAL_GPIO_EXTI_IRQHandler>
 800179a:	e8bd 4008 	ldmia.w	sp!, {r3, lr}
 800179e:	f44f 4000 	mov.w	r0, #32768	; 0x8000
 80017a2:	f001 bcd9 	b.w	8003158 <HAL_GPIO_EXTI_IRQHandler>
	...

080017a8 <_sbrk>:
 80017a8:	4a0b      	ldr	r2, [pc, #44]	; (80017d8 <_sbrk+0x30>)
 80017aa:	4603      	mov	r3, r0
 80017ac:	6811      	ldr	r1, [r2, #0]
 80017ae:	b510      	push	{r4, lr}
 80017b0:	b909      	cbnz	r1, 80017b6 <_sbrk+0xe>
 80017b2:	490a      	ldr	r1, [pc, #40]	; (80017dc <_sbrk+0x34>)
 80017b4:	6011      	str	r1, [r2, #0]
 80017b6:	6810      	ldr	r0, [r2, #0]
 80017b8:	4909      	ldr	r1, [pc, #36]	; (80017e0 <_sbrk+0x38>)
 80017ba:	4c0a      	ldr	r4, [pc, #40]	; (80017e4 <_sbrk+0x3c>)
 80017bc:	4403      	add	r3, r0
 80017be:	1b09      	subs	r1, r1, r4
 80017c0:	428b      	cmp	r3, r1
 80017c2:	d906      	bls.n	80017d2 <_sbrk+0x2a>
 80017c4:	f006 fd56 	bl	8008274 <__errno>
 80017c8:	230c      	movs	r3, #12
 80017ca:	6003      	str	r3, [r0, #0]
 80017cc:	f04f 30ff 	mov.w	r0, #4294967295
 80017d0:	bd10      	pop	{r4, pc}
 80017d2:	6013      	str	r3, [r2, #0]
 80017d4:	e7fc      	b.n	80017d0 <_sbrk+0x28>
 80017d6:	bf00      	nop
 80017d8:	200005f4 	.word	0x200005f4
 80017dc:	20002968 	.word	0x20002968
 80017e0:	20005000 	.word	0x20005000
 80017e4:	00000400 	.word	0x00000400

080017e8 <SystemInit>:
 80017e8:	4770      	bx	lr
 80017ea:	0000      	movs	r0, r0
 80017ec:	0000      	movs	r0, r0
	...

080017f0 <bandpass_filter_x>:
 80017f0:	e92d 4ff0 	stmdb	sp!, {r4, r5, r6, r7, r8, r9, sl, fp, lr}
 80017f4:	2600      	movs	r6, #0
 80017f6:	4617      	mov	r7, r2
 80017f8:	4635      	mov	r5, r6
 80017fa:	b08f      	sub	sp, #60	; 0x3c
 80017fc:	1e54      	subs	r4, r2, #1
 80017fe:	e9cd 0102 	strd	r0, r1, [sp, #8]
 8001802:	b2e4      	uxtb	r4, r4
 8001804:	f10d 0a10 	add.w	sl, sp, #16
 8001808:	f10d 0b24 	add.w	fp, sp, #36	; 0x24
 800180c:	0064      	lsls	r4, r4, #1
 800180e:	42b7      	cmp	r7, r6
 8001810:	dc03      	bgt.n	800181a <bandpass_filter_x+0x2a>
 8001812:	4628      	mov	r0, r5
 8001814:	b00f      	add	sp, #60	; 0x3c
 8001816:	e8bd 8ff0 	ldmia.w	sp!, {r4, r5, r6, r7, r8, r9, sl, fp, pc}
 800181a:	f8df 80a4 	ldr.w	r8, [pc, #164]	; 80018c0 <bandpass_filter_x+0xd0>
 800181e:	f10d 0c10 	add.w	ip, sp, #16
 8001822:	e8b8 000f 	ldmia.w	r8!, {r0, r1, r2, r3}
 8001826:	e8ac 000f 	stmia.w	ip!, {r0, r1, r2, r3}
 800182a:	f858 3b04 	ldr.w	r3, [r8], #4
 800182e:	3601      	adds	r6, #1
 8001830:	f8cc 3000 	str.w	r3, [ip]
 8001834:	9b03      	ldr	r3, [sp, #12]
 8001836:	f85a 9b04 	ldr.w	r9, [sl], #4
 800183a:	5b18      	ldrh	r0, [r3, r4]
 800183c:	f7ff f8fc 	bl	8000a38 <__aeabi_i2f>
 8001840:	4649      	mov	r1, r9
 8001842:	f7fe fdaf 	bl	80003a4 <__aeabi_fmul>
 8001846:	f7fe ffc5 	bl	80007d4 <__aeabi_f2d>
 800184a:	f10d 0c24 	add.w	ip, sp, #36	; 0x24
 800184e:	e9cd 0100 	strd	r0, r1, [sp]
 8001852:	e8b8 000f 	ldmia.w	r8!, {r0, r1, r2, r3}
 8001856:	e8ac 000f 	stmia.w	ip!, {r0, r1, r2, r3}
 800185a:	f8d8 3000 	ldr.w	r3, [r8]
 800185e:	f8cc 3000 	str.w	r3, [ip]
 8001862:	f85b 0b04 	ldr.w	r0, [fp], #4
 8001866:	f7fe ffa3 	bl	80007b0 <__aeabi_i2d>
 800186a:	a313      	add	r3, pc, #76	; (adr r3, 80018b8 <bandpass_filter_x+0xc8>)
 800186c:	e9d3 2300 	ldrd	r2, r3, [r3]
 8001870:	f7fe fc6e 	bl	8000150 <__aeabi_dmul>
 8001874:	9b02      	ldr	r3, [sp, #8]
 8001876:	4680      	mov	r8, r0
 8001878:	5b18      	ldrh	r0, [r3, r4]
 800187a:	4689      	mov	r9, r1
 800187c:	f7fe ff98 	bl	80007b0 <__aeabi_i2d>
 8001880:	4602      	mov	r2, r0
 8001882:	460b      	mov	r3, r1
 8001884:	4640      	mov	r0, r8
 8001886:	4649      	mov	r1, r9
 8001888:	f7fe fc62 	bl	8000150 <__aeabi_dmul>
 800188c:	e9dd 2300 	ldrd	r2, r3, [sp]
 8001890:	f7fe fe42 	bl	8000518 <__adddf3>
 8001894:	4680      	mov	r8, r0
 8001896:	4628      	mov	r0, r5
 8001898:	4689      	mov	r9, r1
 800189a:	f7fe ff89 	bl	80007b0 <__aeabi_i2d>
 800189e:	4602      	mov	r2, r0
 80018a0:	460b      	mov	r3, r1
 80018a2:	4640      	mov	r0, r8
 80018a4:	4649      	mov	r1, r9
 80018a6:	f7fe fe37 	bl	8000518 <__adddf3>
 80018aa:	f7fe ffeb 	bl	8000884 <__aeabi_d2uiz>
 80018ae:	3c02      	subs	r4, #2
 80018b0:	b285      	uxth	r5, r0
 80018b2:	e7ac      	b.n	800180e <bandpass_filter_x+0x1e>
 80018b4:	f3af 8000 	nop.w
 80018b8:	7dbf4880 	.word	0x7dbf4880
 80018bc:	3fd3381d 	.word	0x3fd3381d
 80018c0:	08008ba4 	.word	0x08008ba4

080018c4 <notch_filter_1_x>:
 80018c4:	e92d 4ff0 	stmdb	sp!, {r4, r5, r6, r7, r8, r9, sl, fp, lr}
 80018c8:	2600      	movs	r6, #0
 80018ca:	4617      	mov	r7, r2
 80018cc:	4635      	mov	r5, r6
 80018ce:	b08b      	sub	sp, #44	; 0x2c
 80018d0:	f8df 8088 	ldr.w	r8, [pc, #136]	; 800195c <notch_filter_1_x+0x98>
 80018d4:	1e54      	subs	r4, r2, #1
 80018d6:	e9cd 0100 	strd	r0, r1, [sp]
 80018da:	b2e4      	uxtb	r4, r4
 80018dc:	f10d 0910 	add.w	r9, sp, #16
 80018e0:	f10d 0a1c 	add.w	sl, sp, #28
 80018e4:	0064      	lsls	r4, r4, #1
 80018e6:	f108 0b0c 	add.w	fp, r8, #12
 80018ea:	42b7      	cmp	r7, r6
 80018ec:	dc03      	bgt.n	80018f6 <notch_filter_1_x+0x32>
 80018ee:	4628      	mov	r0, r5
 80018f0:	b00b      	add	sp, #44	; 0x2c
 80018f2:	e8bd 8ff0 	ldmia.w	sp!, {r4, r5, r6, r7, r8, r9, sl, fp, pc}
 80018f6:	ab04      	add	r3, sp, #16
 80018f8:	e898 0007 	ldmia.w	r8, {r0, r1, r2}
 80018fc:	e883 0007 	stmia.w	r3, {r0, r1, r2}
 8001900:	9b01      	ldr	r3, [sp, #4]
 8001902:	f859 1b04 	ldr.w	r1, [r9], #4
 8001906:	5b18      	ldrh	r0, [r3, r4]
 8001908:	9102      	str	r1, [sp, #8]
 800190a:	f7ff f895 	bl	8000a38 <__aeabi_i2f>
 800190e:	9902      	ldr	r1, [sp, #8]
 8001910:	f7fe fd48 	bl	80003a4 <__aeabi_fmul>
 8001914:	ab07      	add	r3, sp, #28
 8001916:	9003      	str	r0, [sp, #12]
 8001918:	e89b 0007 	ldmia.w	fp, {r0, r1, r2}
 800191c:	e883 0007 	stmia.w	r3, {r0, r1, r2}
 8001920:	9b00      	ldr	r3, [sp, #0]
 8001922:	f85a 1b04 	ldr.w	r1, [sl], #4
 8001926:	5b18      	ldrh	r0, [r3, r4]
 8001928:	9102      	str	r1, [sp, #8]
 800192a:	f7ff f885 	bl	8000a38 <__aeabi_i2f>
 800192e:	9902      	ldr	r1, [sp, #8]
 8001930:	f7fe fd38 	bl	80003a4 <__aeabi_fmul>
 8001934:	9b03      	ldr	r3, [sp, #12]
 8001936:	3601      	adds	r6, #1
 8001938:	4619      	mov	r1, r3
 800193a:	f7fe ffc9 	bl	80008d0 <__addsf3>
 800193e:	9002      	str	r0, [sp, #8]
 8001940:	4628      	mov	r0, r5
 8001942:	f7ff f879 	bl	8000a38 <__aeabi_i2f>
 8001946:	9b02      	ldr	r3, [sp, #8]
 8001948:	4601      	mov	r1, r0
 800194a:	4618      	mov	r0, r3
 800194c:	f7fe ffc0 	bl	80008d0 <__addsf3>
 8001950:	f7ff f8c6 	bl	8000ae0 <__aeabi_f2uiz>
 8001954:	3c02      	subs	r4, #2
 8001956:	b285      	uxth	r5, r0
 8001958:	e7c7      	b.n	80018ea <notch_filter_1_x+0x26>
 800195a:	bf00      	nop
 800195c:	08008bcc 	.word	0x08008bcc

08001960 <delay_signal_x>:
 8001960:	1e4a      	subs	r2, r1, #1
 8001962:	b2d2      	uxtb	r2, r2
 8001964:	0052      	lsls	r2, r2, #1
 8001966:	1c81      	adds	r1, r0, #2
 8001968:	f006 bc52 	b.w	8008210 <memmove>

0800196c <SPI_TxBuffer>:
 800196c:	4b05      	ldr	r3, [pc, #20]	; (8001984 <SPI_TxBuffer+0x18>)
 800196e:	460a      	mov	r2, r1
 8001970:	6819      	ldr	r1, [r3, #0]
 8001972:	688b      	ldr	r3, [r1, #8]
 8001974:	079b      	lsls	r3, r3, #30
 8001976:	d5fc      	bpl.n	8001972 <SPI_TxBuffer+0x6>
 8001978:	4601      	mov	r1, r0
 800197a:	2364      	movs	r3, #100	; 0x64
 800197c:	4801      	ldr	r0, [pc, #4]	; (8001984 <SPI_TxBuffer+0x18>)
 800197e:	f003 b94d 	b.w	8004c1c <HAL_SPI_Transmit>
 8001982:	bf00      	nop
 8001984:	20000544 	.word	0x20000544

08001988 <SPI_TxByte>:
 8001988:	b507      	push	{r0, r1, r2, lr}
 800198a:	4b08      	ldr	r3, [pc, #32]	; (80019ac <SPI_TxByte+0x24>)
 800198c:	f88d 0007 	strb.w	r0, [sp, #7]
 8001990:	681a      	ldr	r2, [r3, #0]
 8001992:	6893      	ldr	r3, [r2, #8]
 8001994:	079b      	lsls	r3, r3, #30
 8001996:	d5fc      	bpl.n	8001992 <SPI_TxByte+0xa>
 8001998:	2364      	movs	r3, #100	; 0x64
 800199a:	2201      	movs	r2, #1
 800199c:	f10d 0107 	add.w	r1, sp, #7
 80019a0:	4802      	ldr	r0, [pc, #8]	; (80019ac <SPI_TxByte+0x24>)
 80019a2:	f003 f93b 	bl	8004c1c <HAL_SPI_Transmit>
 80019a6:	b003      	add	sp, #12
 80019a8:	f85d fb04 	ldr.w	pc, [sp], #4
 80019ac:	20000544 	.word	0x20000544

080019b0 <SELECT>:
 80019b0:	b508      	push	{r3, lr}
 80019b2:	4805      	ldr	r0, [pc, #20]	; (80019c8 <SELECT+0x18>)
 80019b4:	2200      	movs	r2, #0
 80019b6:	2110      	movs	r1, #16
 80019b8:	f001 fbc8 	bl	800314c <HAL_GPIO_WritePin>
 80019bc:	e8bd 4008 	ldmia.w	sp!, {r3, lr}
 80019c0:	2001      	movs	r0, #1
 80019c2:	f000 be23 	b.w	800260c <HAL_Delay>
 80019c6:	bf00      	nop
 80019c8:	40010800 	.word	0x40010800

080019cc <DESELECT>:
 80019cc:	b508      	push	{r3, lr}
 80019ce:	4805      	ldr	r0, [pc, #20]	; (80019e4 <DESELECT+0x18>)
 80019d0:	2201      	movs	r2, #1
 80019d2:	2110      	movs	r1, #16
 80019d4:	f001 fbba 	bl	800314c <HAL_GPIO_WritePin>
 80019d8:	e8bd 4008 	ldmia.w	sp!, {r3, lr}
 80019dc:	2001      	movs	r0, #1
 80019de:	f000 be15 	b.w	800260c <HAL_Delay>
 80019e2:	bf00      	nop
 80019e4:	40010800 	.word	0x40010800

080019e8 <SPI_RxByte>:
 80019e8:	b51f      	push	{r0, r1, r2, r3, r4, lr}
 80019ea:	23ff      	movs	r3, #255	; 0xff
 80019ec:	f88d 300e 	strb.w	r3, [sp, #14]
 80019f0:	4b09      	ldr	r3, [pc, #36]	; (8001a18 <SPI_RxByte+0x30>)
 80019f2:	681a      	ldr	r2, [r3, #0]
 80019f4:	6893      	ldr	r3, [r2, #8]
 80019f6:	079b      	lsls	r3, r3, #30
 80019f8:	d5fc      	bpl.n	80019f4 <SPI_RxByte+0xc>
 80019fa:	2364      	movs	r3, #100	; 0x64
 80019fc:	f10d 020f 	add.w	r2, sp, #15
 8001a00:	9300      	str	r3, [sp, #0]
 8001a02:	f10d 010e 	add.w	r1, sp, #14
 8001a06:	2301      	movs	r3, #1
 8001a08:	4803      	ldr	r0, [pc, #12]	; (8001a18 <SPI_RxByte+0x30>)
 8001a0a:	f003 f9bb 	bl	8004d84 <HAL_SPI_TransmitReceive>
 8001a0e:	f89d 000f 	ldrb.w	r0, [sp, #15]
 8001a12:	b005      	add	sp, #20
 8001a14:	f85d fb04 	ldr.w	pc, [sp], #4
 8001a18:	20000544 	.word	0x20000544

08001a1c <SD_PowerOn>:
 8001a1c:	b513      	push	{r0, r1, r4, lr}
 8001a1e:	f7ff ffd5 	bl	80019cc <DESELECT>
 8001a22:	240a      	movs	r4, #10
 8001a24:	20ff      	movs	r0, #255	; 0xff
 8001a26:	f7ff ffaf 	bl	8001988 <SPI_TxByte>
 8001a2a:	3c01      	subs	r4, #1
 8001a2c:	d1fa      	bne.n	8001a24 <SD_PowerOn+0x8>
 8001a2e:	f7ff ffbf 	bl	80019b0 <SELECT>
 8001a32:	2340      	movs	r3, #64	; 0x40
 8001a34:	9300      	str	r3, [sp, #0]
 8001a36:	f44f 4315 	mov.w	r3, #38144	; 0x9500
 8001a3a:	2106      	movs	r1, #6
 8001a3c:	4668      	mov	r0, sp
 8001a3e:	f8ad 3004 	strh.w	r3, [sp, #4]
 8001a42:	f44f 5400 	mov.w	r4, #8192	; 0x2000
 8001a46:	f7ff ff91 	bl	800196c <SPI_TxBuffer>
 8001a4a:	f7ff ffcd 	bl	80019e8 <SPI_RxByte>
 8001a4e:	2801      	cmp	r0, #1
 8001a50:	d001      	beq.n	8001a56 <SD_PowerOn+0x3a>
 8001a52:	3c01      	subs	r4, #1
 8001a54:	d1f9      	bne.n	8001a4a <SD_PowerOn+0x2e>
 8001a56:	f7ff ffb9 	bl	80019cc <DESELECT>
 8001a5a:	20ff      	movs	r0, #255	; 0xff
 8001a5c:	f7ff ff94 	bl	8001988 <SPI_TxByte>
 8001a60:	2201      	movs	r2, #1
 8001a62:	4b02      	ldr	r3, [pc, #8]	; (8001a6c <SD_PowerOn+0x50>)
 8001a64:	701a      	strb	r2, [r3, #0]
 8001a66:	b002      	add	sp, #8
 8001a68:	bd10      	pop	{r4, pc}
 8001a6a:	bf00      	nop
 8001a6c:	200005fb 	.word	0x200005fb

08001a70 <SD_ReadyWait>:
 8001a70:	f44f 73fa 	mov.w	r3, #500	; 0x1f4
 8001a74:	b510      	push	{r4, lr}
 8001a76:	4c05      	ldr	r4, [pc, #20]	; (8001a8c <SD_ReadyWait+0x1c>)
 8001a78:	8023      	strh	r3, [r4, #0]
 8001a7a:	f7ff ffb5 	bl	80019e8 <SPI_RxByte>
 8001a7e:	28ff      	cmp	r0, #255	; 0xff
 8001a80:	d003      	beq.n	8001a8a <SD_ReadyWait+0x1a>
 8001a82:	8823      	ldrh	r3, [r4, #0]
 8001a84:	b29b      	uxth	r3, r3
 8001a86:	2b00      	cmp	r3, #0
 8001a88:	d1f7      	bne.n	8001a7a <SD_ReadyWait+0xa>
 8001a8a:	bd10      	pop	{r4, pc}
 8001a8c:	200005f0 	.word	0x200005f0

08001a90 <SD_TxDataBlock>:
 8001a90:	b570      	push	{r4, r5, r6, lr}
 8001a92:	4606      	mov	r6, r0
 8001a94:	460d      	mov	r5, r1
 8001a96:	f7ff ffeb 	bl	8001a70 <SD_ReadyWait>
 8001a9a:	28ff      	cmp	r0, #255	; 0xff
 8001a9c:	f04f 0400 	mov.w	r4, #0
 8001aa0:	d123      	bne.n	8001aea <SD_TxDataBlock+0x5a>
 8001aa2:	4628      	mov	r0, r5
 8001aa4:	f7ff ff70 	bl	8001988 <SPI_TxByte>
 8001aa8:	2dfd      	cmp	r5, #253	; 0xfd
 8001aaa:	d018      	beq.n	8001ade <SD_TxDataBlock+0x4e>
 8001aac:	f44f 7100 	mov.w	r1, #512	; 0x200
 8001ab0:	4630      	mov	r0, r6
 8001ab2:	f7ff ff5b 	bl	800196c <SPI_TxBuffer>
 8001ab6:	2541      	movs	r5, #65	; 0x41
 8001ab8:	f7ff ff96 	bl	80019e8 <SPI_RxByte>
 8001abc:	f7ff ff94 	bl	80019e8 <SPI_RxByte>
 8001ac0:	f7ff ff92 	bl	80019e8 <SPI_RxByte>
 8001ac4:	f000 031f 	and.w	r3, r0, #31
 8001ac8:	2b05      	cmp	r3, #5
 8001aca:	4604      	mov	r4, r0
 8001acc:	d003      	beq.n	8001ad6 <SD_TxDataBlock+0x46>
 8001ace:	3d01      	subs	r5, #1
 8001ad0:	f015 05ff 	ands.w	r5, r5, #255	; 0xff
 8001ad4:	d1f4      	bne.n	8001ac0 <SD_TxDataBlock+0x30>
 8001ad6:	f7ff ff87 	bl	80019e8 <SPI_RxByte>
 8001ada:	2800      	cmp	r0, #0
 8001adc:	d0fb      	beq.n	8001ad6 <SD_TxDataBlock+0x46>
 8001ade:	f004 041f 	and.w	r4, r4, #31
 8001ae2:	1f63      	subs	r3, r4, #5
 8001ae4:	4258      	negs	r0, r3
 8001ae6:	4158      	adcs	r0, r3
 8001ae8:	bd70      	pop	{r4, r5, r6, pc}
 8001aea:	4620      	mov	r0, r4
 8001aec:	e7fc      	b.n	8001ae8 <SD_TxDataBlock+0x58>

08001aee <SD_SendCmd>:
 8001aee:	b538      	push	{r3, r4, r5, lr}
 8001af0:	4604      	mov	r4, r0
 8001af2:	460d      	mov	r5, r1
 8001af4:	f7ff ffbc 	bl	8001a70 <SD_ReadyWait>
 8001af8:	28ff      	cmp	r0, #255	; 0xff
 8001afa:	d128      	bne.n	8001b4e <SD_SendCmd+0x60>
 8001afc:	4620      	mov	r0, r4
 8001afe:	f7ff ff43 	bl	8001988 <SPI_TxByte>
 8001b02:	0e28      	lsrs	r0, r5, #24
 8001b04:	f7ff ff40 	bl	8001988 <SPI_TxByte>
 8001b08:	f3c5 4007 	ubfx	r0, r5, #16, #8
 8001b0c:	f7ff ff3c 	bl	8001988 <SPI_TxByte>
 8001b10:	f3c5 2007 	ubfx	r0, r5, #8, #8
 8001b14:	f7ff ff38 	bl	8001988 <SPI_TxByte>
 8001b18:	b2e8      	uxtb	r0, r5
 8001b1a:	f7ff ff35 	bl	8001988 <SPI_TxByte>
 8001b1e:	2c40      	cmp	r4, #64	; 0x40
 8001b20:	d013      	beq.n	8001b4a <SD_SendCmd+0x5c>
 8001b22:	2c48      	cmp	r4, #72	; 0x48
 8001b24:	bf0c      	ite	eq
 8001b26:	2087      	moveq	r0, #135	; 0x87
 8001b28:	2001      	movne	r0, #1
 8001b2a:	f7ff ff2d 	bl	8001988 <SPI_TxByte>
 8001b2e:	2c4c      	cmp	r4, #76	; 0x4c
 8001b30:	d101      	bne.n	8001b36 <SD_SendCmd+0x48>
 8001b32:	f7ff ff59 	bl	80019e8 <SPI_RxByte>
 8001b36:	240a      	movs	r4, #10
 8001b38:	f7ff ff56 	bl	80019e8 <SPI_RxByte>
 8001b3c:	0603      	lsls	r3, r0, #24
 8001b3e:	d503      	bpl.n	8001b48 <SD_SendCmd+0x5a>
 8001b40:	3c01      	subs	r4, #1
 8001b42:	f014 04ff 	ands.w	r4, r4, #255	; 0xff
 8001b46:	d1f7      	bne.n	8001b38 <SD_SendCmd+0x4a>
 8001b48:	bd38      	pop	{r3, r4, r5, pc}
 8001b4a:	2095      	movs	r0, #149	; 0x95
 8001b4c:	e7ed      	b.n	8001b2a <SD_SendCmd+0x3c>
 8001b4e:	20ff      	movs	r0, #255	; 0xff
 8001b50:	e7fa      	b.n	8001b48 <SD_SendCmd+0x5a>
	...

08001b54 <SD_RxDataBlock>:
 8001b54:	23c8      	movs	r3, #200	; 0xc8
 8001b56:	b570      	push	{r4, r5, r6, lr}
 8001b58:	4604      	mov	r4, r0
 8001b5a:	460e      	mov	r6, r1
 8001b5c:	4d0e      	ldr	r5, [pc, #56]	; (8001b98 <SD_RxDataBlock+0x44>)
 8001b5e:	802b      	strh	r3, [r5, #0]
 8001b60:	f7ff ff42 	bl	80019e8 <SPI_RxByte>
 8001b64:	28ff      	cmp	r0, #255	; 0xff
 8001b66:	d104      	bne.n	8001b72 <SD_RxDataBlock+0x1e>
 8001b68:	8828      	ldrh	r0, [r5, #0]
 8001b6a:	b280      	uxth	r0, r0
 8001b6c:	2800      	cmp	r0, #0
 8001b6e:	d1f7      	bne.n	8001b60 <SD_RxDataBlock+0xc>
 8001b70:	bd70      	pop	{r4, r5, r6, pc}
 8001b72:	28fe      	cmp	r0, #254	; 0xfe
 8001b74:	d10d      	bne.n	8001b92 <SD_RxDataBlock+0x3e>
 8001b76:	1e65      	subs	r5, r4, #1
 8001b78:	4434      	add	r4, r6
 8001b7a:	f7ff ff35 	bl	80019e8 <SPI_RxByte>
 8001b7e:	f805 0f01 	strb.w	r0, [r5, #1]!
 8001b82:	42a5      	cmp	r5, r4
 8001b84:	d1f9      	bne.n	8001b7a <SD_RxDataBlock+0x26>
 8001b86:	f7ff ff2f 	bl	80019e8 <SPI_RxByte>
 8001b8a:	f7ff ff2d 	bl	80019e8 <SPI_RxByte>
 8001b8e:	2001      	movs	r0, #1
 8001b90:	e7ee      	b.n	8001b70 <SD_RxDataBlock+0x1c>
 8001b92:	2000      	movs	r0, #0
 8001b94:	e7ec      	b.n	8001b70 <SD_RxDataBlock+0x1c>
 8001b96:	bf00      	nop
 8001b98:	200005ef 	.word	0x200005ef

08001b9c <SD_disk_initialize>:
 8001b9c:	e92d 41f3 	stmdb	sp!, {r0, r1, r4, r5, r6, r7, r8, lr}
 8001ba0:	2800      	cmp	r0, #0
 8001ba2:	f040 809e 	bne.w	8001ce2 <SD_disk_initialize+0x146>
 8001ba6:	4e50      	ldr	r6, [pc, #320]	; (8001ce8 <SD_disk_initialize+0x14c>)
 8001ba8:	7835      	ldrb	r5, [r6, #0]
 8001baa:	f015 0502 	ands.w	r5, r5, #2
 8001bae:	d004      	beq.n	8001bba <SD_disk_initialize+0x1e>
 8001bb0:	7830      	ldrb	r0, [r6, #0]
 8001bb2:	b2c0      	uxtb	r0, r0
 8001bb4:	b002      	add	sp, #8
 8001bb6:	e8bd 81f0 	ldmia.w	sp!, {r4, r5, r6, r7, r8, pc}
 8001bba:	f7ff ff2f 	bl	8001a1c <SD_PowerOn>
 8001bbe:	f7ff fef7 	bl	80019b0 <SELECT>
 8001bc2:	4629      	mov	r1, r5
 8001bc4:	2040      	movs	r0, #64	; 0x40
 8001bc6:	f7ff ff92 	bl	8001aee <SD_SendCmd>
 8001bca:	2801      	cmp	r0, #1
 8001bcc:	4604      	mov	r4, r0
 8001bce:	d17a      	bne.n	8001cc6 <SD_disk_initialize+0x12a>
 8001bd0:	f44f 737a 	mov.w	r3, #1000	; 0x3e8
 8001bd4:	4f45      	ldr	r7, [pc, #276]	; (8001cec <SD_disk_initialize+0x150>)
 8001bd6:	f44f 71d5 	mov.w	r1, #426	; 0x1aa
 8001bda:	2048      	movs	r0, #72	; 0x48
 8001bdc:	803b      	strh	r3, [r7, #0]
 8001bde:	f7ff ff86 	bl	8001aee <SD_SendCmd>
 8001be2:	2801      	cmp	r0, #1
 8001be4:	d14b      	bne.n	8001c7e <SD_disk_initialize+0xe2>
 8001be6:	ad01      	add	r5, sp, #4
 8001be8:	46a8      	mov	r8, r5
 8001bea:	2404      	movs	r4, #4
 8001bec:	f7ff fefc 	bl	80019e8 <SPI_RxByte>
 8001bf0:	3c01      	subs	r4, #1
 8001bf2:	f014 04ff 	ands.w	r4, r4, #255	; 0xff
 8001bf6:	f808 0b01 	strb.w	r0, [r8], #1
 8001bfa:	d1f7      	bne.n	8001bec <SD_disk_initialize+0x50>
 8001bfc:	f89d 3006 	ldrb.w	r3, [sp, #6]
 8001c00:	2b01      	cmp	r3, #1
 8001c02:	d160      	bne.n	8001cc6 <SD_disk_initialize+0x12a>
 8001c04:	f89d 3007 	ldrb.w	r3, [sp, #7]
 8001c08:	2baa      	cmp	r3, #170	; 0xaa
 8001c0a:	d15c      	bne.n	8001cc6 <SD_disk_initialize+0x12a>
 8001c0c:	2100      	movs	r1, #0
 8001c0e:	2077      	movs	r0, #119	; 0x77
 8001c10:	f7ff ff6d 	bl	8001aee <SD_SendCmd>
 8001c14:	2801      	cmp	r0, #1
 8001c16:	d92a      	bls.n	8001c6e <SD_disk_initialize+0xd2>
 8001c18:	883b      	ldrh	r3, [r7, #0]
 8001c1a:	b29b      	uxth	r3, r3
 8001c1c:	2b00      	cmp	r3, #0
 8001c1e:	d1f5      	bne.n	8001c0c <SD_disk_initialize+0x70>
 8001c20:	883b      	ldrh	r3, [r7, #0]
 8001c22:	b29b      	uxth	r3, r3
 8001c24:	2b00      	cmp	r3, #0
 8001c26:	d04e      	beq.n	8001cc6 <SD_disk_initialize+0x12a>
 8001c28:	2100      	movs	r1, #0
 8001c2a:	207a      	movs	r0, #122	; 0x7a
 8001c2c:	f7ff ff5f 	bl	8001aee <SD_SendCmd>
 8001c30:	2800      	cmp	r0, #0
 8001c32:	d148      	bne.n	8001cc6 <SD_disk_initialize+0x12a>
 8001c34:	2404      	movs	r4, #4
 8001c36:	f7ff fed7 	bl	80019e8 <SPI_RxByte>
 8001c3a:	3c01      	subs	r4, #1
 8001c3c:	f014 04ff 	ands.w	r4, r4, #255	; 0xff
 8001c40:	f805 0b01 	strb.w	r0, [r5], #1
 8001c44:	d1f7      	bne.n	8001c36 <SD_disk_initialize+0x9a>
 8001c46:	f89d 3004 	ldrb.w	r3, [sp, #4]
 8001c4a:	f013 0f40 	tst.w	r3, #64	; 0x40
 8001c4e:	bf14      	ite	ne
 8001c50:	240c      	movne	r4, #12
 8001c52:	2404      	moveq	r4, #4
 8001c54:	4b26      	ldr	r3, [pc, #152]	; (8001cf0 <SD_disk_initialize+0x154>)
 8001c56:	701c      	strb	r4, [r3, #0]
 8001c58:	f7ff feb8 	bl	80019cc <DESELECT>
 8001c5c:	f7ff fec4 	bl	80019e8 <SPI_RxByte>
 8001c60:	2c00      	cmp	r4, #0
 8001c62:	d03b      	beq.n	8001cdc <SD_disk_initialize+0x140>
 8001c64:	7833      	ldrb	r3, [r6, #0]
 8001c66:	f003 03fe 	and.w	r3, r3, #254	; 0xfe
 8001c6a:	7033      	strb	r3, [r6, #0]
 8001c6c:	e7a0      	b.n	8001bb0 <SD_disk_initialize+0x14>
 8001c6e:	f04f 4180 	mov.w	r1, #1073741824	; 0x40000000
 8001c72:	2069      	movs	r0, #105	; 0x69
 8001c74:	f7ff ff3b 	bl	8001aee <SD_SendCmd>
 8001c78:	2800      	cmp	r0, #0
 8001c7a:	d1cd      	bne.n	8001c18 <SD_disk_initialize+0x7c>
 8001c7c:	e7d0      	b.n	8001c20 <SD_disk_initialize+0x84>
 8001c7e:	4629      	mov	r1, r5
 8001c80:	2077      	movs	r0, #119	; 0x77
 8001c82:	f7ff ff34 	bl	8001aee <SD_SendCmd>
 8001c86:	2801      	cmp	r0, #1
 8001c88:	d806      	bhi.n	8001c98 <SD_disk_initialize+0xfc>
 8001c8a:	4629      	mov	r1, r5
 8001c8c:	2069      	movs	r0, #105	; 0x69
 8001c8e:	f7ff ff2e 	bl	8001aee <SD_SendCmd>
 8001c92:	2801      	cmp	r0, #1
 8001c94:	bf98      	it	ls
 8001c96:	2402      	movls	r4, #2
 8001c98:	2c02      	cmp	r4, #2
 8001c9a:	f04f 0100 	mov.w	r1, #0
 8001c9e:	d11b      	bne.n	8001cd8 <SD_disk_initialize+0x13c>
 8001ca0:	2077      	movs	r0, #119	; 0x77
 8001ca2:	f7ff ff24 	bl	8001aee <SD_SendCmd>
 8001ca6:	2801      	cmp	r0, #1
 8001ca8:	d90f      	bls.n	8001cca <SD_disk_initialize+0x12e>
 8001caa:	883b      	ldrh	r3, [r7, #0]
 8001cac:	b29b      	uxth	r3, r3
 8001cae:	2b00      	cmp	r3, #0
 8001cb0:	d1f2      	bne.n	8001c98 <SD_disk_initialize+0xfc>
 8001cb2:	883b      	ldrh	r3, [r7, #0]
 8001cb4:	b29b      	uxth	r3, r3
 8001cb6:	b133      	cbz	r3, 8001cc6 <SD_disk_initialize+0x12a>
 8001cb8:	f44f 7100 	mov.w	r1, #512	; 0x200
 8001cbc:	2050      	movs	r0, #80	; 0x50
 8001cbe:	f7ff ff16 	bl	8001aee <SD_SendCmd>
 8001cc2:	2800      	cmp	r0, #0
 8001cc4:	d0c6      	beq.n	8001c54 <SD_disk_initialize+0xb8>
 8001cc6:	2400      	movs	r4, #0
 8001cc8:	e7c4      	b.n	8001c54 <SD_disk_initialize+0xb8>
 8001cca:	2100      	movs	r1, #0
 8001ccc:	2069      	movs	r0, #105	; 0x69
 8001cce:	f7ff ff0e 	bl	8001aee <SD_SendCmd>
 8001cd2:	2800      	cmp	r0, #0
 8001cd4:	d1e9      	bne.n	8001caa <SD_disk_initialize+0x10e>
 8001cd6:	e7ec      	b.n	8001cb2 <SD_disk_initialize+0x116>
 8001cd8:	2041      	movs	r0, #65	; 0x41
 8001cda:	e7f8      	b.n	8001cce <SD_disk_initialize+0x132>
 8001cdc:	4b05      	ldr	r3, [pc, #20]	; (8001cf4 <SD_disk_initialize+0x158>)
 8001cde:	701c      	strb	r4, [r3, #0]
 8001ce0:	e766      	b.n	8001bb0 <SD_disk_initialize+0x14>
 8001ce2:	2001      	movs	r0, #1
 8001ce4:	e766      	b.n	8001bb4 <SD_disk_initialize+0x18>
 8001ce6:	bf00      	nop
 8001ce8:	20000014 	.word	0x20000014
 8001cec:	200005ef 	.word	0x200005ef
 8001cf0:	200005fa 	.word	0x200005fa
 8001cf4:	200005fb 	.word	0x200005fb

08001cf8 <SD_disk_status>:
 8001cf8:	b918      	cbnz	r0, 8001d02 <SD_disk_status+0xa>
 8001cfa:	4b03      	ldr	r3, [pc, #12]	; (8001d08 <SD_disk_status+0x10>)
 8001cfc:	7818      	ldrb	r0, [r3, #0]
 8001cfe:	b2c0      	uxtb	r0, r0
 8001d00:	4770      	bx	lr
 8001d02:	2001      	movs	r0, #1
 8001d04:	4770      	bx	lr
 8001d06:	bf00      	nop
 8001d08:	20000014 	.word	0x20000014

08001d0c <SD_disk_read>:
 8001d0c:	b570      	push	{r4, r5, r6, lr}
 8001d0e:	460e      	mov	r6, r1
 8001d10:	4615      	mov	r5, r2
 8001d12:	461c      	mov	r4, r3
 8001d14:	2800      	cmp	r0, #0
 8001d16:	d137      	bne.n	8001d88 <SD_disk_read+0x7c>
 8001d18:	2b00      	cmp	r3, #0
 8001d1a:	d035      	beq.n	8001d88 <SD_disk_read+0x7c>
 8001d1c:	4b1c      	ldr	r3, [pc, #112]	; (8001d90 <SD_disk_read+0x84>)
 8001d1e:	781b      	ldrb	r3, [r3, #0]
 8001d20:	07da      	lsls	r2, r3, #31
 8001d22:	d433      	bmi.n	8001d8c <SD_disk_read+0x80>
 8001d24:	4b1b      	ldr	r3, [pc, #108]	; (8001d94 <SD_disk_read+0x88>)
 8001d26:	781b      	ldrb	r3, [r3, #0]
 8001d28:	075b      	lsls	r3, r3, #29
 8001d2a:	bf58      	it	pl
 8001d2c:	026d      	lslpl	r5, r5, #9
 8001d2e:	f7ff fe3f 	bl	80019b0 <SELECT>
 8001d32:	2c01      	cmp	r4, #1
 8001d34:	4629      	mov	r1, r5
 8001d36:	d113      	bne.n	8001d60 <SD_disk_read+0x54>
 8001d38:	2051      	movs	r0, #81	; 0x51
 8001d3a:	f7ff fed8 	bl	8001aee <SD_SendCmd>
 8001d3e:	b938      	cbnz	r0, 8001d50 <SD_disk_read+0x44>
 8001d40:	f44f 7100 	mov.w	r1, #512	; 0x200
 8001d44:	4630      	mov	r0, r6
 8001d46:	f7ff ff05 	bl	8001b54 <SD_RxDataBlock>
 8001d4a:	fab0 f480 	clz	r4, r0
 8001d4e:	0964      	lsrs	r4, r4, #5
 8001d50:	f7ff fe3c 	bl	80019cc <DESELECT>
 8001d54:	f7ff fe48 	bl	80019e8 <SPI_RxByte>
 8001d58:	1e20      	subs	r0, r4, #0
 8001d5a:	bf18      	it	ne
 8001d5c:	2001      	movne	r0, #1
 8001d5e:	bd70      	pop	{r4, r5, r6, pc}
 8001d60:	2052      	movs	r0, #82	; 0x52
 8001d62:	f7ff fec4 	bl	8001aee <SD_SendCmd>
 8001d66:	2800      	cmp	r0, #0
 8001d68:	d1f2      	bne.n	8001d50 <SD_disk_read+0x44>
 8001d6a:	f44f 7100 	mov.w	r1, #512	; 0x200
 8001d6e:	4630      	mov	r0, r6
 8001d70:	f7ff fef0 	bl	8001b54 <SD_RxDataBlock>
 8001d74:	b118      	cbz	r0, 8001d7e <SD_disk_read+0x72>
 8001d76:	3c01      	subs	r4, #1
 8001d78:	f506 7600 	add.w	r6, r6, #512	; 0x200
 8001d7c:	d1f5      	bne.n	8001d6a <SD_disk_read+0x5e>
 8001d7e:	2100      	movs	r1, #0
 8001d80:	204c      	movs	r0, #76	; 0x4c
 8001d82:	f7ff feb4 	bl	8001aee <SD_SendCmd>
 8001d86:	e7e3      	b.n	8001d50 <SD_disk_read+0x44>
 8001d88:	2004      	movs	r0, #4
 8001d8a:	e7e8      	b.n	8001d5e <SD_disk_read+0x52>
 8001d8c:	2003      	movs	r0, #3
 8001d8e:	e7e6      	b.n	8001d5e <SD_disk_read+0x52>
 8001d90:	20000014 	.word	0x20000014
 8001d94:	200005fa 	.word	0x200005fa

08001d98 <SD_disk_write>:
 8001d98:	b5f8      	push	{r3, r4, r5, r6, r7, lr}
 8001d9a:	460d      	mov	r5, r1
 8001d9c:	4616      	mov	r6, r2
 8001d9e:	461c      	mov	r4, r3
 8001da0:	2800      	cmp	r0, #0
 8001da2:	d147      	bne.n	8001e34 <SD_disk_write+0x9c>
 8001da4:	2b00      	cmp	r3, #0
 8001da6:	d045      	beq.n	8001e34 <SD_disk_write+0x9c>
 8001da8:	4b25      	ldr	r3, [pc, #148]	; (8001e40 <SD_disk_write+0xa8>)
 8001daa:	781a      	ldrb	r2, [r3, #0]
 8001dac:	07d0      	lsls	r0, r2, #31
 8001dae:	d443      	bmi.n	8001e38 <SD_disk_write+0xa0>
 8001db0:	781b      	ldrb	r3, [r3, #0]
 8001db2:	0759      	lsls	r1, r3, #29
 8001db4:	d442      	bmi.n	8001e3c <SD_disk_write+0xa4>
 8001db6:	4f23      	ldr	r7, [pc, #140]	; (8001e44 <SD_disk_write+0xac>)
 8001db8:	783b      	ldrb	r3, [r7, #0]
 8001dba:	075a      	lsls	r2, r3, #29
 8001dbc:	bf58      	it	pl
 8001dbe:	0276      	lslpl	r6, r6, #9
 8001dc0:	f7ff fdf6 	bl	80019b0 <SELECT>
 8001dc4:	2c01      	cmp	r4, #1
 8001dc6:	d113      	bne.n	8001df0 <SD_disk_write+0x58>
 8001dc8:	4631      	mov	r1, r6
 8001dca:	2058      	movs	r0, #88	; 0x58
 8001dcc:	f7ff fe8f 	bl	8001aee <SD_SendCmd>
 8001dd0:	bb70      	cbnz	r0, 8001e30 <SD_disk_write+0x98>
 8001dd2:	21fe      	movs	r1, #254	; 0xfe
 8001dd4:	4628      	mov	r0, r5
 8001dd6:	f7ff fe5b 	bl	8001a90 <SD_TxDataBlock>
 8001dda:	fab0 f480 	clz	r4, r0
 8001dde:	0964      	lsrs	r4, r4, #5
 8001de0:	f7ff fdf4 	bl	80019cc <DESELECT>
 8001de4:	f7ff fe00 	bl	80019e8 <SPI_RxByte>
 8001de8:	1e20      	subs	r0, r4, #0
 8001dea:	bf18      	it	ne
 8001dec:	2001      	movne	r0, #1
 8001dee:	bdf8      	pop	{r3, r4, r5, r6, r7, pc}
 8001df0:	783b      	ldrb	r3, [r7, #0]
 8001df2:	079b      	lsls	r3, r3, #30
 8001df4:	d507      	bpl.n	8001e06 <SD_disk_write+0x6e>
 8001df6:	2100      	movs	r1, #0
 8001df8:	2077      	movs	r0, #119	; 0x77
 8001dfa:	f7ff fe78 	bl	8001aee <SD_SendCmd>
 8001dfe:	4621      	mov	r1, r4
 8001e00:	2057      	movs	r0, #87	; 0x57
 8001e02:	f7ff fe74 	bl	8001aee <SD_SendCmd>
 8001e06:	4631      	mov	r1, r6
 8001e08:	2059      	movs	r0, #89	; 0x59
 8001e0a:	f7ff fe70 	bl	8001aee <SD_SendCmd>
 8001e0e:	2800      	cmp	r0, #0
 8001e10:	d1e6      	bne.n	8001de0 <SD_disk_write+0x48>
 8001e12:	21fc      	movs	r1, #252	; 0xfc
 8001e14:	4628      	mov	r0, r5
 8001e16:	f7ff fe3b 	bl	8001a90 <SD_TxDataBlock>
 8001e1a:	b118      	cbz	r0, 8001e24 <SD_disk_write+0x8c>
 8001e1c:	3c01      	subs	r4, #1
 8001e1e:	f505 7500 	add.w	r5, r5, #512	; 0x200
 8001e22:	d1f6      	bne.n	8001e12 <SD_disk_write+0x7a>
 8001e24:	21fd      	movs	r1, #253	; 0xfd
 8001e26:	2000      	movs	r0, #0
 8001e28:	f7ff fe32 	bl	8001a90 <SD_TxDataBlock>
 8001e2c:	2800      	cmp	r0, #0
 8001e2e:	d1d7      	bne.n	8001de0 <SD_disk_write+0x48>
 8001e30:	2401      	movs	r4, #1
 8001e32:	e7d5      	b.n	8001de0 <SD_disk_write+0x48>
 8001e34:	2004      	movs	r0, #4
 8001e36:	e7da      	b.n	8001dee <SD_disk_write+0x56>
 8001e38:	2003      	movs	r0, #3
 8001e3a:	e7d8      	b.n	8001dee <SD_disk_write+0x56>
 8001e3c:	2002      	movs	r0, #2
 8001e3e:	e7d6      	b.n	8001dee <SD_disk_write+0x56>
 8001e40:	20000014 	.word	0x20000014
 8001e44:	200005fa 	.word	0x200005fa

08001e48 <SD_disk_ioctl>:
 8001e48:	b57f      	push	{r0, r1, r2, r3, r4, r5, r6, lr}
 8001e4a:	460e      	mov	r6, r1
 8001e4c:	4615      	mov	r5, r2
 8001e4e:	4604      	mov	r4, r0
 8001e50:	2800      	cmp	r0, #0
 8001e52:	f040 8091 	bne.w	8001f78 <SD_disk_ioctl+0x130>
 8001e56:	2905      	cmp	r1, #5
 8001e58:	d113      	bne.n	8001e82 <SD_disk_ioctl+0x3a>
 8001e5a:	7813      	ldrb	r3, [r2, #0]
 8001e5c:	2b01      	cmp	r3, #1
 8001e5e:	d009      	beq.n	8001e74 <SD_disk_ioctl+0x2c>
 8001e60:	2b02      	cmp	r3, #2
 8001e62:	d00a      	beq.n	8001e7a <SD_disk_ioctl+0x32>
 8001e64:	2b00      	cmp	r3, #0
 8001e66:	f040 8087 	bne.w	8001f78 <SD_disk_ioctl+0x130>
 8001e6a:	4b45      	ldr	r3, [pc, #276]	; (8001f80 <SD_disk_ioctl+0x138>)
 8001e6c:	7018      	strb	r0, [r3, #0]
 8001e6e:	4620      	mov	r0, r4
 8001e70:	b004      	add	sp, #16
 8001e72:	bd70      	pop	{r4, r5, r6, pc}
 8001e74:	f7ff fdd2 	bl	8001a1c <SD_PowerOn>
 8001e78:	e7f9      	b.n	8001e6e <SD_disk_ioctl+0x26>
 8001e7a:	4b41      	ldr	r3, [pc, #260]	; (8001f80 <SD_disk_ioctl+0x138>)
 8001e7c:	781b      	ldrb	r3, [r3, #0]
 8001e7e:	7053      	strb	r3, [r2, #1]
 8001e80:	e7f5      	b.n	8001e6e <SD_disk_ioctl+0x26>
 8001e82:	4b40      	ldr	r3, [pc, #256]	; (8001f84 <SD_disk_ioctl+0x13c>)
 8001e84:	781c      	ldrb	r4, [r3, #0]
 8001e86:	f014 0401 	ands.w	r4, r4, #1
 8001e8a:	d177      	bne.n	8001f7c <SD_disk_ioctl+0x134>
 8001e8c:	f7ff fd90 	bl	80019b0 <SELECT>
 8001e90:	2e0d      	cmp	r6, #13
 8001e92:	d867      	bhi.n	8001f64 <SD_disk_ioctl+0x11c>
 8001e94:	e8df f006 	tbb	[pc, r6]
 8001e98:	66450749 	.word	0x66450749
 8001e9c:	66666666 	.word	0x66666666
 8001ea0:	50666666 	.word	0x50666666
 8001ea4:	615e      	.short	0x615e
 8001ea6:	2100      	movs	r1, #0
 8001ea8:	2049      	movs	r0, #73	; 0x49
 8001eaa:	f7ff fe20 	bl	8001aee <SD_SendCmd>
 8001eae:	4604      	mov	r4, r0
 8001eb0:	b128      	cbz	r0, 8001ebe <SD_disk_ioctl+0x76>
 8001eb2:	2401      	movs	r4, #1
 8001eb4:	f7ff fd8a 	bl	80019cc <DESELECT>
 8001eb8:	f7ff fd96 	bl	80019e8 <SPI_RxByte>
 8001ebc:	e7d7      	b.n	8001e6e <SD_disk_ioctl+0x26>
 8001ebe:	2110      	movs	r1, #16
 8001ec0:	4668      	mov	r0, sp
 8001ec2:	f7ff fe47 	bl	8001b54 <SD_RxDataBlock>
 8001ec6:	2800      	cmp	r0, #0
 8001ec8:	d0f3      	beq.n	8001eb2 <SD_disk_ioctl+0x6a>
 8001eca:	f89d 1000 	ldrb.w	r1, [sp]
 8001ece:	f89d 3009 	ldrb.w	r3, [sp, #9]
 8001ed2:	0989      	lsrs	r1, r1, #6
 8001ed4:	2901      	cmp	r1, #1
 8001ed6:	f89d 2008 	ldrb.w	r2, [sp, #8]
 8001eda:	d106      	bne.n	8001eea <SD_disk_ioctl+0xa2>
 8001edc:	3301      	adds	r3, #1
 8001ede:	eb03 2302 	add.w	r3, r3, r2, lsl #8
 8001ee2:	b29b      	uxth	r3, r3
 8001ee4:	029b      	lsls	r3, r3, #10
 8001ee6:	602b      	str	r3, [r5, #0]
 8001ee8:	e7e4      	b.n	8001eb4 <SD_disk_ioctl+0x6c>
 8001eea:	f89d 1007 	ldrb.w	r1, [sp, #7]
 8001eee:	0992      	lsrs	r2, r2, #6
 8001ef0:	eb02 0281 	add.w	r2, r2, r1, lsl #2
 8001ef4:	f89d 1006 	ldrb.w	r1, [sp, #6]
 8001ef8:	3201      	adds	r2, #1
 8001efa:	0289      	lsls	r1, r1, #10
 8001efc:	f401 6140 	and.w	r1, r1, #3072	; 0xc00
 8001f00:	440a      	add	r2, r1
 8001f02:	f89d 1005 	ldrb.w	r1, [sp, #5]
 8001f06:	f89d 000a 	ldrb.w	r0, [sp, #10]
 8001f0a:	f001 010f 	and.w	r1, r1, #15
 8001f0e:	005b      	lsls	r3, r3, #1
 8001f10:	eb01 11d0 	add.w	r1, r1, r0, lsr #7
 8001f14:	f003 0306 	and.w	r3, r3, #6
 8001f18:	440b      	add	r3, r1
 8001f1a:	3b07      	subs	r3, #7
 8001f1c:	fa02 f303 	lsl.w	r3, r2, r3
 8001f20:	e7e1      	b.n	8001ee6 <SD_disk_ioctl+0x9e>
 8001f22:	f44f 7300 	mov.w	r3, #512	; 0x200
 8001f26:	802b      	strh	r3, [r5, #0]
 8001f28:	e7c4      	b.n	8001eb4 <SD_disk_ioctl+0x6c>
 8001f2a:	f7ff fda1 	bl	8001a70 <SD_ReadyWait>
 8001f2e:	f1b0 04ff 	subs.w	r4, r0, #255	; 0xff
 8001f32:	bf18      	it	ne
 8001f34:	2401      	movne	r4, #1
 8001f36:	e7bd      	b.n	8001eb4 <SD_disk_ioctl+0x6c>
 8001f38:	2100      	movs	r1, #0
 8001f3a:	2049      	movs	r0, #73	; 0x49
 8001f3c:	f7ff fdd7 	bl	8001aee <SD_SendCmd>
 8001f40:	2800      	cmp	r0, #0
 8001f42:	d1b6      	bne.n	8001eb2 <SD_disk_ioctl+0x6a>
 8001f44:	2110      	movs	r1, #16
 8001f46:	4628      	mov	r0, r5
 8001f48:	f7ff fe04 	bl	8001b54 <SD_RxDataBlock>
 8001f4c:	fab0 f480 	clz	r4, r0
 8001f50:	0964      	lsrs	r4, r4, #5
 8001f52:	e7af      	b.n	8001eb4 <SD_disk_ioctl+0x6c>
 8001f54:	2100      	movs	r1, #0
 8001f56:	204a      	movs	r0, #74	; 0x4a
 8001f58:	e7f0      	b.n	8001f3c <SD_disk_ioctl+0xf4>
 8001f5a:	2100      	movs	r1, #0
 8001f5c:	207a      	movs	r0, #122	; 0x7a
 8001f5e:	f7ff fdc6 	bl	8001aee <SD_SendCmd>
 8001f62:	b108      	cbz	r0, 8001f68 <SD_disk_ioctl+0x120>
 8001f64:	2404      	movs	r4, #4
 8001f66:	e7a5      	b.n	8001eb4 <SD_disk_ioctl+0x6c>
 8001f68:	1d2c      	adds	r4, r5, #4
 8001f6a:	f7ff fd3d 	bl	80019e8 <SPI_RxByte>
 8001f6e:	f805 0b01 	strb.w	r0, [r5], #1
 8001f72:	42ac      	cmp	r4, r5
 8001f74:	d1f9      	bne.n	8001f6a <SD_disk_ioctl+0x122>
 8001f76:	e7f5      	b.n	8001f64 <SD_disk_ioctl+0x11c>
 8001f78:	2404      	movs	r4, #4
 8001f7a:	e778      	b.n	8001e6e <SD_disk_ioctl+0x26>
 8001f7c:	2403      	movs	r4, #3
 8001f7e:	e776      	b.n	8001e6e <SD_disk_ioctl+0x26>
 8001f80:	200005fb 	.word	0x200005fb
 8001f84:	20000014 	.word	0x20000014

08001f88 <menu_start>:
 8001f88:	b510      	push	{r4, lr}
 8001f8a:	4604      	mov	r4, r0
 8001f8c:	200a      	movs	r0, #10
 8001f8e:	f004 fdc0 	bl	8006b12 <osDelay>
 8001f92:	2300      	movs	r3, #0
 8001f94:	2114      	movs	r1, #20
 8001f96:	7023      	strb	r3, [r4, #0]
 8001f98:	4608      	mov	r0, r1
 8001f9a:	7063      	strb	r3, [r4, #1]
 8001f9c:	70a3      	strb	r3, [r4, #2]
 8001f9e:	f000 f92d 	bl	80021fc <ssd1306_SetCursor>
 8001fa2:	4b05      	ldr	r3, [pc, #20]	; (8001fb8 <menu_start+0x30>)
 8001fa4:	4805      	ldr	r0, [pc, #20]	; (8001fbc <menu_start+0x34>)
 8001fa6:	e893 0006 	ldmia.w	r3, {r1, r2}
 8001faa:	f000 f915 	bl	80021d8 <ssd1306_WriteString>
 8001fae:	e8bd 4010 	ldmia.w	sp!, {r4, lr}
 8001fb2:	f000 b94f 	b.w	8002254 <ssd1306_UpdateScreen>
 8001fb6:	bf00      	nop
 8001fb8:	20000018 	.word	0x20000018
 8001fbc:	08009974 	.word	0x08009974

08001fc0 <menu_choice>:
 8001fc0:	b510      	push	{r4, lr}
 8001fc2:	4604      	mov	r4, r0
 8001fc4:	200a      	movs	r0, #10
 8001fc6:	f004 fda4 	bl	8006b12 <osDelay>
 8001fca:	2100      	movs	r1, #0
 8001fcc:	4608      	mov	r0, r1
 8001fce:	f000 f915 	bl	80021fc <ssd1306_SetCursor>
 8001fd2:	4b06      	ldr	r3, [pc, #24]	; (8001fec <menu_choice+0x2c>)
 8001fd4:	78a0      	ldrb	r0, [r4, #2]
 8001fd6:	e893 0006 	ldmia.w	r3, {r1, r2}
 8001fda:	4b05      	ldr	r3, [pc, #20]	; (8001ff0 <menu_choice+0x30>)
 8001fdc:	f853 0020 	ldr.w	r0, [r3, r0, lsl #2]
 8001fe0:	f000 f8fa 	bl	80021d8 <ssd1306_WriteString>
 8001fe4:	e8bd 4010 	ldmia.w	sp!, {r4, lr}
 8001fe8:	f000 b934 	b.w	8002254 <ssd1306_UpdateScreen>
 8001fec:	20000018 	.word	0x20000018
 8001ff0:	20000020 	.word	0x20000020

08001ff4 <menu_display>:
 8001ff4:	b570      	push	{r4, r5, r6, lr}
 8001ff6:	4605      	mov	r5, r0
 8001ff8:	2001      	movs	r0, #1
 8001ffa:	f004 fd8a 	bl	8006b12 <osDelay>
 8001ffe:	2100      	movs	r1, #0
 8002000:	4608      	mov	r0, r1
 8002002:	f000 f8fb 	bl	80021fc <ssd1306_SetCursor>
 8002006:	4c19      	ldr	r4, [pc, #100]	; (800206c <menu_display+0x78>)
 8002008:	782b      	ldrb	r3, [r5, #0]
 800200a:	4e19      	ldr	r6, [pc, #100]	; (8002070 <menu_display+0x7c>)
 800200c:	e894 0006 	ldmia.w	r4, {r1, r2}
 8002010:	f856 0023 	ldr.w	r0, [r6, r3, lsl #2]
 8002014:	f000 f8e0 	bl	80021d8 <ssd1306_WriteString>
 8002018:	2114      	movs	r1, #20
 800201a:	2000      	movs	r0, #0
 800201c:	f000 f8ee 	bl	80021fc <ssd1306_SetCursor>
 8002020:	e894 0006 	ldmia.w	r4, {r1, r2}
 8002024:	782b      	ldrb	r3, [r5, #0]
 8002026:	3301      	adds	r3, #1
 8002028:	f856 0023 	ldr.w	r0, [r6, r3, lsl #2]
 800202c:	f000 f8d4 	bl	80021d8 <ssd1306_WriteString>
 8002030:	2128      	movs	r1, #40	; 0x28
 8002032:	2000      	movs	r0, #0
 8002034:	f000 f8e2 	bl	80021fc <ssd1306_SetCursor>
 8002038:	e894 0006 	ldmia.w	r4, {r1, r2}
 800203c:	782b      	ldrb	r3, [r5, #0]
 800203e:	3302      	adds	r3, #2
 8002040:	f856 0023 	ldr.w	r0, [r6, r3, lsl #2]
 8002044:	f000 f8c8 	bl	80021d8 <ssd1306_WriteString>
 8002048:	f000 f904 	bl	8002254 <ssd1306_UpdateScreen>
 800204c:	786b      	ldrb	r3, [r5, #1]
 800204e:	4a09      	ldr	r2, [pc, #36]	; (8002074 <menu_display+0x80>)
 8002050:	2064      	movs	r0, #100	; 0x64
 8002052:	5cd1      	ldrb	r1, [r2, r3]
 8002054:	f000 f8d2 	bl	80021fc <ssd1306_SetCursor>
 8002058:	e894 0006 	ldmia.w	r4, {r1, r2}
 800205c:	4806      	ldr	r0, [pc, #24]	; (8002078 <menu_display+0x84>)
 800205e:	f000 f8bb 	bl	80021d8 <ssd1306_WriteString>
 8002062:	e8bd 4070 	ldmia.w	sp!, {r4, r5, r6, lr}
 8002066:	f000 b8f5 	b.w	8002254 <ssd1306_UpdateScreen>
 800206a:	bf00      	nop
 800206c:	20000018 	.word	0x20000018
 8002070:	20000030 	.word	0x20000030
 8002074:	080099a1 	.word	0x080099a1
 8002078:	0800997e 	.word	0x0800997e

0800207c <menu_button_plus>:
 800207c:	b510      	push	{r4, lr}
 800207e:	4604      	mov	r4, r0
 8002080:	f000 f8c2 	bl	8002208 <ssd1306_Clear>
 8002084:	7863      	ldrb	r3, [r4, #1]
 8002086:	3301      	adds	r3, #1
 8002088:	b2db      	uxtb	r3, r3
 800208a:	7063      	strb	r3, [r4, #1]
 800208c:	78a3      	ldrb	r3, [r4, #2]
 800208e:	3301      	adds	r3, #1
 8002090:	b2db      	uxtb	r3, r3
 8002092:	70a3      	strb	r3, [r4, #2]
 8002094:	78a3      	ldrb	r3, [r4, #2]
 8002096:	2b04      	cmp	r3, #4
 8002098:	bf84      	itt	hi
 800209a:	2300      	movhi	r3, #0
 800209c:	70a3      	strbhi	r3, [r4, #2]
 800209e:	7863      	ldrb	r3, [r4, #1]
 80020a0:	2b02      	cmp	r3, #2
 80020a2:	d905      	bls.n	80020b0 <menu_button_plus+0x34>
 80020a4:	2302      	movs	r3, #2
 80020a6:	7063      	strb	r3, [r4, #1]
 80020a8:	7823      	ldrb	r3, [r4, #0]
 80020aa:	3301      	adds	r3, #1
 80020ac:	b2db      	uxtb	r3, r3
 80020ae:	7023      	strb	r3, [r4, #0]
 80020b0:	7823      	ldrb	r3, [r4, #0]
 80020b2:	2b02      	cmp	r3, #2
 80020b4:	bf82      	ittt	hi
 80020b6:	2300      	movhi	r3, #0
 80020b8:	7023      	strbhi	r3, [r4, #0]
 80020ba:	7063      	strbhi	r3, [r4, #1]
 80020bc:	bd10      	pop	{r4, pc}
	...

080020c0 <ssd1306_SetColor>:
 80020c0:	4b01      	ldr	r3, [pc, #4]	; (80020c8 <ssd1306_SetColor+0x8>)
 80020c2:	7158      	strb	r0, [r3, #5]
 80020c4:	4770      	bx	lr
 80020c6:	bf00      	nop
 80020c8:	20000600 	.word	0x20000600

080020cc <ssd1306_DrawPixel>:
 80020cc:	0603      	lsls	r3, r0, #24
 80020ce:	b530      	push	{r4, r5, lr}
 80020d0:	d411      	bmi.n	80020f6 <ssd1306_DrawPixel+0x2a>
 80020d2:	293f      	cmp	r1, #63	; 0x3f
 80020d4:	d80f      	bhi.n	80020f6 <ssd1306_DrawPixel+0x2a>
 80020d6:	4b0e      	ldr	r3, [pc, #56]	; (8002110 <ssd1306_DrawPixel+0x44>)
 80020d8:	4a0e      	ldr	r2, [pc, #56]	; (8002114 <ssd1306_DrawPixel+0x48>)
 80020da:	791d      	ldrb	r5, [r3, #4]
 80020dc:	795c      	ldrb	r4, [r3, #5]
 80020de:	08cb      	lsrs	r3, r1, #3
 80020e0:	f001 0107 	and.w	r1, r1, #7
 80020e4:	b145      	cbz	r5, 80020f8 <ssd1306_DrawPixel+0x2c>
 80020e6:	b94c      	cbnz	r4, 80020fc <ssd1306_DrawPixel+0x30>
 80020e8:	eb00 10c3 	add.w	r0, r0, r3, lsl #7
 80020ec:	2301      	movs	r3, #1
 80020ee:	408b      	lsls	r3, r1
 80020f0:	5c11      	ldrb	r1, [r2, r0]
 80020f2:	430b      	orrs	r3, r1
 80020f4:	5413      	strb	r3, [r2, r0]
 80020f6:	bd30      	pop	{r4, r5, pc}
 80020f8:	2c01      	cmp	r4, #1
 80020fa:	d0f5      	beq.n	80020e8 <ssd1306_DrawPixel+0x1c>
 80020fc:	eb00 10c3 	add.w	r0, r0, r3, lsl #7
 8002100:	2301      	movs	r3, #1
 8002102:	fa03 f101 	lsl.w	r1, r3, r1
 8002106:	5c13      	ldrb	r3, [r2, r0]
 8002108:	ea23 0301 	bic.w	r3, r3, r1
 800210c:	e7f2      	b.n	80020f4 <ssd1306_DrawPixel+0x28>
 800210e:	bf00      	nop
 8002110:	20000600 	.word	0x20000600
 8002114:	20000608 	.word	0x20000608

08002118 <ssd1306_WriteChar>:
 8002118:	e92d 4ff0 	stmdb	sp!, {r4, r5, r6, r7, r8, r9, sl, fp, lr}
 800211c:	b087      	sub	sp, #28
 800211e:	ab06      	add	r3, sp, #24
 8002120:	e903 0006 	stmdb	r3, {r1, r2}
 8002124:	4f2b      	ldr	r7, [pc, #172]	; (80021d4 <ssd1306_WriteChar+0xbc>)
 8002126:	f89d b010 	ldrb.w	fp, [sp, #16]
 800212a:	883e      	ldrh	r6, [r7, #0]
 800212c:	4605      	mov	r5, r0
 800212e:	eb06 020b 	add.w	r2, r6, fp
 8002132:	2a7f      	cmp	r2, #127	; 0x7f
 8002134:	dc4b      	bgt.n	80021ce <ssd1306_WriteChar+0xb6>
 8002136:	887b      	ldrh	r3, [r7, #2]
 8002138:	f89d 2011 	ldrb.w	r2, [sp, #17]
 800213c:	9300      	str	r3, [sp, #0]
 800213e:	1899      	adds	r1, r3, r2
 8002140:	293f      	cmp	r1, #63	; 0x3f
 8002142:	dc44      	bgt.n	80021ce <ssd1306_WriteChar+0xb6>
 8002144:	f04f 0900 	mov.w	r9, #0
 8002148:	f1a0 0420 	sub.w	r4, r0, #32
 800214c:	4354      	muls	r4, r2
 800214e:	0064      	lsls	r4, r4, #1
 8002150:	454a      	cmp	r2, r9
 8002152:	d806      	bhi.n	8002162 <ssd1306_WriteChar+0x4a>
 8002154:	4b1f      	ldr	r3, [pc, #124]	; (80021d4 <ssd1306_WriteChar+0xbc>)
 8002156:	445e      	add	r6, fp
 8002158:	801e      	strh	r6, [r3, #0]
 800215a:	4628      	mov	r0, r5
 800215c:	b007      	add	sp, #28
 800215e:	e8bd 8ff0 	ldmia.w	sp!, {r4, r5, r6, r7, r8, r9, sl, fp, pc}
 8002162:	f04f 0800 	mov.w	r8, #0
 8002166:	9905      	ldr	r1, [sp, #20]
 8002168:	5b0b      	ldrh	r3, [r1, r4]
 800216a:	9301      	str	r3, [sp, #4]
 800216c:	9b00      	ldr	r3, [sp, #0]
 800216e:	eb09 0103 	add.w	r1, r9, r3
 8002172:	b2c9      	uxtb	r1, r1
 8002174:	45c3      	cmp	fp, r8
 8002176:	d803      	bhi.n	8002180 <ssd1306_WriteChar+0x68>
 8002178:	f109 0901 	add.w	r9, r9, #1
 800217c:	3402      	adds	r4, #2
 800217e:	e7e7      	b.n	8002150 <ssd1306_WriteChar+0x38>
 8002180:	9b01      	ldr	r3, [sp, #4]
 8002182:	eb08 0006 	add.w	r0, r8, r6
 8002186:	fa03 fc08 	lsl.w	ip, r3, r8
 800218a:	f41c 4f00 	tst.w	ip, #32768	; 0x8000
 800218e:	b2c0      	uxtb	r0, r0
 8002190:	9203      	str	r2, [sp, #12]
 8002192:	d007      	beq.n	80021a4 <ssd1306_WriteChar+0x8c>
 8002194:	9102      	str	r1, [sp, #8]
 8002196:	f7ff ff99 	bl	80020cc <ssd1306_DrawPixel>
 800219a:	e9dd 1202 	ldrd	r1, r2, [sp, #8]
 800219e:	f108 0801 	add.w	r8, r8, #1
 80021a2:	e7e7      	b.n	8002174 <ssd1306_WriteChar+0x5c>
 80021a4:	f897 a005 	ldrb.w	sl, [r7, #5]
 80021a8:	9102      	str	r1, [sp, #8]
 80021aa:	faba fc8a 	clz	ip, sl
 80021ae:	ea4f 1c5c 	mov.w	ip, ip, lsr #5
 80021b2:	f887 c005 	strb.w	ip, [r7, #5]
 80021b6:	f7ff ff89 	bl	80020cc <ssd1306_DrawPixel>
 80021ba:	e9dd 1202 	ldrd	r1, r2, [sp, #8]
 80021be:	f1ba 0a00 	subs.w	sl, sl, #0
 80021c2:	bf18      	it	ne
 80021c4:	f04f 0a01 	movne.w	sl, #1
 80021c8:	f887 a005 	strb.w	sl, [r7, #5]
 80021cc:	e7e7      	b.n	800219e <ssd1306_WriteChar+0x86>
 80021ce:	2500      	movs	r5, #0
 80021d0:	e7c3      	b.n	800215a <ssd1306_WriteChar+0x42>
 80021d2:	bf00      	nop
 80021d4:	20000600 	.word	0x20000600

080021d8 <ssd1306_WriteString>:
 80021d8:	b537      	push	{r0, r1, r2, r4, r5, lr}
 80021da:	466d      	mov	r5, sp
 80021dc:	e885 0006 	stmia.w	r5, {r1, r2}
 80021e0:	1e44      	subs	r4, r0, #1
 80021e2:	f814 0f01 	ldrb.w	r0, [r4, #1]!
 80021e6:	b138      	cbz	r0, 80021f8 <ssd1306_WriteString+0x20>
 80021e8:	e895 0006 	ldmia.w	r5, {r1, r2}
 80021ec:	f7ff ff94 	bl	8002118 <ssd1306_WriteChar>
 80021f0:	4603      	mov	r3, r0
 80021f2:	7820      	ldrb	r0, [r4, #0]
 80021f4:	4283      	cmp	r3, r0
 80021f6:	d0f4      	beq.n	80021e2 <ssd1306_WriteString+0xa>
 80021f8:	b003      	add	sp, #12
 80021fa:	bd30      	pop	{r4, r5, pc}

080021fc <ssd1306_SetCursor>:
 80021fc:	4b01      	ldr	r3, [pc, #4]	; (8002204 <ssd1306_SetCursor+0x8>)
 80021fe:	8018      	strh	r0, [r3, #0]
 8002200:	8059      	strh	r1, [r3, #2]
 8002202:	4770      	bx	lr
 8002204:	20000600 	.word	0x20000600

08002208 <ssd1306_Clear>:
 8002208:	f44f 6280 	mov.w	r2, #1024	; 0x400
 800220c:	2100      	movs	r1, #0
 800220e:	4801      	ldr	r0, [pc, #4]	; (8002214 <ssd1306_Clear+0xc>)
 8002210:	f006 b818 	b.w	8008244 <memset>
 8002214:	20000608 	.word	0x20000608

08002218 <ssd1306_WriteCommand>:
 8002218:	b513      	push	{r0, r1, r4, lr}
 800221a:	4604      	mov	r4, r0
 800221c:	4a0a      	ldr	r2, [pc, #40]	; (8002248 <ssd1306_WriteCommand+0x30>)
 800221e:	7813      	ldrb	r3, [r2, #0]
 8002220:	2b00      	cmp	r3, #0
 8002222:	d1fc      	bne.n	800221e <ssd1306_WriteCommand+0x6>
 8002224:	4809      	ldr	r0, [pc, #36]	; (800224c <ssd1306_WriteCommand+0x34>)
 8002226:	f002 f931 	bl	800448c <HAL_I2C_GetState>
 800222a:	2820      	cmp	r0, #32
 800222c:	d1fa      	bne.n	8002224 <ssd1306_WriteCommand+0xc>
 800222e:	2301      	movs	r3, #1
 8002230:	4a07      	ldr	r2, [pc, #28]	; (8002250 <ssd1306_WriteCommand+0x38>)
 8002232:	2178      	movs	r1, #120	; 0x78
 8002234:	7014      	strb	r4, [r2, #0]
 8002236:	4805      	ldr	r0, [pc, #20]	; (800224c <ssd1306_WriteCommand+0x34>)
 8002238:	e9cd 2300 	strd	r2, r3, [sp]
 800223c:	2200      	movs	r2, #0
 800223e:	f001 f95d 	bl	80034fc <HAL_I2C_Mem_Write_DMA>
 8002242:	b002      	add	sp, #8
 8002244:	bd10      	pop	{r4, pc}
 8002246:	bf00      	nop
 8002248:	20000a0b 	.word	0x20000a0b
 800224c:	200004f0 	.word	0x200004f0
 8002250:	20000a09 	.word	0x20000a09

08002254 <ssd1306_UpdateScreen>:
 8002254:	b507      	push	{r0, r1, r2, lr}
 8002256:	4b12      	ldr	r3, [pc, #72]	; (80022a0 <ssd1306_UpdateScreen+0x4c>)
 8002258:	7819      	ldrb	r1, [r3, #0]
 800225a:	f001 02ff 	and.w	r2, r1, #255	; 0xff
 800225e:	b989      	cbnz	r1, 8002284 <ssd1306_UpdateScreen+0x30>
 8002260:	2140      	movs	r1, #64	; 0x40
 8002262:	7019      	strb	r1, [r3, #0]
 8002264:	2160      	movs	r1, #96	; 0x60
 8002266:	4b0f      	ldr	r3, [pc, #60]	; (80022a4 <ssd1306_UpdateScreen+0x50>)
 8002268:	480f      	ldr	r0, [pc, #60]	; (80022a8 <ssd1306_UpdateScreen+0x54>)
 800226a:	7019      	strb	r1, [r3, #0]
 800226c:	23b0      	movs	r3, #176	; 0xb0
 800226e:	490f      	ldr	r1, [pc, #60]	; (80022ac <ssd1306_UpdateScreen+0x58>)
 8002270:	700b      	strb	r3, [r1, #0]
 8002272:	2301      	movs	r3, #1
 8002274:	e9cd 1300 	strd	r1, r3, [sp]
 8002278:	2178      	movs	r1, #120	; 0x78
 800227a:	f001 f93f 	bl	80034fc <HAL_I2C_Mem_Write_DMA>
 800227e:	b003      	add	sp, #12
 8002280:	f85d fb04 	ldr.w	pc, [sp], #4
 8002284:	781a      	ldrb	r2, [r3, #0]
 8002286:	2a3f      	cmp	r2, #63	; 0x3f
 8002288:	d9f9      	bls.n	800227e <ssd1306_UpdateScreen+0x2a>
 800228a:	781a      	ldrb	r2, [r3, #0]
 800228c:	3a20      	subs	r2, #32
 800228e:	b2d2      	uxtb	r2, r2
 8002290:	701a      	strb	r2, [r3, #0]
 8002292:	781b      	ldrb	r3, [r3, #0]
 8002294:	4a03      	ldr	r2, [pc, #12]	; (80022a4 <ssd1306_UpdateScreen+0x50>)
 8002296:	3321      	adds	r3, #33	; 0x21
 8002298:	f003 03fc 	and.w	r3, r3, #252	; 0xfc
 800229c:	7013      	strb	r3, [r2, #0]
 800229e:	e7ee      	b.n	800227e <ssd1306_UpdateScreen+0x2a>
 80022a0:	20000a0b 	.word	0x20000a0b
 80022a4:	20000a0a 	.word	0x20000a0a
 80022a8:	200004f0 	.word	0x200004f0
 80022ac:	20000a09 	.word	0x20000a09

080022b0 <ssd1306_Init>:
 80022b0:	b538      	push	{r3, r4, r5, lr}
 80022b2:	2205      	movs	r2, #5
 80022b4:	f44f 737a 	mov.w	r3, #1000	; 0x3e8
 80022b8:	2178      	movs	r1, #120	; 0x78
 80022ba:	4839      	ldr	r0, [pc, #228]	; (80023a0 <ssd1306_Init+0xf0>)
 80022bc:	f001 f9e4 	bl	8003688 <HAL_I2C_IsDeviceReady>
 80022c0:	4d38      	ldr	r5, [pc, #224]	; (80023a4 <ssd1306_Init+0xf4>)
 80022c2:	4604      	mov	r4, r0
 80022c4:	2800      	cmp	r0, #0
 80022c6:	d168      	bne.n	800239a <ssd1306_Init+0xea>
 80022c8:	2064      	movs	r0, #100	; 0x64
 80022ca:	f000 f99f 	bl	800260c <HAL_Delay>
 80022ce:	20ae      	movs	r0, #174	; 0xae
 80022d0:	f7ff ffa2 	bl	8002218 <ssd1306_WriteCommand>
 80022d4:	20d5      	movs	r0, #213	; 0xd5
 80022d6:	f7ff ff9f 	bl	8002218 <ssd1306_WriteCommand>
 80022da:	20f0      	movs	r0, #240	; 0xf0
 80022dc:	f7ff ff9c 	bl	8002218 <ssd1306_WriteCommand>
 80022e0:	20a8      	movs	r0, #168	; 0xa8
 80022e2:	f7ff ff99 	bl	8002218 <ssd1306_WriteCommand>
 80022e6:	203f      	movs	r0, #63	; 0x3f
 80022e8:	f7ff ff96 	bl	8002218 <ssd1306_WriteCommand>
 80022ec:	20d3      	movs	r0, #211	; 0xd3
 80022ee:	f7ff ff93 	bl	8002218 <ssd1306_WriteCommand>
 80022f2:	4620      	mov	r0, r4
 80022f4:	f7ff ff90 	bl	8002218 <ssd1306_WriteCommand>
 80022f8:	2040      	movs	r0, #64	; 0x40
 80022fa:	f7ff ff8d 	bl	8002218 <ssd1306_WriteCommand>
 80022fe:	208d      	movs	r0, #141	; 0x8d
 8002300:	f7ff ff8a 	bl	8002218 <ssd1306_WriteCommand>
 8002304:	2014      	movs	r0, #20
 8002306:	f7ff ff87 	bl	8002218 <ssd1306_WriteCommand>
 800230a:	2020      	movs	r0, #32
 800230c:	f7ff ff84 	bl	8002218 <ssd1306_WriteCommand>
 8002310:	4620      	mov	r0, r4
 8002312:	f7ff ff81 	bl	8002218 <ssd1306_WriteCommand>
 8002316:	20a0      	movs	r0, #160	; 0xa0
 8002318:	f7ff ff7e 	bl	8002218 <ssd1306_WriteCommand>
 800231c:	4c22      	ldr	r4, [pc, #136]	; (80023a8 <ssd1306_Init+0xf8>)
 800231e:	20c0      	movs	r0, #192	; 0xc0
 8002320:	f7ff ff7a 	bl	8002218 <ssd1306_WriteCommand>
 8002324:	20da      	movs	r0, #218	; 0xda
 8002326:	f7ff ff77 	bl	8002218 <ssd1306_WriteCommand>
 800232a:	7823      	ldrb	r3, [r4, #0]
 800232c:	bb6b      	cbnz	r3, 800238a <ssd1306_Init+0xda>
 800232e:	2012      	movs	r0, #18
 8002330:	f7ff ff72 	bl	8002218 <ssd1306_WriteCommand>
 8002334:	2081      	movs	r0, #129	; 0x81
 8002336:	f7ff ff6f 	bl	8002218 <ssd1306_WriteCommand>
 800233a:	7823      	ldrb	r3, [r4, #0]
 800233c:	bb4b      	cbnz	r3, 8002392 <ssd1306_Init+0xe2>
 800233e:	20cf      	movs	r0, #207	; 0xcf
 8002340:	f7ff ff6a 	bl	8002218 <ssd1306_WriteCommand>
 8002344:	20d9      	movs	r0, #217	; 0xd9
 8002346:	f7ff ff67 	bl	8002218 <ssd1306_WriteCommand>
 800234a:	20f1      	movs	r0, #241	; 0xf1
 800234c:	f7ff ff64 	bl	8002218 <ssd1306_WriteCommand>
 8002350:	20db      	movs	r0, #219	; 0xdb
 8002352:	f7ff ff61 	bl	8002218 <ssd1306_WriteCommand>
 8002356:	2040      	movs	r0, #64	; 0x40
 8002358:	f7ff ff5e 	bl	8002218 <ssd1306_WriteCommand>
 800235c:	20a4      	movs	r0, #164	; 0xa4
 800235e:	f7ff ff5b 	bl	8002218 <ssd1306_WriteCommand>
 8002362:	20a6      	movs	r0, #166	; 0xa6
 8002364:	f7ff ff58 	bl	8002218 <ssd1306_WriteCommand>
 8002368:	202e      	movs	r0, #46	; 0x2e
 800236a:	f7ff ff55 	bl	8002218 <ssd1306_WriteCommand>
 800236e:	20af      	movs	r0, #175	; 0xaf
 8002370:	f7ff ff52 	bl	8002218 <ssd1306_WriteCommand>
 8002374:	2300      	movs	r3, #0
 8002376:	802b      	strh	r3, [r5, #0]
 8002378:	806b      	strh	r3, [r5, #2]
 800237a:	716b      	strb	r3, [r5, #5]
 800237c:	f7ff ff44 	bl	8002208 <ssd1306_Clear>
 8002380:	f7ff ff68 	bl	8002254 <ssd1306_UpdateScreen>
 8002384:	2001      	movs	r0, #1
 8002386:	71a8      	strb	r0, [r5, #6]
 8002388:	bd38      	pop	{r3, r4, r5, pc}
 800238a:	2b01      	cmp	r3, #1
 800238c:	d1d2      	bne.n	8002334 <ssd1306_Init+0x84>
 800238e:	2002      	movs	r0, #2
 8002390:	e7ce      	b.n	8002330 <ssd1306_Init+0x80>
 8002392:	2b01      	cmp	r3, #1
 8002394:	d1d6      	bne.n	8002344 <ssd1306_Init+0x94>
 8002396:	208f      	movs	r0, #143	; 0x8f
 8002398:	e7d2      	b.n	8002340 <ssd1306_Init+0x90>
 800239a:	2000      	movs	r0, #0
 800239c:	e7f3      	b.n	8002386 <ssd1306_Init+0xd6>
 800239e:	bf00      	nop
 80023a0:	200004f0 	.word	0x200004f0
 80023a4:	20000600 	.word	0x20000600
 80023a8:	20000a08 	.word	0x20000a08

080023ac <ssd1306_UpdateCompletedCallback>:
 80023ac:	4770      	bx	lr
	...

080023b0 <HAL_I2C_MemTxCpltCallback>:
 80023b0:	4603      	mov	r3, r0
 80023b2:	b507      	push	{r0, r1, r2, lr}
 80023b4:	481f      	ldr	r0, [pc, #124]	; (8002434 <HAL_I2C_MemTxCpltCallback+0x84>)
 80023b6:	681a      	ldr	r2, [r3, #0]
 80023b8:	6803      	ldr	r3, [r0, #0]
 80023ba:	429a      	cmp	r2, r3
 80023bc:	d11e      	bne.n	80023fc <HAL_I2C_MemTxCpltCallback+0x4c>
 80023be:	4a1e      	ldr	r2, [pc, #120]	; (8002438 <HAL_I2C_MemTxCpltCallback+0x88>)
 80023c0:	7813      	ldrb	r3, [r2, #0]
 80023c2:	b1db      	cbz	r3, 80023fc <HAL_I2C_MemTxCpltCallback+0x4c>
 80023c4:	4b1d      	ldr	r3, [pc, #116]	; (800243c <HAL_I2C_MemTxCpltCallback+0x8c>)
 80023c6:	7811      	ldrb	r1, [r2, #0]
 80023c8:	781b      	ldrb	r3, [r3, #0]
 80023ca:	4299      	cmp	r1, r3
 80023cc:	d22d      	bcs.n	800242a <HAL_I2C_MemTxCpltCallback+0x7a>
 80023ce:	7813      	ldrb	r3, [r2, #0]
 80023d0:	3301      	adds	r3, #1
 80023d2:	b2db      	uxtb	r3, r3
 80023d4:	7013      	strb	r3, [r2, #0]
 80023d6:	7813      	ldrb	r3, [r2, #0]
 80023d8:	f003 0303 	and.w	r3, r3, #3
 80023dc:	2b03      	cmp	r3, #3
 80023de:	d110      	bne.n	8002402 <HAL_I2C_MemTxCpltCallback+0x52>
 80023e0:	2380      	movs	r3, #128	; 0x80
 80023e2:	7812      	ldrb	r2, [r2, #0]
 80023e4:	9301      	str	r3, [sp, #4]
 80023e6:	4b16      	ldr	r3, [pc, #88]	; (8002440 <HAL_I2C_MemTxCpltCallback+0x90>)
 80023e8:	f3c2 0282 	ubfx	r2, r2, #2, #3
 80023ec:	eb03 13c2 	add.w	r3, r3, r2, lsl #7
 80023f0:	9300      	str	r3, [sp, #0]
 80023f2:	2240      	movs	r2, #64	; 0x40
 80023f4:	2301      	movs	r3, #1
 80023f6:	2178      	movs	r1, #120	; 0x78
 80023f8:	f001 f880 	bl	80034fc <HAL_I2C_Mem_Write_DMA>
 80023fc:	b003      	add	sp, #12
 80023fe:	f85d fb04 	ldr.w	pc, [sp], #4
 8002402:	b96b      	cbnz	r3, 8002420 <HAL_I2C_MemTxCpltCallback+0x70>
 8002404:	7813      	ldrb	r3, [r2, #0]
 8002406:	f3c3 0382 	ubfx	r3, r3, #2, #3
 800240a:	3b50      	subs	r3, #80	; 0x50
 800240c:	b2db      	uxtb	r3, r3
 800240e:	4a0d      	ldr	r2, [pc, #52]	; (8002444 <HAL_I2C_MemTxCpltCallback+0x94>)
 8002410:	2178      	movs	r1, #120	; 0x78
 8002412:	7013      	strb	r3, [r2, #0]
 8002414:	2301      	movs	r3, #1
 8002416:	4807      	ldr	r0, [pc, #28]	; (8002434 <HAL_I2C_MemTxCpltCallback+0x84>)
 8002418:	e9cd 2300 	strd	r2, r3, [sp]
 800241c:	2200      	movs	r2, #0
 800241e:	e7eb      	b.n	80023f8 <HAL_I2C_MemTxCpltCallback+0x48>
 8002420:	3b01      	subs	r3, #1
 8002422:	bf18      	it	ne
 8002424:	2301      	movne	r3, #1
 8002426:	011b      	lsls	r3, r3, #4
 8002428:	e7f1      	b.n	800240e <HAL_I2C_MemTxCpltCallback+0x5e>
 800242a:	2300      	movs	r3, #0
 800242c:	7013      	strb	r3, [r2, #0]
 800242e:	f7ff ffbd 	bl	80023ac <ssd1306_UpdateCompletedCallback>
 8002432:	e7e3      	b.n	80023fc <HAL_I2C_MemTxCpltCallback+0x4c>
 8002434:	200004f0 	.word	0x200004f0
 8002438:	20000a0b 	.word	0x20000a0b
 800243c:	20000a0a 	.word	0x20000a0a
 8002440:	20000608 	.word	0x20000608
 8002444:	20000a09 	.word	0x20000a09

08002448 <Mount_SD>:
 8002448:	4601      	mov	r1, r0
 800244a:	b508      	push	{r3, lr}
 800244c:	2201      	movs	r2, #1
 800244e:	4803      	ldr	r0, [pc, #12]	; (800245c <Mount_SD+0x14>)
 8002450:	f004 f84e 	bl	80064f0 <f_mount>
 8002454:	4b02      	ldr	r3, [pc, #8]	; (8002460 <Mount_SD+0x18>)
 8002456:	7018      	strb	r0, [r3, #0]
 8002458:	bd08      	pop	{r3, pc}
 800245a:	bf00      	nop
 800245c:	20000a3c 	.word	0x20000a3c
 8002460:	20000a38 	.word	0x20000a38

08002464 <Close_File>:
 8002464:	b508      	push	{r3, lr}
 8002466:	4803      	ldr	r0, [pc, #12]	; (8002474 <Close_File+0x10>)
 8002468:	f004 faa7 	bl	80069ba <f_close>
 800246c:	4b02      	ldr	r3, [pc, #8]	; (8002478 <Close_File+0x14>)
 800246e:	7018      	strb	r0, [r3, #0]
 8002470:	bd08      	pop	{r3, pc}
 8002472:	bf00      	nop
 8002474:	20000a0c 	.word	0x20000a0c
 8002478:	20000a38 	.word	0x20000a38

0800247c <Open_File>:
 800247c:	b5f0      	push	{r4, r5, r6, r7, lr}
 800247e:	7804      	ldrb	r4, [r0, #0]
 8002480:	4601      	mov	r1, r0
 8002482:	4d20      	ldr	r5, [pc, #128]	; (8002504 <Open_File+0x88>)
 8002484:	b089      	sub	sp, #36	; 0x24
 8002486:	2c00      	cmp	r4, #0
 8002488:	d13a      	bne.n	8002500 <Open_File+0x84>
 800248a:	4627      	mov	r7, r4
 800248c:	4626      	mov	r6, r4
 800248e:	4a1e      	ldr	r2, [pc, #120]	; (8002508 <Open_File+0x8c>)
 8002490:	ab02      	add	r3, sp, #8
 8002492:	6810      	ldr	r0, [r2, #0]
 8002494:	6851      	ldr	r1, [r2, #4]
 8002496:	7a12      	ldrb	r2, [r2, #8]
 8002498:	c303      	stmia	r3!, {r0, r1}
 800249a:	701a      	strb	r2, [r3, #0]
 800249c:	4622      	mov	r2, r4
 800249e:	491b      	ldr	r1, [pc, #108]	; (800250c <Open_File+0x90>)
 80024a0:	a805      	add	r0, sp, #20
 80024a2:	e9cd 6605 	strd	r6, r6, [sp, #20]
 80024a6:	f8ad 701c 	strh.w	r7, [sp, #28]
 80024aa:	f005 fe91 	bl	80081d0 <siprintf>
 80024ae:	2207      	movs	r2, #7
 80024b0:	4817      	ldr	r0, [pc, #92]	; (8002510 <Open_File+0x94>)
 80024b2:	a905      	add	r1, sp, #20
 80024b4:	f004 f85e 	bl	8006574 <f_open>
 80024b8:	2808      	cmp	r0, #8
 80024ba:	7028      	strb	r0, [r5, #0]
 80024bc:	d101      	bne.n	80024c2 <Open_File+0x46>
 80024be:	3401      	adds	r4, #1
 80024c0:	e7ec      	b.n	800249c <Open_File+0x20>
 80024c2:	2800      	cmp	r0, #0
 80024c4:	d1ea      	bne.n	800249c <Open_File+0x20>
 80024c6:	4622      	mov	r2, r4
 80024c8:	4912      	ldr	r1, [pc, #72]	; (8002514 <Open_File+0x98>)
 80024ca:	4668      	mov	r0, sp
 80024cc:	f005 fe80 	bl	80081d0 <siprintf>
 80024d0:	480f      	ldr	r0, [pc, #60]	; (8002510 <Open_File+0x94>)
 80024d2:	f004 fa72 	bl	80069ba <f_close>
 80024d6:	2213      	movs	r2, #19
 80024d8:	a902      	add	r1, sp, #8
 80024da:	480d      	ldr	r0, [pc, #52]	; (8002510 <Open_File+0x94>)
 80024dc:	f004 f84a 	bl	8006574 <f_open>
 80024e0:	490b      	ldr	r1, [pc, #44]	; (8002510 <Open_File+0x94>)
 80024e2:	4668      	mov	r0, sp
 80024e4:	f004 fa81 	bl	80069ea <f_puts>
 80024e8:	7028      	strb	r0, [r5, #0]
 80024ea:	4809      	ldr	r0, [pc, #36]	; (8002510 <Open_File+0x94>)
 80024ec:	f004 fa65 	bl	80069ba <f_close>
 80024f0:	2213      	movs	r2, #19
 80024f2:	a905      	add	r1, sp, #20
 80024f4:	4806      	ldr	r0, [pc, #24]	; (8002510 <Open_File+0x94>)
 80024f6:	f004 f83d 	bl	8006574 <f_open>
 80024fa:	7028      	strb	r0, [r5, #0]
 80024fc:	b009      	add	sp, #36	; 0x24
 80024fe:	bdf0      	pop	{r4, r5, r6, r7, pc}
 8002500:	2213      	movs	r2, #19
 8002502:	e7f7      	b.n	80024f4 <Open_File+0x78>
 8002504:	20000a38 	.word	0x20000a38
 8002508:	080099b2 	.word	0x080099b2
 800250c:	080099a4 	.word	0x080099a4
 8002510:	20000a0c 	.word	0x20000a0c
 8002514:	080099ad 	.word	0x080099ad

08002518 <Write_File>:
 8002518:	b508      	push	{r3, lr}
 800251a:	4903      	ldr	r1, [pc, #12]	; (8002528 <Write_File+0x10>)
 800251c:	f004 fa65 	bl	80069ea <f_puts>
 8002520:	4b02      	ldr	r3, [pc, #8]	; (800252c <Write_File+0x14>)
 8002522:	b2c0      	uxtb	r0, r0
 8002524:	7018      	strb	r0, [r3, #0]
 8002526:	bd08      	pop	{r3, pc}
 8002528:	20000a0c 	.word	0x20000a0c
 800252c:	20000a38 	.word	0x20000a38

08002530 <Reset_Handler>:
 8002530:	f7ff f95a 	bl	80017e8 <SystemInit>
 8002534:	480b      	ldr	r0, [pc, #44]	; (8002564 <LoopFillZerobss+0xe>)
 8002536:	490c      	ldr	r1, [pc, #48]	; (8002568 <LoopFillZerobss+0x12>)
 8002538:	4a0c      	ldr	r2, [pc, #48]	; (800256c <LoopFillZerobss+0x16>)
 800253a:	2300      	movs	r3, #0
 800253c:	e002      	b.n	8002544 <LoopCopyDataInit>

0800253e <CopyDataInit>:
 800253e:	58d4      	ldr	r4, [r2, r3]
 8002540:	50c4      	str	r4, [r0, r3]
 8002542:	3304      	adds	r3, #4

08002544 <LoopCopyDataInit>:
 8002544:	18c4      	adds	r4, r0, r3
 8002546:	428c      	cmp	r4, r1
 8002548:	d3f9      	bcc.n	800253e <CopyDataInit>
 800254a:	4a09      	ldr	r2, [pc, #36]	; (8002570 <LoopFillZerobss+0x1a>)
 800254c:	4c09      	ldr	r4, [pc, #36]	; (8002574 <LoopFillZerobss+0x1e>)
 800254e:	2300      	movs	r3, #0
 8002550:	e001      	b.n	8002556 <LoopFillZerobss>

08002552 <FillZerobss>:
 8002552:	6013      	str	r3, [r2, #0]
 8002554:	3204      	adds	r2, #4

08002556 <LoopFillZerobss>:
 8002556:	42a2      	cmp	r2, r4
 8002558:	d3fb      	bcc.n	8002552 <FillZerobss>
 800255a:	f005 fe91 	bl	8008280 <__libc_init_array>
 800255e:	f7fe fd7d 	bl	800105c <main>
 8002562:	4770      	bx	lr
 8002564:	20000000 	.word	0x20000000
 8002568:	200000b4 	.word	0x200000b4
 800256c:	08009a9c 	.word	0x08009a9c
 8002570:	200000b4 	.word	0x200000b4
 8002574:	20002968 	.word	0x20002968

08002578 <ADC1_2_IRQHandler>:
 8002578:	e7fe      	b.n	8002578 <ADC1_2_IRQHandler>
	...

0800257c <HAL_InitTick>:
 800257c:	b538      	push	{r3, r4, r5, lr}
 800257e:	4b0e      	ldr	r3, [pc, #56]	; (80025b8 <HAL_InitTick+0x3c>)
 8002580:	4605      	mov	r5, r0
 8002582:	781a      	ldrb	r2, [r3, #0]
 8002584:	f44f 737a 	mov.w	r3, #1000	; 0x3e8
 8002588:	fbb3 f3f2 	udiv	r3, r3, r2
 800258c:	4a0b      	ldr	r2, [pc, #44]	; (80025bc <HAL_InitTick+0x40>)
 800258e:	6810      	ldr	r0, [r2, #0]
 8002590:	fbb0 f0f3 	udiv	r0, r0, r3
 8002594:	f000 fae4 	bl	8002b60 <HAL_SYSTICK_Config>
 8002598:	4604      	mov	r4, r0
 800259a:	b958      	cbnz	r0, 80025b4 <HAL_InitTick+0x38>
 800259c:	2d0f      	cmp	r5, #15
 800259e:	d809      	bhi.n	80025b4 <HAL_InitTick+0x38>
 80025a0:	4602      	mov	r2, r0
 80025a2:	4629      	mov	r1, r5
 80025a4:	f04f 30ff 	mov.w	r0, #4294967295
 80025a8:	f000 fa8a 	bl	8002ac0 <HAL_NVIC_SetPriority>
 80025ac:	4620      	mov	r0, r4
 80025ae:	4b04      	ldr	r3, [pc, #16]	; (80025c0 <HAL_InitTick+0x44>)
 80025b0:	601d      	str	r5, [r3, #0]
 80025b2:	bd38      	pop	{r3, r4, r5, pc}
 80025b4:	2001      	movs	r0, #1
 80025b6:	e7fc      	b.n	80025b2 <HAL_InitTick+0x36>
 80025b8:	20000044 	.word	0x20000044
 80025bc:	20000010 	.word	0x20000010
 80025c0:	20000048 	.word	0x20000048

080025c4 <HAL_Init>:
 80025c4:	4a07      	ldr	r2, [pc, #28]	; (80025e4 <HAL_Init+0x20>)
 80025c6:	b508      	push	{r3, lr}
 80025c8:	6813      	ldr	r3, [r2, #0]
 80025ca:	2003      	movs	r0, #3
 80025cc:	f043 0310 	orr.w	r3, r3, #16
 80025d0:	6013      	str	r3, [r2, #0]
 80025d2:	f000 fa63 	bl	8002a9c <HAL_NVIC_SetPriorityGrouping>
 80025d6:	200f      	movs	r0, #15
 80025d8:	f7ff ffd0 	bl	800257c <HAL_InitTick>
 80025dc:	f7fe feda 	bl	8001394 <HAL_MspInit>
 80025e0:	2000      	movs	r0, #0
 80025e2:	bd08      	pop	{r3, pc}
 80025e4:	40022000 	.word	0x40022000

080025e8 <HAL_IncTick>:
 80025e8:	4a03      	ldr	r2, [pc, #12]	; (80025f8 <HAL_IncTick+0x10>)
 80025ea:	4b04      	ldr	r3, [pc, #16]	; (80025fc <HAL_IncTick+0x14>)
 80025ec:	6811      	ldr	r1, [r2, #0]
 80025ee:	781b      	ldrb	r3, [r3, #0]
 80025f0:	440b      	add	r3, r1
 80025f2:	6013      	str	r3, [r2, #0]
 80025f4:	4770      	bx	lr
 80025f6:	bf00      	nop
 80025f8:	20001a70 	.word	0x20001a70
 80025fc:	20000044 	.word	0x20000044

08002600 <HAL_GetTick>:
 8002600:	4b01      	ldr	r3, [pc, #4]	; (8002608 <HAL_GetTick+0x8>)
 8002602:	6818      	ldr	r0, [r3, #0]
 8002604:	4770      	bx	lr
 8002606:	bf00      	nop
 8002608:	20001a70 	.word	0x20001a70

0800260c <HAL_Delay>:
 800260c:	b538      	push	{r3, r4, r5, lr}
 800260e:	4604      	mov	r4, r0
 8002610:	f7ff fff6 	bl	8002600 <HAL_GetTick>
 8002614:	4605      	mov	r5, r0
 8002616:	1c63      	adds	r3, r4, #1
 8002618:	bf1e      	ittt	ne
 800261a:	4b04      	ldrne	r3, [pc, #16]	; (800262c <HAL_Delay+0x20>)
 800261c:	781b      	ldrbne	r3, [r3, #0]
 800261e:	18e4      	addne	r4, r4, r3
 8002620:	f7ff ffee 	bl	8002600 <HAL_GetTick>
 8002624:	1b43      	subs	r3, r0, r5
 8002626:	42a3      	cmp	r3, r4
 8002628:	d3fa      	bcc.n	8002620 <HAL_Delay+0x14>
 800262a:	bd38      	pop	{r3, r4, r5, pc}
 800262c:	20000044 	.word	0x20000044

08002630 <HAL_SuspendTick>:
 8002630:	f04f 22e0 	mov.w	r2, #3758153728	; 0xe000e000
 8002634:	6913      	ldr	r3, [r2, #16]
 8002636:	f023 0302 	bic.w	r3, r3, #2
 800263a:	6113      	str	r3, [r2, #16]
 800263c:	4770      	bx	lr

0800263e <HAL_ResumeTick>:
 800263e:	f04f 22e0 	mov.w	r2, #3758153728	; 0xe000e000
 8002642:	6913      	ldr	r3, [r2, #16]
 8002644:	f043 0302 	orr.w	r3, r3, #2
 8002648:	6113      	str	r3, [r2, #16]
 800264a:	4770      	bx	lr

0800264c <HAL_ADC_ConvCpltCallback>:
 800264c:	4770      	bx	lr

0800264e <ADC_DMAConvCplt>:
 800264e:	6a43      	ldr	r3, [r0, #36]	; 0x24
 8002650:	b510      	push	{r4, lr}
 8002652:	6a9a      	ldr	r2, [r3, #40]	; 0x28
 8002654:	f012 0f50 	tst.w	r2, #80	; 0x50
 8002658:	d11b      	bne.n	8002692 <ADC_DMAConvCplt+0x44>
 800265a:	6a9a      	ldr	r2, [r3, #40]	; 0x28
 800265c:	f442 7200 	orr.w	r2, r2, #512	; 0x200
 8002660:	629a      	str	r2, [r3, #40]	; 0x28
 8002662:	681a      	ldr	r2, [r3, #0]
 8002664:	6892      	ldr	r2, [r2, #8]
 8002666:	f402 2260 	and.w	r2, r2, #917504	; 0xe0000
 800266a:	f5b2 2f60 	cmp.w	r2, #917504	; 0xe0000
 800266e:	d10c      	bne.n	800268a <ADC_DMAConvCplt+0x3c>
 8002670:	7b1a      	ldrb	r2, [r3, #12]
 8002672:	b952      	cbnz	r2, 800268a <ADC_DMAConvCplt+0x3c>
 8002674:	6a9a      	ldr	r2, [r3, #40]	; 0x28
 8002676:	f422 7280 	bic.w	r2, r2, #256	; 0x100
 800267a:	629a      	str	r2, [r3, #40]	; 0x28
 800267c:	6a9a      	ldr	r2, [r3, #40]	; 0x28
 800267e:	04d2      	lsls	r2, r2, #19
 8002680:	bf5e      	ittt	pl
 8002682:	6a9a      	ldrpl	r2, [r3, #40]	; 0x28
 8002684:	f042 0201 	orrpl.w	r2, r2, #1
 8002688:	629a      	strpl	r2, [r3, #40]	; 0x28
 800268a:	4618      	mov	r0, r3
 800268c:	f7ff ffde 	bl	800264c <HAL_ADC_ConvCpltCallback>
 8002690:	bd10      	pop	{r4, pc}
 8002692:	6a1b      	ldr	r3, [r3, #32]
 8002694:	e8bd 4010 	ldmia.w	sp!, {r4, lr}
 8002698:	6b1b      	ldr	r3, [r3, #48]	; 0x30
 800269a:	4718      	bx	r3

0800269c <HAL_ADC_ConvHalfCpltCallback>:
 800269c:	4770      	bx	lr

0800269e <ADC_DMAHalfConvCplt>:
 800269e:	b508      	push	{r3, lr}
 80026a0:	6a40      	ldr	r0, [r0, #36]	; 0x24
 80026a2:	f7ff fffb 	bl	800269c <HAL_ADC_ConvHalfCpltCallback>
 80026a6:	bd08      	pop	{r3, pc}

080026a8 <HAL_ADC_ErrorCallback>:
 80026a8:	4770      	bx	lr

080026aa <ADC_DMAError>:
 80026aa:	6a40      	ldr	r0, [r0, #36]	; 0x24
 80026ac:	b508      	push	{r3, lr}
 80026ae:	6a83      	ldr	r3, [r0, #40]	; 0x28
 80026b0:	f043 0340 	orr.w	r3, r3, #64	; 0x40
 80026b4:	6283      	str	r3, [r0, #40]	; 0x28
 80026b6:	6ac3      	ldr	r3, [r0, #44]	; 0x2c
 80026b8:	f043 0304 	orr.w	r3, r3, #4
 80026bc:	62c3      	str	r3, [r0, #44]	; 0x2c
 80026be:	f7ff fff3 	bl	80026a8 <HAL_ADC_ErrorCallback>
 80026c2:	bd08      	pop	{r3, pc}

080026c4 <HAL_ADC_ConfigChannel>:
 80026c4:	2300      	movs	r3, #0
 80026c6:	b573      	push	{r0, r1, r4, r5, r6, lr}
 80026c8:	9301      	str	r3, [sp, #4]
 80026ca:	f890 3024 	ldrb.w	r3, [r0, #36]	; 0x24
 80026ce:	4604      	mov	r4, r0
 80026d0:	2b01      	cmp	r3, #1
 80026d2:	d06c      	beq.n	80027ae <HAL_ADC_ConfigChannel+0xea>
 80026d4:	2301      	movs	r3, #1
 80026d6:	f880 3024 	strb.w	r3, [r0, #36]	; 0x24
 80026da:	684d      	ldr	r5, [r1, #4]
 80026dc:	6802      	ldr	r2, [r0, #0]
 80026de:	2d06      	cmp	r5, #6
 80026e0:	6808      	ldr	r0, [r1, #0]
 80026e2:	eb05 0385 	add.w	r3, r5, r5, lsl #2
 80026e6:	d822      	bhi.n	800272e <HAL_ADC_ConfigChannel+0x6a>
 80026e8:	261f      	movs	r6, #31
 80026ea:	6b55      	ldr	r5, [r2, #52]	; 0x34
 80026ec:	3b05      	subs	r3, #5
 80026ee:	409e      	lsls	r6, r3
 80026f0:	ea25 0506 	bic.w	r5, r5, r6
 80026f4:	fa00 f303 	lsl.w	r3, r0, r3
 80026f8:	432b      	orrs	r3, r5
 80026fa:	6353      	str	r3, [r2, #52]	; 0x34
 80026fc:	2809      	cmp	r0, #9
 80026fe:	688b      	ldr	r3, [r1, #8]
 8002700:	eb00 0540 	add.w	r5, r0, r0, lsl #1
 8002704:	f04f 0107 	mov.w	r1, #7
 8002708:	d929      	bls.n	800275e <HAL_ADC_ConfigChannel+0x9a>
 800270a:	68d6      	ldr	r6, [r2, #12]
 800270c:	3d1e      	subs	r5, #30
 800270e:	40a9      	lsls	r1, r5
 8002710:	ea26 0101 	bic.w	r1, r6, r1
 8002714:	40ab      	lsls	r3, r5
 8002716:	430b      	orrs	r3, r1
 8002718:	60d3      	str	r3, [r2, #12]
 800271a:	f1a0 0310 	sub.w	r3, r0, #16
 800271e:	2b01      	cmp	r3, #1
 8002720:	d925      	bls.n	800276e <HAL_ADC_ConfigChannel+0xaa>
 8002722:	2000      	movs	r0, #0
 8002724:	2300      	movs	r3, #0
 8002726:	f884 3024 	strb.w	r3, [r4, #36]	; 0x24
 800272a:	b002      	add	sp, #8
 800272c:	bd70      	pop	{r4, r5, r6, pc}
 800272e:	2d0c      	cmp	r5, #12
 8002730:	f04f 051f 	mov.w	r5, #31
 8002734:	d809      	bhi.n	800274a <HAL_ADC_ConfigChannel+0x86>
 8002736:	6b16      	ldr	r6, [r2, #48]	; 0x30
 8002738:	3b23      	subs	r3, #35	; 0x23
 800273a:	409d      	lsls	r5, r3
 800273c:	ea26 0505 	bic.w	r5, r6, r5
 8002740:	fa00 f303 	lsl.w	r3, r0, r3
 8002744:	432b      	orrs	r3, r5
 8002746:	6313      	str	r3, [r2, #48]	; 0x30
 8002748:	e7d8      	b.n	80026fc <HAL_ADC_ConfigChannel+0x38>
 800274a:	6ad6      	ldr	r6, [r2, #44]	; 0x2c
 800274c:	3b41      	subs	r3, #65	; 0x41
 800274e:	409d      	lsls	r5, r3
 8002750:	ea26 0505 	bic.w	r5, r6, r5
 8002754:	fa00 f303 	lsl.w	r3, r0, r3
 8002758:	432b      	orrs	r3, r5
 800275a:	62d3      	str	r3, [r2, #44]	; 0x2c
 800275c:	e7ce      	b.n	80026fc <HAL_ADC_ConfigChannel+0x38>
 800275e:	6910      	ldr	r0, [r2, #16]
 8002760:	40a9      	lsls	r1, r5
 8002762:	ea20 0101 	bic.w	r1, r0, r1
 8002766:	40ab      	lsls	r3, r5
 8002768:	430b      	orrs	r3, r1
 800276a:	6113      	str	r3, [r2, #16]
 800276c:	e7d9      	b.n	8002722 <HAL_ADC_ConfigChannel+0x5e>
 800276e:	4b11      	ldr	r3, [pc, #68]	; (80027b4 <HAL_ADC_ConfigChannel+0xf0>)
 8002770:	429a      	cmp	r2, r3
 8002772:	d116      	bne.n	80027a2 <HAL_ADC_ConfigChannel+0xde>
 8002774:	6893      	ldr	r3, [r2, #8]
 8002776:	021b      	lsls	r3, r3, #8
 8002778:	d4d3      	bmi.n	8002722 <HAL_ADC_ConfigChannel+0x5e>
 800277a:	6893      	ldr	r3, [r2, #8]
 800277c:	2810      	cmp	r0, #16
 800277e:	f443 0300 	orr.w	r3, r3, #8388608	; 0x800000
 8002782:	6093      	str	r3, [r2, #8]
 8002784:	d1cd      	bne.n	8002722 <HAL_ADC_ConfigChannel+0x5e>
 8002786:	4b0c      	ldr	r3, [pc, #48]	; (80027b8 <HAL_ADC_ConfigChannel+0xf4>)
 8002788:	4a0c      	ldr	r2, [pc, #48]	; (80027bc <HAL_ADC_ConfigChannel+0xf8>)
 800278a:	681b      	ldr	r3, [r3, #0]
 800278c:	fbb3 f3f2 	udiv	r3, r3, r2
 8002790:	220a      	movs	r2, #10
 8002792:	4353      	muls	r3, r2
 8002794:	9301      	str	r3, [sp, #4]
 8002796:	9b01      	ldr	r3, [sp, #4]
 8002798:	2b00      	cmp	r3, #0
 800279a:	d0c2      	beq.n	8002722 <HAL_ADC_ConfigChannel+0x5e>
 800279c:	9b01      	ldr	r3, [sp, #4]
 800279e:	3b01      	subs	r3, #1
 80027a0:	e7f8      	b.n	8002794 <HAL_ADC_ConfigChannel+0xd0>
 80027a2:	6aa3      	ldr	r3, [r4, #40]	; 0x28
 80027a4:	2001      	movs	r0, #1
 80027a6:	f043 0320 	orr.w	r3, r3, #32
 80027aa:	62a3      	str	r3, [r4, #40]	; 0x28
 80027ac:	e7ba      	b.n	8002724 <HAL_ADC_ConfigChannel+0x60>
 80027ae:	2002      	movs	r0, #2
 80027b0:	e7bb      	b.n	800272a <HAL_ADC_ConfigChannel+0x66>
 80027b2:	bf00      	nop
 80027b4:	40012400 	.word	0x40012400
 80027b8:	20000010 	.word	0x20000010
 80027bc:	000f4240 	.word	0x000f4240

080027c0 <ADC_Enable>:
 80027c0:	2300      	movs	r3, #0
 80027c2:	b537      	push	{r0, r1, r2, r4, r5, lr}
 80027c4:	9301      	str	r3, [sp, #4]
 80027c6:	6803      	ldr	r3, [r0, #0]
 80027c8:	4604      	mov	r4, r0
 80027ca:	689a      	ldr	r2, [r3, #8]
 80027cc:	07d2      	lsls	r2, r2, #31
 80027ce:	d502      	bpl.n	80027d6 <ADC_Enable+0x16>
 80027d0:	2000      	movs	r0, #0
 80027d2:	b003      	add	sp, #12
 80027d4:	bd30      	pop	{r4, r5, pc}
 80027d6:	689a      	ldr	r2, [r3, #8]
 80027d8:	f042 0201 	orr.w	r2, r2, #1
 80027dc:	609a      	str	r2, [r3, #8]
 80027de:	4b14      	ldr	r3, [pc, #80]	; (8002830 <ADC_Enable+0x70>)
 80027e0:	4a14      	ldr	r2, [pc, #80]	; (8002834 <ADC_Enable+0x74>)
 80027e2:	681b      	ldr	r3, [r3, #0]
 80027e4:	fbb3 f3f2 	udiv	r3, r3, r2
 80027e8:	9301      	str	r3, [sp, #4]
 80027ea:	9b01      	ldr	r3, [sp, #4]
 80027ec:	b9e3      	cbnz	r3, 8002828 <ADC_Enable+0x68>
 80027ee:	f7ff ff07 	bl	8002600 <HAL_GetTick>
 80027f2:	4605      	mov	r5, r0
 80027f4:	6823      	ldr	r3, [r4, #0]
 80027f6:	689b      	ldr	r3, [r3, #8]
 80027f8:	07db      	lsls	r3, r3, #31
 80027fa:	d4e9      	bmi.n	80027d0 <ADC_Enable+0x10>
 80027fc:	f7ff ff00 	bl	8002600 <HAL_GetTick>
 8002800:	1b40      	subs	r0, r0, r5
 8002802:	2802      	cmp	r0, #2
 8002804:	d9f6      	bls.n	80027f4 <ADC_Enable+0x34>
 8002806:	6823      	ldr	r3, [r4, #0]
 8002808:	689b      	ldr	r3, [r3, #8]
 800280a:	f013 0301 	ands.w	r3, r3, #1
 800280e:	d1f1      	bne.n	80027f4 <ADC_Enable+0x34>
 8002810:	6aa2      	ldr	r2, [r4, #40]	; 0x28
 8002812:	2001      	movs	r0, #1
 8002814:	f042 0210 	orr.w	r2, r2, #16
 8002818:	62a2      	str	r2, [r4, #40]	; 0x28
 800281a:	6ae2      	ldr	r2, [r4, #44]	; 0x2c
 800281c:	f884 3024 	strb.w	r3, [r4, #36]	; 0x24
 8002820:	f042 0201 	orr.w	r2, r2, #1
 8002824:	62e2      	str	r2, [r4, #44]	; 0x2c
 8002826:	e7d4      	b.n	80027d2 <ADC_Enable+0x12>
 8002828:	9b01      	ldr	r3, [sp, #4]
 800282a:	3b01      	subs	r3, #1
 800282c:	e7dc      	b.n	80027e8 <ADC_Enable+0x28>
 800282e:	bf00      	nop
 8002830:	20000010 	.word	0x20000010
 8002834:	000f4240 	.word	0x000f4240

08002838 <HAL_ADC_Start_DMA>:
 8002838:	e92d 41f0 	stmdb	sp!, {r4, r5, r6, r7, r8, lr}
 800283c:	4b40      	ldr	r3, [pc, #256]	; (8002940 <HAL_ADC_Start_DMA+0x108>)
 800283e:	4690      	mov	r8, r2
 8002840:	6802      	ldr	r2, [r0, #0]
 8002842:	4604      	mov	r4, r0
 8002844:	429a      	cmp	r2, r3
 8002846:	460f      	mov	r7, r1
 8002848:	d002      	beq.n	8002850 <HAL_ADC_Start_DMA+0x18>
 800284a:	493e      	ldr	r1, [pc, #248]	; (8002944 <HAL_ADC_Start_DMA+0x10c>)
 800284c:	428a      	cmp	r2, r1
 800284e:	d103      	bne.n	8002858 <HAL_ADC_Start_DMA+0x20>
 8002850:	685b      	ldr	r3, [r3, #4]
 8002852:	f413 2f70 	tst.w	r3, #983040	; 0xf0000
 8002856:	d16e      	bne.n	8002936 <HAL_ADC_Start_DMA+0xfe>
 8002858:	f894 3024 	ldrb.w	r3, [r4, #36]	; 0x24
 800285c:	2b01      	cmp	r3, #1
 800285e:	d06c      	beq.n	800293a <HAL_ADC_Start_DMA+0x102>
 8002860:	2301      	movs	r3, #1
 8002862:	4620      	mov	r0, r4
 8002864:	f884 3024 	strb.w	r3, [r4, #36]	; 0x24
 8002868:	f7ff ffaa 	bl	80027c0 <ADC_Enable>
 800286c:	4606      	mov	r6, r0
 800286e:	2800      	cmp	r0, #0
 8002870:	d15d      	bne.n	800292e <HAL_ADC_Start_DMA+0xf6>
 8002872:	6aa5      	ldr	r5, [r4, #40]	; 0x28
 8002874:	6821      	ldr	r1, [r4, #0]
 8002876:	4b33      	ldr	r3, [pc, #204]	; (8002944 <HAL_ADC_Start_DMA+0x10c>)
 8002878:	f425 6570 	bic.w	r5, r5, #3840	; 0xf00
 800287c:	f025 0501 	bic.w	r5, r5, #1
 8002880:	f445 7580 	orr.w	r5, r5, #256	; 0x100
 8002884:	4299      	cmp	r1, r3
 8002886:	62a5      	str	r5, [r4, #40]	; 0x28
 8002888:	d104      	bne.n	8002894 <HAL_ADC_Start_DMA+0x5c>
 800288a:	4a2d      	ldr	r2, [pc, #180]	; (8002940 <HAL_ADC_Start_DMA+0x108>)
 800288c:	6853      	ldr	r3, [r2, #4]
 800288e:	f413 2f70 	tst.w	r3, #983040	; 0xf0000
 8002892:	d13e      	bne.n	8002912 <HAL_ADC_Start_DMA+0xda>
 8002894:	6aa3      	ldr	r3, [r4, #40]	; 0x28
 8002896:	f423 1380 	bic.w	r3, r3, #1048576	; 0x100000
 800289a:	62a3      	str	r3, [r4, #40]	; 0x28
 800289c:	684b      	ldr	r3, [r1, #4]
 800289e:	055a      	lsls	r2, r3, #21
 80028a0:	d505      	bpl.n	80028ae <HAL_ADC_Start_DMA+0x76>
 80028a2:	6aa3      	ldr	r3, [r4, #40]	; 0x28
 80028a4:	f423 5340 	bic.w	r3, r3, #12288	; 0x3000
 80028a8:	f443 5380 	orr.w	r3, r3, #4096	; 0x1000
 80028ac:	62a3      	str	r3, [r4, #40]	; 0x28
 80028ae:	6aa3      	ldr	r3, [r4, #40]	; 0x28
 80028b0:	6a20      	ldr	r0, [r4, #32]
 80028b2:	f413 5380 	ands.w	r3, r3, #4096	; 0x1000
 80028b6:	bf18      	it	ne
 80028b8:	6ae3      	ldrne	r3, [r4, #44]	; 0x2c
 80028ba:	463a      	mov	r2, r7
 80028bc:	bf18      	it	ne
 80028be:	f023 0306 	bicne.w	r3, r3, #6
 80028c2:	62e3      	str	r3, [r4, #44]	; 0x2c
 80028c4:	2300      	movs	r3, #0
 80028c6:	f884 3024 	strb.w	r3, [r4, #36]	; 0x24
 80028ca:	4b1f      	ldr	r3, [pc, #124]	; (8002948 <HAL_ADC_Start_DMA+0x110>)
 80028cc:	314c      	adds	r1, #76	; 0x4c
 80028ce:	6283      	str	r3, [r0, #40]	; 0x28
 80028d0:	4b1e      	ldr	r3, [pc, #120]	; (800294c <HAL_ADC_Start_DMA+0x114>)
 80028d2:	62c3      	str	r3, [r0, #44]	; 0x2c
 80028d4:	4b1e      	ldr	r3, [pc, #120]	; (8002950 <HAL_ADC_Start_DMA+0x118>)
 80028d6:	6303      	str	r3, [r0, #48]	; 0x30
 80028d8:	f06f 0302 	mvn.w	r3, #2
 80028dc:	f841 3c4c 	str.w	r3, [r1, #-76]
 80028e0:	f851 3c44 	ldr.w	r3, [r1, #-68]
 80028e4:	f443 7380 	orr.w	r3, r3, #256	; 0x100
 80028e8:	f841 3c44 	str.w	r3, [r1, #-68]
 80028ec:	4643      	mov	r3, r8
 80028ee:	f000 f9a7 	bl	8002c40 <HAL_DMA_Start_IT>
 80028f2:	6823      	ldr	r3, [r4, #0]
 80028f4:	689a      	ldr	r2, [r3, #8]
 80028f6:	f402 2260 	and.w	r2, r2, #917504	; 0xe0000
 80028fa:	f5b2 2f60 	cmp.w	r2, #917504	; 0xe0000
 80028fe:	689a      	ldr	r2, [r3, #8]
 8002900:	bf0c      	ite	eq
 8002902:	f442 02a0 	orreq.w	r2, r2, #5242880	; 0x500000
 8002906:	f442 1280 	orrne.w	r2, r2, #1048576	; 0x100000
 800290a:	609a      	str	r2, [r3, #8]
 800290c:	4630      	mov	r0, r6
 800290e:	e8bd 81f0 	ldmia.w	sp!, {r4, r5, r6, r7, r8, pc}
 8002912:	6aa3      	ldr	r3, [r4, #40]	; 0x28
 8002914:	f443 1380 	orr.w	r3, r3, #1048576	; 0x100000
 8002918:	62a3      	str	r3, [r4, #40]	; 0x28
 800291a:	6853      	ldr	r3, [r2, #4]
 800291c:	055b      	lsls	r3, r3, #21
 800291e:	bf41      	itttt	mi
 8002920:	6aa0      	ldrmi	r0, [r4, #40]	; 0x28
 8002922:	f420 5040 	bicmi.w	r0, r0, #12288	; 0x3000
 8002926:	f440 5080 	orrmi.w	r0, r0, #4096	; 0x1000
 800292a:	62a0      	strmi	r0, [r4, #40]	; 0x28
 800292c:	e7bf      	b.n	80028ae <HAL_ADC_Start_DMA+0x76>
 800292e:	2300      	movs	r3, #0
 8002930:	f884 3024 	strb.w	r3, [r4, #36]	; 0x24
 8002934:	e7ea      	b.n	800290c <HAL_ADC_Start_DMA+0xd4>
 8002936:	2601      	movs	r6, #1
 8002938:	e7e8      	b.n	800290c <HAL_ADC_Start_DMA+0xd4>
 800293a:	2602      	movs	r6, #2
 800293c:	e7e6      	b.n	800290c <HAL_ADC_Start_DMA+0xd4>
 800293e:	bf00      	nop
 8002940:	40012400 	.word	0x40012400
 8002944:	40012800 	.word	0x40012800
 8002948:	0800264f 	.word	0x0800264f
 800294c:	0800269f 	.word	0x0800269f
 8002950:	080026ab 	.word	0x080026ab

08002954 <ADC_ConversionStop_Disable>:
 8002954:	b538      	push	{r3, r4, r5, lr}
 8002956:	6803      	ldr	r3, [r0, #0]
 8002958:	4604      	mov	r4, r0
 800295a:	689a      	ldr	r2, [r3, #8]
 800295c:	07d1      	lsls	r1, r2, #31
 800295e:	d401      	bmi.n	8002964 <ADC_ConversionStop_Disable+0x10>
 8002960:	2000      	movs	r0, #0
 8002962:	bd38      	pop	{r3, r4, r5, pc}
 8002964:	689a      	ldr	r2, [r3, #8]
 8002966:	f022 0201 	bic.w	r2, r2, #1
 800296a:	609a      	str	r2, [r3, #8]
 800296c:	f7ff fe48 	bl	8002600 <HAL_GetTick>
 8002970:	4605      	mov	r5, r0
 8002972:	6823      	ldr	r3, [r4, #0]
 8002974:	689b      	ldr	r3, [r3, #8]
 8002976:	07db      	lsls	r3, r3, #31
 8002978:	d5f2      	bpl.n	8002960 <ADC_ConversionStop_Disable+0xc>
 800297a:	f7ff fe41 	bl	8002600 <HAL_GetTick>
 800297e:	1b40      	subs	r0, r0, r5
 8002980:	2802      	cmp	r0, #2
 8002982:	d9f6      	bls.n	8002972 <ADC_ConversionStop_Disable+0x1e>
 8002984:	6823      	ldr	r3, [r4, #0]
 8002986:	689b      	ldr	r3, [r3, #8]
 8002988:	07da      	lsls	r2, r3, #31
 800298a:	d5f2      	bpl.n	8002972 <ADC_ConversionStop_Disable+0x1e>
 800298c:	6aa3      	ldr	r3, [r4, #40]	; 0x28
 800298e:	2001      	movs	r0, #1
 8002990:	f043 0310 	orr.w	r3, r3, #16
 8002994:	62a3      	str	r3, [r4, #40]	; 0x28
 8002996:	6ae3      	ldr	r3, [r4, #44]	; 0x2c
 8002998:	f043 0301 	orr.w	r3, r3, #1
 800299c:	62e3      	str	r3, [r4, #44]	; 0x2c
 800299e:	e7e0      	b.n	8002962 <ADC_ConversionStop_Disable+0xe>

080029a0 <HAL_ADC_Init>:
 80029a0:	b5f8      	push	{r3, r4, r5, r6, r7, lr}
 80029a2:	4604      	mov	r4, r0
 80029a4:	2800      	cmp	r0, #0
 80029a6:	d06d      	beq.n	8002a84 <HAL_ADC_Init+0xe4>
 80029a8:	6a83      	ldr	r3, [r0, #40]	; 0x28
 80029aa:	b923      	cbnz	r3, 80029b6 <HAL_ADC_Init+0x16>
 80029ac:	62c3      	str	r3, [r0, #44]	; 0x2c
 80029ae:	f880 3024 	strb.w	r3, [r0, #36]	; 0x24
 80029b2:	f7fe fd17 	bl	80013e4 <HAL_ADC_MspInit>
 80029b6:	4620      	mov	r0, r4
 80029b8:	f7ff ffcc 	bl	8002954 <ADC_ConversionStop_Disable>
 80029bc:	6aa3      	ldr	r3, [r4, #40]	; 0x28
 80029be:	f013 0310 	ands.w	r3, r3, #16
 80029c2:	d161      	bne.n	8002a88 <HAL_ADC_Init+0xe8>
 80029c4:	2800      	cmp	r0, #0
 80029c6:	d15f      	bne.n	8002a88 <HAL_ADC_Init+0xe8>
 80029c8:	6aa2      	ldr	r2, [r4, #40]	; 0x28
 80029ca:	6861      	ldr	r1, [r4, #4]
 80029cc:	f422 5288 	bic.w	r2, r2, #4352	; 0x1100
 80029d0:	f022 0202 	bic.w	r2, r2, #2
 80029d4:	f042 0202 	orr.w	r2, r2, #2
 80029d8:	69e5      	ldr	r5, [r4, #28]
 80029da:	68a6      	ldr	r6, [r4, #8]
 80029dc:	62a2      	str	r2, [r4, #40]	; 0x28
 80029de:	7b22      	ldrb	r2, [r4, #12]
 80029e0:	4329      	orrs	r1, r5
 80029e2:	f5b6 7f80 	cmp.w	r6, #256	; 0x100
 80029e6:	ea41 0142 	orr.w	r1, r1, r2, lsl #1
 80029ea:	d036      	beq.n	8002a5a <HAL_ADC_Init+0xba>
 80029ec:	1e77      	subs	r7, r6, #1
 80029ee:	427d      	negs	r5, r7
 80029f0:	417d      	adcs	r5, r7
 80029f2:	022d      	lsls	r5, r5, #8
 80029f4:	7d27      	ldrb	r7, [r4, #20]
 80029f6:	2f01      	cmp	r7, #1
 80029f8:	d106      	bne.n	8002a08 <HAL_ADC_Init+0x68>
 80029fa:	bb82      	cbnz	r2, 8002a5e <HAL_ADC_Init+0xbe>
 80029fc:	69a2      	ldr	r2, [r4, #24]
 80029fe:	3a01      	subs	r2, #1
 8002a00:	ea45 3242 	orr.w	r2, r5, r2, lsl #13
 8002a04:	f442 6500 	orr.w	r5, r2, #2048	; 0x800
 8002a08:	6822      	ldr	r2, [r4, #0]
 8002a0a:	f5b6 7f80 	cmp.w	r6, #256	; 0x100
 8002a0e:	6857      	ldr	r7, [r2, #4]
 8002a10:	f427 4769 	bic.w	r7, r7, #59648	; 0xe900
 8002a14:	ea45 0507 	orr.w	r5, r5, r7
 8002a18:	6055      	str	r5, [r2, #4]
 8002a1a:	6897      	ldr	r7, [r2, #8]
 8002a1c:	4d1d      	ldr	r5, [pc, #116]	; (8002a94 <HAL_ADC_Init+0xf4>)
 8002a1e:	ea05 0507 	and.w	r5, r5, r7
 8002a22:	ea45 0501 	orr.w	r5, r5, r1
 8002a26:	6095      	str	r5, [r2, #8]
 8002a28:	d001      	beq.n	8002a2e <HAL_ADC_Init+0x8e>
 8002a2a:	2e01      	cmp	r6, #1
 8002a2c:	d102      	bne.n	8002a34 <HAL_ADC_Init+0x94>
 8002a2e:	6923      	ldr	r3, [r4, #16]
 8002a30:	3b01      	subs	r3, #1
 8002a32:	051b      	lsls	r3, r3, #20
 8002a34:	6ad5      	ldr	r5, [r2, #44]	; 0x2c
 8002a36:	f425 0570 	bic.w	r5, r5, #15728640	; 0xf00000
 8002a3a:	432b      	orrs	r3, r5
 8002a3c:	62d3      	str	r3, [r2, #44]	; 0x2c
 8002a3e:	6892      	ldr	r2, [r2, #8]
 8002a40:	4b15      	ldr	r3, [pc, #84]	; (8002a98 <HAL_ADC_Init+0xf8>)
 8002a42:	4013      	ands	r3, r2
 8002a44:	4299      	cmp	r1, r3
 8002a46:	d113      	bne.n	8002a70 <HAL_ADC_Init+0xd0>
 8002a48:	2300      	movs	r3, #0
 8002a4a:	62e3      	str	r3, [r4, #44]	; 0x2c
 8002a4c:	6aa3      	ldr	r3, [r4, #40]	; 0x28
 8002a4e:	f023 0303 	bic.w	r3, r3, #3
 8002a52:	f043 0301 	orr.w	r3, r3, #1
 8002a56:	62a3      	str	r3, [r4, #40]	; 0x28
 8002a58:	bdf8      	pop	{r3, r4, r5, r6, r7, pc}
 8002a5a:	4635      	mov	r5, r6
 8002a5c:	e7ca      	b.n	80029f4 <HAL_ADC_Init+0x54>
 8002a5e:	6aa2      	ldr	r2, [r4, #40]	; 0x28
 8002a60:	f042 0220 	orr.w	r2, r2, #32
 8002a64:	62a2      	str	r2, [r4, #40]	; 0x28
 8002a66:	6ae2      	ldr	r2, [r4, #44]	; 0x2c
 8002a68:	f042 0201 	orr.w	r2, r2, #1
 8002a6c:	62e2      	str	r2, [r4, #44]	; 0x2c
 8002a6e:	e7cb      	b.n	8002a08 <HAL_ADC_Init+0x68>
 8002a70:	6aa3      	ldr	r3, [r4, #40]	; 0x28
 8002a72:	f023 0312 	bic.w	r3, r3, #18
 8002a76:	f043 0310 	orr.w	r3, r3, #16
 8002a7a:	62a3      	str	r3, [r4, #40]	; 0x28
 8002a7c:	6ae3      	ldr	r3, [r4, #44]	; 0x2c
 8002a7e:	f043 0301 	orr.w	r3, r3, #1
 8002a82:	62e3      	str	r3, [r4, #44]	; 0x2c
 8002a84:	2001      	movs	r0, #1
 8002a86:	e7e7      	b.n	8002a58 <HAL_ADC_Init+0xb8>
 8002a88:	6aa3      	ldr	r3, [r4, #40]	; 0x28
 8002a8a:	f043 0310 	orr.w	r3, r3, #16
 8002a8e:	62a3      	str	r3, [r4, #40]	; 0x28
 8002a90:	e7f8      	b.n	8002a84 <HAL_ADC_Init+0xe4>
 8002a92:	bf00      	nop
 8002a94:	ffe1f7fd 	.word	0xffe1f7fd
 8002a98:	ff1f0efe 	.word	0xff1f0efe

08002a9c <HAL_NVIC_SetPriorityGrouping>:
 8002a9c:	4907      	ldr	r1, [pc, #28]	; (8002abc <HAL_NVIC_SetPriorityGrouping+0x20>)
 8002a9e:	0203      	lsls	r3, r0, #8
 8002aa0:	68ca      	ldr	r2, [r1, #12]
 8002aa2:	f403 63e0 	and.w	r3, r3, #1792	; 0x700
 8002aa6:	f422 62e0 	bic.w	r2, r2, #1792	; 0x700
 8002aaa:	0412      	lsls	r2, r2, #16
 8002aac:	0c12      	lsrs	r2, r2, #16
 8002aae:	4313      	orrs	r3, r2
 8002ab0:	f043 63bf 	orr.w	r3, r3, #100139008	; 0x5f80000
 8002ab4:	f443 3300 	orr.w	r3, r3, #131072	; 0x20000
 8002ab8:	60cb      	str	r3, [r1, #12]
 8002aba:	4770      	bx	lr
 8002abc:	e000ed00 	.word	0xe000ed00

08002ac0 <HAL_NVIC_SetPriority>:
 8002ac0:	4b15      	ldr	r3, [pc, #84]	; (8002b18 <HAL_NVIC_SetPriority+0x58>)
 8002ac2:	b530      	push	{r4, r5, lr}
 8002ac4:	68dc      	ldr	r4, [r3, #12]
 8002ac6:	f3c4 2402 	ubfx	r4, r4, #8, #3
 8002aca:	f1c4 0307 	rsb	r3, r4, #7
 8002ace:	1d25      	adds	r5, r4, #4
 8002ad0:	2b04      	cmp	r3, #4
 8002ad2:	bf28      	it	cs
 8002ad4:	2304      	movcs	r3, #4
 8002ad6:	2d06      	cmp	r5, #6
 8002ad8:	f04f 35ff 	mov.w	r5, #4294967295
 8002adc:	bf94      	ite	ls
 8002ade:	2400      	movls	r4, #0
 8002ae0:	3c03      	subhi	r4, #3
 8002ae2:	fa05 f303 	lsl.w	r3, r5, r3
 8002ae6:	ea21 0303 	bic.w	r3, r1, r3
 8002aea:	40a5      	lsls	r5, r4
 8002aec:	ea22 0205 	bic.w	r2, r2, r5
 8002af0:	40a3      	lsls	r3, r4
 8002af2:	2800      	cmp	r0, #0
 8002af4:	ea43 0302 	orr.w	r3, r3, r2
 8002af8:	bfac      	ite	ge
 8002afa:	f100 4060 	addge.w	r0, r0, #3758096384	; 0xe0000000
 8002afe:	4a07      	ldrlt	r2, [pc, #28]	; (8002b1c <HAL_NVIC_SetPriority+0x5c>)
 8002b00:	ea4f 1303 	mov.w	r3, r3, lsl #4
 8002b04:	b2db      	uxtb	r3, r3
 8002b06:	bfab      	itete	ge
 8002b08:	f500 4061 	addge.w	r0, r0, #57600	; 0xe100
 8002b0c:	f000 000f 	andlt.w	r0, r0, #15
 8002b10:	f880 3300 	strbge.w	r3, [r0, #768]	; 0x300
 8002b14:	5413      	strblt	r3, [r2, r0]
 8002b16:	bd30      	pop	{r4, r5, pc}
 8002b18:	e000ed00 	.word	0xe000ed00
 8002b1c:	e000ed14 	.word	0xe000ed14

08002b20 <HAL_NVIC_EnableIRQ>:
 8002b20:	2800      	cmp	r0, #0
 8002b22:	db07      	blt.n	8002b34 <HAL_NVIC_EnableIRQ+0x14>
 8002b24:	2301      	movs	r3, #1
 8002b26:	0941      	lsrs	r1, r0, #5
 8002b28:	4a03      	ldr	r2, [pc, #12]	; (8002b38 <HAL_NVIC_EnableIRQ+0x18>)
 8002b2a:	f000 001f 	and.w	r0, r0, #31
 8002b2e:	4083      	lsls	r3, r0
 8002b30:	f842 3021 	str.w	r3, [r2, r1, lsl #2]
 8002b34:	4770      	bx	lr
 8002b36:	bf00      	nop
 8002b38:	e000e100 	.word	0xe000e100

08002b3c <HAL_NVIC_DisableIRQ>:
 8002b3c:	2800      	cmp	r0, #0
 8002b3e:	db0c      	blt.n	8002b5a <HAL_NVIC_DisableIRQ+0x1e>
 8002b40:	2201      	movs	r2, #1
 8002b42:	4906      	ldr	r1, [pc, #24]	; (8002b5c <HAL_NVIC_DisableIRQ+0x20>)
 8002b44:	0943      	lsrs	r3, r0, #5
 8002b46:	f000 001f 	and.w	r0, r0, #31
 8002b4a:	4082      	lsls	r2, r0
 8002b4c:	3320      	adds	r3, #32
 8002b4e:	f841 2023 	str.w	r2, [r1, r3, lsl #2]
 8002b52:	f3bf 8f4f 	dsb	sy
 8002b56:	f3bf 8f6f 	isb	sy
 8002b5a:	4770      	bx	lr
 8002b5c:	e000e100 	.word	0xe000e100

08002b60 <HAL_SYSTICK_Config>:
 8002b60:	3801      	subs	r0, #1
 8002b62:	f1b0 7f80 	cmp.w	r0, #16777216	; 0x1000000
 8002b66:	d20b      	bcs.n	8002b80 <HAL_SYSTICK_Config+0x20>
 8002b68:	f04f 23e0 	mov.w	r3, #3758153728	; 0xe000e000
 8002b6c:	21f0      	movs	r1, #240	; 0xf0
 8002b6e:	4a05      	ldr	r2, [pc, #20]	; (8002b84 <HAL_SYSTICK_Config+0x24>)
 8002b70:	6158      	str	r0, [r3, #20]
 8002b72:	f882 1023 	strb.w	r1, [r2, #35]	; 0x23
 8002b76:	2000      	movs	r0, #0
 8002b78:	2207      	movs	r2, #7
 8002b7a:	6198      	str	r0, [r3, #24]
 8002b7c:	611a      	str	r2, [r3, #16]
 8002b7e:	4770      	bx	lr
 8002b80:	2001      	movs	r0, #1
 8002b82:	4770      	bx	lr
 8002b84:	e000ed00 	.word	0xe000ed00

08002b88 <HAL_DMA_Init>:
 8002b88:	4603      	mov	r3, r0
 8002b8a:	b510      	push	{r4, lr}
 8002b8c:	b340      	cbz	r0, 8002be0 <HAL_DMA_Init+0x58>
 8002b8e:	2114      	movs	r1, #20
 8002b90:	6800      	ldr	r0, [r0, #0]
 8002b92:	4a14      	ldr	r2, [pc, #80]	; (8002be4 <HAL_DMA_Init+0x5c>)
 8002b94:	4402      	add	r2, r0
 8002b96:	fbb2 f2f1 	udiv	r2, r2, r1
 8002b9a:	0092      	lsls	r2, r2, #2
 8002b9c:	641a      	str	r2, [r3, #64]	; 0x40
 8002b9e:	4a12      	ldr	r2, [pc, #72]	; (8002be8 <HAL_DMA_Init+0x60>)
 8002ba0:	63da      	str	r2, [r3, #60]	; 0x3c
 8002ba2:	2202      	movs	r2, #2
 8002ba4:	f883 2021 	strb.w	r2, [r3, #33]	; 0x21
 8002ba8:	e9d3 2401 	ldrd	r2, r4, [r3, #4]
 8002bac:	4322      	orrs	r2, r4
 8002bae:	68dc      	ldr	r4, [r3, #12]
 8002bb0:	6801      	ldr	r1, [r0, #0]
 8002bb2:	4322      	orrs	r2, r4
 8002bb4:	691c      	ldr	r4, [r3, #16]
 8002bb6:	f421 517f 	bic.w	r1, r1, #16320	; 0x3fc0
 8002bba:	4322      	orrs	r2, r4
 8002bbc:	695c      	ldr	r4, [r3, #20]
 8002bbe:	f021 0130 	bic.w	r1, r1, #48	; 0x30
 8002bc2:	4322      	orrs	r2, r4
 8002bc4:	699c      	ldr	r4, [r3, #24]
 8002bc6:	4322      	orrs	r2, r4
 8002bc8:	69dc      	ldr	r4, [r3, #28]
 8002bca:	4322      	orrs	r2, r4
 8002bcc:	430a      	orrs	r2, r1
 8002bce:	6002      	str	r2, [r0, #0]
 8002bd0:	2000      	movs	r0, #0
 8002bd2:	2201      	movs	r2, #1
 8002bd4:	6398      	str	r0, [r3, #56]	; 0x38
 8002bd6:	f883 0020 	strb.w	r0, [r3, #32]
 8002bda:	f883 2021 	strb.w	r2, [r3, #33]	; 0x21
 8002bde:	bd10      	pop	{r4, pc}
 8002be0:	2001      	movs	r0, #1
 8002be2:	e7fc      	b.n	8002bde <HAL_DMA_Init+0x56>
 8002be4:	bffdfff8 	.word	0xbffdfff8
 8002be8:	40020000 	.word	0x40020000

08002bec <HAL_DMA_DeInit>:
 8002bec:	b510      	push	{r4, lr}
 8002bee:	b308      	cbz	r0, 8002c34 <HAL_DMA_DeInit+0x48>
 8002bf0:	6801      	ldr	r1, [r0, #0]
 8002bf2:	4a11      	ldr	r2, [pc, #68]	; (8002c38 <HAL_DMA_DeInit+0x4c>)
 8002bf4:	680b      	ldr	r3, [r1, #0]
 8002bf6:	440a      	add	r2, r1
 8002bf8:	f023 0301 	bic.w	r3, r3, #1
 8002bfc:	600b      	str	r3, [r1, #0]
 8002bfe:	2300      	movs	r3, #0
 8002c00:	600b      	str	r3, [r1, #0]
 8002c02:	604b      	str	r3, [r1, #4]
 8002c04:	608b      	str	r3, [r1, #8]
 8002c06:	60cb      	str	r3, [r1, #12]
 8002c08:	2114      	movs	r1, #20
 8002c0a:	fbb2 f2f1 	udiv	r2, r2, r1
 8002c0e:	2101      	movs	r1, #1
 8002c10:	4c0a      	ldr	r4, [pc, #40]	; (8002c3c <HAL_DMA_DeInit+0x50>)
 8002c12:	0092      	lsls	r2, r2, #2
 8002c14:	6402      	str	r2, [r0, #64]	; 0x40
 8002c16:	fa01 f202 	lsl.w	r2, r1, r2
 8002c1a:	63c4      	str	r4, [r0, #60]	; 0x3c
 8002c1c:	6062      	str	r2, [r4, #4]
 8002c1e:	6383      	str	r3, [r0, #56]	; 0x38
 8002c20:	e9c0 330a 	strd	r3, r3, [r0, #40]	; 0x28
 8002c24:	e9c0 330c 	strd	r3, r3, [r0, #48]	; 0x30
 8002c28:	f880 3021 	strb.w	r3, [r0, #33]	; 0x21
 8002c2c:	f880 3020 	strb.w	r3, [r0, #32]
 8002c30:	4618      	mov	r0, r3
 8002c32:	bd10      	pop	{r4, pc}
 8002c34:	2001      	movs	r0, #1
 8002c36:	e7fc      	b.n	8002c32 <HAL_DMA_DeInit+0x46>
 8002c38:	bffdfff8 	.word	0xbffdfff8
 8002c3c:	40020000 	.word	0x40020000

08002c40 <HAL_DMA_Start_IT>:
 8002c40:	b5f0      	push	{r4, r5, r6, r7, lr}
 8002c42:	4605      	mov	r5, r0
 8002c44:	f890 0020 	ldrb.w	r0, [r0, #32]
 8002c48:	2801      	cmp	r0, #1
 8002c4a:	d036      	beq.n	8002cba <HAL_DMA_Start_IT+0x7a>
 8002c4c:	2001      	movs	r0, #1
 8002c4e:	f885 0020 	strb.w	r0, [r5, #32]
 8002c52:	f895 0021 	ldrb.w	r0, [r5, #33]	; 0x21
 8002c56:	2400      	movs	r4, #0
 8002c58:	2801      	cmp	r0, #1
 8002c5a:	b2c6      	uxtb	r6, r0
 8002c5c:	f04f 0002 	mov.w	r0, #2
 8002c60:	d128      	bne.n	8002cb4 <HAL_DMA_Start_IT+0x74>
 8002c62:	f885 0021 	strb.w	r0, [r5, #33]	; 0x21
 8002c66:	63ac      	str	r4, [r5, #56]	; 0x38
 8002c68:	682c      	ldr	r4, [r5, #0]
 8002c6a:	6820      	ldr	r0, [r4, #0]
 8002c6c:	f020 0001 	bic.w	r0, r0, #1
 8002c70:	6020      	str	r0, [r4, #0]
 8002c72:	e9d5 700f 	ldrd	r7, r0, [r5, #60]	; 0x3c
 8002c76:	fa06 f000 	lsl.w	r0, r6, r0
 8002c7a:	6078      	str	r0, [r7, #4]
 8002c7c:	6063      	str	r3, [r4, #4]
 8002c7e:	686b      	ldr	r3, [r5, #4]
 8002c80:	2b10      	cmp	r3, #16
 8002c82:	6aeb      	ldr	r3, [r5, #44]	; 0x2c
 8002c84:	bf0b      	itete	eq
 8002c86:	60a2      	streq	r2, [r4, #8]
 8002c88:	60a1      	strne	r1, [r4, #8]
 8002c8a:	60e1      	streq	r1, [r4, #12]
 8002c8c:	60e2      	strne	r2, [r4, #12]
 8002c8e:	b14b      	cbz	r3, 8002ca4 <HAL_DMA_Start_IT+0x64>
 8002c90:	6823      	ldr	r3, [r4, #0]
 8002c92:	f043 030e 	orr.w	r3, r3, #14
 8002c96:	2000      	movs	r0, #0
 8002c98:	6023      	str	r3, [r4, #0]
 8002c9a:	6823      	ldr	r3, [r4, #0]
 8002c9c:	f043 0301 	orr.w	r3, r3, #1
 8002ca0:	6023      	str	r3, [r4, #0]
 8002ca2:	bdf0      	pop	{r4, r5, r6, r7, pc}
 8002ca4:	6823      	ldr	r3, [r4, #0]
 8002ca6:	f023 0304 	bic.w	r3, r3, #4
 8002caa:	6023      	str	r3, [r4, #0]
 8002cac:	6823      	ldr	r3, [r4, #0]
 8002cae:	f043 030a 	orr.w	r3, r3, #10
 8002cb2:	e7f0      	b.n	8002c96 <HAL_DMA_Start_IT+0x56>
 8002cb4:	f885 4020 	strb.w	r4, [r5, #32]
 8002cb8:	e7f3      	b.n	8002ca2 <HAL_DMA_Start_IT+0x62>
 8002cba:	2002      	movs	r0, #2
 8002cbc:	e7f1      	b.n	8002ca2 <HAL_DMA_Start_IT+0x62>

08002cbe <HAL_DMA_Abort>:
 8002cbe:	f890 2021 	ldrb.w	r2, [r0, #33]	; 0x21
 8002cc2:	4603      	mov	r3, r0
 8002cc4:	2a02      	cmp	r2, #2
 8002cc6:	d006      	beq.n	8002cd6 <HAL_DMA_Abort+0x18>
 8002cc8:	2204      	movs	r2, #4
 8002cca:	6382      	str	r2, [r0, #56]	; 0x38
 8002ccc:	2001      	movs	r0, #1
 8002cce:	2200      	movs	r2, #0
 8002cd0:	f883 2020 	strb.w	r2, [r3, #32]
 8002cd4:	4770      	bx	lr
 8002cd6:	6802      	ldr	r2, [r0, #0]
 8002cd8:	6bc0      	ldr	r0, [r0, #60]	; 0x3c
 8002cda:	6811      	ldr	r1, [r2, #0]
 8002cdc:	f021 010e 	bic.w	r1, r1, #14
 8002ce0:	6011      	str	r1, [r2, #0]
 8002ce2:	6811      	ldr	r1, [r2, #0]
 8002ce4:	f021 0101 	bic.w	r1, r1, #1
 8002ce8:	6011      	str	r1, [r2, #0]
 8002cea:	2101      	movs	r1, #1
 8002cec:	6c1a      	ldr	r2, [r3, #64]	; 0x40
 8002cee:	fa01 f202 	lsl.w	r2, r1, r2
 8002cf2:	6042      	str	r2, [r0, #4]
 8002cf4:	2000      	movs	r0, #0
 8002cf6:	f883 1021 	strb.w	r1, [r3, #33]	; 0x21
 8002cfa:	e7e8      	b.n	8002cce <HAL_DMA_Abort+0x10>

08002cfc <HAL_DMA_Abort_IT>:
 8002cfc:	b510      	push	{r4, lr}
 8002cfe:	f890 3021 	ldrb.w	r3, [r0, #33]	; 0x21
 8002d02:	2b02      	cmp	r3, #2
 8002d04:	d003      	beq.n	8002d0e <HAL_DMA_Abort_IT+0x12>
 8002d06:	2304      	movs	r3, #4
 8002d08:	6383      	str	r3, [r0, #56]	; 0x38
 8002d0a:	2001      	movs	r0, #1
 8002d0c:	bd10      	pop	{r4, pc}
 8002d0e:	6803      	ldr	r3, [r0, #0]
 8002d10:	681a      	ldr	r2, [r3, #0]
 8002d12:	f022 020e 	bic.w	r2, r2, #14
 8002d16:	601a      	str	r2, [r3, #0]
 8002d18:	681a      	ldr	r2, [r3, #0]
 8002d1a:	f022 0201 	bic.w	r2, r2, #1
 8002d1e:	601a      	str	r2, [r3, #0]
 8002d20:	4a18      	ldr	r2, [pc, #96]	; (8002d84 <HAL_DMA_Abort_IT+0x88>)
 8002d22:	4293      	cmp	r3, r2
 8002d24:	d01f      	beq.n	8002d66 <HAL_DMA_Abort_IT+0x6a>
 8002d26:	3214      	adds	r2, #20
 8002d28:	4293      	cmp	r3, r2
 8002d2a:	d01e      	beq.n	8002d6a <HAL_DMA_Abort_IT+0x6e>
 8002d2c:	3214      	adds	r2, #20
 8002d2e:	4293      	cmp	r3, r2
 8002d30:	d01d      	beq.n	8002d6e <HAL_DMA_Abort_IT+0x72>
 8002d32:	3214      	adds	r2, #20
 8002d34:	4293      	cmp	r3, r2
 8002d36:	d01d      	beq.n	8002d74 <HAL_DMA_Abort_IT+0x78>
 8002d38:	3214      	adds	r2, #20
 8002d3a:	4293      	cmp	r3, r2
 8002d3c:	d01d      	beq.n	8002d7a <HAL_DMA_Abort_IT+0x7e>
 8002d3e:	3214      	adds	r2, #20
 8002d40:	4293      	cmp	r3, r2
 8002d42:	bf0c      	ite	eq
 8002d44:	f44f 1380 	moveq.w	r3, #1048576	; 0x100000
 8002d48:	f04f 7380 	movne.w	r3, #16777216	; 0x1000000
 8002d4c:	4a0e      	ldr	r2, [pc, #56]	; (8002d88 <HAL_DMA_Abort_IT+0x8c>)
 8002d4e:	2400      	movs	r4, #0
 8002d50:	6053      	str	r3, [r2, #4]
 8002d52:	2301      	movs	r3, #1
 8002d54:	f880 3021 	strb.w	r3, [r0, #33]	; 0x21
 8002d58:	6b43      	ldr	r3, [r0, #52]	; 0x34
 8002d5a:	f880 4020 	strb.w	r4, [r0, #32]
 8002d5e:	b17b      	cbz	r3, 8002d80 <HAL_DMA_Abort_IT+0x84>
 8002d60:	4798      	blx	r3
 8002d62:	4620      	mov	r0, r4
 8002d64:	e7d2      	b.n	8002d0c <HAL_DMA_Abort_IT+0x10>
 8002d66:	2301      	movs	r3, #1
 8002d68:	e7f0      	b.n	8002d4c <HAL_DMA_Abort_IT+0x50>
 8002d6a:	2310      	movs	r3, #16
 8002d6c:	e7ee      	b.n	8002d4c <HAL_DMA_Abort_IT+0x50>
 8002d6e:	f44f 7380 	mov.w	r3, #256	; 0x100
 8002d72:	e7eb      	b.n	8002d4c <HAL_DMA_Abort_IT+0x50>
 8002d74:	f44f 5380 	mov.w	r3, #4096	; 0x1000
 8002d78:	e7e8      	b.n	8002d4c <HAL_DMA_Abort_IT+0x50>
 8002d7a:	f44f 3380 	mov.w	r3, #65536	; 0x10000
 8002d7e:	e7e5      	b.n	8002d4c <HAL_DMA_Abort_IT+0x50>
 8002d80:	4618      	mov	r0, r3
 8002d82:	e7c3      	b.n	8002d0c <HAL_DMA_Abort_IT+0x10>
 8002d84:	40020008 	.word	0x40020008
 8002d88:	40020000 	.word	0x40020000

08002d8c <HAL_DMA_IRQHandler>:
 8002d8c:	b470      	push	{r4, r5, r6}
 8002d8e:	2504      	movs	r5, #4
 8002d90:	6bc6      	ldr	r6, [r0, #60]	; 0x3c
 8002d92:	6c02      	ldr	r2, [r0, #64]	; 0x40
 8002d94:	6834      	ldr	r4, [r6, #0]
 8002d96:	6803      	ldr	r3, [r0, #0]
 8002d98:	4095      	lsls	r5, r2
 8002d9a:	4225      	tst	r5, r4
 8002d9c:	6819      	ldr	r1, [r3, #0]
 8002d9e:	d032      	beq.n	8002e06 <HAL_DMA_IRQHandler+0x7a>
 8002da0:	074d      	lsls	r5, r1, #29
 8002da2:	d530      	bpl.n	8002e06 <HAL_DMA_IRQHandler+0x7a>
 8002da4:	681a      	ldr	r2, [r3, #0]
 8002da6:	0696      	lsls	r6, r2, #26
 8002da8:	bf5e      	ittt	pl
 8002daa:	681a      	ldrpl	r2, [r3, #0]
 8002dac:	f022 0204 	bicpl.w	r2, r2, #4
 8002db0:	601a      	strpl	r2, [r3, #0]
 8002db2:	4a3e      	ldr	r2, [pc, #248]	; (8002eac <HAL_DMA_IRQHandler+0x120>)
 8002db4:	4293      	cmp	r3, r2
 8002db6:	d019      	beq.n	8002dec <HAL_DMA_IRQHandler+0x60>
 8002db8:	3214      	adds	r2, #20
 8002dba:	4293      	cmp	r3, r2
 8002dbc:	d018      	beq.n	8002df0 <HAL_DMA_IRQHandler+0x64>
 8002dbe:	3214      	adds	r2, #20
 8002dc0:	4293      	cmp	r3, r2
 8002dc2:	d017      	beq.n	8002df4 <HAL_DMA_IRQHandler+0x68>
 8002dc4:	3214      	adds	r2, #20
 8002dc6:	4293      	cmp	r3, r2
 8002dc8:	d017      	beq.n	8002dfa <HAL_DMA_IRQHandler+0x6e>
 8002dca:	3214      	adds	r2, #20
 8002dcc:	4293      	cmp	r3, r2
 8002dce:	d017      	beq.n	8002e00 <HAL_DMA_IRQHandler+0x74>
 8002dd0:	3214      	adds	r2, #20
 8002dd2:	4293      	cmp	r3, r2
 8002dd4:	bf0c      	ite	eq
 8002dd6:	f44f 0380 	moveq.w	r3, #4194304	; 0x400000
 8002dda:	f04f 6380 	movne.w	r3, #67108864	; 0x4000000
 8002dde:	4a34      	ldr	r2, [pc, #208]	; (8002eb0 <HAL_DMA_IRQHandler+0x124>)
 8002de0:	6053      	str	r3, [r2, #4]
 8002de2:	6ac3      	ldr	r3, [r0, #44]	; 0x2c
 8002de4:	2b00      	cmp	r3, #0
 8002de6:	d05e      	beq.n	8002ea6 <HAL_DMA_IRQHandler+0x11a>
 8002de8:	bc70      	pop	{r4, r5, r6}
 8002dea:	4718      	bx	r3
 8002dec:	2304      	movs	r3, #4
 8002dee:	e7f6      	b.n	8002dde <HAL_DMA_IRQHandler+0x52>
 8002df0:	2340      	movs	r3, #64	; 0x40
 8002df2:	e7f4      	b.n	8002dde <HAL_DMA_IRQHandler+0x52>
 8002df4:	f44f 6380 	mov.w	r3, #1024	; 0x400
 8002df8:	e7f1      	b.n	8002dde <HAL_DMA_IRQHandler+0x52>
 8002dfa:	f44f 4380 	mov.w	r3, #16384	; 0x4000
 8002dfe:	e7ee      	b.n	8002dde <HAL_DMA_IRQHandler+0x52>
 8002e00:	f44f 2380 	mov.w	r3, #262144	; 0x40000
 8002e04:	e7eb      	b.n	8002dde <HAL_DMA_IRQHandler+0x52>
 8002e06:	2502      	movs	r5, #2
 8002e08:	4095      	lsls	r5, r2
 8002e0a:	4225      	tst	r5, r4
 8002e0c:	d035      	beq.n	8002e7a <HAL_DMA_IRQHandler+0xee>
 8002e0e:	078d      	lsls	r5, r1, #30
 8002e10:	d533      	bpl.n	8002e7a <HAL_DMA_IRQHandler+0xee>
 8002e12:	681a      	ldr	r2, [r3, #0]
 8002e14:	0694      	lsls	r4, r2, #26
 8002e16:	d406      	bmi.n	8002e26 <HAL_DMA_IRQHandler+0x9a>
 8002e18:	681a      	ldr	r2, [r3, #0]
 8002e1a:	f022 020a 	bic.w	r2, r2, #10
 8002e1e:	601a      	str	r2, [r3, #0]
 8002e20:	2201      	movs	r2, #1
 8002e22:	f880 2021 	strb.w	r2, [r0, #33]	; 0x21
 8002e26:	4a21      	ldr	r2, [pc, #132]	; (8002eac <HAL_DMA_IRQHandler+0x120>)
 8002e28:	4293      	cmp	r3, r2
 8002e2a:	d019      	beq.n	8002e60 <HAL_DMA_IRQHandler+0xd4>
 8002e2c:	3214      	adds	r2, #20
 8002e2e:	4293      	cmp	r3, r2
 8002e30:	d018      	beq.n	8002e64 <HAL_DMA_IRQHandler+0xd8>
 8002e32:	3214      	adds	r2, #20
 8002e34:	4293      	cmp	r3, r2
 8002e36:	d017      	beq.n	8002e68 <HAL_DMA_IRQHandler+0xdc>
 8002e38:	3214      	adds	r2, #20
 8002e3a:	4293      	cmp	r3, r2
 8002e3c:	d017      	beq.n	8002e6e <HAL_DMA_IRQHandler+0xe2>
 8002e3e:	3214      	adds	r2, #20
 8002e40:	4293      	cmp	r3, r2
 8002e42:	d017      	beq.n	8002e74 <HAL_DMA_IRQHandler+0xe8>
 8002e44:	3214      	adds	r2, #20
 8002e46:	4293      	cmp	r3, r2
 8002e48:	bf0c      	ite	eq
 8002e4a:	f44f 1300 	moveq.w	r3, #2097152	; 0x200000
 8002e4e:	f04f 7300 	movne.w	r3, #33554432	; 0x2000000
 8002e52:	4a17      	ldr	r2, [pc, #92]	; (8002eb0 <HAL_DMA_IRQHandler+0x124>)
 8002e54:	6053      	str	r3, [r2, #4]
 8002e56:	2300      	movs	r3, #0
 8002e58:	f880 3020 	strb.w	r3, [r0, #32]
 8002e5c:	6a83      	ldr	r3, [r0, #40]	; 0x28
 8002e5e:	e7c1      	b.n	8002de4 <HAL_DMA_IRQHandler+0x58>
 8002e60:	2302      	movs	r3, #2
 8002e62:	e7f6      	b.n	8002e52 <HAL_DMA_IRQHandler+0xc6>
 8002e64:	2320      	movs	r3, #32
 8002e66:	e7f4      	b.n	8002e52 <HAL_DMA_IRQHandler+0xc6>
 8002e68:	f44f 7300 	mov.w	r3, #512	; 0x200
 8002e6c:	e7f1      	b.n	8002e52 <HAL_DMA_IRQHandler+0xc6>
 8002e6e:	f44f 5300 	mov.w	r3, #8192	; 0x2000
 8002e72:	e7ee      	b.n	8002e52 <HAL_DMA_IRQHandler+0xc6>
 8002e74:	f44f 3300 	mov.w	r3, #131072	; 0x20000
 8002e78:	e7eb      	b.n	8002e52 <HAL_DMA_IRQHandler+0xc6>
 8002e7a:	2508      	movs	r5, #8
 8002e7c:	4095      	lsls	r5, r2
 8002e7e:	4225      	tst	r5, r4
 8002e80:	d011      	beq.n	8002ea6 <HAL_DMA_IRQHandler+0x11a>
 8002e82:	0709      	lsls	r1, r1, #28
 8002e84:	d50f      	bpl.n	8002ea6 <HAL_DMA_IRQHandler+0x11a>
 8002e86:	6819      	ldr	r1, [r3, #0]
 8002e88:	f021 010e 	bic.w	r1, r1, #14
 8002e8c:	6019      	str	r1, [r3, #0]
 8002e8e:	2301      	movs	r3, #1
 8002e90:	fa03 f202 	lsl.w	r2, r3, r2
 8002e94:	6072      	str	r2, [r6, #4]
 8002e96:	6383      	str	r3, [r0, #56]	; 0x38
 8002e98:	f880 3021 	strb.w	r3, [r0, #33]	; 0x21
 8002e9c:	2300      	movs	r3, #0
 8002e9e:	f880 3020 	strb.w	r3, [r0, #32]
 8002ea2:	6b03      	ldr	r3, [r0, #48]	; 0x30
 8002ea4:	e79e      	b.n	8002de4 <HAL_DMA_IRQHandler+0x58>
 8002ea6:	bc70      	pop	{r4, r5, r6}
 8002ea8:	4770      	bx	lr
 8002eaa:	bf00      	nop
 8002eac:	40020008 	.word	0x40020008
 8002eb0:	40020000 	.word	0x40020000

08002eb4 <HAL_DMA_GetState>:
 8002eb4:	f890 0021 	ldrb.w	r0, [r0, #33]	; 0x21
 8002eb8:	4770      	bx	lr
	...

08002ebc <HAL_GPIO_Init>:
 8002ebc:	e92d 4ff7 	stmdb	sp!, {r0, r1, r2, r4, r5, r6, r7, r8, r9, sl, fp, lr}
 8002ec0:	2200      	movs	r2, #0
 8002ec2:	4616      	mov	r6, r2
 8002ec4:	4f64      	ldr	r7, [pc, #400]	; (8003058 <HAL_GPIO_Init+0x19c>)
 8002ec6:	4b65      	ldr	r3, [pc, #404]	; (800305c <HAL_GPIO_Init+0x1a0>)
 8002ec8:	f8df c194 	ldr.w	ip, [pc, #404]	; 8003060 <HAL_GPIO_Init+0x1a4>
 8002ecc:	f8df e194 	ldr.w	lr, [pc, #404]	; 8003064 <HAL_GPIO_Init+0x1a8>
 8002ed0:	680d      	ldr	r5, [r1, #0]
 8002ed2:	fa35 f406 	lsrs.w	r4, r5, r6
 8002ed6:	d102      	bne.n	8002ede <HAL_GPIO_Init+0x22>
 8002ed8:	b003      	add	sp, #12
 8002eda:	e8bd 8ff0 	ldmia.w	sp!, {r4, r5, r6, r7, r8, r9, sl, fp, pc}
 8002ede:	f04f 0801 	mov.w	r8, #1
 8002ee2:	fa08 f806 	lsl.w	r8, r8, r6
 8002ee6:	ea05 0408 	and.w	r4, r5, r8
 8002eea:	ea38 0505 	bics.w	r5, r8, r5
 8002eee:	d17a      	bne.n	8002fe6 <HAL_GPIO_Init+0x12a>
 8002ef0:	684d      	ldr	r5, [r1, #4]
 8002ef2:	2d03      	cmp	r5, #3
 8002ef4:	d807      	bhi.n	8002f06 <HAL_GPIO_Init+0x4a>
 8002ef6:	3d01      	subs	r5, #1
 8002ef8:	2d02      	cmp	r5, #2
 8002efa:	f200 8087 	bhi.w	800300c <HAL_GPIO_Init+0x150>
 8002efe:	e8df f005 	tbb	[pc, r5]
 8002f02:	9a95      	.short	0x9a95
 8002f04:	a0          	.byte	0xa0
 8002f05:	00          	.byte	0x00
 8002f06:	2d12      	cmp	r5, #18
 8002f08:	f000 8098 	beq.w	800303c <HAL_GPIO_Init+0x180>
 8002f0c:	d86d      	bhi.n	8002fea <HAL_GPIO_Init+0x12e>
 8002f0e:	2d11      	cmp	r5, #17
 8002f10:	f000 808e 	beq.w	8003030 <HAL_GPIO_Init+0x174>
 8002f14:	2cff      	cmp	r4, #255	; 0xff
 8002f16:	bf98      	it	ls
 8002f18:	4682      	movls	sl, r0
 8002f1a:	f04f 090f 	mov.w	r9, #15
 8002f1e:	bf88      	it	hi
 8002f20:	f100 0a04 	addhi.w	sl, r0, #4
 8002f24:	ea4f 0586 	mov.w	r5, r6, lsl #2
 8002f28:	f8da 8000 	ldr.w	r8, [sl]
 8002f2c:	bf88      	it	hi
 8002f2e:	3d20      	subhi	r5, #32
 8002f30:	fa09 fb05 	lsl.w	fp, r9, r5
 8002f34:	ea28 080b 	bic.w	r8, r8, fp
 8002f38:	fa02 f505 	lsl.w	r5, r2, r5
 8002f3c:	ea48 0505 	orr.w	r5, r8, r5
 8002f40:	f8ca 5000 	str.w	r5, [sl]
 8002f44:	f8d1 a004 	ldr.w	sl, [r1, #4]
 8002f48:	f01a 5f80 	tst.w	sl, #268435456	; 0x10000000
 8002f4c:	d04b      	beq.n	8002fe6 <HAL_GPIO_Init+0x12a>
 8002f4e:	69bd      	ldr	r5, [r7, #24]
 8002f50:	f026 0803 	bic.w	r8, r6, #3
 8002f54:	f045 0501 	orr.w	r5, r5, #1
 8002f58:	61bd      	str	r5, [r7, #24]
 8002f5a:	69bd      	ldr	r5, [r7, #24]
 8002f5c:	f108 4880 	add.w	r8, r8, #1073741824	; 0x40000000
 8002f60:	f005 0501 	and.w	r5, r5, #1
 8002f64:	9501      	str	r5, [sp, #4]
 8002f66:	f508 3880 	add.w	r8, r8, #65536	; 0x10000
 8002f6a:	f006 0b03 	and.w	fp, r6, #3
 8002f6e:	9d01      	ldr	r5, [sp, #4]
 8002f70:	ea4f 0b8b 	mov.w	fp, fp, lsl #2
 8002f74:	f8d8 5008 	ldr.w	r5, [r8, #8]
 8002f78:	fa09 f90b 	lsl.w	r9, r9, fp
 8002f7c:	ea25 0909 	bic.w	r9, r5, r9
 8002f80:	4d39      	ldr	r5, [pc, #228]	; (8003068 <HAL_GPIO_Init+0x1ac>)
 8002f82:	42a8      	cmp	r0, r5
 8002f84:	d061      	beq.n	800304a <HAL_GPIO_Init+0x18e>
 8002f86:	f505 6580 	add.w	r5, r5, #1024	; 0x400
 8002f8a:	42a8      	cmp	r0, r5
 8002f8c:	d05f      	beq.n	800304e <HAL_GPIO_Init+0x192>
 8002f8e:	f505 6580 	add.w	r5, r5, #1024	; 0x400
 8002f92:	42a8      	cmp	r0, r5
 8002f94:	d05d      	beq.n	8003052 <HAL_GPIO_Init+0x196>
 8002f96:	f505 6580 	add.w	r5, r5, #1024	; 0x400
 8002f9a:	42a8      	cmp	r0, r5
 8002f9c:	bf0c      	ite	eq
 8002f9e:	2503      	moveq	r5, #3
 8002fa0:	2504      	movne	r5, #4
 8002fa2:	fa05 f50b 	lsl.w	r5, r5, fp
 8002fa6:	ea45 0509 	orr.w	r5, r5, r9
 8002faa:	f8c8 5008 	str.w	r5, [r8, #8]
 8002fae:	689d      	ldr	r5, [r3, #8]
 8002fb0:	f41a 1f80 	tst.w	sl, #1048576	; 0x100000
 8002fb4:	bf14      	ite	ne
 8002fb6:	4325      	orrne	r5, r4
 8002fb8:	43a5      	biceq	r5, r4
 8002fba:	609d      	str	r5, [r3, #8]
 8002fbc:	68dd      	ldr	r5, [r3, #12]
 8002fbe:	f41a 1f00 	tst.w	sl, #2097152	; 0x200000
 8002fc2:	bf14      	ite	ne
 8002fc4:	4325      	orrne	r5, r4
 8002fc6:	43a5      	biceq	r5, r4
 8002fc8:	60dd      	str	r5, [r3, #12]
 8002fca:	685d      	ldr	r5, [r3, #4]
 8002fcc:	f41a 3f00 	tst.w	sl, #131072	; 0x20000
 8002fd0:	bf14      	ite	ne
 8002fd2:	4325      	orrne	r5, r4
 8002fd4:	43a5      	biceq	r5, r4
 8002fd6:	605d      	str	r5, [r3, #4]
 8002fd8:	681d      	ldr	r5, [r3, #0]
 8002fda:	f41a 3f80 	tst.w	sl, #65536	; 0x10000
 8002fde:	bf14      	ite	ne
 8002fe0:	4325      	orrne	r5, r4
 8002fe2:	43a5      	biceq	r5, r4
 8002fe4:	601d      	str	r5, [r3, #0]
 8002fe6:	3601      	adds	r6, #1
 8002fe8:	e772      	b.n	8002ed0 <HAL_GPIO_Init+0x14>
 8002fea:	f8df 9080 	ldr.w	r9, [pc, #128]	; 800306c <HAL_GPIO_Init+0x1b0>
 8002fee:	454d      	cmp	r5, r9
 8002ff0:	d00c      	beq.n	800300c <HAL_GPIO_Init+0x150>
 8002ff2:	d817      	bhi.n	8003024 <HAL_GPIO_Init+0x168>
 8002ff4:	f5a9 1980 	sub.w	r9, r9, #1048576	; 0x100000
 8002ff8:	454d      	cmp	r5, r9
 8002ffa:	d007      	beq.n	800300c <HAL_GPIO_Init+0x150>
 8002ffc:	f509 2970 	add.w	r9, r9, #983040	; 0xf0000
 8003000:	454d      	cmp	r5, r9
 8003002:	d003      	beq.n	800300c <HAL_GPIO_Init+0x150>
 8003004:	f5a9 1980 	sub.w	r9, r9, #1048576	; 0x100000
 8003008:	454d      	cmp	r5, r9
 800300a:	d183      	bne.n	8002f14 <HAL_GPIO_Init+0x58>
 800300c:	688a      	ldr	r2, [r1, #8]
 800300e:	b1d2      	cbz	r2, 8003046 <HAL_GPIO_Init+0x18a>
 8003010:	2a01      	cmp	r2, #1
 8003012:	bf08      	it	eq
 8003014:	f8c0 8010 	streq.w	r8, [r0, #16]
 8003018:	f04f 0208 	mov.w	r2, #8
 800301c:	bf18      	it	ne
 800301e:	f8c0 8014 	strne.w	r8, [r0, #20]
 8003022:	e777      	b.n	8002f14 <HAL_GPIO_Init+0x58>
 8003024:	4565      	cmp	r5, ip
 8003026:	d0f1      	beq.n	800300c <HAL_GPIO_Init+0x150>
 8003028:	4575      	cmp	r5, lr
 800302a:	e7ee      	b.n	800300a <HAL_GPIO_Init+0x14e>
 800302c:	68ca      	ldr	r2, [r1, #12]
 800302e:	e771      	b.n	8002f14 <HAL_GPIO_Init+0x58>
 8003030:	68ca      	ldr	r2, [r1, #12]
 8003032:	3204      	adds	r2, #4
 8003034:	e76e      	b.n	8002f14 <HAL_GPIO_Init+0x58>
 8003036:	68ca      	ldr	r2, [r1, #12]
 8003038:	3208      	adds	r2, #8
 800303a:	e76b      	b.n	8002f14 <HAL_GPIO_Init+0x58>
 800303c:	68ca      	ldr	r2, [r1, #12]
 800303e:	320c      	adds	r2, #12
 8003040:	e768      	b.n	8002f14 <HAL_GPIO_Init+0x58>
 8003042:	2200      	movs	r2, #0
 8003044:	e766      	b.n	8002f14 <HAL_GPIO_Init+0x58>
 8003046:	2204      	movs	r2, #4
 8003048:	e764      	b.n	8002f14 <HAL_GPIO_Init+0x58>
 800304a:	2500      	movs	r5, #0
 800304c:	e7a9      	b.n	8002fa2 <HAL_GPIO_Init+0xe6>
 800304e:	2501      	movs	r5, #1
 8003050:	e7a7      	b.n	8002fa2 <HAL_GPIO_Init+0xe6>
 8003052:	2502      	movs	r5, #2
 8003054:	e7a5      	b.n	8002fa2 <HAL_GPIO_Init+0xe6>
 8003056:	bf00      	nop
 8003058:	40021000 	.word	0x40021000
 800305c:	40010400 	.word	0x40010400
 8003060:	10310000 	.word	0x10310000
 8003064:	10320000 	.word	0x10320000
 8003068:	40010800 	.word	0x40010800
 800306c:	10220000 	.word	0x10220000

08003070 <HAL_GPIO_DeInit>:
 8003070:	e92d 4ff7 	stmdb	sp!, {r0, r1, r2, r4, r5, r6, r7, r8, r9, sl, fp, lr}
 8003074:	f04f 0b04 	mov.w	fp, #4
 8003078:	2200      	movs	r2, #0
 800307a:	f04f 0a01 	mov.w	sl, #1
 800307e:	f04f 080f 	mov.w	r8, #15
 8003082:	eb00 030b 	add.w	r3, r0, fp
 8003086:	9301      	str	r3, [sp, #4]
 8003088:	4b2e      	ldr	r3, [pc, #184]	; (8003144 <HAL_GPIO_DeInit+0xd4>)
 800308a:	fa31 f402 	lsrs.w	r4, r1, r2
 800308e:	d102      	bne.n	8003096 <HAL_GPIO_DeInit+0x26>
 8003090:	b003      	add	sp, #12
 8003092:	e8bd 8ff0 	ldmia.w	sp!, {r4, r5, r6, r7, r8, r9, sl, fp, pc}
 8003096:	fa0a f702 	lsl.w	r7, sl, r2
 800309a:	400f      	ands	r7, r1
 800309c:	d049      	beq.n	8003132 <HAL_GPIO_DeInit+0xc2>
 800309e:	f022 0403 	bic.w	r4, r2, #3
 80030a2:	f104 4480 	add.w	r4, r4, #1073741824	; 0x40000000
 80030a6:	f504 3480 	add.w	r4, r4, #65536	; 0x10000
 80030aa:	f002 0c03 	and.w	ip, r2, #3
 80030ae:	68a5      	ldr	r5, [r4, #8]
 80030b0:	ea4f 0c8c 	mov.w	ip, ip, lsl #2
 80030b4:	fa08 f90c 	lsl.w	r9, r8, ip
 80030b8:	ea09 0e05 	and.w	lr, r9, r5
 80030bc:	4d22      	ldr	r5, [pc, #136]	; (8003148 <HAL_GPIO_DeInit+0xd8>)
 80030be:	42a8      	cmp	r0, r5
 80030c0:	d039      	beq.n	8003136 <HAL_GPIO_DeInit+0xc6>
 80030c2:	f505 6580 	add.w	r5, r5, #1024	; 0x400
 80030c6:	42a8      	cmp	r0, r5
 80030c8:	d037      	beq.n	800313a <HAL_GPIO_DeInit+0xca>
 80030ca:	f505 6580 	add.w	r5, r5, #1024	; 0x400
 80030ce:	42a8      	cmp	r0, r5
 80030d0:	d035      	beq.n	800313e <HAL_GPIO_DeInit+0xce>
 80030d2:	f505 6580 	add.w	r5, r5, #1024	; 0x400
 80030d6:	42a8      	cmp	r0, r5
 80030d8:	bf0c      	ite	eq
 80030da:	2503      	moveq	r5, #3
 80030dc:	2504      	movne	r5, #4
 80030de:	fa05 f50c 	lsl.w	r5, r5, ip
 80030e2:	4575      	cmp	r5, lr
 80030e4:	ea6f 0607 	mvn.w	r6, r7
 80030e8:	d10f      	bne.n	800310a <HAL_GPIO_DeInit+0x9a>
 80030ea:	681d      	ldr	r5, [r3, #0]
 80030ec:	4035      	ands	r5, r6
 80030ee:	601d      	str	r5, [r3, #0]
 80030f0:	685d      	ldr	r5, [r3, #4]
 80030f2:	4035      	ands	r5, r6
 80030f4:	605d      	str	r5, [r3, #4]
 80030f6:	68dd      	ldr	r5, [r3, #12]
 80030f8:	4035      	ands	r5, r6
 80030fa:	60dd      	str	r5, [r3, #12]
 80030fc:	689d      	ldr	r5, [r3, #8]
 80030fe:	4035      	ands	r5, r6
 8003100:	609d      	str	r5, [r3, #8]
 8003102:	68a5      	ldr	r5, [r4, #8]
 8003104:	ea25 0509 	bic.w	r5, r5, r9
 8003108:	60a5      	str	r5, [r4, #8]
 800310a:	2fff      	cmp	r7, #255	; 0xff
 800310c:	bf94      	ite	ls
 800310e:	4607      	movls	r7, r0
 8003110:	9f01      	ldrhi	r7, [sp, #4]
 8003112:	ea4f 0482 	mov.w	r4, r2, lsl #2
 8003116:	683d      	ldr	r5, [r7, #0]
 8003118:	bf88      	it	hi
 800311a:	3c20      	subhi	r4, #32
 800311c:	fa08 fc04 	lsl.w	ip, r8, r4
 8003120:	ea25 050c 	bic.w	r5, r5, ip
 8003124:	fa0b f404 	lsl.w	r4, fp, r4
 8003128:	4325      	orrs	r5, r4
 800312a:	603d      	str	r5, [r7, #0]
 800312c:	68c4      	ldr	r4, [r0, #12]
 800312e:	4034      	ands	r4, r6
 8003130:	60c4      	str	r4, [r0, #12]
 8003132:	3201      	adds	r2, #1
 8003134:	e7a9      	b.n	800308a <HAL_GPIO_DeInit+0x1a>
 8003136:	2500      	movs	r5, #0
 8003138:	e7d1      	b.n	80030de <HAL_GPIO_DeInit+0x6e>
