
senior_test_stream_SD_ver3.elf:     file format elf32-littlearm

Sections:
Idx Name          Size      VMA       LMA       File off  Algn
  0 .isr_vector   0000010c  08000000  08000000  00010000  2**0
                  CONTENTS, ALLOC, LOAD, READONLY, DATA
  1 .text         0000ed14  08000110  08000110  00010110  2**4
                  CONTENTS, ALLOC, LOAD, READONLY, CODE
  2 .rodata       0000107c  0800ee24  0800ee24  0001ee24  2**2
                  CONTENTS, ALLOC, LOAD, READONLY, DATA
  3 .ARM.extab    00000000  0800fea0  0800fea0  000200b4  2**0
                  CONTENTS
  4 .ARM          00000000  0800fea0  0800fea0  000200b4  2**0
                  CONTENTS
  5 .preinit_array 00000000  0800fea0  0800fea0  000200b4  2**0
                  CONTENTS, ALLOC, LOAD, DATA
  6 .init_array   00000004  0800fea0  0800fea0  0001fea0  2**2
                  CONTENTS, ALLOC, LOAD, DATA
  7 .fini_array   00000004  0800fea4  0800fea4  0001fea4  2**2
                  CONTENTS, ALLOC, LOAD, DATA
  8 .data         000000b4  20000000  0800fea8  00020000  2**2
                  CONTENTS, ALLOC, LOAD, DATA
  9 .bss          000028b4  200000b4  0800ff5c  000200b4  2**2
                  ALLOC
 10 ._user_heap_stack 00000600  20002968  0800ff5c  00022968  2**0
                  ALLOC
 11 .ARM.attributes 00000029  00000000  00000000  000200b4  2**0
                  CONTENTS, READONLY
 12 .comment      00000043  00000000  00000000  000200dd  2**0
                  CONTENTS, READONLY
 13 .debug_info   0001a08e  00000000  00000000  00020120  2**0
                  CONTENTS, READONLY, DEBUGGING, OCTETS
 14 .debug_abbrev 00004a28  00000000  00000000  0003a1ae  2**0
                  CONTENTS, READONLY, DEBUGGING, OCTETS
 15 .debug_aranges 00001868  00000000  00000000  0003ebd8  2**3
                  CONTENTS, READONLY, DEBUGGING, OCTETS
 16 .debug_rnglists 000012bb  00000000  00000000  00040440  2**0
                  CONTENTS, READONLY, DEBUGGING, OCTETS
 17 .debug_macro  0001cd44  00000000  00000000  000416fb  2**0
                  CONTENTS, READONLY, DEBUGGING, OCTETS
 18 .debug_line   00021795  00000000  00000000  0005e43f  2**0
                  CONTENTS, READONLY, DEBUGGING, OCTETS
 19 .debug_str    000970cc  00000000  00000000  0007fbd4  2**0
                  CONTENTS, READONLY, DEBUGGING, OCTETS
 20 .debug_frame  00006984  00000000  00000000  00116ca0  2**2
                  CONTENTS, READONLY, DEBUGGING, OCTETS
 21 .debug_line_str 0000009d  00000000  00000000  0011d624  2**0
                  CONTENTS, READONLY, DEBUGGING, OCTETS

Disassembly of section .text:

08000110 <__do_global_dtors_aux>:
 8000110:	b510      	push	{r4, lr}
 8000112:	4c05      	ldr	r4, [pc, #20]	; (8000128 <__do_global_dtors_aux+0x18>)
 8000114:	7823      	ldrb	r3, [r4, #0]
 8000116:	b933      	cbnz	r3, 8000126 <__do_global_dtors_aux+0x16>
 8000118:	4b04      	ldr	r3, [pc, #16]	; (800012c <__do_global_dtors_aux+0x1c>)
 800011a:	b113      	cbz	r3, 8000122 <__do_global_dtors_aux+0x12>
 800011c:	4804      	ldr	r0, [pc, #16]	; (8000130 <__do_global_dtors_aux+0x20>)
 800011e:	f3af 8000 	nop.w
 8000122:	2301      	movs	r3, #1
 8000124:	7023      	strb	r3, [r4, #0]
 8000126:	bd10      	pop	{r4, pc}
 8000128:	200000b4 	.word	0x200000b4
 800012c:	00000000 	.word	0x00000000
 8000130:	0800ee0c 	.word	0x0800ee0c

08000134 <frame_dummy>:
 8000134:	b508      	push	{r3, lr}
 8000136:	4b03      	ldr	r3, [pc, #12]	; (8000144 <frame_dummy+0x10>)
 8000138:	b11b      	cbz	r3, 8000142 <frame_dummy+0xe>
 800013a:	4903      	ldr	r1, [pc, #12]	; (8000148 <frame_dummy+0x14>)
 800013c:	4803      	ldr	r0, [pc, #12]	; (800014c <frame_dummy+0x18>)
 800013e:	f3af 8000 	nop.w
 8000142:	bd08      	pop	{r3, pc}
 8000144:	00000000 	.word	0x00000000
 8000148:	200000b8 	.word	0x200000b8
 800014c:	0800ee0c 	.word	0x0800ee0c

08000150 <__aeabi_dmul>:
 8000150:	b570      	push	{r4, r5, r6, lr}
 8000152:	f04f 0cff 	mov.w	ip, #255	; 0xff
 8000156:	f44c 6ce0 	orr.w	ip, ip, #1792	; 0x700
 800015a:	ea1c 5411 	ands.w	r4, ip, r1, lsr #20
 800015e:	bf1d      	ittte	ne
 8000160:	ea1c 5513 	andsne.w	r5, ip, r3, lsr #20
 8000164:	ea94 0f0c 	teqne	r4, ip
 8000168:	ea95 0f0c 	teqne	r5, ip
 800016c:	f000 f8de 	bleq	800032c <__aeabi_dmul+0x1dc>
 8000170:	442c      	add	r4, r5
 8000172:	ea81 0603 	eor.w	r6, r1, r3
 8000176:	ea21 514c 	bic.w	r1, r1, ip, lsl #21
 800017a:	ea23 534c 	bic.w	r3, r3, ip, lsl #21
 800017e:	ea50 3501 	orrs.w	r5, r0, r1, lsl #12
 8000182:	bf18      	it	ne
 8000184:	ea52 3503 	orrsne.w	r5, r2, r3, lsl #12
 8000188:	f441 1180 	orr.w	r1, r1, #1048576	; 0x100000
 800018c:	f443 1380 	orr.w	r3, r3, #1048576	; 0x100000
 8000190:	d038      	beq.n	8000204 <__aeabi_dmul+0xb4>
 8000192:	fba0 ce02 	umull	ip, lr, r0, r2
 8000196:	f04f 0500 	mov.w	r5, #0
 800019a:	fbe1 e502 	umlal	lr, r5, r1, r2
 800019e:	f006 4200 	and.w	r2, r6, #2147483648	; 0x80000000
 80001a2:	fbe0 e503 	umlal	lr, r5, r0, r3
 80001a6:	f04f 0600 	mov.w	r6, #0
 80001aa:	fbe1 5603 	umlal	r5, r6, r1, r3
 80001ae:	f09c 0f00 	teq	ip, #0
 80001b2:	bf18      	it	ne
 80001b4:	f04e 0e01 	orrne.w	lr, lr, #1
 80001b8:	f1a4 04ff 	sub.w	r4, r4, #255	; 0xff
 80001bc:	f5b6 7f00 	cmp.w	r6, #512	; 0x200
 80001c0:	f564 7440 	sbc.w	r4, r4, #768	; 0x300
 80001c4:	d204      	bcs.n	80001d0 <__aeabi_dmul+0x80>
 80001c6:	ea5f 0e4e 	movs.w	lr, lr, lsl #1
 80001ca:	416d      	adcs	r5, r5
 80001cc:	eb46 0606 	adc.w	r6, r6, r6
 80001d0:	ea42 21c6 	orr.w	r1, r2, r6, lsl #11
 80001d4:	ea41 5155 	orr.w	r1, r1, r5, lsr #21
 80001d8:	ea4f 20c5 	mov.w	r0, r5, lsl #11
 80001dc:	ea40 505e 	orr.w	r0, r0, lr, lsr #21
 80001e0:	ea4f 2ece 	mov.w	lr, lr, lsl #11
 80001e4:	f1b4 0cfd 	subs.w	ip, r4, #253	; 0xfd
 80001e8:	bf88      	it	hi
 80001ea:	f5bc 6fe0 	cmphi.w	ip, #1792	; 0x700
 80001ee:	d81e      	bhi.n	800022e <__aeabi_dmul+0xde>
 80001f0:	f1be 4f00 	cmp.w	lr, #2147483648	; 0x80000000
 80001f4:	bf08      	it	eq
 80001f6:	ea5f 0e50 	movseq.w	lr, r0, lsr #1
 80001fa:	f150 0000 	adcs.w	r0, r0, #0
 80001fe:	eb41 5104 	adc.w	r1, r1, r4, lsl #20
 8000202:	bd70      	pop	{r4, r5, r6, pc}
 8000204:	f006 4600 	and.w	r6, r6, #2147483648	; 0x80000000
 8000208:	ea46 0101 	orr.w	r1, r6, r1
 800020c:	ea40 0002 	orr.w	r0, r0, r2
 8000210:	ea81 0103 	eor.w	r1, r1, r3
 8000214:	ebb4 045c 	subs.w	r4, r4, ip, lsr #1
 8000218:	bfc2      	ittt	gt
 800021a:	ebd4 050c 	rsbsgt	r5, r4, ip
 800021e:	ea41 5104 	orrgt.w	r1, r1, r4, lsl #20
 8000222:	bd70      	popgt	{r4, r5, r6, pc}
 8000224:	f441 1180 	orr.w	r1, r1, #1048576	; 0x100000
 8000228:	f04f 0e00 	mov.w	lr, #0
 800022c:	3c01      	subs	r4, #1
 800022e:	f300 80ab 	bgt.w	8000388 <__aeabi_dmul+0x238>
 8000232:	f114 0f36 	cmn.w	r4, #54	; 0x36
 8000236:	bfde      	ittt	le
 8000238:	2000      	movle	r0, #0
 800023a:	f001 4100 	andle.w	r1, r1, #2147483648	; 0x80000000
 800023e:	bd70      	pople	{r4, r5, r6, pc}
 8000240:	f1c4 0400 	rsb	r4, r4, #0
 8000244:	3c20      	subs	r4, #32
 8000246:	da35      	bge.n	80002b4 <__aeabi_dmul+0x164>
 8000248:	340c      	adds	r4, #12
 800024a:	dc1b      	bgt.n	8000284 <__aeabi_dmul+0x134>
 800024c:	f104 0414 	add.w	r4, r4, #20
 8000250:	f1c4 0520 	rsb	r5, r4, #32
 8000254:	fa00 f305 	lsl.w	r3, r0, r5
 8000258:	fa20 f004 	lsr.w	r0, r0, r4
 800025c:	fa01 f205 	lsl.w	r2, r1, r5
 8000260:	ea40 0002 	orr.w	r0, r0, r2
 8000264:	f001 4200 	and.w	r2, r1, #2147483648	; 0x80000000
 8000268:	f021 4100 	bic.w	r1, r1, #2147483648	; 0x80000000
 800026c:	eb10 70d3 	adds.w	r0, r0, r3, lsr #31
 8000270:	fa21 f604 	lsr.w	r6, r1, r4
 8000274:	eb42 0106 	adc.w	r1, r2, r6
 8000278:	ea5e 0e43 	orrs.w	lr, lr, r3, lsl #1
 800027c:	bf08      	it	eq
 800027e:	ea20 70d3 	biceq.w	r0, r0, r3, lsr #31
 8000282:	bd70      	pop	{r4, r5, r6, pc}
 8000284:	f1c4 040c 	rsb	r4, r4, #12
 8000288:	f1c4 0520 	rsb	r5, r4, #32
 800028c:	fa00 f304 	lsl.w	r3, r0, r4
 8000290:	fa20 f005 	lsr.w	r0, r0, r5
 8000294:	fa01 f204 	lsl.w	r2, r1, r4
 8000298:	ea40 0002 	orr.w	r0, r0, r2
 800029c:	f001 4100 	and.w	r1, r1, #2147483648	; 0x80000000
 80002a0:	eb10 70d3 	adds.w	r0, r0, r3, lsr #31
 80002a4:	f141 0100 	adc.w	r1, r1, #0
 80002a8:	ea5e 0e43 	orrs.w	lr, lr, r3, lsl #1
 80002ac:	bf08      	it	eq
 80002ae:	ea20 70d3 	biceq.w	r0, r0, r3, lsr #31
 80002b2:	bd70      	pop	{r4, r5, r6, pc}
 80002b4:	f1c4 0520 	rsb	r5, r4, #32
 80002b8:	fa00 f205 	lsl.w	r2, r0, r5
 80002bc:	ea4e 0e02 	orr.w	lr, lr, r2
 80002c0:	fa20 f304 	lsr.w	r3, r0, r4
 80002c4:	fa01 f205 	lsl.w	r2, r1, r5
 80002c8:	ea43 0302 	orr.w	r3, r3, r2
 80002cc:	fa21 f004 	lsr.w	r0, r1, r4
 80002d0:	f001 4100 	and.w	r1, r1, #2147483648	; 0x80000000
 80002d4:	fa21 f204 	lsr.w	r2, r1, r4
 80002d8:	ea20 0002 	bic.w	r0, r0, r2
 80002dc:	eb00 70d3 	add.w	r0, r0, r3, lsr #31
 80002e0:	ea5e 0e43 	orrs.w	lr, lr, r3, lsl #1
 80002e4:	bf08      	it	eq
 80002e6:	ea20 70d3 	biceq.w	r0, r0, r3, lsr #31
 80002ea:	bd70      	pop	{r4, r5, r6, pc}
 80002ec:	f094 0f00 	teq	r4, #0
 80002f0:	d10f      	bne.n	8000312 <__aeabi_dmul+0x1c2>
 80002f2:	f001 4600 	and.w	r6, r1, #2147483648	; 0x80000000
 80002f6:	0040      	lsls	r0, r0, #1
 80002f8:	eb41 0101 	adc.w	r1, r1, r1
 80002fc:	f411 1f80 	tst.w	r1, #1048576	; 0x100000
 8000300:	bf08      	it	eq
 8000302:	3c01      	subeq	r4, #1
 8000304:	d0f7      	beq.n	80002f6 <__aeabi_dmul+0x1a6>
 8000306:	ea41 0106 	orr.w	r1, r1, r6
 800030a:	f095 0f00 	teq	r5, #0
 800030e:	bf18      	it	ne
 8000310:	4770      	bxne	lr
 8000312:	f003 4600 	and.w	r6, r3, #2147483648	; 0x80000000
 8000316:	0052      	lsls	r2, r2, #1
 8000318:	eb43 0303 	adc.w	r3, r3, r3
 800031c:	f413 1f80 	tst.w	r3, #1048576	; 0x100000
 8000320:	bf08      	it	eq
 8000322:	3d01      	subeq	r5, #1
 8000324:	d0f7      	beq.n	8000316 <__aeabi_dmul+0x1c6>
 8000326:	ea43 0306 	orr.w	r3, r3, r6
 800032a:	4770      	bx	lr
 800032c:	ea94 0f0c 	teq	r4, ip
 8000330:	ea0c 5513 	and.w	r5, ip, r3, lsr #20
 8000334:	bf18      	it	ne
 8000336:	ea95 0f0c 	teqne	r5, ip
 800033a:	d00c      	beq.n	8000356 <__aeabi_dmul+0x206>
 800033c:	ea50 0641 	orrs.w	r6, r0, r1, lsl #1
 8000340:	bf18      	it	ne
 8000342:	ea52 0643 	orrsne.w	r6, r2, r3, lsl #1
 8000346:	d1d1      	bne.n	80002ec <__aeabi_dmul+0x19c>
 8000348:	ea81 0103 	eor.w	r1, r1, r3
 800034c:	f001 4100 	and.w	r1, r1, #2147483648	; 0x80000000
 8000350:	f04f 0000 	mov.w	r0, #0
 8000354:	bd70      	pop	{r4, r5, r6, pc}
 8000356:	ea50 0641 	orrs.w	r6, r0, r1, lsl #1
 800035a:	bf06      	itte	eq
 800035c:	4610      	moveq	r0, r2
 800035e:	4619      	moveq	r1, r3
 8000360:	ea52 0643 	orrsne.w	r6, r2, r3, lsl #1
 8000364:	d019      	beq.n	800039a <__aeabi_dmul+0x24a>
 8000366:	ea94 0f0c 	teq	r4, ip
 800036a:	d102      	bne.n	8000372 <__aeabi_dmul+0x222>
 800036c:	ea50 3601 	orrs.w	r6, r0, r1, lsl #12
 8000370:	d113      	bne.n	800039a <__aeabi_dmul+0x24a>
 8000372:	ea95 0f0c 	teq	r5, ip
 8000376:	d105      	bne.n	8000384 <__aeabi_dmul+0x234>
 8000378:	ea52 3603 	orrs.w	r6, r2, r3, lsl #12
 800037c:	bf1c      	itt	ne
 800037e:	4610      	movne	r0, r2
 8000380:	4619      	movne	r1, r3
 8000382:	d10a      	bne.n	800039a <__aeabi_dmul+0x24a>
 8000384:	ea81 0103 	eor.w	r1, r1, r3
 8000388:	f001 4100 	and.w	r1, r1, #2147483648	; 0x80000000
 800038c:	f041 41fe 	orr.w	r1, r1, #2130706432	; 0x7f000000
 8000390:	f441 0170 	orr.w	r1, r1, #15728640	; 0xf00000
 8000394:	f04f 0000 	mov.w	r0, #0
 8000398:	bd70      	pop	{r4, r5, r6, pc}
 800039a:	f041 41fe 	orr.w	r1, r1, #2130706432	; 0x7f000000
 800039e:	f441 0178 	orr.w	r1, r1, #16252928	; 0xf80000
 80003a2:	bd70      	pop	{r4, r5, r6, pc}

080003a4 <__aeabi_fmul>:
 80003a4:	f04f 0cff 	mov.w	ip, #255	; 0xff
 80003a8:	ea1c 52d0 	ands.w	r2, ip, r0, lsr #23
 80003ac:	bf1e      	ittt	ne
 80003ae:	ea1c 53d1 	andsne.w	r3, ip, r1, lsr #23
 80003b2:	ea92 0f0c 	teqne	r2, ip
 80003b6:	ea93 0f0c 	teqne	r3, ip
 80003ba:	d06f      	beq.n	800049c <__aeabi_fmul+0xf8>
 80003bc:	441a      	add	r2, r3
 80003be:	ea80 0c01 	eor.w	ip, r0, r1
 80003c2:	0240      	lsls	r0, r0, #9
 80003c4:	bf18      	it	ne
 80003c6:	ea5f 2141 	movsne.w	r1, r1, lsl #9
 80003ca:	d01e      	beq.n	800040a <__aeabi_fmul+0x66>
 80003cc:	f04f 6300 	mov.w	r3, #134217728	; 0x8000000
 80003d0:	ea43 1050 	orr.w	r0, r3, r0, lsr #5
 80003d4:	ea43 1151 	orr.w	r1, r3, r1, lsr #5
 80003d8:	fba0 3101 	umull	r3, r1, r0, r1
 80003dc:	f00c 4000 	and.w	r0, ip, #2147483648	; 0x80000000
 80003e0:	f5b1 0f00 	cmp.w	r1, #8388608	; 0x800000
 80003e4:	bf3e      	ittt	cc
 80003e6:	0049      	lslcc	r1, r1, #1
 80003e8:	ea41 71d3 	orrcc.w	r1, r1, r3, lsr #31
 80003ec:	005b      	lslcc	r3, r3, #1
 80003ee:	ea40 0001 	orr.w	r0, r0, r1
 80003f2:	f162 027f 	sbc.w	r2, r2, #127	; 0x7f
 80003f6:	2afd      	cmp	r2, #253	; 0xfd
 80003f8:	d81d      	bhi.n	8000436 <__aeabi_fmul+0x92>
 80003fa:	f1b3 4f00 	cmp.w	r3, #2147483648	; 0x80000000
 80003fe:	eb40 50c2 	adc.w	r0, r0, r2, lsl #23
 8000402:	bf08      	it	eq
 8000404:	f020 0001 	biceq.w	r0, r0, #1
 8000408:	4770      	bx	lr
 800040a:	f090 0f00 	teq	r0, #0
 800040e:	f00c 4c00 	and.w	ip, ip, #2147483648	; 0x80000000
 8000412:	bf08      	it	eq
 8000414:	0249      	lsleq	r1, r1, #9
 8000416:	ea4c 2050 	orr.w	r0, ip, r0, lsr #9
 800041a:	ea40 2051 	orr.w	r0, r0, r1, lsr #9
 800041e:	3a7f      	subs	r2, #127	; 0x7f
 8000420:	bfc2      	ittt	gt
 8000422:	f1d2 03ff 	rsbsgt	r3, r2, #255	; 0xff
 8000426:	ea40 50c2 	orrgt.w	r0, r0, r2, lsl #23
 800042a:	4770      	bxgt	lr
 800042c:	f440 0000 	orr.w	r0, r0, #8388608	; 0x800000
 8000430:	f04f 0300 	mov.w	r3, #0
 8000434:	3a01      	subs	r2, #1
 8000436:	dc5d      	bgt.n	80004f4 <__aeabi_fmul+0x150>
 8000438:	f112 0f19 	cmn.w	r2, #25
 800043c:	bfdc      	itt	le
 800043e:	f000 4000 	andle.w	r0, r0, #2147483648	; 0x80000000
 8000442:	4770      	bxle	lr
 8000444:	f1c2 0200 	rsb	r2, r2, #0
 8000448:	0041      	lsls	r1, r0, #1
 800044a:	fa21 f102 	lsr.w	r1, r1, r2
 800044e:	f1c2 0220 	rsb	r2, r2, #32
 8000452:	fa00 fc02 	lsl.w	ip, r0, r2
 8000456:	ea5f 0031 	movs.w	r0, r1, rrx
 800045a:	f140 0000 	adc.w	r0, r0, #0
 800045e:	ea53 034c 	orrs.w	r3, r3, ip, lsl #1
 8000462:	bf08      	it	eq
 8000464:	ea20 70dc 	biceq.w	r0, r0, ip, lsr #31
 8000468:	4770      	bx	lr
 800046a:	f092 0f00 	teq	r2, #0
 800046e:	f000 4c00 	and.w	ip, r0, #2147483648	; 0x80000000
 8000472:	bf02      	ittt	eq
 8000474:	0040      	lsleq	r0, r0, #1
 8000476:	f410 0f00 	tsteq.w	r0, #8388608	; 0x800000
 800047a:	3a01      	subeq	r2, #1
 800047c:	d0f9      	beq.n	8000472 <__aeabi_fmul+0xce>
 800047e:	ea40 000c 	orr.w	r0, r0, ip
 8000482:	f093 0f00 	teq	r3, #0
 8000486:	f001 4c00 	and.w	ip, r1, #2147483648	; 0x80000000
 800048a:	bf02      	ittt	eq
 800048c:	0049      	lsleq	r1, r1, #1
 800048e:	f411 0f00 	tsteq.w	r1, #8388608	; 0x800000
 8000492:	3b01      	subeq	r3, #1
 8000494:	d0f9      	beq.n	800048a <__aeabi_fmul+0xe6>
 8000496:	ea41 010c 	orr.w	r1, r1, ip
 800049a:	e78f      	b.n	80003bc <__aeabi_fmul+0x18>
 800049c:	ea0c 53d1 	and.w	r3, ip, r1, lsr #23
 80004a0:	ea92 0f0c 	teq	r2, ip
 80004a4:	bf18      	it	ne
 80004a6:	ea93 0f0c 	teqne	r3, ip
 80004aa:	d00a      	beq.n	80004c2 <__aeabi_fmul+0x11e>
 80004ac:	f030 4c00 	bics.w	ip, r0, #2147483648	; 0x80000000
 80004b0:	bf18      	it	ne
 80004b2:	f031 4c00 	bicsne.w	ip, r1, #2147483648	; 0x80000000
 80004b6:	d1d8      	bne.n	800046a <__aeabi_fmul+0xc6>
 80004b8:	ea80 0001 	eor.w	r0, r0, r1
 80004bc:	f000 4000 	and.w	r0, r0, #2147483648	; 0x80000000
 80004c0:	4770      	bx	lr
 80004c2:	f090 0f00 	teq	r0, #0
 80004c6:	bf17      	itett	ne
 80004c8:	f090 4f00 	teqne	r0, #2147483648	; 0x80000000
 80004cc:	4608      	moveq	r0, r1
 80004ce:	f091 0f00 	teqne	r1, #0
 80004d2:	f091 4f00 	teqne	r1, #2147483648	; 0x80000000
 80004d6:	d014      	beq.n	8000502 <__aeabi_fmul+0x15e>
 80004d8:	ea92 0f0c 	teq	r2, ip
 80004dc:	d101      	bne.n	80004e2 <__aeabi_fmul+0x13e>
 80004de:	0242      	lsls	r2, r0, #9
 80004e0:	d10f      	bne.n	8000502 <__aeabi_fmul+0x15e>
 80004e2:	ea93 0f0c 	teq	r3, ip
 80004e6:	d103      	bne.n	80004f0 <__aeabi_fmul+0x14c>
 80004e8:	024b      	lsls	r3, r1, #9
 80004ea:	bf18      	it	ne
 80004ec:	4608      	movne	r0, r1
 80004ee:	d108      	bne.n	8000502 <__aeabi_fmul+0x15e>
 80004f0:	ea80 0001 	eor.w	r0, r0, r1
 80004f4:	f000 4000 	and.w	r0, r0, #2147483648	; 0x80000000
 80004f8:	f040 40fe 	orr.w	r0, r0, #2130706432	; 0x7f000000
 80004fc:	f440 0000 	orr.w	r0, r0, #8388608	; 0x800000
 8000500:	4770      	bx	lr
 8000502:	f040 40fe 	orr.w	r0, r0, #2130706432	; 0x7f000000
 8000506:	f440 0040 	orr.w	r0, r0, #12582912	; 0xc00000
 800050a:	4770      	bx	lr

0800050c <__aeabi_drsub>:
 800050c:	f081 4100 	eor.w	r1, r1, #2147483648	; 0x80000000
 8000510:	e002      	b.n	8000518 <__adddf3>
 8000512:	bf00      	nop

08000514 <__aeabi_dsub>:
 8000514:	f083 4300 	eor.w	r3, r3, #2147483648	; 0x80000000

08000518 <__adddf3>:
 8000518:	b530      	push	{r4, r5, lr}
 800051a:	ea4f 0441 	mov.w	r4, r1, lsl #1
 800051e:	ea4f 0543 	mov.w	r5, r3, lsl #1
 8000522:	ea94 0f05 	teq	r4, r5
 8000526:	bf08      	it	eq
 8000528:	ea90 0f02 	teqeq	r0, r2
 800052c:	bf1f      	itttt	ne
 800052e:	ea54 0c00 	orrsne.w	ip, r4, r0
 8000532:	ea55 0c02 	orrsne.w	ip, r5, r2
 8000536:	ea7f 5c64 	mvnsne.w	ip, r4, asr #21
 800053a:	ea7f 5c65 	mvnsne.w	ip, r5, asr #21
 800053e:	f000 80e2 	beq.w	8000706 <__adddf3+0x1ee>
 8000542:	ea4f 5454 	mov.w	r4, r4, lsr #21
 8000546:	ebd4 5555 	rsbs	r5, r4, r5, lsr #21
 800054a:	bfb8      	it	lt
 800054c:	426d      	neglt	r5, r5
 800054e:	dd0c      	ble.n	800056a <__adddf3+0x52>
 8000550:	442c      	add	r4, r5
 8000552:	ea80 0202 	eor.w	r2, r0, r2
 8000556:	ea81 0303 	eor.w	r3, r1, r3
 800055a:	ea82 0000 	eor.w	r0, r2, r0
 800055e:	ea83 0101 	eor.w	r1, r3, r1
 8000562:	ea80 0202 	eor.w	r2, r0, r2
 8000566:	ea81 0303 	eor.w	r3, r1, r3
 800056a:	2d36      	cmp	r5, #54	; 0x36
 800056c:	bf88      	it	hi
 800056e:	bd30      	pophi	{r4, r5, pc}
 8000570:	f011 4f00 	tst.w	r1, #2147483648	; 0x80000000
 8000574:	ea4f 3101 	mov.w	r1, r1, lsl #12
 8000578:	f44f 1c80 	mov.w	ip, #1048576	; 0x100000
 800057c:	ea4c 3111 	orr.w	r1, ip, r1, lsr #12
 8000580:	d002      	beq.n	8000588 <__adddf3+0x70>
 8000582:	4240      	negs	r0, r0
 8000584:	eb61 0141 	sbc.w	r1, r1, r1, lsl #1
 8000588:	f013 4f00 	tst.w	r3, #2147483648	; 0x80000000
 800058c:	ea4f 3303 	mov.w	r3, r3, lsl #12
 8000590:	ea4c 3313 	orr.w	r3, ip, r3, lsr #12
 8000594:	d002      	beq.n	800059c <__adddf3+0x84>
 8000596:	4252      	negs	r2, r2
 8000598:	eb63 0343 	sbc.w	r3, r3, r3, lsl #1
 800059c:	ea94 0f05 	teq	r4, r5
 80005a0:	f000 80a7 	beq.w	80006f2 <__adddf3+0x1da>
 80005a4:	f1a4 0401 	sub.w	r4, r4, #1
 80005a8:	f1d5 0e20 	rsbs	lr, r5, #32
 80005ac:	db0d      	blt.n	80005ca <__adddf3+0xb2>
 80005ae:	fa02 fc0e 	lsl.w	ip, r2, lr
 80005b2:	fa22 f205 	lsr.w	r2, r2, r5
 80005b6:	1880      	adds	r0, r0, r2
 80005b8:	f141 0100 	adc.w	r1, r1, #0
 80005bc:	fa03 f20e 	lsl.w	r2, r3, lr
 80005c0:	1880      	adds	r0, r0, r2
 80005c2:	fa43 f305 	asr.w	r3, r3, r5
 80005c6:	4159      	adcs	r1, r3
 80005c8:	e00e      	b.n	80005e8 <__adddf3+0xd0>
 80005ca:	f1a5 0520 	sub.w	r5, r5, #32
 80005ce:	f10e 0e20 	add.w	lr, lr, #32
 80005d2:	2a01      	cmp	r2, #1
 80005d4:	fa03 fc0e 	lsl.w	ip, r3, lr
 80005d8:	bf28      	it	cs
 80005da:	f04c 0c02 	orrcs.w	ip, ip, #2
 80005de:	fa43 f305 	asr.w	r3, r3, r5
 80005e2:	18c0      	adds	r0, r0, r3
 80005e4:	eb51 71e3 	adcs.w	r1, r1, r3, asr #31
 80005e8:	f001 4500 	and.w	r5, r1, #2147483648	; 0x80000000
 80005ec:	d507      	bpl.n	80005fe <__adddf3+0xe6>
 80005ee:	f04f 0e00 	mov.w	lr, #0
 80005f2:	f1dc 0c00 	rsbs	ip, ip, #0
 80005f6:	eb7e 0000 	sbcs.w	r0, lr, r0
 80005fa:	eb6e 0101 	sbc.w	r1, lr, r1
 80005fe:	f5b1 1f80 	cmp.w	r1, #1048576	; 0x100000
 8000602:	d31b      	bcc.n	800063c <__adddf3+0x124>
 8000604:	f5b1 1f00 	cmp.w	r1, #2097152	; 0x200000
 8000608:	d30c      	bcc.n	8000624 <__adddf3+0x10c>
 800060a:	0849      	lsrs	r1, r1, #1
 800060c:	ea5f 0030 	movs.w	r0, r0, rrx
 8000610:	ea4f 0c3c 	mov.w	ip, ip, rrx
 8000614:	f104 0401 	add.w	r4, r4, #1
 8000618:	ea4f 5244 	mov.w	r2, r4, lsl #21
 800061c:	f512 0f80 	cmn.w	r2, #4194304	; 0x400000
 8000620:	f080 809a 	bcs.w	8000758 <__adddf3+0x240>
 8000624:	f1bc 4f00 	cmp.w	ip, #2147483648	; 0x80000000
 8000628:	bf08      	it	eq
 800062a:	ea5f 0c50 	movseq.w	ip, r0, lsr #1
 800062e:	f150 0000 	adcs.w	r0, r0, #0
 8000632:	eb41 5104 	adc.w	r1, r1, r4, lsl #20
 8000636:	ea41 0105 	orr.w	r1, r1, r5
 800063a:	bd30      	pop	{r4, r5, pc}
 800063c:	ea5f 0c4c 	movs.w	ip, ip, lsl #1
 8000640:	4140      	adcs	r0, r0
 8000642:	eb41 0101 	adc.w	r1, r1, r1
 8000646:	3c01      	subs	r4, #1
 8000648:	bf28      	it	cs
 800064a:	f5b1 1f80 	cmpcs.w	r1, #1048576	; 0x100000
 800064e:	d2e9      	bcs.n	8000624 <__adddf3+0x10c>
 8000650:	f091 0f00 	teq	r1, #0
 8000654:	bf04      	itt	eq
 8000656:	4601      	moveq	r1, r0
 8000658:	2000      	moveq	r0, #0
 800065a:	fab1 f381 	clz	r3, r1
 800065e:	bf08      	it	eq
 8000660:	3320      	addeq	r3, #32
 8000662:	f1a3 030b 	sub.w	r3, r3, #11
 8000666:	f1b3 0220 	subs.w	r2, r3, #32
 800066a:	da0c      	bge.n	8000686 <__adddf3+0x16e>
 800066c:	320c      	adds	r2, #12
 800066e:	dd08      	ble.n	8000682 <__adddf3+0x16a>
 8000670:	f102 0c14 	add.w	ip, r2, #20
 8000674:	f1c2 020c 	rsb	r2, r2, #12
 8000678:	fa01 f00c 	lsl.w	r0, r1, ip
 800067c:	fa21 f102 	lsr.w	r1, r1, r2
 8000680:	e00c      	b.n	800069c <__adddf3+0x184>
 8000682:	f102 0214 	add.w	r2, r2, #20
 8000686:	bfd8      	it	le
 8000688:	f1c2 0c20 	rsble	ip, r2, #32
 800068c:	fa01 f102 	lsl.w	r1, r1, r2
 8000690:	fa20 fc0c 	lsr.w	ip, r0, ip
 8000694:	bfdc      	itt	le
 8000696:	ea41 010c 	orrle.w	r1, r1, ip
 800069a:	4090      	lslle	r0, r2
 800069c:	1ae4      	subs	r4, r4, r3
 800069e:	bfa2      	ittt	ge
 80006a0:	eb01 5104 	addge.w	r1, r1, r4, lsl #20
 80006a4:	4329      	orrge	r1, r5
 80006a6:	bd30      	popge	{r4, r5, pc}
 80006a8:	ea6f 0404 	mvn.w	r4, r4
 80006ac:	3c1f      	subs	r4, #31
 80006ae:	da1c      	bge.n	80006ea <__adddf3+0x1d2>
 80006b0:	340c      	adds	r4, #12
 80006b2:	dc0e      	bgt.n	80006d2 <__adddf3+0x1ba>
 80006b4:	f104 0414 	add.w	r4, r4, #20
 80006b8:	f1c4 0220 	rsb	r2, r4, #32
 80006bc:	fa20 f004 	lsr.w	r0, r0, r4
 80006c0:	fa01 f302 	lsl.w	r3, r1, r2
 80006c4:	ea40 0003 	orr.w	r0, r0, r3
 80006c8:	fa21 f304 	lsr.w	r3, r1, r4
 80006cc:	ea45 0103 	orr.w	r1, r5, r3
 80006d0:	bd30      	pop	{r4, r5, pc}
 80006d2:	f1c4 040c 	rsb	r4, r4, #12
 80006d6:	f1c4 0220 	rsb	r2, r4, #32
 80006da:	fa20 f002 	lsr.w	r0, r0, r2
 80006de:	fa01 f304 	lsl.w	r3, r1, r4
 80006e2:	ea40 0003 	orr.w	r0, r0, r3
 80006e6:	4629      	mov	r1, r5
 80006e8:	bd30      	pop	{r4, r5, pc}
 80006ea:	fa21 f004 	lsr.w	r0, r1, r4
 80006ee:	4629      	mov	r1, r5
 80006f0:	bd30      	pop	{r4, r5, pc}
 80006f2:	f094 0f00 	teq	r4, #0
 80006f6:	f483 1380 	eor.w	r3, r3, #1048576	; 0x100000
 80006fa:	bf06      	itte	eq
 80006fc:	f481 1180 	eoreq.w	r1, r1, #1048576	; 0x100000
 8000700:	3401      	addeq	r4, #1
 8000702:	3d01      	subne	r5, #1
 8000704:	e74e      	b.n	80005a4 <__adddf3+0x8c>
 8000706:	ea7f 5c64 	mvns.w	ip, r4, asr #21
 800070a:	bf18      	it	ne
 800070c:	ea7f 5c65 	mvnsne.w	ip, r5, asr #21
 8000710:	d029      	beq.n	8000766 <__adddf3+0x24e>
 8000712:	ea94 0f05 	teq	r4, r5
 8000716:	bf08      	it	eq
 8000718:	ea90 0f02 	teqeq	r0, r2
 800071c:	d005      	beq.n	800072a <__adddf3+0x212>
 800071e:	ea54 0c00 	orrs.w	ip, r4, r0
 8000722:	bf04      	itt	eq
 8000724:	4619      	moveq	r1, r3
 8000726:	4610      	moveq	r0, r2
 8000728:	bd30      	pop	{r4, r5, pc}
 800072a:	ea91 0f03 	teq	r1, r3
 800072e:	bf1e      	ittt	ne
 8000730:	2100      	movne	r1, #0
 8000732:	2000      	movne	r0, #0
 8000734:	bd30      	popne	{r4, r5, pc}
 8000736:	ea5f 5c54 	movs.w	ip, r4, lsr #21
 800073a:	d105      	bne.n	8000748 <__adddf3+0x230>
 800073c:	0040      	lsls	r0, r0, #1
 800073e:	4149      	adcs	r1, r1
 8000740:	bf28      	it	cs
 8000742:	f041 4100 	orrcs.w	r1, r1, #2147483648	; 0x80000000
 8000746:	bd30      	pop	{r4, r5, pc}
 8000748:	f514 0480 	adds.w	r4, r4, #4194304	; 0x400000
 800074c:	bf3c      	itt	cc
 800074e:	f501 1180 	addcc.w	r1, r1, #1048576	; 0x100000
 8000752:	bd30      	popcc	{r4, r5, pc}
 8000754:	f001 4500 	and.w	r5, r1, #2147483648	; 0x80000000
 8000758:	f045 41fe 	orr.w	r1, r5, #2130706432	; 0x7f000000
 800075c:	f441 0170 	orr.w	r1, r1, #15728640	; 0xf00000
 8000760:	f04f 0000 	mov.w	r0, #0
 8000764:	bd30      	pop	{r4, r5, pc}
 8000766:	ea7f 5c64 	mvns.w	ip, r4, asr #21
 800076a:	bf1a      	itte	ne
 800076c:	4619      	movne	r1, r3
 800076e:	4610      	movne	r0, r2
 8000770:	ea7f 5c65 	mvnseq.w	ip, r5, asr #21
 8000774:	bf1c      	itt	ne
 8000776:	460b      	movne	r3, r1
 8000778:	4602      	movne	r2, r0
 800077a:	ea50 3401 	orrs.w	r4, r0, r1, lsl #12
 800077e:	bf06      	itte	eq
 8000780:	ea52 3503 	orrseq.w	r5, r2, r3, lsl #12
 8000784:	ea91 0f03 	teqeq	r1, r3
 8000788:	f441 2100 	orrne.w	r1, r1, #524288	; 0x80000
 800078c:	bd30      	pop	{r4, r5, pc}
 800078e:	bf00      	nop

08000790 <__aeabi_ui2d>:
 8000790:	f090 0f00 	teq	r0, #0
 8000794:	bf04      	itt	eq
 8000796:	2100      	moveq	r1, #0
 8000798:	4770      	bxeq	lr
 800079a:	b530      	push	{r4, r5, lr}
 800079c:	f44f 6480 	mov.w	r4, #1024	; 0x400
 80007a0:	f104 0432 	add.w	r4, r4, #50	; 0x32
 80007a4:	f04f 0500 	mov.w	r5, #0
 80007a8:	f04f 0100 	mov.w	r1, #0
 80007ac:	e750      	b.n	8000650 <__adddf3+0x138>
 80007ae:	bf00      	nop

080007b0 <__aeabi_i2d>:
 80007b0:	f090 0f00 	teq	r0, #0
 80007b4:	bf04      	itt	eq
 80007b6:	2100      	moveq	r1, #0
 80007b8:	4770      	bxeq	lr
 80007ba:	b530      	push	{r4, r5, lr}
 80007bc:	f44f 6480 	mov.w	r4, #1024	; 0x400
 80007c0:	f104 0432 	add.w	r4, r4, #50	; 0x32
 80007c4:	f010 4500 	ands.w	r5, r0, #2147483648	; 0x80000000
 80007c8:	bf48      	it	mi
 80007ca:	4240      	negmi	r0, r0
 80007cc:	f04f 0100 	mov.w	r1, #0
 80007d0:	e73e      	b.n	8000650 <__adddf3+0x138>
 80007d2:	bf00      	nop

080007d4 <__aeabi_f2d>:
 80007d4:	0042      	lsls	r2, r0, #1
 80007d6:	ea4f 01e2 	mov.w	r1, r2, asr #3
 80007da:	ea4f 0131 	mov.w	r1, r1, rrx
 80007de:	ea4f 7002 	mov.w	r0, r2, lsl #28
 80007e2:	bf1f      	itttt	ne
 80007e4:	f012 437f 	andsne.w	r3, r2, #4278190080	; 0xff000000
 80007e8:	f093 4f7f 	teqne	r3, #4278190080	; 0xff000000
 80007ec:	f081 5160 	eorne.w	r1, r1, #939524096	; 0x38000000
 80007f0:	4770      	bxne	lr
 80007f2:	f032 427f 	bics.w	r2, r2, #4278190080	; 0xff000000
 80007f6:	bf08      	it	eq
 80007f8:	4770      	bxeq	lr
 80007fa:	f093 4f7f 	teq	r3, #4278190080	; 0xff000000
 80007fe:	bf04      	itt	eq
 8000800:	f441 2100 	orreq.w	r1, r1, #524288	; 0x80000
 8000804:	4770      	bxeq	lr
 8000806:	b530      	push	{r4, r5, lr}
 8000808:	f44f 7460 	mov.w	r4, #896	; 0x380
 800080c:	f001 4500 	and.w	r5, r1, #2147483648	; 0x80000000
 8000810:	f021 4100 	bic.w	r1, r1, #2147483648	; 0x80000000
 8000814:	e71c      	b.n	8000650 <__adddf3+0x138>
 8000816:	bf00      	nop

08000818 <__aeabi_ul2d>:
 8000818:	ea50 0201 	orrs.w	r2, r0, r1
 800081c:	bf08      	it	eq
 800081e:	4770      	bxeq	lr
 8000820:	b530      	push	{r4, r5, lr}
 8000822:	f04f 0500 	mov.w	r5, #0
 8000826:	e00a      	b.n	800083e <__aeabi_l2d+0x16>

08000828 <__aeabi_l2d>:
 8000828:	ea50 0201 	orrs.w	r2, r0, r1
 800082c:	bf08      	it	eq
 800082e:	4770      	bxeq	lr
 8000830:	b530      	push	{r4, r5, lr}
 8000832:	f011 4500 	ands.w	r5, r1, #2147483648	; 0x80000000
 8000836:	d502      	bpl.n	800083e <__aeabi_l2d+0x16>
 8000838:	4240      	negs	r0, r0
 800083a:	eb61 0141 	sbc.w	r1, r1, r1, lsl #1
 800083e:	f44f 6480 	mov.w	r4, #1024	; 0x400
 8000842:	f104 0432 	add.w	r4, r4, #50	; 0x32
 8000846:	ea5f 5c91 	movs.w	ip, r1, lsr #22
 800084a:	f43f aed8 	beq.w	80005fe <__adddf3+0xe6>
 800084e:	f04f 0203 	mov.w	r2, #3
 8000852:	ea5f 0cdc 	movs.w	ip, ip, lsr #3
 8000856:	bf18      	it	ne
 8000858:	3203      	addne	r2, #3
 800085a:	ea5f 0cdc 	movs.w	ip, ip, lsr #3
 800085e:	bf18      	it	ne
 8000860:	3203      	addne	r2, #3
 8000862:	eb02 02dc 	add.w	r2, r2, ip, lsr #3
 8000866:	f1c2 0320 	rsb	r3, r2, #32
 800086a:	fa00 fc03 	lsl.w	ip, r0, r3
 800086e:	fa20 f002 	lsr.w	r0, r0, r2
 8000872:	fa01 fe03 	lsl.w	lr, r1, r3
 8000876:	ea40 000e 	orr.w	r0, r0, lr
 800087a:	fa21 f102 	lsr.w	r1, r1, r2
 800087e:	4414      	add	r4, r2
 8000880:	e6bd      	b.n	80005fe <__adddf3+0xe6>
 8000882:	bf00      	nop

08000884 <__aeabi_d2uiz>:
 8000884:	004a      	lsls	r2, r1, #1
 8000886:	d211      	bcs.n	80008ac <__aeabi_d2uiz+0x28>
 8000888:	f512 1200 	adds.w	r2, r2, #2097152	; 0x200000
 800088c:	d211      	bcs.n	80008b2 <__aeabi_d2uiz+0x2e>
 800088e:	d50d      	bpl.n	80008ac <__aeabi_d2uiz+0x28>
 8000890:	f46f 7378 	mvn.w	r3, #992	; 0x3e0
 8000894:	ebb3 5262 	subs.w	r2, r3, r2, asr #21
 8000898:	d40e      	bmi.n	80008b8 <__aeabi_d2uiz+0x34>
 800089a:	ea4f 23c1 	mov.w	r3, r1, lsl #11
 800089e:	f043 4300 	orr.w	r3, r3, #2147483648	; 0x80000000
 80008a2:	ea43 5350 	orr.w	r3, r3, r0, lsr #21
 80008a6:	fa23 f002 	lsr.w	r0, r3, r2
 80008aa:	4770      	bx	lr
 80008ac:	f04f 0000 	mov.w	r0, #0
 80008b0:	4770      	bx	lr
 80008b2:	ea50 3001 	orrs.w	r0, r0, r1, lsl #12
 80008b6:	d102      	bne.n	80008be <__aeabi_d2uiz+0x3a>
 80008b8:	f04f 30ff 	mov.w	r0, #4294967295
 80008bc:	4770      	bx	lr
 80008be:	f04f 0000 	mov.w	r0, #0
 80008c2:	4770      	bx	lr

080008c4 <__aeabi_frsub>:
 80008c4:	f080 4000 	eor.w	r0, r0, #2147483648	; 0x80000000
 80008c8:	e002      	b.n	80008d0 <__addsf3>
 80008ca:	bf00      	nop

080008cc <__aeabi_fsub>:
 80008cc:	f081 4100 	eor.w	r1, r1, #2147483648	; 0x80000000

080008d0 <__addsf3>:
 80008d0:	0042      	lsls	r2, r0, #1
 80008d2:	bf1f      	itttt	ne
 80008d4:	ea5f 0341 	movsne.w	r3, r1, lsl #1
 80008d8:	ea92 0f03 	teqne	r2, r3
 80008dc:	ea7f 6c22 	mvnsne.w	ip, r2, asr #24
 80008e0:	ea7f 6c23 	mvnsne.w	ip, r3, asr #24
 80008e4:	d06a      	beq.n	80009bc <__addsf3+0xec>
 80008e6:	ea4f 6212 	mov.w	r2, r2, lsr #24
 80008ea:	ebd2 6313 	rsbs	r3, r2, r3, lsr #24
 80008ee:	bfc1      	itttt	gt
 80008f0:	18d2      	addgt	r2, r2, r3
 80008f2:	4041      	eorgt	r1, r0
 80008f4:	4048      	eorgt	r0, r1
 80008f6:	4041      	eorgt	r1, r0
 80008f8:	bfb8      	it	lt
 80008fa:	425b      	neglt	r3, r3
 80008fc:	2b19      	cmp	r3, #25
 80008fe:	bf88      	it	hi
 8000900:	4770      	bxhi	lr
 8000902:	f010 4f00 	tst.w	r0, #2147483648	; 0x80000000
 8000906:	f440 0000 	orr.w	r0, r0, #8388608	; 0x800000
 800090a:	f020 407f 	bic.w	r0, r0, #4278190080	; 0xff000000
 800090e:	bf18      	it	ne
 8000910:	4240      	negne	r0, r0
 8000912:	f011 4f00 	tst.w	r1, #2147483648	; 0x80000000
 8000916:	f441 0100 	orr.w	r1, r1, #8388608	; 0x800000
 800091a:	f021 417f 	bic.w	r1, r1, #4278190080	; 0xff000000
 800091e:	bf18      	it	ne
 8000920:	4249      	negne	r1, r1
 8000922:	ea92 0f03 	teq	r2, r3
 8000926:	d03f      	beq.n	80009a8 <__addsf3+0xd8>
 8000928:	f1a2 0201 	sub.w	r2, r2, #1
 800092c:	fa41 fc03 	asr.w	ip, r1, r3
 8000930:	eb10 000c 	adds.w	r0, r0, ip
 8000934:	f1c3 0320 	rsb	r3, r3, #32
 8000938:	fa01 f103 	lsl.w	r1, r1, r3
 800093c:	f000 4300 	and.w	r3, r0, #2147483648	; 0x80000000
 8000940:	d502      	bpl.n	8000948 <__addsf3+0x78>
 8000942:	4249      	negs	r1, r1
 8000944:	eb60 0040 	sbc.w	r0, r0, r0, lsl #1
 8000948:	f5b0 0f00 	cmp.w	r0, #8388608	; 0x800000
 800094c:	d313      	bcc.n	8000976 <__addsf3+0xa6>
 800094e:	f1b0 7f80 	cmp.w	r0, #16777216	; 0x1000000
 8000952:	d306      	bcc.n	8000962 <__addsf3+0x92>
 8000954:	0840      	lsrs	r0, r0, #1
 8000956:	ea4f 0131 	mov.w	r1, r1, rrx
 800095a:	f102 0201 	add.w	r2, r2, #1
 800095e:	2afe      	cmp	r2, #254	; 0xfe
 8000960:	d251      	bcs.n	8000a06 <__addsf3+0x136>
 8000962:	f1b1 4f00 	cmp.w	r1, #2147483648	; 0x80000000
 8000966:	eb40 50c2 	adc.w	r0, r0, r2, lsl #23
 800096a:	bf08      	it	eq
 800096c:	f020 0001 	biceq.w	r0, r0, #1
 8000970:	ea40 0003 	orr.w	r0, r0, r3
 8000974:	4770      	bx	lr
 8000976:	0049      	lsls	r1, r1, #1
 8000978:	eb40 0000 	adc.w	r0, r0, r0
 800097c:	3a01      	subs	r2, #1
 800097e:	bf28      	it	cs
 8000980:	f5b0 0f00 	cmpcs.w	r0, #8388608	; 0x800000
 8000984:	d2ed      	bcs.n	8000962 <__addsf3+0x92>
 8000986:	fab0 fc80 	clz	ip, r0
 800098a:	f1ac 0c08 	sub.w	ip, ip, #8
 800098e:	ebb2 020c 	subs.w	r2, r2, ip
 8000992:	fa00 f00c 	lsl.w	r0, r0, ip
 8000996:	bfaa      	itet	ge
 8000998:	eb00 50c2 	addge.w	r0, r0, r2, lsl #23
 800099c:	4252      	neglt	r2, r2
 800099e:	4318      	orrge	r0, r3
 80009a0:	bfbc      	itt	lt
 80009a2:	40d0      	lsrlt	r0, r2
 80009a4:	4318      	orrlt	r0, r3
 80009a6:	4770      	bx	lr
 80009a8:	f092 0f00 	teq	r2, #0
 80009ac:	f481 0100 	eor.w	r1, r1, #8388608	; 0x800000
 80009b0:	bf06      	itte	eq
 80009b2:	f480 0000 	eoreq.w	r0, r0, #8388608	; 0x800000
 80009b6:	3201      	addeq	r2, #1
 80009b8:	3b01      	subne	r3, #1
 80009ba:	e7b5      	b.n	8000928 <__addsf3+0x58>
 80009bc:	ea4f 0341 	mov.w	r3, r1, lsl #1
 80009c0:	ea7f 6c22 	mvns.w	ip, r2, asr #24
 80009c4:	bf18      	it	ne
 80009c6:	ea7f 6c23 	mvnsne.w	ip, r3, asr #24
 80009ca:	d021      	beq.n	8000a10 <__addsf3+0x140>
 80009cc:	ea92 0f03 	teq	r2, r3
 80009d0:	d004      	beq.n	80009dc <__addsf3+0x10c>
 80009d2:	f092 0f00 	teq	r2, #0
 80009d6:	bf08      	it	eq
 80009d8:	4608      	moveq	r0, r1
 80009da:	4770      	bx	lr
 80009dc:	ea90 0f01 	teq	r0, r1
 80009e0:	bf1c      	itt	ne
 80009e2:	2000      	movne	r0, #0
 80009e4:	4770      	bxne	lr
 80009e6:	f012 4f7f 	tst.w	r2, #4278190080	; 0xff000000
 80009ea:	d104      	bne.n	80009f6 <__addsf3+0x126>
 80009ec:	0040      	lsls	r0, r0, #1
 80009ee:	bf28      	it	cs
 80009f0:	f040 4000 	orrcs.w	r0, r0, #2147483648	; 0x80000000
 80009f4:	4770      	bx	lr
 80009f6:	f112 7200 	adds.w	r2, r2, #33554432	; 0x2000000
 80009fa:	bf3c      	itt	cc
 80009fc:	f500 0000 	addcc.w	r0, r0, #8388608	; 0x800000
 8000a00:	4770      	bxcc	lr
 8000a02:	f000 4300 	and.w	r3, r0, #2147483648	; 0x80000000
 8000a06:	f043 40fe 	orr.w	r0, r3, #2130706432	; 0x7f000000
 8000a0a:	f440 0000 	orr.w	r0, r0, #8388608	; 0x800000
 8000a0e:	4770      	bx	lr
 8000a10:	ea7f 6222 	mvns.w	r2, r2, asr #24
 8000a14:	bf16      	itet	ne
 8000a16:	4608      	movne	r0, r1
 8000a18:	ea7f 6323 	mvnseq.w	r3, r3, asr #24
 8000a1c:	4601      	movne	r1, r0
 8000a1e:	0242      	lsls	r2, r0, #9
 8000a20:	bf06      	itte	eq
 8000a22:	ea5f 2341 	movseq.w	r3, r1, lsl #9
 8000a26:	ea90 0f01 	teqeq	r0, r1
 8000a2a:	f440 0080 	orrne.w	r0, r0, #4194304	; 0x400000
 8000a2e:	4770      	bx	lr

08000a30 <__aeabi_ui2f>:
 8000a30:	f04f 0300 	mov.w	r3, #0
 8000a34:	e004      	b.n	8000a40 <__aeabi_i2f+0x8>
 8000a36:	bf00      	nop

08000a38 <__aeabi_i2f>:
 8000a38:	f010 4300 	ands.w	r3, r0, #2147483648	; 0x80000000
 8000a3c:	bf48      	it	mi
 8000a3e:	4240      	negmi	r0, r0
 8000a40:	ea5f 0c00 	movs.w	ip, r0
 8000a44:	bf08      	it	eq
 8000a46:	4770      	bxeq	lr
 8000a48:	f043 4396 	orr.w	r3, r3, #1258291200	; 0x4b000000
 8000a4c:	4601      	mov	r1, r0
 8000a4e:	f04f 0000 	mov.w	r0, #0
 8000a52:	e01c      	b.n	8000a8e <__aeabi_l2f+0x2a>

08000a54 <__aeabi_ul2f>:
 8000a54:	ea50 0201 	orrs.w	r2, r0, r1
 8000a58:	bf08      	it	eq
 8000a5a:	4770      	bxeq	lr
 8000a5c:	f04f 0300 	mov.w	r3, #0
 8000a60:	e00a      	b.n	8000a78 <__aeabi_l2f+0x14>
 8000a62:	bf00      	nop

08000a64 <__aeabi_l2f>:
 8000a64:	ea50 0201 	orrs.w	r2, r0, r1
 8000a68:	bf08      	it	eq
 8000a6a:	4770      	bxeq	lr
 8000a6c:	f011 4300 	ands.w	r3, r1, #2147483648	; 0x80000000
 8000a70:	d502      	bpl.n	8000a78 <__aeabi_l2f+0x14>
 8000a72:	4240      	negs	r0, r0
 8000a74:	eb61 0141 	sbc.w	r1, r1, r1, lsl #1
 8000a78:	ea5f 0c01 	movs.w	ip, r1
 8000a7c:	bf02      	ittt	eq
 8000a7e:	4684      	moveq	ip, r0
 8000a80:	4601      	moveq	r1, r0
 8000a82:	2000      	moveq	r0, #0
 8000a84:	f043 43b6 	orr.w	r3, r3, #1526726656	; 0x5b000000
 8000a88:	bf08      	it	eq
 8000a8a:	f1a3 5380 	subeq.w	r3, r3, #268435456	; 0x10000000
 8000a8e:	f5a3 0300 	sub.w	r3, r3, #8388608	; 0x800000
 8000a92:	fabc f28c 	clz	r2, ip
 8000a96:	3a08      	subs	r2, #8
 8000a98:	eba3 53c2 	sub.w	r3, r3, r2, lsl #23
 8000a9c:	db10      	blt.n	8000ac0 <__aeabi_l2f+0x5c>
 8000a9e:	fa01 fc02 	lsl.w	ip, r1, r2
 8000aa2:	4463      	add	r3, ip
 8000aa4:	fa00 fc02 	lsl.w	ip, r0, r2
 8000aa8:	f1c2 0220 	rsb	r2, r2, #32
 8000aac:	f1bc 4f00 	cmp.w	ip, #2147483648	; 0x80000000
 8000ab0:	fa20 f202 	lsr.w	r2, r0, r2
 8000ab4:	eb43 0002 	adc.w	r0, r3, r2
 8000ab8:	bf08      	it	eq
 8000aba:	f020 0001 	biceq.w	r0, r0, #1
 8000abe:	4770      	bx	lr
 8000ac0:	f102 0220 	add.w	r2, r2, #32
 8000ac4:	fa01 fc02 	lsl.w	ip, r1, r2
 8000ac8:	f1c2 0220 	rsb	r2, r2, #32
 8000acc:	ea50 004c 	orrs.w	r0, r0, ip, lsl #1
 8000ad0:	fa21 f202 	lsr.w	r2, r1, r2
 8000ad4:	eb43 0002 	adc.w	r0, r3, r2
 8000ad8:	bf08      	it	eq
 8000ada:	ea20 70dc 	biceq.w	r0, r0, ip, lsr #31
 8000ade:	4770      	bx	lr

08000ae0 <__aeabi_f2uiz>:
 8000ae0:	0042      	lsls	r2, r0, #1
 8000ae2:	d20e      	bcs.n	8000b02 <__aeabi_f2uiz+0x22>
 8000ae4:	f1b2 4ffe 	cmp.w	r2, #2130706432	; 0x7f000000
 8000ae8:	d30b      	bcc.n	8000b02 <__aeabi_f2uiz+0x22>
 8000aea:	f04f 039e 	mov.w	r3, #158	; 0x9e
 8000aee:	ebb3 6212 	subs.w	r2, r3, r2, lsr #24
 8000af2:	d409      	bmi.n	8000b08 <__aeabi_f2uiz+0x28>
 8000af4:	ea4f 2300 	mov.w	r3, r0, lsl #8
 8000af8:	f043 4300 	orr.w	r3, r3, #2147483648	; 0x80000000
 8000afc:	fa23 f002 	lsr.w	r0, r3, r2
 8000b00:	4770      	bx	lr
 8000b02:	f04f 0000 	mov.w	r0, #0
 8000b06:	4770      	bx	lr
 8000b08:	f112 0f61 	cmn.w	r2, #97	; 0x61
 8000b0c:	d101      	bne.n	8000b12 <__aeabi_f2uiz+0x32>
 8000b0e:	0242      	lsls	r2, r0, #9
 8000b10:	d102      	bne.n	8000b18 <__aeabi_f2uiz+0x38>
 8000b12:	f04f 30ff 	mov.w	r0, #4294967295
 8000b16:	4770      	bx	lr
 8000b18:	f04f 0000 	mov.w	r0, #0
 8000b1c:	4770      	bx	lr
 8000b1e:	bf00      	nop

08000b20 <vApplicationGetIdleTaskMemory>:
/* USER CODE BEGIN GET_IDLE_TASK_MEMORY */
static StaticTask_t xIdleTaskTCBBuffer;
static StackType_t xIdleStack[configMINIMAL_STACK_SIZE];

void vApplicationGetIdleTaskMemory( StaticTask_t **ppxIdleTaskTCBBuffer, StackType_t **ppxIdleTaskStackBuffer, uint32_t *pulIdleTaskStackSize )
{
 8000b20:	b480      	push	{r7}
 8000b22:	b085      	sub	sp, #20
 8000b24:	af00      	add	r7, sp, #0
 8000b26:	60f8      	str	r0, [r7, #12]
 8000b28:	60b9      	str	r1, [r7, #8]
 8000b2a:	607a      	str	r2, [r7, #4]
  *ppxIdleTaskTCBBuffer = &xIdleTaskTCBBuffer;
 8000b2c:	68fb      	ldr	r3, [r7, #12]
 8000b2e:	4a06      	ldr	r2, [pc, #24]	; (8000b48 <vApplicationGetIdleTaskMemory+0x28>)
 8000b30:	601a      	str	r2, [r3, #0]
  *ppxIdleTaskStackBuffer = &xIdleStack[0];
 8000b32:	68bb      	ldr	r3, [r7, #8]
 8000b34:	4a05      	ldr	r2, [pc, #20]	; (8000b4c <vApplicationGetIdleTaskMemory+0x2c>)
 8000b36:	601a      	str	r2, [r3, #0]
  *pulIdleTaskStackSize = configMINIMAL_STACK_SIZE;
 8000b38:	687b      	ldr	r3, [r7, #4]
 8000b3a:	2280      	movs	r2, #128	; 0x80
 8000b3c:	601a      	str	r2, [r3, #0]
  /* place for user code */
}
 8000b3e:	bf00      	nop
 8000b40:	3714      	adds	r7, #20
 8000b42:	46bd      	mov	sp, r7
 8000b44:	bc80      	pop	{r7}
 8000b46:	4770      	bx	lr
 8000b48:	200000d0 	.word	0x200000d0
 8000b4c:	20000124 	.word	0x20000124

08000b50 <main>:
/**
  * @brief  The application entry point.
  * @retval int
  */
int main(void)
{
 8000b50:	b5b0      	push	{r4, r5, r7, lr}
 8000b52:	b090      	sub	sp, #64	; 0x40
 8000b54:	af00      	add	r7, sp, #0
  /* USER CODE END 1 */

  /* MCU Configuration--------------------------------------------------------*/

  /* Reset of all peripherals, Initializes the Flash interface and the Systick. */
  HAL_Init();
 8000b56:	f002 fbc3 	bl	80032e0 <HAL_Init>
  /* USER CODE BEGIN Init */

  /* USER CODE END Init */

  /* Configure the system clock */
  SystemClock_Config();
 8000b5a:	f000 f84b 	bl	8000bf4 <SystemClock_Config>
  /* USER CODE BEGIN SysInit */

  /* USER CODE END SysInit */

  /* Initialize all configured peripherals */
  MX_GPIO_Init();
 8000b5e:	f000 f99f 	bl	8000ea0 <MX_GPIO_Init>
  MX_DMA_Init();
 8000b62:	f000 f96f 	bl	8000e44 <MX_DMA_Init>
  MX_ADC1_Init();
 8000b66:	f000 f8a1 	bl	8000cac <MX_ADC1_Init>
  MX_I2C1_Init();
 8000b6a:	f000 f8dd 	bl	8000d28 <MX_I2C1_Init>
  MX_USART1_UART_Init();
 8000b6e:	f000 f93f 	bl	8000df0 <MX_USART1_UART_Init>
  MX_SPI1_Init();
 8000b72:	f000 f907 	bl	8000d84 <MX_SPI1_Init>
  MX_FATFS_Init();
 8000b76:	f008 fb2d 	bl	80091d4 <MX_FATFS_Init>

  /* USER CODE END 2 */

  /* Create the mutex(es) */
  /* definition and creation of Mutex */
  osMutexDef(Mutex);
 8000b7a:	2300      	movs	r3, #0
 8000b7c:	63bb      	str	r3, [r7, #56]	; 0x38
 8000b7e:	2300      	movs	r3, #0
 8000b80:	63fb      	str	r3, [r7, #60]	; 0x3c
  MutexHandle = osMutexCreate(osMutex(Mutex));
 8000b82:	f107 0338 	add.w	r3, r7, #56	; 0x38
 8000b86:	4618      	mov	r0, r3
 8000b88:	f00b f9fa 	bl	800bf80 <osMutexCreate>
 8000b8c:	4603      	mov	r3, r0
 8000b8e:	4a14      	ldr	r2, [pc, #80]	; (8000be0 <main+0x90>)
 8000b90:	6013      	str	r3, [r2, #0]
  /* add queues, ... */
  /* USER CODE END RTOS_QUEUES */

  /* Create the thread(s) */
  /* definition and creation of ADC */
  osThreadDef(ADC, StartADC, osPriorityRealtime, 0, 128);
 8000b92:	4b14      	ldr	r3, [pc, #80]	; (8000be4 <main+0x94>)
 8000b94:	f107 041c 	add.w	r4, r7, #28
 8000b98:	461d      	mov	r5, r3
 8000b9a:	cd0f      	ldmia	r5!, {r0, r1, r2, r3}
 8000b9c:	c40f      	stmia	r4!, {r0, r1, r2, r3}
 8000b9e:	e895 0007 	ldmia.w	r5, {r0, r1, r2}
 8000ba2:	e884 0007 	stmia.w	r4, {r0, r1, r2}
  ADCHandle = osThreadCreate(osThread(ADC), NULL);
 8000ba6:	f107 031c 	add.w	r3, r7, #28
 8000baa:	2100      	movs	r1, #0
 8000bac:	4618      	mov	r0, r3
 8000bae:	f00b f987 	bl	800bec0 <osThreadCreate>
 8000bb2:	4603      	mov	r3, r0
 8000bb4:	4a0c      	ldr	r2, [pc, #48]	; (8000be8 <main+0x98>)
 8000bb6:	6013      	str	r3, [r2, #0]

  /* definition and creation of SD */
  osThreadDef(SD, StartSD, osPriorityAboveNormal, 0, 512);
 8000bb8:	4b0c      	ldr	r3, [pc, #48]	; (8000bec <main+0x9c>)
 8000bba:	463c      	mov	r4, r7
 8000bbc:	461d      	mov	r5, r3
 8000bbe:	cd0f      	ldmia	r5!, {r0, r1, r2, r3}
 8000bc0:	c40f      	stmia	r4!, {r0, r1, r2, r3}
 8000bc2:	e895 0007 	ldmia.w	r5, {r0, r1, r2}
 8000bc6:	e884 0007 	stmia.w	r4, {r0, r1, r2}
  SDHandle = osThreadCreate(osThread(SD), NULL);
 8000bca:	463b      	mov	r3, r7
 8000bcc:	2100      	movs	r1, #0
 8000bce:	4618      	mov	r0, r3
 8000bd0:	f00b f976 	bl	800bec0 <osThreadCreate>
 8000bd4:	4603      	mov	r3, r0
 8000bd6:	4a06      	ldr	r2, [pc, #24]	; (8000bf0 <main+0xa0>)
 8000bd8:	6013      	str	r3, [r2, #0]
  /* USER CODE BEGIN RTOS_THREADS */
  /* add threads, ... */
  /* USER CODE END RTOS_THREADS */

  /* Start scheduler */
  osKernelStart();
 8000bda:	f00b f96a 	bl	800beb2 <osKernelStart>

  /* We should never get here as control is now taken by the scheduler */
  /* Infinite loop */
  /* USER CODE BEGIN WHILE */
  while (1)
 8000bde:	e7fe      	b.n	8000bde <main+0x8e>
 8000be0:	2000051c 	.word	0x2000051c
 8000be4:	0800ee28 	.word	0x0800ee28
 8000be8:	20000514 	.word	0x20000514
 8000bec:	0800ee48 	.word	0x0800ee48
 8000bf0:	20000518 	.word	0x20000518

08000bf4 <SystemClock_Config>:
/**
  * @brief System Clock Configuration
  * @retval None
  */
void SystemClock_Config(void)
{
 8000bf4:	b580      	push	{r7, lr}
 8000bf6:	b094      	sub	sp, #80	; 0x50
 8000bf8:	af00      	add	r7, sp, #0
  RCC_OscInitTypeDef RCC_OscInitStruct = {0};
 8000bfa:	f107 0328 	add.w	r3, r7, #40	; 0x28
 8000bfe:	2228      	movs	r2, #40	; 0x28
 8000c00:	2100      	movs	r1, #0
 8000c02:	4618      	mov	r0, r3
 8000c04:	f00d fc60 	bl	800e4c8 <memset>
  RCC_ClkInitTypeDef RCC_ClkInitStruct = {0};
 8000c08:	f107 0314 	add.w	r3, r7, #20
 8000c0c:	2200      	movs	r2, #0
 8000c0e:	601a      	str	r2, [r3, #0]
 8000c10:	605a      	str	r2, [r3, #4]
 8000c12:	609a      	str	r2, [r3, #8]
 8000c14:	60da      	str	r2, [r3, #12]
 8000c16:	611a      	str	r2, [r3, #16]
  RCC_PeriphCLKInitTypeDef PeriphClkInit = {0};
 8000c18:	1d3b      	adds	r3, r7, #4
 8000c1a:	2200      	movs	r2, #0
 8000c1c:	601a      	str	r2, [r3, #0]
 8000c1e:	605a      	str	r2, [r3, #4]
 8000c20:	609a      	str	r2, [r3, #8]
 8000c22:	60da      	str	r2, [r3, #12]

  /** Initializes the RCC Oscillators according to the specified parameters
  * in the RCC_OscInitTypeDef structure.
  */
  RCC_OscInitStruct.OscillatorType = RCC_OSCILLATORTYPE_HSE;
 8000c24:	2301      	movs	r3, #1
 8000c26:	62bb      	str	r3, [r7, #40]	; 0x28
  RCC_OscInitStruct.HSEState = RCC_HSE_ON;
 8000c28:	f44f 3380 	mov.w	r3, #65536	; 0x10000
 8000c2c:	62fb      	str	r3, [r7, #44]	; 0x2c
  RCC_OscInitStruct.HSEPredivValue = RCC_HSE_PREDIV_DIV1;
 8000c2e:	2300      	movs	r3, #0
 8000c30:	633b      	str	r3, [r7, #48]	; 0x30
  RCC_OscInitStruct.HSIState = RCC_HSI_ON;
 8000c32:	2301      	movs	r3, #1
 8000c34:	63bb      	str	r3, [r7, #56]	; 0x38
  RCC_OscInitStruct.PLL.PLLState = RCC_PLL_ON;
 8000c36:	2302      	movs	r3, #2
 8000c38:	647b      	str	r3, [r7, #68]	; 0x44
  RCC_OscInitStruct.PLL.PLLSource = RCC_PLLSOURCE_HSE;
 8000c3a:	f44f 3380 	mov.w	r3, #65536	; 0x10000
 8000c3e:	64bb      	str	r3, [r7, #72]	; 0x48
  RCC_OscInitStruct.PLL.PLLMUL = RCC_PLL_MUL9;
 8000c40:	f44f 13e0 	mov.w	r3, #1835008	; 0x1c0000
 8000c44:	64fb      	str	r3, [r7, #76]	; 0x4c
  if (HAL_RCC_OscConfig(&RCC_OscInitStruct) != HAL_OK)
 8000c46:	f107 0328 	add.w	r3, r7, #40	; 0x28
 8000c4a:	4618      	mov	r0, r3
 8000c4c:	f006 f942 	bl	8006ed4 <HAL_RCC_OscConfig>
 8000c50:	4603      	mov	r3, r0
 8000c52:	2b00      	cmp	r3, #0
 8000c54:	d001      	beq.n	8000c5a <SystemClock_Config+0x66>
  {
    Error_Handler();
 8000c56:	f000 fd7f 	bl	8001758 <Error_Handler>
  }

  /** Initializes the CPU, AHB and APB buses clocks
  */
  RCC_ClkInitStruct.ClockType = RCC_CLOCKTYPE_HCLK|RCC_CLOCKTYPE_SYSCLK
 8000c5a:	230f      	movs	r3, #15
 8000c5c:	617b      	str	r3, [r7, #20]
                              |RCC_CLOCKTYPE_PCLK1|RCC_CLOCKTYPE_PCLK2;
  RCC_ClkInitStruct.SYSCLKSource = RCC_SYSCLKSOURCE_PLLCLK;
 8000c5e:	2302      	movs	r3, #2
 8000c60:	61bb      	str	r3, [r7, #24]
  RCC_ClkInitStruct.AHBCLKDivider = RCC_SYSCLK_DIV1;
 8000c62:	2300      	movs	r3, #0
 8000c64:	61fb      	str	r3, [r7, #28]
  RCC_ClkInitStruct.APB1CLKDivider = RCC_HCLK_DIV2;
 8000c66:	f44f 6380 	mov.w	r3, #1024	; 0x400
 8000c6a:	623b      	str	r3, [r7, #32]
  RCC_ClkInitStruct.APB2CLKDivider = RCC_HCLK_DIV1;
 8000c6c:	2300      	movs	r3, #0
 8000c6e:	627b      	str	r3, [r7, #36]	; 0x24

  if (HAL_RCC_ClockConfig(&RCC_ClkInitStruct, FLASH_LATENCY_2) != HAL_OK)
 8000c70:	f107 0314 	add.w	r3, r7, #20
 8000c74:	2102      	movs	r1, #2
 8000c76:	4618      	mov	r0, r3
 8000c78:	f006 fbae 	bl	80073d8 <HAL_RCC_ClockConfig>
 8000c7c:	4603      	mov	r3, r0
 8000c7e:	2b00      	cmp	r3, #0
 8000c80:	d001      	beq.n	8000c86 <SystemClock_Config+0x92>
  {
    Error_Handler();
 8000c82:	f000 fd69 	bl	8001758 <Error_Handler>
  }
  PeriphClkInit.PeriphClockSelection = RCC_PERIPHCLK_ADC;
 8000c86:	2302      	movs	r3, #2
 8000c88:	607b      	str	r3, [r7, #4]
  PeriphClkInit.AdcClockSelection = RCC_ADCPCLK2_DIV6;
 8000c8a:	f44f 4300 	mov.w	r3, #32768	; 0x8000
 8000c8e:	60fb      	str	r3, [r7, #12]
  if (HAL_RCCEx_PeriphCLKConfig(&PeriphClkInit) != HAL_OK)
 8000c90:	1d3b      	adds	r3, r7, #4
 8000c92:	4618      	mov	r0, r3
 8000c94:	f006 fd2e 	bl	80076f4 <HAL_RCCEx_PeriphCLKConfig>
 8000c98:	4603      	mov	r3, r0
 8000c9a:	2b00      	cmp	r3, #0
 8000c9c:	d001      	beq.n	8000ca2 <SystemClock_Config+0xae>
  {
    Error_Handler();
 8000c9e:	f000 fd5b 	bl	8001758 <Error_Handler>
  }
}
 8000ca2:	bf00      	nop
 8000ca4:	3750      	adds	r7, #80	; 0x50
 8000ca6:	46bd      	mov	sp, r7
 8000ca8:	bd80      	pop	{r7, pc}
	...

08000cac <MX_ADC1_Init>:
  * @brief ADC1 Initialization Function
  * @param None
  * @retval None
  */
static void MX_ADC1_Init(void)
{
 8000cac:	b580      	push	{r7, lr}
 8000cae:	b084      	sub	sp, #16
 8000cb0:	af00      	add	r7, sp, #0

  /* USER CODE BEGIN ADC1_Init 0 */

  /* USER CODE END ADC1_Init 0 */

  ADC_ChannelConfTypeDef sConfig = {0};
 8000cb2:	1d3b      	adds	r3, r7, #4
 8000cb4:	2200      	movs	r2, #0
 8000cb6:	601a      	str	r2, [r3, #0]
 8000cb8:	605a      	str	r2, [r3, #4]
 8000cba:	609a      	str	r2, [r3, #8]

  /* USER CODE END ADC1_Init 1 */

  /** Common config
  */
  hadc1.Instance = ADC1;
 8000cbc:	4b18      	ldr	r3, [pc, #96]	; (8000d20 <MX_ADC1_Init+0x74>)
 8000cbe:	4a19      	ldr	r2, [pc, #100]	; (8000d24 <MX_ADC1_Init+0x78>)
 8000cc0:	601a      	str	r2, [r3, #0]
  hadc1.Init.ScanConvMode = ADC_SCAN_DISABLE;
 8000cc2:	4b17      	ldr	r3, [pc, #92]	; (8000d20 <MX_ADC1_Init+0x74>)
 8000cc4:	2200      	movs	r2, #0
 8000cc6:	609a      	str	r2, [r3, #8]
  hadc1.Init.ContinuousConvMode = DISABLE;
 8000cc8:	4b15      	ldr	r3, [pc, #84]	; (8000d20 <MX_ADC1_Init+0x74>)
 8000cca:	2200      	movs	r2, #0
 8000ccc:	731a      	strb	r2, [r3, #12]
  hadc1.Init.DiscontinuousConvMode = DISABLE;
 8000cce:	4b14      	ldr	r3, [pc, #80]	; (8000d20 <MX_ADC1_Init+0x74>)
 8000cd0:	2200      	movs	r2, #0
 8000cd2:	751a      	strb	r2, [r3, #20]
  hadc1.Init.ExternalTrigConv = ADC_SOFTWARE_START;
 8000cd4:	4b12      	ldr	r3, [pc, #72]	; (8000d20 <MX_ADC1_Init+0x74>)
 8000cd6:	f44f 2260 	mov.w	r2, #917504	; 0xe0000
 8000cda:	61da      	str	r2, [r3, #28]
  hadc1.Init.DataAlign = ADC_DATAALIGN_RIGHT;
 8000cdc:	4b10      	ldr	r3, [pc, #64]	; (8000d20 <MX_ADC1_Init+0x74>)
 8000cde:	2200      	movs	r2, #0
 8000ce0:	605a      	str	r2, [r3, #4]
  hadc1.Init.NbrOfConversion = 1;
 8000ce2:	4b0f      	ldr	r3, [pc, #60]	; (8000d20 <MX_ADC1_Init+0x74>)
 8000ce4:	2201      	movs	r2, #1
 8000ce6:	611a      	str	r2, [r3, #16]
  if (HAL_ADC_Init(&hadc1) != HAL_OK)
 8000ce8:	480d      	ldr	r0, [pc, #52]	; (8000d20 <MX_ADC1_Init+0x74>)
 8000cea:	f002 fb9b 	bl	8003424 <HAL_ADC_Init>
 8000cee:	4603      	mov	r3, r0
 8000cf0:	2b00      	cmp	r3, #0
 8000cf2:	d001      	beq.n	8000cf8 <MX_ADC1_Init+0x4c>
  {
    Error_Handler();
 8000cf4:	f000 fd30 	bl	8001758 <Error_Handler>
  }

  /** Configure Regular Channel
  */
  sConfig.Channel = ADC_CHANNEL_0;
 8000cf8:	2300      	movs	r3, #0
 8000cfa:	607b      	str	r3, [r7, #4]
  sConfig.Rank = ADC_REGULAR_RANK_1;
 8000cfc:	2301      	movs	r3, #1
 8000cfe:	60bb      	str	r3, [r7, #8]
  sConfig.SamplingTime = ADC_SAMPLETIME_1CYCLE_5;
 8000d00:	2300      	movs	r3, #0
 8000d02:	60fb      	str	r3, [r7, #12]
  if (HAL_ADC_ConfigChannel(&hadc1, &sConfig) != HAL_OK)
 8000d04:	1d3b      	adds	r3, r7, #4
 8000d06:	4619      	mov	r1, r3
 8000d08:	4805      	ldr	r0, [pc, #20]	; (8000d20 <MX_ADC1_Init+0x74>)
 8000d0a:	f002 fd5d 	bl	80037c8 <HAL_ADC_ConfigChannel>
 8000d0e:	4603      	mov	r3, r0
 8000d10:	2b00      	cmp	r3, #0
 8000d12:	d001      	beq.n	8000d18 <MX_ADC1_Init+0x6c>
  {
    Error_Handler();
 8000d14:	f000 fd20 	bl	8001758 <Error_Handler>
  }
  /* USER CODE BEGIN ADC1_Init 2 */

  /* USER CODE END ADC1_Init 2 */

}
 8000d18:	bf00      	nop
 8000d1a:	3710      	adds	r7, #16
 8000d1c:	46bd      	mov	sp, r7
 8000d1e:	bd80      	pop	{r7, pc}
 8000d20:	20000324 	.word	0x20000324
 8000d24:	40012400 	.word	0x40012400

08000d28 <MX_I2C1_Init>:
  * @brief I2C1 Initialization Function
  * @param None
  * @retval None
  */
static void MX_I2C1_Init(void)
{
 8000d28:	b580      	push	{r7, lr}
 8000d2a:	af00      	add	r7, sp, #0
  /* USER CODE END I2C1_Init 0 */

  /* USER CODE BEGIN I2C1_Init 1 */

  /* USER CODE END I2C1_Init 1 */
  hi2c1.Instance = I2C1;
 8000d2c:	4b12      	ldr	r3, [pc, #72]	; (8000d78 <MX_I2C1_Init+0x50>)
 8000d2e:	4a13      	ldr	r2, [pc, #76]	; (8000d7c <MX_I2C1_Init+0x54>)
 8000d30:	601a      	str	r2, [r3, #0]
  hi2c1.Init.ClockSpeed = 400000;
 8000d32:	4b11      	ldr	r3, [pc, #68]	; (8000d78 <MX_I2C1_Init+0x50>)
 8000d34:	4a12      	ldr	r2, [pc, #72]	; (8000d80 <MX_I2C1_Init+0x58>)
 8000d36:	605a      	str	r2, [r3, #4]
  hi2c1.Init.DutyCycle = I2C_DUTYCYCLE_2;
 8000d38:	4b0f      	ldr	r3, [pc, #60]	; (8000d78 <MX_I2C1_Init+0x50>)
 8000d3a:	2200      	movs	r2, #0
 8000d3c:	609a      	str	r2, [r3, #8]
  hi2c1.Init.OwnAddress1 = 0;
 8000d3e:	4b0e      	ldr	r3, [pc, #56]	; (8000d78 <MX_I2C1_Init+0x50>)
 8000d40:	2200      	movs	r2, #0
 8000d42:	60da      	str	r2, [r3, #12]
  hi2c1.Init.AddressingMode = I2C_ADDRESSINGMODE_7BIT;
 8000d44:	4b0c      	ldr	r3, [pc, #48]	; (8000d78 <MX_I2C1_Init+0x50>)
 8000d46:	f44f 4280 	mov.w	r2, #16384	; 0x4000
 8000d4a:	611a      	str	r2, [r3, #16]
  hi2c1.Init.DualAddressMode = I2C_DUALADDRESS_DISABLE;
 8000d4c:	4b0a      	ldr	r3, [pc, #40]	; (8000d78 <MX_I2C1_Init+0x50>)
 8000d4e:	2200      	movs	r2, #0
 8000d50:	615a      	str	r2, [r3, #20]
  hi2c1.Init.OwnAddress2 = 0;
 8000d52:	4b09      	ldr	r3, [pc, #36]	; (8000d78 <MX_I2C1_Init+0x50>)
 8000d54:	2200      	movs	r2, #0
 8000d56:	619a      	str	r2, [r3, #24]
  hi2c1.Init.GeneralCallMode = I2C_GENERALCALL_DISABLE;
 8000d58:	4b07      	ldr	r3, [pc, #28]	; (8000d78 <MX_I2C1_Init+0x50>)
 8000d5a:	2200      	movs	r2, #0
 8000d5c:	61da      	str	r2, [r3, #28]
  hi2c1.Init.NoStretchMode = I2C_NOSTRETCH_DISABLE;
 8000d5e:	4b06      	ldr	r3, [pc, #24]	; (8000d78 <MX_I2C1_Init+0x50>)
 8000d60:	2200      	movs	r2, #0
 8000d62:	621a      	str	r2, [r3, #32]
  if (HAL_I2C_Init(&hi2c1) != HAL_OK)
 8000d64:	4804      	ldr	r0, [pc, #16]	; (8000d78 <MX_I2C1_Init+0x50>)
 8000d66:	f003 fde3 	bl	8004930 <HAL_I2C_Init>
 8000d6a:	4603      	mov	r3, r0
 8000d6c:	2b00      	cmp	r3, #0
 8000d6e:	d001      	beq.n	8000d74 <MX_I2C1_Init+0x4c>
  {
    Error_Handler();
 8000d70:	f000 fcf2 	bl	8001758 <Error_Handler>
  }
  /* USER CODE BEGIN I2C1_Init 2 */

  /* USER CODE END I2C1_Init 2 */

}
 8000d74:	bf00      	nop
 8000d76:	bd80      	pop	{r7, pc}
 8000d78:	20000398 	.word	0x20000398
 8000d7c:	40005400 	.word	0x40005400
 8000d80:	00061a80 	.word	0x00061a80

08000d84 <MX_SPI1_Init>:
  * @brief SPI1 Initialization Function
  * @param None
  * @retval None
  */
static void MX_SPI1_Init(void)
{
 8000d84:	b580      	push	{r7, lr}
 8000d86:	af00      	add	r7, sp, #0

  /* USER CODE BEGIN SPI1_Init 1 */

  /* USER CODE END SPI1_Init 1 */
  /* SPI1 parameter configuration*/
  hspi1.Instance = SPI1;
 8000d88:	4b17      	ldr	r3, [pc, #92]	; (8000de8 <MX_SPI1_Init+0x64>)
 8000d8a:	4a18      	ldr	r2, [pc, #96]	; (8000dec <MX_SPI1_Init+0x68>)
 8000d8c:	601a      	str	r2, [r3, #0]
  hspi1.Init.Mode = SPI_MODE_MASTER;
 8000d8e:	4b16      	ldr	r3, [pc, #88]	; (8000de8 <MX_SPI1_Init+0x64>)
 8000d90:	f44f 7282 	mov.w	r2, #260	; 0x104
 8000d94:	605a      	str	r2, [r3, #4]
  hspi1.Init.Direction = SPI_DIRECTION_2LINES;
 8000d96:	4b14      	ldr	r3, [pc, #80]	; (8000de8 <MX_SPI1_Init+0x64>)
 8000d98:	2200      	movs	r2, #0
 8000d9a:	609a      	str	r2, [r3, #8]
  hspi1.Init.DataSize = SPI_DATASIZE_8BIT;
 8000d9c:	4b12      	ldr	r3, [pc, #72]	; (8000de8 <MX_SPI1_Init+0x64>)
 8000d9e:	2200      	movs	r2, #0
 8000da0:	60da      	str	r2, [r3, #12]
  hspi1.Init.CLKPolarity = SPI_POLARITY_LOW;
 8000da2:	4b11      	ldr	r3, [pc, #68]	; (8000de8 <MX_SPI1_Init+0x64>)
 8000da4:	2200      	movs	r2, #0
 8000da6:	611a      	str	r2, [r3, #16]
  hspi1.Init.CLKPhase = SPI_PHASE_1EDGE;
 8000da8:	4b0f      	ldr	r3, [pc, #60]	; (8000de8 <MX_SPI1_Init+0x64>)
 8000daa:	2200      	movs	r2, #0
 8000dac:	615a      	str	r2, [r3, #20]
  hspi1.Init.NSS = SPI_NSS_SOFT;
 8000dae:	4b0e      	ldr	r3, [pc, #56]	; (8000de8 <MX_SPI1_Init+0x64>)
 8000db0:	f44f 7200 	mov.w	r2, #512	; 0x200
 8000db4:	619a      	str	r2, [r3, #24]
  hspi1.Init.BaudRatePrescaler = SPI_BAUDRATEPRESCALER_8;
 8000db6:	4b0c      	ldr	r3, [pc, #48]	; (8000de8 <MX_SPI1_Init+0x64>)
 8000db8:	2210      	movs	r2, #16
 8000dba:	61da      	str	r2, [r3, #28]
  hspi1.Init.FirstBit = SPI_FIRSTBIT_MSB;
 8000dbc:	4b0a      	ldr	r3, [pc, #40]	; (8000de8 <MX_SPI1_Init+0x64>)
 8000dbe:	2200      	movs	r2, #0
 8000dc0:	621a      	str	r2, [r3, #32]
  hspi1.Init.TIMode = SPI_TIMODE_DISABLE;
 8000dc2:	4b09      	ldr	r3, [pc, #36]	; (8000de8 <MX_SPI1_Init+0x64>)
 8000dc4:	2200      	movs	r2, #0
 8000dc6:	625a      	str	r2, [r3, #36]	; 0x24
  hspi1.Init.CRCCalculation = SPI_CRCCALCULATION_DISABLE;
 8000dc8:	4b07      	ldr	r3, [pc, #28]	; (8000de8 <MX_SPI1_Init+0x64>)
 8000dca:	2200      	movs	r2, #0
 8000dcc:	629a      	str	r2, [r3, #40]	; 0x28
  hspi1.Init.CRCPolynomial = 10;
 8000dce:	4b06      	ldr	r3, [pc, #24]	; (8000de8 <MX_SPI1_Init+0x64>)
 8000dd0:	220a      	movs	r2, #10
 8000dd2:	62da      	str	r2, [r3, #44]	; 0x2c
  if (HAL_SPI_Init(&hspi1) != HAL_OK)
 8000dd4:	4804      	ldr	r0, [pc, #16]	; (8000de8 <MX_SPI1_Init+0x64>)
 8000dd6:	f006 fd43 	bl	8007860 <HAL_SPI_Init>
 8000dda:	4603      	mov	r3, r0
 8000ddc:	2b00      	cmp	r3, #0
 8000dde:	d001      	beq.n	8000de4 <MX_SPI1_Init+0x60>
  {
    Error_Handler();
 8000de0:	f000 fcba 	bl	8001758 <Error_Handler>
  }
  /* USER CODE BEGIN SPI1_Init 2 */

  /* USER CODE END SPI1_Init 2 */

}
 8000de4:	bf00      	nop
 8000de6:	bd80      	pop	{r7, pc}
 8000de8:	20000430 	.word	0x20000430
 8000dec:	40013000 	.word	0x40013000

08000df0 <MX_USART1_UART_Init>:
  * @brief USART1 Initialization Function
  * @param None
  * @retval None
  */
static void MX_USART1_UART_Init(void)
{
 8000df0:	b580      	push	{r7, lr}
 8000df2:	af00      	add	r7, sp, #0
  /* USER CODE END USART1_Init 0 */

  /* USER CODE BEGIN USART1_Init 1 */

  /* USER CODE END USART1_Init 1 */
  huart1.Instance = USART1;
 8000df4:	4b11      	ldr	r3, [pc, #68]	; (8000e3c <MX_USART1_UART_Init+0x4c>)
 8000df6:	4a12      	ldr	r2, [pc, #72]	; (8000e40 <MX_USART1_UART_Init+0x50>)
 8000df8:	601a      	str	r2, [r3, #0]
  huart1.Init.BaudRate = 115200;
 8000dfa:	4b10      	ldr	r3, [pc, #64]	; (8000e3c <MX_USART1_UART_Init+0x4c>)
 8000dfc:	f44f 32e1 	mov.w	r2, #115200	; 0x1c200
 8000e00:	605a      	str	r2, [r3, #4]
  huart1.Init.WordLength = UART_WORDLENGTH_8B;
 8000e02:	4b0e      	ldr	r3, [pc, #56]	; (8000e3c <MX_USART1_UART_Init+0x4c>)
 8000e04:	2200      	movs	r2, #0
 8000e06:	609a      	str	r2, [r3, #8]
  huart1.Init.StopBits = UART_STOPBITS_1;
 8000e08:	4b0c      	ldr	r3, [pc, #48]	; (8000e3c <MX_USART1_UART_Init+0x4c>)
 8000e0a:	2200      	movs	r2, #0
 8000e0c:	60da      	str	r2, [r3, #12]
  huart1.Init.Parity = UART_PARITY_NONE;
 8000e0e:	4b0b      	ldr	r3, [pc, #44]	; (8000e3c <MX_USART1_UART_Init+0x4c>)
 8000e10:	2200      	movs	r2, #0
 8000e12:	611a      	str	r2, [r3, #16]
  huart1.Init.Mode = UART_MODE_TX_RX;
 8000e14:	4b09      	ldr	r3, [pc, #36]	; (8000e3c <MX_USART1_UART_Init+0x4c>)
 8000e16:	220c      	movs	r2, #12
 8000e18:	615a      	str	r2, [r3, #20]
  huart1.Init.HwFlowCtl = UART_HWCONTROL_NONE;
 8000e1a:	4b08      	ldr	r3, [pc, #32]	; (8000e3c <MX_USART1_UART_Init+0x4c>)
 8000e1c:	2200      	movs	r2, #0
 8000e1e:	619a      	str	r2, [r3, #24]
  huart1.Init.OverSampling = UART_OVERSAMPLING_16;
 8000e20:	4b06      	ldr	r3, [pc, #24]	; (8000e3c <MX_USART1_UART_Init+0x4c>)
 8000e22:	2200      	movs	r2, #0
 8000e24:	61da      	str	r2, [r3, #28]
  if (HAL_UART_Init(&huart1) != HAL_OK)
 8000e26:	4805      	ldr	r0, [pc, #20]	; (8000e3c <MX_USART1_UART_Init+0x4c>)
 8000e28:	f007 fa34 	bl	8008294 <HAL_UART_Init>
 8000e2c:	4603      	mov	r3, r0
 8000e2e:	2b00      	cmp	r3, #0
 8000e30:	d001      	beq.n	8000e36 <MX_USART1_UART_Init+0x46>
  {
    Error_Handler();
 8000e32:	f000 fc91 	bl	8001758 <Error_Handler>
  }
  /* USER CODE BEGIN USART1_Init 2 */

  /* USER CODE END USART1_Init 2 */

}
 8000e36:	bf00      	nop
 8000e38:	bd80      	pop	{r7, pc}
 8000e3a:	bf00      	nop
 8000e3c:	20000488 	.word	0x20000488
 8000e40:	40013800 	.word	0x40013800

08000e44 <MX_DMA_Init>:

/**
  * Enable DMA controller clock
  */
static void MX_DMA_Init(void)
{
 8000e44:	b580      	push	{r7, lr}
 8000e46:	b082      	sub	sp, #8
 8000e48:	af00      	add	r7, sp, #0

  /* DMA controller clock enable */
  __HAL_RCC_DMA1_CLK_ENABLE();
 8000e4a:	4b14      	ldr	r3, [pc, #80]	; (8000e9c <MX_DMA_Init+0x58>)
 8000e4c:	695b      	ldr	r3, [r3, #20]
 8000e4e:	4a13      	ldr	r2, [pc, #76]	; (8000e9c <MX_DMA_Init+0x58>)
 8000e50:	f043 0301 	orr.w	r3, r3, #1
 8000e54:	6153      	str	r3, [r2, #20]
 8000e56:	4b11      	ldr	r3, [pc, #68]	; (8000e9c <MX_DMA_Init+0x58>)
 8000e58:	695b      	ldr	r3, [r3, #20]
 8000e5a:	f003 0301 	and.w	r3, r3, #1
 8000e5e:	607b      	str	r3, [r7, #4]
 8000e60:	687b      	ldr	r3, [r7, #4]

  /* DMA interrupt init */
  /* DMA1_Channel1_IRQn interrupt configuration */
  HAL_NVIC_SetPriority(DMA1_Channel1_IRQn, 5, 0);
 8000e62:	2200      	movs	r2, #0
 8000e64:	2105      	movs	r1, #5
 8000e66:	200b      	movs	r0, #11
 8000e68:	f002 ffa3 	bl	8003db2 <HAL_NVIC_SetPriority>
  HAL_NVIC_EnableIRQ(DMA1_Channel1_IRQn);
 8000e6c:	200b      	movs	r0, #11
 8000e6e:	f002 ffbc 	bl	8003dea <HAL_NVIC_EnableIRQ>
  /* DMA1_Channel4_IRQn interrupt configuration */
  HAL_NVIC_SetPriority(DMA1_Channel4_IRQn, 5, 0);
 8000e72:	2200      	movs	r2, #0
 8000e74:	2105      	movs	r1, #5
 8000e76:	200e      	movs	r0, #14
 8000e78:	f002 ff9b 	bl	8003db2 <HAL_NVIC_SetPriority>
  HAL_NVIC_EnableIRQ(DMA1_Channel4_IRQn);
 8000e7c:	200e      	movs	r0, #14
 8000e7e:	f002 ffb4 	bl	8003dea <HAL_NVIC_EnableIRQ>
  /* DMA1_Channel6_IRQn interrupt configuration */
  HAL_NVIC_SetPriority(DMA1_Channel6_IRQn, 5, 0);
 8000e82:	2200      	movs	r2, #0
 8000e84:	2105      	movs	r1, #5
 8000e86:	2010      	movs	r0, #16
 8000e88:	f002 ff93 	bl	8003db2 <HAL_NVIC_SetPriority>
  HAL_NVIC_EnableIRQ(DMA1_Channel6_IRQn);
 8000e8c:	2010      	movs	r0, #16
 8000e8e:	f002 ffac 	bl	8003dea <HAL_NVIC_EnableIRQ>

}
 8000e92:	bf00      	nop
 8000e94:	3708      	adds	r7, #8
 8000e96:	46bd      	mov	sp, r7
 8000e98:	bd80      	pop	{r7, pc}
 8000e9a:	bf00      	nop
 8000e9c:	40021000 	.word	0x40021000

08000ea0 <MX_GPIO_Init>:
  * @brief GPIO Initialization Function
  * @param None
  * @retval None
  */
static void MX_GPIO_Init(void)
{
 8000ea0:	b580      	push	{r7, lr}
 8000ea2:	b088      	sub	sp, #32
 8000ea4:	af00      	add	r7, sp, #0
  GPIO_InitTypeDef GPIO_InitStruct = {0};
 8000ea6:	f107 0310 	add.w	r3, r7, #16
 8000eaa:	2200      	movs	r2, #0
 8000eac:	601a      	str	r2, [r3, #0]
 8000eae:	605a      	str	r2, [r3, #4]
 8000eb0:	609a      	str	r2, [r3, #8]
 8000eb2:	60da      	str	r2, [r3, #12]
/* USER CODE BEGIN MX_GPIO_Init_1 */
/* USER CODE END MX_GPIO_Init_1 */

  /* GPIO Ports Clock Enable */
  __HAL_RCC_GPIOC_CLK_ENABLE();
 8000eb4:	4b41      	ldr	r3, [pc, #260]	; (8000fbc <MX_GPIO_Init+0x11c>)
 8000eb6:	699b      	ldr	r3, [r3, #24]
 8000eb8:	4a40      	ldr	r2, [pc, #256]	; (8000fbc <MX_GPIO_Init+0x11c>)
 8000eba:	f043 0310 	orr.w	r3, r3, #16
 8000ebe:	6193      	str	r3, [r2, #24]
 8000ec0:	4b3e      	ldr	r3, [pc, #248]	; (8000fbc <MX_GPIO_Init+0x11c>)
 8000ec2:	699b      	ldr	r3, [r3, #24]
 8000ec4:	f003 0310 	and.w	r3, r3, #16
 8000ec8:	60fb      	str	r3, [r7, #12]
 8000eca:	68fb      	ldr	r3, [r7, #12]
  __HAL_RCC_GPIOD_CLK_ENABLE();
 8000ecc:	4b3b      	ldr	r3, [pc, #236]	; (8000fbc <MX_GPIO_Init+0x11c>)
 8000ece:	699b      	ldr	r3, [r3, #24]
 8000ed0:	4a3a      	ldr	r2, [pc, #232]	; (8000fbc <MX_GPIO_Init+0x11c>)
 8000ed2:	f043 0320 	orr.w	r3, r3, #32
 8000ed6:	6193      	str	r3, [r2, #24]
 8000ed8:	4b38      	ldr	r3, [pc, #224]	; (8000fbc <MX_GPIO_Init+0x11c>)
 8000eda:	699b      	ldr	r3, [r3, #24]
 8000edc:	f003 0320 	and.w	r3, r3, #32
 8000ee0:	60bb      	str	r3, [r7, #8]
 8000ee2:	68bb      	ldr	r3, [r7, #8]
  __HAL_RCC_GPIOA_CLK_ENABLE();
 8000ee4:	4b35      	ldr	r3, [pc, #212]	; (8000fbc <MX_GPIO_Init+0x11c>)
 8000ee6:	699b      	ldr	r3, [r3, #24]
 8000ee8:	4a34      	ldr	r2, [pc, #208]	; (8000fbc <MX_GPIO_Init+0x11c>)
 8000eea:	f043 0304 	orr.w	r3, r3, #4
 8000eee:	6193      	str	r3, [r2, #24]
 8000ef0:	4b32      	ldr	r3, [pc, #200]	; (8000fbc <MX_GPIO_Init+0x11c>)
 8000ef2:	699b      	ldr	r3, [r3, #24]
 8000ef4:	f003 0304 	and.w	r3, r3, #4
 8000ef8:	607b      	str	r3, [r7, #4]
 8000efa:	687b      	ldr	r3, [r7, #4]
  __HAL_RCC_GPIOB_CLK_ENABLE();
 8000efc:	4b2f      	ldr	r3, [pc, #188]	; (8000fbc <MX_GPIO_Init+0x11c>)
 8000efe:	699b      	ldr	r3, [r3, #24]
 8000f00:	4a2e      	ldr	r2, [pc, #184]	; (8000fbc <MX_GPIO_Init+0x11c>)
 8000f02:	f043 0308 	orr.w	r3, r3, #8
 8000f06:	6193      	str	r3, [r2, #24]
 8000f08:	4b2c      	ldr	r3, [pc, #176]	; (8000fbc <MX_GPIO_Init+0x11c>)
 8000f0a:	699b      	ldr	r3, [r3, #24]
 8000f0c:	f003 0308 	and.w	r3, r3, #8
 8000f10:	603b      	str	r3, [r7, #0]
 8000f12:	683b      	ldr	r3, [r7, #0]

  /*Configure GPIO pin Output Level */
  HAL_GPIO_WritePin(GPIOC, GPIO_PIN_13, GPIO_PIN_RESET);
 8000f14:	2200      	movs	r2, #0
 8000f16:	f44f 5100 	mov.w	r1, #8192	; 0x2000
 8000f1a:	4829      	ldr	r0, [pc, #164]	; (8000fc0 <MX_GPIO_Init+0x120>)
 8000f1c:	f003 fcd8 	bl	80048d0 <HAL_GPIO_WritePin>

  /*Configure GPIO pin Output Level */
  HAL_GPIO_WritePin(GPIOA, GPIO_PIN_4, GPIO_PIN_RESET);
 8000f20:	2200      	movs	r2, #0
 8000f22:	2110      	movs	r1, #16
 8000f24:	4827      	ldr	r0, [pc, #156]	; (8000fc4 <MX_GPIO_Init+0x124>)
 8000f26:	f003 fcd3 	bl	80048d0 <HAL_GPIO_WritePin>

  /*Configure GPIO pin Output Level */
  HAL_GPIO_WritePin(GPIOB, GPIO_PIN_1, GPIO_PIN_SET);
 8000f2a:	2201      	movs	r2, #1
 8000f2c:	2102      	movs	r1, #2
 8000f2e:	4826      	ldr	r0, [pc, #152]	; (8000fc8 <MX_GPIO_Init+0x128>)
 8000f30:	f003 fcce 	bl	80048d0 <HAL_GPIO_WritePin>

  /*Configure GPIO pin : PC13 */
  GPIO_InitStruct.Pin = GPIO_PIN_13;
 8000f34:	f44f 5300 	mov.w	r3, #8192	; 0x2000
 8000f38:	613b      	str	r3, [r7, #16]
  GPIO_InitStruct.Mode = GPIO_MODE_OUTPUT_PP;
 8000f3a:	2301      	movs	r3, #1
 8000f3c:	617b      	str	r3, [r7, #20]
  GPIO_InitStruct.Pull = GPIO_PULLUP;
 8000f3e:	2301      	movs	r3, #1
 8000f40:	61bb      	str	r3, [r7, #24]
  GPIO_InitStruct.Speed = GPIO_SPEED_FREQ_LOW;
 8000f42:	2302      	movs	r3, #2
 8000f44:	61fb      	str	r3, [r7, #28]
  HAL_GPIO_Init(GPIOC, &GPIO_InitStruct);
 8000f46:	f107 0310 	add.w	r3, r7, #16
 8000f4a:	4619      	mov	r1, r3
 8000f4c:	481c      	ldr	r0, [pc, #112]	; (8000fc0 <MX_GPIO_Init+0x120>)
 8000f4e:	f003 fa7f 	bl	8004450 <HAL_GPIO_Init>

  /*Configure GPIO pin : PA4 */
  GPIO_InitStruct.Pin = GPIO_PIN_4;
 8000f52:	2310      	movs	r3, #16
 8000f54:	613b      	str	r3, [r7, #16]
  GPIO_InitStruct.Mode = GPIO_MODE_OUTPUT_PP;
 8000f56:	2301      	movs	r3, #1
 8000f58:	617b      	str	r3, [r7, #20]
  GPIO_InitStruct.Pull = GPIO_NOPULL;
 8000f5a:	2300      	movs	r3, #0
 8000f5c:	61bb      	str	r3, [r7, #24]
  GPIO_InitStruct.Speed = GPIO_SPEED_FREQ_LOW;
 8000f5e:	2302      	movs	r3, #2
 8000f60:	61fb      	str	r3, [r7, #28]
  HAL_GPIO_Init(GPIOA, &GPIO_InitStruct);
 8000f62:	f107 0310 	add.w	r3, r7, #16
 8000f66:	4619      	mov	r1, r3
 8000f68:	4816      	ldr	r0, [pc, #88]	; (8000fc4 <MX_GPIO_Init+0x124>)
 8000f6a:	f003 fa71 	bl	8004450 <HAL_GPIO_Init>

  /*Configure GPIO pin : PB1 */
  GPIO_InitStruct.Pin = GPIO_PIN_1;
 8000f6e:	2302      	movs	r3, #2
 8000f70:	613b      	str	r3, [r7, #16]
  GPIO_InitStruct.Mode = GPIO_MODE_OUTPUT_PP;
 8000f72:	2301      	movs	r3, #1
 8000f74:	617b      	str	r3, [r7, #20]
  GPIO_InitStruct.Pull = GPIO_PULLDOWN;
 8000f76:	2302      	movs	r3, #2
 8000f78:	61bb      	str	r3, [r7, #24]
  GPIO_InitStruct.Speed = GPIO_SPEED_FREQ_HIGH;
 8000f7a:	2303      	movs	r3, #3
 8000f7c:	61fb      	str	r3, [r7, #28]
  HAL_GPIO_Init(GPIOB, &GPIO_InitStruct);
 8000f7e:	f107 0310 	add.w	r3, r7, #16
 8000f82:	4619      	mov	r1, r3
 8000f84:	4810      	ldr	r0, [pc, #64]	; (8000fc8 <MX_GPIO_Init+0x128>)
 8000f86:	f003 fa63 	bl	8004450 <HAL_GPIO_Init>

  /*Configure GPIO pins : PB13 PB14 PB15 */
  GPIO_InitStruct.Pin = GPIO_PIN_13|GPIO_PIN_14|GPIO_PIN_15;
 8000f8a:	f44f 4360 	mov.w	r3, #57344	; 0xe000
 8000f8e:	613b      	str	r3, [r7, #16]
  GPIO_InitStruct.Mode = GPIO_MODE_IT_FALLING;
 8000f90:	4b0e      	ldr	r3, [pc, #56]	; (8000fcc <MX_GPIO_Init+0x12c>)
 8000f92:	617b      	str	r3, [r7, #20]
  GPIO_InitStruct.Pull = GPIO_PULLUP;
 8000f94:	2301      	movs	r3, #1
 8000f96:	61bb      	str	r3, [r7, #24]
  HAL_GPIO_Init(GPIOB, &GPIO_InitStruct);
 8000f98:	f107 0310 	add.w	r3, r7, #16
 8000f9c:	4619      	mov	r1, r3
 8000f9e:	480a      	ldr	r0, [pc, #40]	; (8000fc8 <MX_GPIO_Init+0x128>)
 8000fa0:	f003 fa56 	bl	8004450 <HAL_GPIO_Init>

  /* EXTI interrupt init*/
  HAL_NVIC_SetPriority(EXTI15_10_IRQn, 5, 0);
 8000fa4:	2200      	movs	r2, #0
 8000fa6:	2105      	movs	r1, #5
 8000fa8:	2028      	movs	r0, #40	; 0x28
 8000faa:	f002 ff02 	bl	8003db2 <HAL_NVIC_SetPriority>
  HAL_NVIC_EnableIRQ(EXTI15_10_IRQn);
 8000fae:	2028      	movs	r0, #40	; 0x28
 8000fb0:	f002 ff1b 	bl	8003dea <HAL_NVIC_EnableIRQ>

/* USER CODE BEGIN MX_GPIO_Init_2 */
/* USER CODE END MX_GPIO_Init_2 */
}
 8000fb4:	bf00      	nop
 8000fb6:	3720      	adds	r7, #32
 8000fb8:	46bd      	mov	sp, r7
 8000fba:	bd80      	pop	{r7, pc}
 8000fbc:	40021000 	.word	0x40021000
 8000fc0:	40011000 	.word	0x40011000
 8000fc4:	40010800 	.word	0x40010800
 8000fc8:	40010c00 	.word	0x40010c00
 8000fcc:	10210000 	.word	0x10210000

08000fd0 <HAL_GPIO_EXTI_Callback>:

/* USER CODE BEGIN 4 */

//Interrupt and other functions
void HAL_GPIO_EXTI_Callback(uint16_t GPIO_Pin){
 8000fd0:	b580      	push	{r7, lr}
 8000fd2:	b082      	sub	sp, #8
 8000fd4:	af00      	add	r7, sp, #0
 8000fd6:	4603      	mov	r3, r0
 8000fd8:	80fb      	strh	r3, [r7, #6]
	//Count time for debounce
	sleep_count = 0;
 8000fda:	4b37      	ldr	r3, [pc, #220]	; (80010b8 <HAL_GPIO_EXTI_Callback+0xe8>)
 8000fdc:	2200      	movs	r2, #0
 8000fde:	801a      	strh	r2, [r3, #0]
	HAL_ResumeTick();
 8000fe0:	f002 fa12 	bl	8003408 <HAL_ResumeTick>
	current_millis = HAL_GetTick();
 8000fe4:	f002 f9d4 	bl	8003390 <HAL_GetTick>
 8000fe8:	4603      	mov	r3, r0
 8000fea:	4a34      	ldr	r2, [pc, #208]	; (80010bc <HAL_GPIO_EXTI_Callback+0xec>)
 8000fec:	6013      	str	r3, [r2, #0]
	oled_flag |= SET_FLAG;
 8000fee:	4b34      	ldr	r3, [pc, #208]	; (80010c0 <HAL_GPIO_EXTI_Callback+0xf0>)
 8000ff0:	781b      	ldrb	r3, [r3, #0]
 8000ff2:	b2db      	uxtb	r3, r3
 8000ff4:	f043 0301 	orr.w	r3, r3, #1
 8000ff8:	b2da      	uxtb	r2, r3
 8000ffa:	4b31      	ldr	r3, [pc, #196]	; (80010c0 <HAL_GPIO_EXTI_Callback+0xf0>)
 8000ffc:	701a      	strb	r2, [r3, #0]
	if(GPIO_Pin == GPIO_PIN_14 && Debounce){
 8000ffe:	88fb      	ldrh	r3, [r7, #6]
 8001000:	f5b3 4f80 	cmp.w	r3, #16384	; 0x4000
 8001004:	d12e      	bne.n	8001064 <HAL_GPIO_EXTI_Callback+0x94>
 8001006:	4b2d      	ldr	r3, [pc, #180]	; (80010bc <HAL_GPIO_EXTI_Callback+0xec>)
 8001008:	681a      	ldr	r2, [r3, #0]
 800100a:	4b2e      	ldr	r3, [pc, #184]	; (80010c4 <HAL_GPIO_EXTI_Callback+0xf4>)
 800100c:	681b      	ldr	r3, [r3, #0]
 800100e:	1ad3      	subs	r3, r2, r3
 8001010:	2b02      	cmp	r3, #2
 8001012:	d927      	bls.n	8001064 <HAL_GPIO_EXTI_Callback+0x94>
  \details Disables IRQ interrupts by setting the I-bit in the CPSR.
           Can only be executed in Privileged modes.
 */
__STATIC_FORCEINLINE void __disable_irq(void)
{
  __ASM volatile ("cpsid i" : : : "memory");
 8001014:	b672      	cpsid	i
}
 8001016:	bf00      	nop
		// Wifi
		// Server
		// Exit
		*/
		__disable_irq();
		ssd1306_Clear();
 8001018:	f001 ff90 	bl	8002f3c <ssd1306_Clear>
		if(navigate < PAGE_NAVIGATION && Menu.counting < MENU_NUMBER - 1) {
 800101c:	4b2a      	ldr	r3, [pc, #168]	; (80010c8 <HAL_GPIO_EXTI_Callback+0xf8>)
 800101e:	781b      	ldrb	r3, [r3, #0]
 8001020:	b2db      	uxtb	r3, r3
 8001022:	2b01      	cmp	r3, #1
 8001024:	d80e      	bhi.n	8001044 <HAL_GPIO_EXTI_Callback+0x74>
 8001026:	4b29      	ldr	r3, [pc, #164]	; (80010cc <HAL_GPIO_EXTI_Callback+0xfc>)
 8001028:	789b      	ldrb	r3, [r3, #2]
 800102a:	b2db      	uxtb	r3, r3
 800102c:	2b03      	cmp	r3, #3
 800102e:	d809      	bhi.n	8001044 <HAL_GPIO_EXTI_Callback+0x74>
			navigate++;
 8001030:	4b25      	ldr	r3, [pc, #148]	; (80010c8 <HAL_GPIO_EXTI_Callback+0xf8>)
 8001032:	781b      	ldrb	r3, [r3, #0]
 8001034:	b2db      	uxtb	r3, r3
 8001036:	3301      	adds	r3, #1
 8001038:	b2da      	uxtb	r2, r3
 800103a:	4b23      	ldr	r3, [pc, #140]	; (80010c8 <HAL_GPIO_EXTI_Callback+0xf8>)
 800103c:	701a      	strb	r2, [r3, #0]
			ssd1306_Clear();
 800103e:	f001 ff7d 	bl	8002f3c <ssd1306_Clear>
 8001042:	e007      	b.n	8001054 <HAL_GPIO_EXTI_Callback+0x84>
		}
		else if (Menu.counting == MENU_NUMBER - 1){
 8001044:	4b21      	ldr	r3, [pc, #132]	; (80010cc <HAL_GPIO_EXTI_Callback+0xfc>)
 8001046:	789b      	ldrb	r3, [r3, #2]
 8001048:	b2db      	uxtb	r3, r3
 800104a:	2b04      	cmp	r3, #4
 800104c:	d102      	bne.n	8001054 <HAL_GPIO_EXTI_Callback+0x84>
			navigate = 0;
 800104e:	4b1e      	ldr	r3, [pc, #120]	; (80010c8 <HAL_GPIO_EXTI_Callback+0xf8>)
 8001050:	2200      	movs	r2, #0
 8001052:	701a      	strb	r2, [r3, #0]
		}
		previous_millis = current_millis;
 8001054:	4b19      	ldr	r3, [pc, #100]	; (80010bc <HAL_GPIO_EXTI_Callback+0xec>)
 8001056:	681b      	ldr	r3, [r3, #0]
 8001058:	4a1a      	ldr	r2, [pc, #104]	; (80010c4 <HAL_GPIO_EXTI_Callback+0xf4>)
 800105a:	6013      	str	r3, [r2, #0]
		ssd1306_Clear();
 800105c:	f001 ff6e 	bl	8002f3c <ssd1306_Clear>
  __ASM volatile ("cpsie i" : : : "memory");
 8001060:	b662      	cpsie	i
}
 8001062:	bf00      	nop
		__enable_irq();
	}

	if(GPIO_Pin == GPIO_PIN_15 && Debounce){
 8001064:	88fb      	ldrh	r3, [r7, #6]
 8001066:	f5b3 4f00 	cmp.w	r3, #32768	; 0x8000
 800106a:	d121      	bne.n	80010b0 <HAL_GPIO_EXTI_Callback+0xe0>
 800106c:	4b13      	ldr	r3, [pc, #76]	; (80010bc <HAL_GPIO_EXTI_Callback+0xec>)
 800106e:	681a      	ldr	r2, [r3, #0]
 8001070:	4b14      	ldr	r3, [pc, #80]	; (80010c4 <HAL_GPIO_EXTI_Callback+0xf4>)
 8001072:	681b      	ldr	r3, [r3, #0]
 8001074:	1ad3      	subs	r3, r2, r3
 8001076:	2b02      	cmp	r3, #2
 8001078:	d91a      	bls.n	80010b0 <HAL_GPIO_EXTI_Callback+0xe0>
  __ASM volatile ("cpsid i" : : : "memory");
 800107a:	b672      	cpsid	i
}
 800107c:	bf00      	nop
		// Wifi   <<
		// Server
		// Exit
		*/
		__disable_irq();
		ssd1306_Clear();
 800107e:	f001 ff5d 	bl	8002f3c <ssd1306_Clear>
		if(navigate >= PAGE_NAVIGATION){
 8001082:	4b11      	ldr	r3, [pc, #68]	; (80010c8 <HAL_GPIO_EXTI_Callback+0xf8>)
 8001084:	781b      	ldrb	r3, [r3, #0]
 8001086:	b2db      	uxtb	r3, r3
 8001088:	2b01      	cmp	r3, #1
 800108a:	d906      	bls.n	800109a <HAL_GPIO_EXTI_Callback+0xca>
			navigate--;
 800108c:	4b0e      	ldr	r3, [pc, #56]	; (80010c8 <HAL_GPIO_EXTI_Callback+0xf8>)
 800108e:	781b      	ldrb	r3, [r3, #0]
 8001090:	b2db      	uxtb	r3, r3
 8001092:	3b01      	subs	r3, #1
 8001094:	b2da      	uxtb	r2, r3
 8001096:	4b0c      	ldr	r3, [pc, #48]	; (80010c8 <HAL_GPIO_EXTI_Callback+0xf8>)
 8001098:	701a      	strb	r2, [r3, #0]
		}
		menu_button_plus(&Menu);
 800109a:	480c      	ldr	r0, [pc, #48]	; (80010cc <HAL_GPIO_EXTI_Callback+0xfc>)
 800109c:	f001 fd08 	bl	8002ab0 <menu_button_plus>
		previous_millis = current_millis;
 80010a0:	4b06      	ldr	r3, [pc, #24]	; (80010bc <HAL_GPIO_EXTI_Callback+0xec>)
 80010a2:	681b      	ldr	r3, [r3, #0]
 80010a4:	4a07      	ldr	r2, [pc, #28]	; (80010c4 <HAL_GPIO_EXTI_Callback+0xf4>)
 80010a6:	6013      	str	r3, [r2, #0]
		ssd1306_Clear();
 80010a8:	f001 ff48 	bl	8002f3c <ssd1306_Clear>
  __ASM volatile ("cpsie i" : : : "memory");
 80010ac:	b662      	cpsie	i
}
 80010ae:	bf00      	nop
	    __enable_irq();
	}

}
 80010b0:	bf00      	nop
 80010b2:	3708      	adds	r7, #8
 80010b4:	46bd      	mov	sp, r7
 80010b6:	bd80      	pop	{r7, pc}
 80010b8:	20000548 	.word	0x20000548
 80010bc:	200005c8 	.word	0x200005c8
 80010c0:	20000000 	.word	0x20000000
 80010c4:	200005c4 	.word	0x200005c4
 80010c8:	200005ce 	.word	0x200005ce
 80010cc:	200005f8 	.word	0x200005f8

080010d0 <HAL_UART_ErrorCallback>:

//Error with DMA
void HAL_UART_ErrorCallback(UART_HandleTypeDef *huart)
{
 80010d0:	b580      	push	{r7, lr}
 80010d2:	b082      	sub	sp, #8
 80010d4:	af00      	add	r7, sp, #0
 80010d6:	6078      	str	r0, [r7, #4]
	HAL_UART_DeInit(huart);
 80010d8:	6878      	ldr	r0, [r7, #4]
 80010da:	f007 f92b 	bl	8008334 <HAL_UART_DeInit>
}
 80010de:	bf00      	nop
 80010e0:	3708      	adds	r7, #8
 80010e2:	46bd      	mov	sp, r7
 80010e4:	bd80      	pop	{r7, pc}
	...

080010e8 <StartADC>:
  * @param  argument: Not used
  * @retval None
  */
/* USER CODE END Header_StartADC */
void StartADC(void const * argument)
{
 80010e8:	b580      	push	{r7, lr}
 80010ea:	b08a      	sub	sp, #40	; 0x28
 80010ec:	af00      	add	r7, sp, #0
 80010ee:	6078      	str	r0, [r7, #4]
  /* USER CODE BEGIN 5 */

  ssd1306_Init();
 80010f0:	f001 fd44 	bl	8002b7c <ssd1306_Init>
  ssd1306_FlipScreenVertically();
 80010f4:	20a1      	movs	r0, #161	; 0xa1
 80010f6:	f001 ff2d 	bl	8002f54 <ssd1306_WriteCommand>
 80010fa:	20c8      	movs	r0, #200	; 0xc8
 80010fc:	f001 ff2a 	bl	8002f54 <ssd1306_WriteCommand>
  ssd1306_Clear();
 8001100:	f001 ff1c 	bl	8002f3c <ssd1306_Clear>
  ssd1306_SetColor(White);
 8001104:	2001      	movs	r0, #1
 8001106:	f001 fd29 	bl	8002b5c <ssd1306_SetColor>

  osDelay(500);
 800110a:	f44f 70fa 	mov.w	r0, #500	; 0x1f4
 800110e:	f00a ff23 	bl	800bf58 <osDelay>

  //char data[8]; //buffer for Serial UART1
  char esp_char_buffer[5]; //buffer for esp_buffer
  uint16_t k = 0;
 8001112:	2300      	movs	r3, #0
 8001114:	84fb      	strh	r3, [r7, #38]	; 0x26
  osDelay(500);
 8001116:	f44f 70fa 	mov.w	r0, #500	; 0x1f4
 800111a:	f00a ff1d 	bl	800bf58 <osDelay>
  HAL_UART_Transmit_DMA(&huart1, (uint8_t *) "SL", 3);
 800111e:	2203      	movs	r2, #3
 8001120:	49aa      	ldr	r1, [pc, #680]	; (80013cc <StartADC+0x2e4>)
 8001122:	48ab      	ldr	r0, [pc, #684]	; (80013d0 <StartADC+0x2e8>)
 8001124:	f007 f9ca 	bl	80084bc <HAL_UART_Transmit_DMA>
  uint8_t n = 0;
 8001128:	2300      	movs	r3, #0
 800112a:	f887 3025 	strb.w	r3, [r7, #37]	; 0x25
  uint8_t count_sample = 0; //Down sampling by 5 (500/5 = 100 sample/sec)
 800112e:	2300      	movs	r3, #0
 8001130:	f887 3024 	strb.w	r3, [r7, #36]	; 0x24
  uint16_t count_buffer = 0; //Count buffer for plotting
 8001134:	2300      	movs	r3, #0
 8001136:	847b      	strh	r3, [r7, #34]	; 0x22
  uint16_t esp_adc;

  //Uart rx buffer
  char rx_esp[11] = {0};
 8001138:	2300      	movs	r3, #0
 800113a:	60fb      	str	r3, [r7, #12]
 800113c:	f107 0310 	add.w	r3, r7, #16
 8001140:	2200      	movs	r2, #0
 8001142:	601a      	str	r2, [r3, #0]
 8001144:	f8c3 2003 	str.w	r2, [r3, #3]
  /* Infinite loop */
  for(;;)
  {
	//uint32_t now, count;
	//now = HAL_GetTick();
	if(oled_flag & SET_FLAG){
 8001148:	4ba2      	ldr	r3, [pc, #648]	; (80013d4 <StartADC+0x2ec>)
 800114a:	781b      	ldrb	r3, [r3, #0]
 800114c:	b2db      	uxtb	r3, r3
 800114e:	f003 0301 	and.w	r3, r3, #1
 8001152:	2b00      	cmp	r3, #0
 8001154:	d033      	beq.n	80011be <StartADC+0xd6>
		oled_flag &= ~SET_FLAG;
 8001156:	4b9f      	ldr	r3, [pc, #636]	; (80013d4 <StartADC+0x2ec>)
 8001158:	781b      	ldrb	r3, [r3, #0]
 800115a:	b2db      	uxtb	r3, r3
 800115c:	f023 0301 	bic.w	r3, r3, #1
 8001160:	b2da      	uxtb	r2, r3
 8001162:	4b9c      	ldr	r3, [pc, #624]	; (80013d4 <StartADC+0x2ec>)
 8001164:	701a      	strb	r2, [r3, #0]
		sleep_count = 0;
 8001166:	4b9c      	ldr	r3, [pc, #624]	; (80013d8 <StartADC+0x2f0>)
 8001168:	2200      	movs	r2, #0
 800116a:	801a      	strh	r2, [r3, #0]
		//oled_flag &= CLEAR_FLAG;
		menu_pointing[navigate](&Menu);
 800116c:	4b9b      	ldr	r3, [pc, #620]	; (80013dc <StartADC+0x2f4>)
 800116e:	781b      	ldrb	r3, [r3, #0]
 8001170:	b2db      	uxtb	r3, r3
 8001172:	461a      	mov	r2, r3
 8001174:	4b9a      	ldr	r3, [pc, #616]	; (80013e0 <StartADC+0x2f8>)
 8001176:	f853 3022 	ldr.w	r3, [r3, r2, lsl #2]
 800117a:	489a      	ldr	r0, [pc, #616]	; (80013e4 <StartADC+0x2fc>)
 800117c:	4798      	blx	r3
		if(navigate == PAGE_NAVIGATION && Menu.counting == 2){
 800117e:	4b97      	ldr	r3, [pc, #604]	; (80013dc <StartADC+0x2f4>)
 8001180:	781b      	ldrb	r3, [r3, #0]
 8001182:	b2db      	uxtb	r3, r3
 8001184:	2b02      	cmp	r3, #2
 8001186:	d11a      	bne.n	80011be <StartADC+0xd6>
 8001188:	4b96      	ldr	r3, [pc, #600]	; (80013e4 <StartADC+0x2fc>)
 800118a:	789b      	ldrb	r3, [r3, #2]
 800118c:	b2db      	uxtb	r3, r3
 800118e:	2b02      	cmp	r3, #2
 8001190:	d115      	bne.n	80011be <StartADC+0xd6>
			//Reset Esp8266
			HAL_GPIO_WritePin(GPIOB, GPIO_PIN_1, GPIO_PIN_RESET);
 8001192:	2200      	movs	r2, #0
 8001194:	2102      	movs	r1, #2
 8001196:	4894      	ldr	r0, [pc, #592]	; (80013e8 <StartADC+0x300>)
 8001198:	f003 fb9a 	bl	80048d0 <HAL_GPIO_WritePin>
			osDelay(100);
 800119c:	2064      	movs	r0, #100	; 0x64
 800119e:	f00a fedb 	bl	800bf58 <osDelay>
			HAL_GPIO_WritePin(GPIOB, GPIO_PIN_1, GPIO_PIN_SET);
 80011a2:	2201      	movs	r2, #1
 80011a4:	2102      	movs	r1, #2
 80011a6:	4890      	ldr	r0, [pc, #576]	; (80013e8 <StartADC+0x300>)
 80011a8:	f003 fb92 	bl	80048d0 <HAL_GPIO_WritePin>
			osDelay(500);
 80011ac:	f44f 70fa 	mov.w	r0, #500	; 0x1f4
 80011b0:	f00a fed2 	bl	800bf58 <osDelay>
			HAL_UART_Transmit_DMA(&huart1, (uint8_t *) "WF", 4);
 80011b4:	2204      	movs	r2, #4
 80011b6:	498d      	ldr	r1, [pc, #564]	; (80013ec <StartADC+0x304>)
 80011b8:	4885      	ldr	r0, [pc, #532]	; (80013d0 <StartADC+0x2e8>)
 80011ba:	f007 f97f 	bl	80084bc <HAL_UART_Transmit_DMA>
			//osDelay(1000);
			//HAL_UART_Transmit_DMA(&huart1, (uint8_t *) "SL", 4);
		}
	}

	if(navigate == PAGE_NAVIGATION && (Menu.counting == 0 || Menu.counting == 1) ){
 80011be:	4b87      	ldr	r3, [pc, #540]	; (80013dc <StartADC+0x2f4>)
 80011c0:	781b      	ldrb	r3, [r3, #0]
 80011c2:	b2db      	uxtb	r3, r3
 80011c4:	2b02      	cmp	r3, #2
 80011c6:	f040 8188 	bne.w	80014da <StartADC+0x3f2>
 80011ca:	4b86      	ldr	r3, [pc, #536]	; (80013e4 <StartADC+0x2fc>)
 80011cc:	789b      	ldrb	r3, [r3, #2]
 80011ce:	b2db      	uxtb	r3, r3
 80011d0:	2b00      	cmp	r3, #0
 80011d2:	d005      	beq.n	80011e0 <StartADC+0xf8>
 80011d4:	4b83      	ldr	r3, [pc, #524]	; (80013e4 <StartADC+0x2fc>)
 80011d6:	789b      	ldrb	r3, [r3, #2]
 80011d8:	b2db      	uxtb	r3, r3
 80011da:	2b01      	cmp	r3, #1
 80011dc:	f040 817d 	bne.w	80014da <StartADC+0x3f2>
	  //HAL_SPI_MspDeInit(&hspi1);

	  global_flag |= OPENSD_FLAG;
 80011e0:	4b83      	ldr	r3, [pc, #524]	; (80013f0 <StartADC+0x308>)
 80011e2:	781b      	ldrb	r3, [r3, #0]
 80011e4:	b2db      	uxtb	r3, r3
 80011e6:	f043 0304 	orr.w	r3, r3, #4
 80011ea:	b2da      	uxtb	r2, r3
 80011ec:	4b80      	ldr	r3, [pc, #512]	; (80013f0 <StartADC+0x308>)
 80011ee:	701a      	strb	r2, [r3, #0]
	  osDelay(1000);
 80011f0:	f44f 707a 	mov.w	r0, #1000	; 0x3e8
 80011f4:	f00a feb0 	bl	800bf58 <osDelay>
	  //Clear SD buffer
	  k = 0; n = 0;
 80011f8:	2300      	movs	r3, #0
 80011fa:	84fb      	strh	r3, [r7, #38]	; 0x26
 80011fc:	2300      	movs	r3, #0
 80011fe:	f887 3025 	strb.w	r3, [r7, #37]	; 0x25
	  if(Menu.counting == 0){
 8001202:	4b78      	ldr	r3, [pc, #480]	; (80013e4 <StartADC+0x2fc>)
 8001204:	789b      	ldrb	r3, [r3, #2]
 8001206:	b2db      	uxtb	r3, r3
 8001208:	2b00      	cmp	r3, #0
 800120a:	f040 8143 	bne.w	8001494 <StartADC+0x3ac>

		  //Reset Esp8266
		  HAL_GPIO_WritePin(GPIOB, GPIO_PIN_1, GPIO_PIN_RESET);
 800120e:	2200      	movs	r2, #0
 8001210:	2102      	movs	r1, #2
 8001212:	4875      	ldr	r0, [pc, #468]	; (80013e8 <StartADC+0x300>)
 8001214:	f003 fb5c 	bl	80048d0 <HAL_GPIO_WritePin>
		  osDelay(100);
 8001218:	2064      	movs	r0, #100	; 0x64
 800121a:	f00a fe9d 	bl	800bf58 <osDelay>
		  HAL_GPIO_WritePin(GPIOB, GPIO_PIN_1, GPIO_PIN_SET);
 800121e:	2201      	movs	r2, #1
 8001220:	2102      	movs	r1, #2
 8001222:	4871      	ldr	r0, [pc, #452]	; (80013e8 <StartADC+0x300>)
 8001224:	f003 fb54 	bl	80048d0 <HAL_GPIO_WritePin>
		  osDelay(500);
 8001228:	f44f 70fa 	mov.w	r0, #500	; 0x1f4
 800122c:	f00a fe94 	bl	800bf58 <osDelay>
		  HAL_UART_Transmit_DMA(&huart1, (uint8_t *) "RT", 3);
 8001230:	2203      	movs	r2, #3
 8001232:	4970      	ldr	r1, [pc, #448]	; (80013f4 <StartADC+0x30c>)
 8001234:	4866      	ldr	r0, [pc, #408]	; (80013d0 <StartADC+0x2e8>)
 8001236:	f007 f941 	bl	80084bc <HAL_UART_Transmit_DMA>

		  //Clear Plot buffer
		  count_buffer = 0; count_sample = 0;
 800123a:	2300      	movs	r3, #0
 800123c:	847b      	strh	r3, [r7, #34]	; 0x22
 800123e:	2300      	movs	r3, #0
 8001240:	f887 3024 	strb.w	r3, [r7, #36]	; 0x24
		  esp_flag &= CLEAR_FLAG;
 8001244:	4b6c      	ldr	r3, [pc, #432]	; (80013f8 <StartADC+0x310>)
 8001246:	781b      	ldrb	r3, [r3, #0]
 8001248:	4b6b      	ldr	r3, [pc, #428]	; (80013f8 <StartADC+0x310>)
 800124a:	2200      	movs	r2, #0
 800124c:	701a      	strb	r2, [r3, #0]
		  memset(&esp_send_buffer_1, 0, sizeof(esp_send_buffer_1));
 800124e:	223c      	movs	r2, #60	; 0x3c
 8001250:	2100      	movs	r1, #0
 8001252:	486a      	ldr	r0, [pc, #424]	; (80013fc <StartADC+0x314>)
 8001254:	f00d f938 	bl	800e4c8 <memset>
		  memset(&esp_send_buffer_2, 0, sizeof(esp_send_buffer_2));
 8001258:	223c      	movs	r2, #60	; 0x3c
 800125a:	2100      	movs	r1, #0
 800125c:	4868      	ldr	r0, [pc, #416]	; (8001400 <StartADC+0x318>)
 800125e:	f00d f933 	bl	800e4c8 <memset>
  __ASM volatile ("cpsid i" : : : "memory");
 8001262:	b672      	cpsid	i
}
 8001264:	bf00      	nop
		  //osDelay(5000);
		  //UART Buffer
		  __disable_irq();
		  memset(&rx_esp,0, sizeof(rx_esp));
 8001266:	f107 030c 	add.w	r3, r7, #12
 800126a:	220b      	movs	r2, #11
 800126c:	2100      	movs	r1, #0
 800126e:	4618      	mov	r0, r3
 8001270:	f00d f92a 	bl	800e4c8 <memset>
		  HAL_UART_Receive(&huart1,(uint8_t *) rx_esp, 10, HAL_MAX_DELAY);
 8001274:	f107 010c 	add.w	r1, r7, #12
 8001278:	f04f 33ff 	mov.w	r3, #4294967295
 800127c:	220a      	movs	r2, #10
 800127e:	4854      	ldr	r0, [pc, #336]	; (80013d0 <StartADC+0x2e8>)
 8001280:	f007 f88a 	bl	8008398 <HAL_UART_Receive>

		  //Wifi connection
		  ssd1306_SetCursor (0,20);
 8001284:	2114      	movs	r1, #20
 8001286:	2000      	movs	r0, #0
 8001288:	f001 fe40 	bl	8002f0c <ssd1306_SetCursor>
		  ssd1306_WriteString (rx_esp+1, Font_11x18);
 800128c:	f107 030c 	add.w	r3, r7, #12
 8001290:	3301      	adds	r3, #1
 8001292:	4a5c      	ldr	r2, [pc, #368]	; (8001404 <StartADC+0x31c>)
 8001294:	ca06      	ldmia	r2, {r1, r2}
 8001296:	4618      	mov	r0, r3
 8001298:	f001 fe12 	bl	8002ec0 <ssd1306_WriteString>
		  ssd1306_UpdateScreen();
 800129c:	f001 fe84 	bl	8002fa8 <ssd1306_UpdateScreen>
  __ASM volatile ("cpsie i" : : : "memory");
 80012a0:	b662      	cpsie	i
}
 80012a2:	bf00      	nop
		  __enable_irq();
		  osDelay(2000);
 80012a4:	f44f 60fa 	mov.w	r0, #2000	; 0x7d0
 80012a8:	f00a fe56 	bl	800bf58 <osDelay>
	  }

	  while(navigate== PAGE_NAVIGATION && (Menu.counting == 0 || Menu.counting == 1)){
 80012ac:	e0f2      	b.n	8001494 <StartADC+0x3ac>

	  		//ADC sampling rate fs = 500Hz
	  		HAL_ADC_Start_DMA(&hadc1,  (uint32_t *) &adc_buffer, 1);
 80012ae:	2201      	movs	r2, #1
 80012b0:	4955      	ldr	r1, [pc, #340]	; (8001408 <StartADC+0x320>)
 80012b2:	4856      	ldr	r0, [pc, #344]	; (800140c <StartADC+0x324>)
 80012b4:	f002 f98e 	bl	80035d4 <HAL_ADC_Start_DMA>
	  		//shift x[n] = [0, 0, 0, 0, 10] -> x[n] = [0, 0, 0, 10, 5]
	  		delay_signal_x(ecg_data.x, N_X);
 80012b8:	2105      	movs	r1, #5
 80012ba:	4855      	ldr	r0, [pc, #340]	; (8001410 <StartADC+0x328>)
 80012bc:	f000 fe68 	bl	8001f90 <delay_signal_x>
	  		ecg_data.x[N_X-1] = (uint16_t) (adc_buffer);
 80012c0:	4b51      	ldr	r3, [pc, #324]	; (8001408 <StartADC+0x320>)
 80012c2:	881a      	ldrh	r2, [r3, #0]
 80012c4:	4b52      	ldr	r3, [pc, #328]	; (8001410 <StartADC+0x328>)
 80012c6:	811a      	strh	r2, [r3, #8]

	  		//Bandpass filter
	  		delay_signal_x(ecg_data.y_pass, N_PASS);
 80012c8:	2105      	movs	r1, #5
 80012ca:	4852      	ldr	r0, [pc, #328]	; (8001414 <StartADC+0x32c>)
 80012cc:	f000 fe60 	bl	8001f90 <delay_signal_x>
	  		ecg_data.y_pass[N_PASS-1] = bandpass_filter_x(ecg_data.x, ecg_data.y_pass, N_PASS);
 80012d0:	2205      	movs	r2, #5
 80012d2:	4950      	ldr	r1, [pc, #320]	; (8001414 <StartADC+0x32c>)
 80012d4:	484e      	ldr	r0, [pc, #312]	; (8001410 <StartADC+0x328>)
 80012d6:	f000 fd53 	bl	8001d80 <bandpass_filter_x>
 80012da:	4603      	mov	r3, r0
 80012dc:	461a      	mov	r2, r3
 80012de:	4b4c      	ldr	r3, [pc, #304]	; (8001410 <StartADC+0x328>)
 80012e0:	825a      	strh	r2, [r3, #18]

	  		//Notch filter
	  		delay_signal_x(ecg_data.y_notch_1, N_NOTCH);
 80012e2:	2103      	movs	r1, #3
 80012e4:	484c      	ldr	r0, [pc, #304]	; (8001418 <StartADC+0x330>)
 80012e6:	f000 fe53 	bl	8001f90 <delay_signal_x>
	  		ecg_data.y_notch_1[N_NOTCH-1] = notch_filter_1_x(ecg_data.y_pass, ecg_data.y_notch_1, N_NOTCH);
 80012ea:	2203      	movs	r2, #3
 80012ec:	494a      	ldr	r1, [pc, #296]	; (8001418 <StartADC+0x330>)
 80012ee:	4849      	ldr	r0, [pc, #292]	; (8001414 <StartADC+0x32c>)
 80012f0:	f000 fdde 	bl	8001eb0 <notch_filter_1_x>
 80012f4:	4603      	mov	r3, r0
 80012f6:	461a      	mov	r2, r3
 80012f8:	4b45      	ldr	r3, [pc, #276]	; (8001410 <StartADC+0x328>)
 80012fa:	831a      	strh	r2, [r3, #24]
	  		//Display ECG via UART1
	  		//memset(&data, 0, sizeof(data));
	  		//sprintf(data, "%d\r\n", ecg_data.y_notch_1[N_NOTCH-1]);
	  		//HAL_UART_Transmit_DMA(&huart1, (uint8_t *) data, sizeof(data));

	  		n++;
 80012fc:	f897 3025 	ldrb.w	r3, [r7, #37]	; 0x25
 8001300:	3301      	adds	r3, #1
 8001302:	f887 3025 	strb.w	r3, [r7, #37]	; 0x25
	  		//For storing data
	  		//Down sampling rate fs = 250Hz
	  		if(n==2){
 8001306:	f897 3025 	ldrb.w	r3, [r7, #37]	; 0x25
 800130a:	2b02      	cmp	r3, #2
 800130c:	d121      	bne.n	8001352 <StartADC+0x26a>
	  			n=0;
 800130e:	2300      	movs	r3, #0
 8001310:	f887 3025 	strb.w	r3, [r7, #37]	; 0x25
	  			//Append buffer
	  			if(k < N_SEND){
 8001314:	8cfb      	ldrh	r3, [r7, #38]	; 0x26
 8001316:	2b13      	cmp	r3, #19
 8001318:	d806      	bhi.n	8001328 <StartADC+0x240>
	  			  global_adc[k] = ecg_data.y_notch_1[N_NOTCH-1];
 800131a:	8cfb      	ldrh	r3, [r7, #38]	; 0x26
 800131c:	4a3c      	ldr	r2, [pc, #240]	; (8001410 <StartADC+0x328>)
 800131e:	8b11      	ldrh	r1, [r2, #24]
 8001320:	4a3e      	ldr	r2, [pc, #248]	; (800141c <StartADC+0x334>)
 8001322:	f822 1013 	strh.w	r1, [r2, r3, lsl #1]
 8001326:	e011      	b.n	800134c <StartADC+0x264>
	  			}
	  			//Set Write data Event flag
	  			else if (k>= N_SEND){
 8001328:	8cfb      	ldrh	r3, [r7, #38]	; 0x26
 800132a:	2b13      	cmp	r3, #19
 800132c:	d90e      	bls.n	800134c <StartADC+0x264>
	  			  k = 0;
 800132e:	2300      	movs	r3, #0
 8001330:	84fb      	strh	r3, [r7, #38]	; 0x26
	  			  global_flag |= SEND_FLAG;
 8001332:	4b2f      	ldr	r3, [pc, #188]	; (80013f0 <StartADC+0x308>)
 8001334:	781b      	ldrb	r3, [r3, #0]
 8001336:	b2db      	uxtb	r3, r3
 8001338:	f043 0301 	orr.w	r3, r3, #1
 800133c:	b2da      	uxtb	r2, r3
 800133e:	4b2c      	ldr	r3, [pc, #176]	; (80013f0 <StartADC+0x308>)
 8001340:	701a      	strb	r2, [r3, #0]
	  			  osMutexRelease(MutexHandle);
 8001342:	4b37      	ldr	r3, [pc, #220]	; (8001420 <StartADC+0x338>)
 8001344:	681b      	ldr	r3, [r3, #0]
 8001346:	4618      	mov	r0, r3
 8001348:	f00a fe80 	bl	800c04c <osMutexRelease>
	  			}
	  			k++;
 800134c:	8cfb      	ldrh	r3, [r7, #38]	; 0x26
 800134e:	3301      	adds	r3, #1
 8001350:	84fb      	strh	r3, [r7, #38]	; 0x26
	  		}
	  		count_sample++;
 8001352:	f897 3024 	ldrb.w	r3, [r7, #36]	; 0x24
 8001356:	3301      	adds	r3, #1
 8001358:	f887 3024 	strb.w	r3, [r7, #36]	; 0x24
	  		//For plotting data
	  		//Downsampling rate fs = 100Hz
	  		if(count_sample == 5 && Menu.counting == 0){
 800135c:	f897 3024 	ldrb.w	r3, [r7, #36]	; 0x24
 8001360:	2b05      	cmp	r3, #5
 8001362:	f040 8094 	bne.w	800148e <StartADC+0x3a6>
 8001366:	4b1f      	ldr	r3, [pc, #124]	; (80013e4 <StartADC+0x2fc>)
 8001368:	789b      	ldrb	r3, [r3, #2]
 800136a:	b2db      	uxtb	r3, r3
 800136c:	2b00      	cmp	r3, #0
 800136e:	f040 808e 	bne.w	800148e <StartADC+0x3a6>
	  			count_sample = 0;
 8001372:	2300      	movs	r3, #0
 8001374:	f887 3024 	strb.w	r3, [r7, #36]	; 0x24
	  			//Send via UART_3 if buffer = 100 samples
	  			//Send data per second
	  			if(count_buffer >= N_BUFFER_ESP){
 8001378:	8c7b      	ldrh	r3, [r7, #34]	; 0x22
 800137a:	2b13      	cmp	r3, #19
 800137c:	d952      	bls.n	8001424 <StartADC+0x33c>
	  				count_buffer = 0;
 800137e:	2300      	movs	r3, #0
 8001380:	847b      	strh	r3, [r7, #34]	; 0x22
	  				//Toggle buffer
	  				esp_flag ^= BUFFER_1_FLAG;
 8001382:	4b1d      	ldr	r3, [pc, #116]	; (80013f8 <StartADC+0x310>)
 8001384:	781b      	ldrb	r3, [r3, #0]
 8001386:	b2db      	uxtb	r3, r3
 8001388:	f083 0308 	eor.w	r3, r3, #8
 800138c:	b2da      	uxtb	r2, r3
 800138e:	4b1a      	ldr	r3, [pc, #104]	; (80013f8 <StartADC+0x310>)
 8001390:	701a      	strb	r2, [r3, #0]
	  				if(esp_flag & BUFFER_1_FLAG){
 8001392:	4b19      	ldr	r3, [pc, #100]	; (80013f8 <StartADC+0x310>)
 8001394:	781b      	ldrb	r3, [r3, #0]
 8001396:	b2db      	uxtb	r3, r3
 8001398:	f003 0308 	and.w	r3, r3, #8
 800139c:	2b00      	cmp	r3, #0
 800139e:	d00a      	beq.n	80013b6 <StartADC+0x2ce>
	  					memset(&esp_send_buffer_2, 0, sizeof(esp_send_buffer_2));
 80013a0:	223c      	movs	r2, #60	; 0x3c
 80013a2:	2100      	movs	r1, #0
 80013a4:	4816      	ldr	r0, [pc, #88]	; (8001400 <StartADC+0x318>)
 80013a6:	f00d f88f 	bl	800e4c8 <memset>
	  					HAL_UART_Transmit_DMA(&huart1, (uint8_t *) esp_send_buffer_1, sizeof(esp_send_buffer_1));
 80013aa:	223c      	movs	r2, #60	; 0x3c
 80013ac:	4913      	ldr	r1, [pc, #76]	; (80013fc <StartADC+0x314>)
 80013ae:	4808      	ldr	r0, [pc, #32]	; (80013d0 <StartADC+0x2e8>)
 80013b0:	f007 f884 	bl	80084bc <HAL_UART_Transmit_DMA>
 80013b4:	e06b      	b.n	800148e <StartADC+0x3a6>

	  				}
	  				else{
	  					memset(&esp_send_buffer_1, 0, sizeof(esp_send_buffer_1));
 80013b6:	223c      	movs	r2, #60	; 0x3c
 80013b8:	2100      	movs	r1, #0
 80013ba:	4810      	ldr	r0, [pc, #64]	; (80013fc <StartADC+0x314>)
 80013bc:	f00d f884 	bl	800e4c8 <memset>
	  					HAL_UART_Transmit_DMA(&huart1, (uint8_t *) esp_send_buffer_2, sizeof(esp_send_buffer_2));
 80013c0:	223c      	movs	r2, #60	; 0x3c
 80013c2:	490f      	ldr	r1, [pc, #60]	; (8001400 <StartADC+0x318>)
 80013c4:	4802      	ldr	r0, [pc, #8]	; (80013d0 <StartADC+0x2e8>)
 80013c6:	f007 f879 	bl	80084bc <HAL_UART_Transmit_DMA>
 80013ca:	e060      	b.n	800148e <StartADC+0x3a6>
 80013cc:	0800ee64 	.word	0x0800ee64
 80013d0:	20000488 	.word	0x20000488
 80013d4:	20000000 	.word	0x20000000
 80013d8:	20000548 	.word	0x20000548
 80013dc:	200005ce 	.word	0x200005ce
 80013e0:	20000004 	.word	0x20000004
 80013e4:	200005f8 	.word	0x200005f8
 80013e8:	40010c00 	.word	0x40010c00
 80013ec:	0800ee68 	.word	0x0800ee68
 80013f0:	200005cc 	.word	0x200005cc
 80013f4:	0800ee6c 	.word	0x0800ee6c
 80013f8:	200005cd 	.word	0x200005cd
 80013fc:	2000054c 	.word	0x2000054c
 8001400:	20000588 	.word	0x20000588
 8001404:	20000018 	.word	0x20000018
 8001408:	200005f4 	.word	0x200005f4
 800140c:	20000324 	.word	0x20000324
 8001410:	200005d0 	.word	0x200005d0
 8001414:	200005da 	.word	0x200005da
 8001418:	200005e4 	.word	0x200005e4
 800141c:	20000520 	.word	0x20000520
 8001420:	2000051c 	.word	0x2000051c
	  				}
	  			}
	  			//Store data to buffer
	  			else if (count_buffer < N_BUFFER_ESP){
 8001424:	8c7b      	ldrh	r3, [r7, #34]	; 0x22
 8001426:	2b13      	cmp	r3, #19
 8001428:	d831      	bhi.n	800148e <StartADC+0x3a6>
	  				esp_adc = ecg_data.y_notch_1[N_NOTCH-1]/20;
 800142a:	4b4a      	ldr	r3, [pc, #296]	; (8001554 <StartADC+0x46c>)
 800142c:	8b1b      	ldrh	r3, [r3, #24]
 800142e:	4a4a      	ldr	r2, [pc, #296]	; (8001558 <StartADC+0x470>)
 8001430:	fba2 2303 	umull	r2, r3, r2, r3
 8001434:	091b      	lsrs	r3, r3, #4
 8001436:	843b      	strh	r3, [r7, #32]
	  				if(esp_adc >= 100){
 8001438:	8c3b      	ldrh	r3, [r7, #32]
 800143a:	2b63      	cmp	r3, #99	; 0x63
 800143c:	d901      	bls.n	8001442 <StartADC+0x35a>
	  					esp_adc = 0;
 800143e:	2300      	movs	r3, #0
 8001440:	843b      	strh	r3, [r7, #32]
	  				}
	  				memset(&esp_char_buffer, 0, sizeof(esp_char_buffer));
 8001442:	f107 0318 	add.w	r3, r7, #24
 8001446:	2205      	movs	r2, #5
 8001448:	2100      	movs	r1, #0
 800144a:	4618      	mov	r0, r3
 800144c:	f00d f83c 	bl	800e4c8 <memset>
	  				sprintf(esp_char_buffer, "%-2d\n", esp_adc);
 8001450:	8c3a      	ldrh	r2, [r7, #32]
 8001452:	f107 0318 	add.w	r3, r7, #24
 8001456:	4941      	ldr	r1, [pc, #260]	; (800155c <StartADC+0x474>)
 8001458:	4618      	mov	r0, r3
 800145a:	f00d f815 	bl	800e488 <siprintf>
	  				if(~(esp_flag & BUFFER_1_FLAG)){
 800145e:	4b40      	ldr	r3, [pc, #256]	; (8001560 <StartADC+0x478>)
 8001460:	781b      	ldrb	r3, [r3, #0]
 8001462:	b2db      	uxtb	r3, r3
 8001464:	f003 0308 	and.w	r3, r3, #8
 8001468:	f1b3 3fff 	cmp.w	r3, #4294967295
 800146c:	d006      	beq.n	800147c <StartADC+0x394>
	  					strcat(esp_send_buffer_1, esp_char_buffer);
 800146e:	f107 0318 	add.w	r3, r7, #24
 8001472:	4619      	mov	r1, r3
 8001474:	483b      	ldr	r0, [pc, #236]	; (8001564 <StartADC+0x47c>)
 8001476:	f00d f82f 	bl	800e4d8 <strcat>
 800147a:	e005      	b.n	8001488 <StartADC+0x3a0>
	  				}
	  				else{
	  					strcat(esp_send_buffer_2, esp_char_buffer);
 800147c:	f107 0318 	add.w	r3, r7, #24
 8001480:	4619      	mov	r1, r3
 8001482:	4839      	ldr	r0, [pc, #228]	; (8001568 <StartADC+0x480>)
 8001484:	f00d f828 	bl	800e4d8 <strcat>
	  				}
	  				count_buffer++;
 8001488:	8c7b      	ldrh	r3, [r7, #34]	; 0x22
 800148a:	3301      	adds	r3, #1
 800148c:	847b      	strh	r3, [r7, #34]	; 0x22
	  			}
	  		}
	  		osDelay(2);
 800148e:	2002      	movs	r0, #2
 8001490:	f00a fd62 	bl	800bf58 <osDelay>
	  while(navigate== PAGE_NAVIGATION && (Menu.counting == 0 || Menu.counting == 1)){
 8001494:	4b35      	ldr	r3, [pc, #212]	; (800156c <StartADC+0x484>)
 8001496:	781b      	ldrb	r3, [r3, #0]
 8001498:	b2db      	uxtb	r3, r3
 800149a:	2b02      	cmp	r3, #2
 800149c:	d10b      	bne.n	80014b6 <StartADC+0x3ce>
 800149e:	4b34      	ldr	r3, [pc, #208]	; (8001570 <StartADC+0x488>)
 80014a0:	789b      	ldrb	r3, [r3, #2]
 80014a2:	b2db      	uxtb	r3, r3
 80014a4:	2b00      	cmp	r3, #0
 80014a6:	f43f af02 	beq.w	80012ae <StartADC+0x1c6>
 80014aa:	4b31      	ldr	r3, [pc, #196]	; (8001570 <StartADC+0x488>)
 80014ac:	789b      	ldrb	r3, [r3, #2]
 80014ae:	b2db      	uxtb	r3, r3
 80014b0:	2b01      	cmp	r3, #1
 80014b2:	f43f aefc 	beq.w	80012ae <StartADC+0x1c6>
	  	  }
	  	  //HAL_UART_DMAStop(&huart1);
	  	  osDelay(500);
 80014b6:	f44f 70fa 	mov.w	r0, #500	; 0x1f4
 80014ba:	f00a fd4d 	bl	800bf58 <osDelay>
	  	  HAL_UART_Transmit_DMA(&huart1, (uint8_t *) "END", 4);
 80014be:	2204      	movs	r2, #4
 80014c0:	492c      	ldr	r1, [pc, #176]	; (8001574 <StartADC+0x48c>)
 80014c2:	482d      	ldr	r0, [pc, #180]	; (8001578 <StartADC+0x490>)
 80014c4:	f006 fffa 	bl	80084bc <HAL_UART_Transmit_DMA>

	  	  //Set Save file Event flag

	  	  global_flag |= SAVESD_FLAG;
 80014c8:	4b2c      	ldr	r3, [pc, #176]	; (800157c <StartADC+0x494>)
 80014ca:	781b      	ldrb	r3, [r3, #0]
 80014cc:	b2db      	uxtb	r3, r3
 80014ce:	f043 0302 	orr.w	r3, r3, #2
 80014d2:	b2da      	uxtb	r2, r3
 80014d4:	4b29      	ldr	r3, [pc, #164]	; (800157c <StartADC+0x494>)
 80014d6:	701a      	strb	r2, [r3, #0]
 80014d8:	e005      	b.n	80014e6 <StartADC+0x3fe>
	}
	else{
		sleep_count++;
 80014da:	4b29      	ldr	r3, [pc, #164]	; (8001580 <StartADC+0x498>)
 80014dc:	881b      	ldrh	r3, [r3, #0]
 80014de:	3301      	adds	r3, #1
 80014e0:	b29a      	uxth	r2, r3
 80014e2:	4b27      	ldr	r3, [pc, #156]	; (8001580 <StartADC+0x498>)
 80014e4:	801a      	strh	r2, [r3, #0]
	}

	//Sleep
	if((navigate == PAGE_NAVIGATION && Menu.counting == 3) || sleep_count >= 20000){
 80014e6:	4b21      	ldr	r3, [pc, #132]	; (800156c <StartADC+0x484>)
 80014e8:	781b      	ldrb	r3, [r3, #0]
 80014ea:	b2db      	uxtb	r3, r3
 80014ec:	2b02      	cmp	r3, #2
 80014ee:	d104      	bne.n	80014fa <StartADC+0x412>
 80014f0:	4b1f      	ldr	r3, [pc, #124]	; (8001570 <StartADC+0x488>)
 80014f2:	789b      	ldrb	r3, [r3, #2]
 80014f4:	b2db      	uxtb	r3, r3
 80014f6:	2b03      	cmp	r3, #3
 80014f8:	d005      	beq.n	8001506 <StartADC+0x41e>
 80014fa:	4b21      	ldr	r3, [pc, #132]	; (8001580 <StartADC+0x498>)
 80014fc:	881b      	ldrh	r3, [r3, #0]
 80014fe:	f644 621f 	movw	r2, #19999	; 0x4e1f
 8001502:	4293      	cmp	r3, r2
 8001504:	d922      	bls.n	800154c <StartADC+0x464>
		sleep_count = 0;
 8001506:	4b1e      	ldr	r3, [pc, #120]	; (8001580 <StartADC+0x498>)
 8001508:	2200      	movs	r2, #0
 800150a:	801a      	strh	r2, [r3, #0]
		global_flag &= CLEAR_FLAG;
 800150c:	4b1b      	ldr	r3, [pc, #108]	; (800157c <StartADC+0x494>)
 800150e:	781b      	ldrb	r3, [r3, #0]
 8001510:	4b1a      	ldr	r3, [pc, #104]	; (800157c <StartADC+0x494>)
 8001512:	2200      	movs	r2, #0
 8001514:	701a      	strb	r2, [r3, #0]
		ssd1306_Clear();
 8001516:	f001 fd11 	bl	8002f3c <ssd1306_Clear>
		ssd1306_UpdateScreen();
 800151a:	f001 fd45 	bl	8002fa8 <ssd1306_UpdateScreen>
		HAL_UART_Transmit_DMA(&huart1, (uint8_t *) "SL", 3);
 800151e:	2203      	movs	r2, #3
 8001520:	4918      	ldr	r1, [pc, #96]	; (8001584 <StartADC+0x49c>)
 8001522:	4815      	ldr	r0, [pc, #84]	; (8001578 <StartADC+0x490>)
 8001524:	f006 ffca 	bl	80084bc <HAL_UART_Transmit_DMA>
		navigate = 0;
 8001528:	4b10      	ldr	r3, [pc, #64]	; (800156c <StartADC+0x484>)
 800152a:	2200      	movs	r2, #0
 800152c:	701a      	strb	r2, [r3, #0]
		Menu.counting = 0; Menu.pointing = 0; Menu.position = 0;
 800152e:	4b10      	ldr	r3, [pc, #64]	; (8001570 <StartADC+0x488>)
 8001530:	2200      	movs	r2, #0
 8001532:	709a      	strb	r2, [r3, #2]
 8001534:	4b0e      	ldr	r3, [pc, #56]	; (8001570 <StartADC+0x488>)
 8001536:	2200      	movs	r2, #0
 8001538:	705a      	strb	r2, [r3, #1]
 800153a:	4b0d      	ldr	r3, [pc, #52]	; (8001570 <StartADC+0x488>)
 800153c:	2200      	movs	r2, #0
 800153e:	701a      	strb	r2, [r3, #0]
		HAL_SuspendTick();
 8001540:	f001 ff54 	bl	80033ec <HAL_SuspendTick>
		HAL_PWR_EnterSLEEPMode(PWR_LOWPOWERREGULATOR_ON, PWR_SLEEPENTRY_WFI);
 8001544:	2101      	movs	r1, #1
 8001546:	2001      	movs	r0, #1
 8001548:	f005 fca8 	bl	8006e9c <HAL_PWR_EnterSLEEPMode>
		//HAL_ResumeTick();
	}

	osDelay(1);
 800154c:	2001      	movs	r0, #1
 800154e:	f00a fd03 	bl	800bf58 <osDelay>
	if(oled_flag & SET_FLAG){
 8001552:	e5f9      	b.n	8001148 <StartADC+0x60>
 8001554:	200005d0 	.word	0x200005d0
 8001558:	cccccccd 	.word	0xcccccccd
 800155c:	0800ee70 	.word	0x0800ee70
 8001560:	200005cd 	.word	0x200005cd
 8001564:	2000054c 	.word	0x2000054c
 8001568:	20000588 	.word	0x20000588
 800156c:	200005ce 	.word	0x200005ce
 8001570:	200005f8 	.word	0x200005f8
 8001574:	0800ee78 	.word	0x0800ee78
 8001578:	20000488 	.word	0x20000488
 800157c:	200005cc 	.word	0x200005cc
 8001580:	20000548 	.word	0x20000548
 8001584:	0800ee64 	.word	0x0800ee64

08001588 <StartSD>:
* @param argument: Not used
* @retval None
*/
/* USER CODE END Header_StartSD */
void StartSD(void const * argument)
{
 8001588:	b580      	push	{r7, lr}
 800158a:	b086      	sub	sp, #24
 800158c:	af00      	add	r7, sp, #0
 800158e:	6078      	str	r0, [r7, #4]
  /* USER CODE BEGIN StartSD */
	//HAL_SPI_MspDeInit(&hspi1);
	char sd_buffer[5];
	char num_to_char[4];
	Mount_SD("/");
 8001590:	4865      	ldr	r0, [pc, #404]	; (8001728 <StartSD+0x1a0>)
 8001592:	f001 fdc5 	bl	8003120 <Mount_SD>
	osDelay(500);
 8001596:	f44f 70fa 	mov.w	r0, #500	; 0x1f4
 800159a:	f00a fcdd 	bl	800bf58 <osDelay>
	HAL_SPI_MspDeInit(&hspi1);
 800159e:	4863      	ldr	r0, [pc, #396]	; (800172c <StartSD+0x1a4>)
 80015a0:	f000 fa46 	bl	8001a30 <HAL_SPI_MspDeInit>
  /* Infinite loop */
  for(;;)
  {
	//Create file Event
	if(global_flag&OPENSD_FLAG){
 80015a4:	4b62      	ldr	r3, [pc, #392]	; (8001730 <StartSD+0x1a8>)
 80015a6:	781b      	ldrb	r3, [r3, #0]
 80015a8:	b2db      	uxtb	r3, r3
 80015aa:	f003 0304 	and.w	r3, r3, #4
 80015ae:	2b00      	cmp	r3, #0
 80015b0:	d011      	beq.n	80015d6 <StartSD+0x4e>
	  osDelay(500);
 80015b2:	f44f 70fa 	mov.w	r0, #500	; 0x1f4
 80015b6:	f00a fccf 	bl	800bf58 <osDelay>
      HAL_SPI_MspInit(&hspi1);
 80015ba:	485c      	ldr	r0, [pc, #368]	; (800172c <StartSD+0x1a4>)
 80015bc:	f000 f9e6 	bl	800198c <HAL_SPI_MspInit>

      global_flag &= ~OPENSD_FLAG;
 80015c0:	4b5b      	ldr	r3, [pc, #364]	; (8001730 <StartSD+0x1a8>)
 80015c2:	781b      	ldrb	r3, [r3, #0]
 80015c4:	b2db      	uxtb	r3, r3
 80015c6:	f023 0304 	bic.w	r3, r3, #4
 80015ca:	b2da      	uxtb	r2, r3
 80015cc:	4b58      	ldr	r3, [pc, #352]	; (8001730 <StartSD+0x1a8>)
 80015ce:	701a      	strb	r2, [r3, #0]
      //global_flag &= CLEAR_FLAG;
	  Open_File("");
 80015d0:	4858      	ldr	r0, [pc, #352]	; (8001734 <StartSD+0x1ac>)
 80015d2:	f001 fdcd 	bl	8003170 <Open_File>
	}

	//Write data Event
	if(global_flag&SEND_FLAG){
 80015d6:	4b56      	ldr	r3, [pc, #344]	; (8001730 <StartSD+0x1a8>)
 80015d8:	781b      	ldrb	r3, [r3, #0]
 80015da:	b2db      	uxtb	r3, r3
 80015dc:	f003 0301 	and.w	r3, r3, #1
 80015e0:	2b00      	cmp	r3, #0
 80015e2:	d078      	beq.n	80016d6 <StartSD+0x14e>
		//Write data to SD_Card File
		osMutexWait(MutexHandle, osWaitForever);
 80015e4:	4b54      	ldr	r3, [pc, #336]	; (8001738 <StartSD+0x1b0>)
 80015e6:	681b      	ldr	r3, [r3, #0]
 80015e8:	f04f 31ff 	mov.w	r1, #4294967295
 80015ec:	4618      	mov	r0, r3
 80015ee:	f00a fcdf 	bl	800bfb0 <osMutexWait>
		global_flag &= ~SEND_FLAG;
 80015f2:	4b4f      	ldr	r3, [pc, #316]	; (8001730 <StartSD+0x1a8>)
 80015f4:	781b      	ldrb	r3, [r3, #0]
 80015f6:	b2db      	uxtb	r3, r3
 80015f8:	f023 0301 	bic.w	r3, r3, #1
 80015fc:	b2da      	uxtb	r2, r3
 80015fe:	4b4c      	ldr	r3, [pc, #304]	; (8001730 <StartSD+0x1a8>)
 8001600:	701a      	strb	r2, [r3, #0]
		//global_flag &= CLEAR_FLAG;
		for(int i = 1; i < N_SEND; i++){
 8001602:	2301      	movs	r3, #1
 8001604:	617b      	str	r3, [r7, #20]
 8001606:	e05e      	b.n	80016c6 <StartSD+0x13e>
			num_to_char[0] = global_adc[i]/1000;
 8001608:	4a4c      	ldr	r2, [pc, #304]	; (800173c <StartSD+0x1b4>)
 800160a:	697b      	ldr	r3, [r7, #20]
 800160c:	f832 3013 	ldrh.w	r3, [r2, r3, lsl #1]
 8001610:	4a4b      	ldr	r2, [pc, #300]	; (8001740 <StartSD+0x1b8>)
 8001612:	fba2 2303 	umull	r2, r3, r2, r3
 8001616:	099b      	lsrs	r3, r3, #6
 8001618:	b29b      	uxth	r3, r3
 800161a:	b2db      	uxtb	r3, r3
 800161c:	723b      	strb	r3, [r7, #8]
			num_to_char[1] = (global_adc[i]/100)%10;
 800161e:	4a47      	ldr	r2, [pc, #284]	; (800173c <StartSD+0x1b4>)
 8001620:	697b      	ldr	r3, [r7, #20]
 8001622:	f832 3013 	ldrh.w	r3, [r2, r3, lsl #1]
 8001626:	4a47      	ldr	r2, [pc, #284]	; (8001744 <StartSD+0x1bc>)
 8001628:	fba2 2303 	umull	r2, r3, r2, r3
 800162c:	095b      	lsrs	r3, r3, #5
 800162e:	b29a      	uxth	r2, r3
 8001630:	4b45      	ldr	r3, [pc, #276]	; (8001748 <StartSD+0x1c0>)
 8001632:	fba3 1302 	umull	r1, r3, r3, r2
 8001636:	08d9      	lsrs	r1, r3, #3
 8001638:	460b      	mov	r3, r1
 800163a:	009b      	lsls	r3, r3, #2
 800163c:	440b      	add	r3, r1
 800163e:	005b      	lsls	r3, r3, #1
 8001640:	1ad3      	subs	r3, r2, r3
 8001642:	b29b      	uxth	r3, r3
 8001644:	b2db      	uxtb	r3, r3
 8001646:	727b      	strb	r3, [r7, #9]
			num_to_char[2] = (global_adc[i]/10)%10;
 8001648:	4a3c      	ldr	r2, [pc, #240]	; (800173c <StartSD+0x1b4>)
 800164a:	697b      	ldr	r3, [r7, #20]
 800164c:	f832 3013 	ldrh.w	r3, [r2, r3, lsl #1]
 8001650:	4a3d      	ldr	r2, [pc, #244]	; (8001748 <StartSD+0x1c0>)
 8001652:	fba2 2303 	umull	r2, r3, r2, r3
 8001656:	08db      	lsrs	r3, r3, #3
 8001658:	b29a      	uxth	r2, r3
 800165a:	4b3b      	ldr	r3, [pc, #236]	; (8001748 <StartSD+0x1c0>)
 800165c:	fba3 1302 	umull	r1, r3, r3, r2
 8001660:	08d9      	lsrs	r1, r3, #3
 8001662:	460b      	mov	r3, r1
 8001664:	009b      	lsls	r3, r3, #2
 8001666:	440b      	add	r3, r1
 8001668:	005b      	lsls	r3, r3, #1
 800166a:	1ad3      	subs	r3, r2, r3
 800166c:	b29b      	uxth	r3, r3
 800166e:	b2db      	uxtb	r3, r3
 8001670:	72bb      	strb	r3, [r7, #10]
			num_to_char[3] = global_adc[i]%10;
 8001672:	4a32      	ldr	r2, [pc, #200]	; (800173c <StartSD+0x1b4>)
 8001674:	697b      	ldr	r3, [r7, #20]
 8001676:	f832 2013 	ldrh.w	r2, [r2, r3, lsl #1]
 800167a:	4b33      	ldr	r3, [pc, #204]	; (8001748 <StartSD+0x1c0>)
 800167c:	fba3 1302 	umull	r1, r3, r3, r2
 8001680:	08d9      	lsrs	r1, r3, #3
 8001682:	460b      	mov	r3, r1
 8001684:	009b      	lsls	r3, r3, #2
 8001686:	440b      	add	r3, r1
 8001688:	005b      	lsls	r3, r3, #1
 800168a:	1ad3      	subs	r3, r2, r3
 800168c:	b29b      	uxth	r3, r3
 800168e:	b2db      	uxtb	r3, r3
 8001690:	72fb      	strb	r3, [r7, #11]

			sd_buffer[0] = num_to_char[0] + 48;
 8001692:	7a3b      	ldrb	r3, [r7, #8]
 8001694:	3330      	adds	r3, #48	; 0x30
 8001696:	b2db      	uxtb	r3, r3
 8001698:	733b      	strb	r3, [r7, #12]
			sd_buffer[1] = num_to_char[1] + 48;
 800169a:	7a7b      	ldrb	r3, [r7, #9]
 800169c:	3330      	adds	r3, #48	; 0x30
 800169e:	b2db      	uxtb	r3, r3
 80016a0:	737b      	strb	r3, [r7, #13]
			sd_buffer[2] = num_to_char[2] + 48;
 80016a2:	7abb      	ldrb	r3, [r7, #10]
 80016a4:	3330      	adds	r3, #48	; 0x30
 80016a6:	b2db      	uxtb	r3, r3
 80016a8:	73bb      	strb	r3, [r7, #14]
			sd_buffer[3] = num_to_char[3] + 48;
 80016aa:	7afb      	ldrb	r3, [r7, #11]
 80016ac:	3330      	adds	r3, #48	; 0x30
 80016ae:	b2db      	uxtb	r3, r3
 80016b0:	73fb      	strb	r3, [r7, #15]
			sd_buffer[4] = '\n';
 80016b2:	230a      	movs	r3, #10
 80016b4:	743b      	strb	r3, [r7, #16]
			Write_File(sd_buffer);
 80016b6:	f107 030c 	add.w	r3, r7, #12
 80016ba:	4618      	mov	r0, r3
 80016bc:	f001 fdd4 	bl	8003268 <Write_File>
		for(int i = 1; i < N_SEND; i++){
 80016c0:	697b      	ldr	r3, [r7, #20]
 80016c2:	3301      	adds	r3, #1
 80016c4:	617b      	str	r3, [r7, #20]
 80016c6:	697b      	ldr	r3, [r7, #20]
 80016c8:	2b13      	cmp	r3, #19
 80016ca:	dd9d      	ble.n	8001608 <StartSD+0x80>
		}
		osMutexRelease(MutexHandle);
 80016cc:	4b1a      	ldr	r3, [pc, #104]	; (8001738 <StartSD+0x1b0>)
 80016ce:	681b      	ldr	r3, [r3, #0]
 80016d0:	4618      	mov	r0, r3
 80016d2:	f00a fcbb 	bl	800c04c <osMutexRelease>
	}

	//Save file Event
	if(global_flag & SAVESD_FLAG){
 80016d6:	4b16      	ldr	r3, [pc, #88]	; (8001730 <StartSD+0x1a8>)
 80016d8:	781b      	ldrb	r3, [r3, #0]
 80016da:	b2db      	uxtb	r3, r3
 80016dc:	f003 0302 	and.w	r3, r3, #2
 80016e0:	2b00      	cmp	r3, #0
 80016e2:	d01d      	beq.n	8001720 <StartSD+0x198>
		global_flag &= ~SAVESD_FLAG;
 80016e4:	4b12      	ldr	r3, [pc, #72]	; (8001730 <StartSD+0x1a8>)
 80016e6:	781b      	ldrb	r3, [r3, #0]
 80016e8:	b2db      	uxtb	r3, r3
 80016ea:	f023 0302 	bic.w	r3, r3, #2
 80016ee:	b2da      	uxtb	r2, r3
 80016f0:	4b0f      	ldr	r3, [pc, #60]	; (8001730 <StartSD+0x1a8>)
 80016f2:	701a      	strb	r2, [r3, #0]
		//global_flag &= CLEAR_FLAG;
		Close_File();
 80016f4:	f001 fd2a 	bl	800314c <Close_File>
		osDelay(100);
 80016f8:	2064      	movs	r0, #100	; 0x64
 80016fa:	f00a fc2d 	bl	800bf58 <osDelay>
		HAL_SPI_MspDeInit(&hspi1);
 80016fe:	480b      	ldr	r0, [pc, #44]	; (800172c <StartSD+0x1a4>)
 8001700:	f000 f996 	bl	8001a30 <HAL_SPI_MspDeInit>
		HAL_GPIO_WritePin(GPIOA, GPIO_PIN_4, GPIO_PIN_RESET);
 8001704:	2200      	movs	r2, #0
 8001706:	2110      	movs	r1, #16
 8001708:	4810      	ldr	r0, [pc, #64]	; (800174c <StartSD+0x1c4>)
 800170a:	f003 f8e1 	bl	80048d0 <HAL_GPIO_WritePin>
		osDelay(1000);
 800170e:	f44f 707a 	mov.w	r0, #1000	; 0x3e8
 8001712:	f00a fc21 	bl	800bf58 <osDelay>
		HAL_UART_Transmit_DMA(&huart1, (uint8_t *) "SD", 3);
 8001716:	2203      	movs	r2, #3
 8001718:	490d      	ldr	r1, [pc, #52]	; (8001750 <StartSD+0x1c8>)
 800171a:	480e      	ldr	r0, [pc, #56]	; (8001754 <StartSD+0x1cc>)
 800171c:	f006 fece 	bl	80084bc <HAL_UART_Transmit_DMA>
	}
    osDelay(1);
 8001720:	2001      	movs	r0, #1
 8001722:	f00a fc19 	bl	800bf58 <osDelay>
	if(global_flag&OPENSD_FLAG){
 8001726:	e73d      	b.n	80015a4 <StartSD+0x1c>
 8001728:	0800ee7c 	.word	0x0800ee7c
 800172c:	20000430 	.word	0x20000430
 8001730:	200005cc 	.word	0x200005cc
 8001734:	0800ee80 	.word	0x0800ee80
 8001738:	2000051c 	.word	0x2000051c
 800173c:	20000520 	.word	0x20000520
 8001740:	10624dd3 	.word	0x10624dd3
 8001744:	51eb851f 	.word	0x51eb851f
 8001748:	cccccccd 	.word	0xcccccccd
 800174c:	40010800 	.word	0x40010800
 8001750:	0800ee44 	.word	0x0800ee44
 8001754:	20000488 	.word	0x20000488

08001758 <Error_Handler>:
/**
  * @brief  This function is executed in case of error occurrence.
  * @retval None
  */
void Error_Handler(void)
{
 8001758:	b480      	push	{r7}
 800175a:	af00      	add	r7, sp, #0
  __ASM volatile ("cpsid i" : : : "memory");
 800175c:	b672      	cpsid	i
}
 800175e:	bf00      	nop
  /* USER CODE BEGIN Error_Handler_Debug */
  /* User can add his own implementation to report the HAL error return state */
  __disable_irq();
  while (1)
 8001760:	e7fe      	b.n	8001760 <Error_Handler+0x8>
	...

08001764 <HAL_MspInit>:
/* USER CODE END 0 */
/**
  * Initializes the Global MSP.
  */
void HAL_MspInit(void)
{
 8001764:	b580      	push	{r7, lr}
 8001766:	b084      	sub	sp, #16
 8001768:	af00      	add	r7, sp, #0
  /* USER CODE BEGIN MspInit 0 */

  /* USER CODE END MspInit 0 */

  __HAL_RCC_AFIO_CLK_ENABLE();
 800176a:	4b18      	ldr	r3, [pc, #96]	; (80017cc <HAL_MspInit+0x68>)
 800176c:	699b      	ldr	r3, [r3, #24]
 800176e:	4a17      	ldr	r2, [pc, #92]	; (80017cc <HAL_MspInit+0x68>)
 8001770:	f043 0301 	orr.w	r3, r3, #1
 8001774:	6193      	str	r3, [r2, #24]
 8001776:	4b15      	ldr	r3, [pc, #84]	; (80017cc <HAL_MspInit+0x68>)
 8001778:	699b      	ldr	r3, [r3, #24]
 800177a:	f003 0301 	and.w	r3, r3, #1
 800177e:	60bb      	str	r3, [r7, #8]
 8001780:	68bb      	ldr	r3, [r7, #8]
  __HAL_RCC_PWR_CLK_ENABLE();
 8001782:	4b12      	ldr	r3, [pc, #72]	; (80017cc <HAL_MspInit+0x68>)
 8001784:	69db      	ldr	r3, [r3, #28]
 8001786:	4a11      	ldr	r2, [pc, #68]	; (80017cc <HAL_MspInit+0x68>)
 8001788:	f043 5380 	orr.w	r3, r3, #268435456	; 0x10000000
 800178c:	61d3      	str	r3, [r2, #28]
 800178e:	4b0f      	ldr	r3, [pc, #60]	; (80017cc <HAL_MspInit+0x68>)
 8001790:	69db      	ldr	r3, [r3, #28]
 8001792:	f003 5380 	and.w	r3, r3, #268435456	; 0x10000000
 8001796:	607b      	str	r3, [r7, #4]
 8001798:	687b      	ldr	r3, [r7, #4]

  /* System interrupt init*/
  /* PendSV_IRQn interrupt configuration */
  HAL_NVIC_SetPriority(PendSV_IRQn, 15, 0);
 800179a:	2200      	movs	r2, #0
 800179c:	210f      	movs	r1, #15
 800179e:	f06f 0001 	mvn.w	r0, #1
 80017a2:	f002 fb06 	bl	8003db2 <HAL_NVIC_SetPriority>

  /** NOJTAG: JTAG-DP Disabled and SW-DP Enabled
  */
  __HAL_AFIO_REMAP_SWJ_NOJTAG();
 80017a6:	4b0a      	ldr	r3, [pc, #40]	; (80017d0 <HAL_MspInit+0x6c>)
 80017a8:	685b      	ldr	r3, [r3, #4]
 80017aa:	60fb      	str	r3, [r7, #12]
 80017ac:	68fb      	ldr	r3, [r7, #12]
 80017ae:	f023 63e0 	bic.w	r3, r3, #117440512	; 0x7000000
 80017b2:	60fb      	str	r3, [r7, #12]
 80017b4:	68fb      	ldr	r3, [r7, #12]
 80017b6:	f043 7300 	orr.w	r3, r3, #33554432	; 0x2000000
 80017ba:	60fb      	str	r3, [r7, #12]
 80017bc:	4a04      	ldr	r2, [pc, #16]	; (80017d0 <HAL_MspInit+0x6c>)
 80017be:	68fb      	ldr	r3, [r7, #12]
 80017c0:	6053      	str	r3, [r2, #4]

  /* USER CODE BEGIN MspInit 1 */

  /* USER CODE END MspInit 1 */
}
 80017c2:	bf00      	nop
 80017c4:	3710      	adds	r7, #16
 80017c6:	46bd      	mov	sp, r7
 80017c8:	bd80      	pop	{r7, pc}
 80017ca:	bf00      	nop
 80017cc:	40021000 	.word	0x40021000
 80017d0:	40010000 	.word	0x40010000

080017d4 <HAL_ADC_MspInit>:
* This function configures the hardware resources used in this example
* @param hadc: ADC handle pointer
* @retval None
*/
void HAL_ADC_MspInit(ADC_HandleTypeDef* hadc)
{
 80017d4:	b580      	push	{r7, lr}
 80017d6:	b088      	sub	sp, #32
 80017d8:	af00      	add	r7, sp, #0
 80017da:	6078      	str	r0, [r7, #4]
  GPIO_InitTypeDef GPIO_InitStruct = {0};
 80017dc:	f107 0310 	add.w	r3, r7, #16
 80017e0:	2200      	movs	r2, #0
 80017e2:	601a      	str	r2, [r3, #0]
 80017e4:	605a      	str	r2, [r3, #4]
 80017e6:	609a      	str	r2, [r3, #8]
 80017e8:	60da      	str	r2, [r3, #12]
  if(hadc->Instance==ADC1)
 80017ea:	687b      	ldr	r3, [r7, #4]
 80017ec:	681b      	ldr	r3, [r3, #0]
 80017ee:	4a29      	ldr	r2, [pc, #164]	; (8001894 <HAL_ADC_MspInit+0xc0>)
 80017f0:	4293      	cmp	r3, r2
 80017f2:	d14a      	bne.n	800188a <HAL_ADC_MspInit+0xb6>
  {
  /* USER CODE BEGIN ADC1_MspInit 0 */

  /* USER CODE END ADC1_MspInit 0 */
    /* Peripheral clock enable */
    __HAL_RCC_ADC1_CLK_ENABLE();
 80017f4:	4b28      	ldr	r3, [pc, #160]	; (8001898 <HAL_ADC_MspInit+0xc4>)
 80017f6:	699b      	ldr	r3, [r3, #24]
 80017f8:	4a27      	ldr	r2, [pc, #156]	; (8001898 <HAL_ADC_MspInit+0xc4>)
 80017fa:	f443 7300 	orr.w	r3, r3, #512	; 0x200
 80017fe:	6193      	str	r3, [r2, #24]
 8001800:	4b25      	ldr	r3, [pc, #148]	; (8001898 <HAL_ADC_MspInit+0xc4>)
 8001802:	699b      	ldr	r3, [r3, #24]
 8001804:	f403 7300 	and.w	r3, r3, #512	; 0x200
 8001808:	60fb      	str	r3, [r7, #12]
 800180a:	68fb      	ldr	r3, [r7, #12]

    __HAL_RCC_GPIOA_CLK_ENABLE();
 800180c:	4b22      	ldr	r3, [pc, #136]	; (8001898 <HAL_ADC_MspInit+0xc4>)
 800180e:	699b      	ldr	r3, [r3, #24]
 8001810:	4a21      	ldr	r2, [pc, #132]	; (8001898 <HAL_ADC_MspInit+0xc4>)
 8001812:	f043 0304 	orr.w	r3, r3, #4
 8001816:	6193      	str	r3, [r2, #24]
 8001818:	4b1f      	ldr	r3, [pc, #124]	; (8001898 <HAL_ADC_MspInit+0xc4>)
 800181a:	699b      	ldr	r3, [r3, #24]
 800181c:	f003 0304 	and.w	r3, r3, #4
 8001820:	60bb      	str	r3, [r7, #8]
 8001822:	68bb      	ldr	r3, [r7, #8]
    /**ADC1 GPIO Configuration
    PA0-WKUP     ------> ADC1_IN0
    */
    GPIO_InitStruct.Pin = GPIO_PIN_0;
 8001824:	2301      	movs	r3, #1
 8001826:	613b      	str	r3, [r7, #16]
    GPIO_InitStruct.Mode = GPIO_MODE_ANALOG;
 8001828:	2303      	movs	r3, #3
 800182a:	617b      	str	r3, [r7, #20]
    HAL_GPIO_Init(GPIOA, &GPIO_InitStruct);
 800182c:	f107 0310 	add.w	r3, r7, #16
 8001830:	4619      	mov	r1, r3
 8001832:	481a      	ldr	r0, [pc, #104]	; (800189c <HAL_ADC_MspInit+0xc8>)
 8001834:	f002 fe0c 	bl	8004450 <HAL_GPIO_Init>

    /* ADC1 DMA Init */
    /* ADC1 Init */
    hdma_adc1.Instance = DMA1_Channel1;
 8001838:	4b19      	ldr	r3, [pc, #100]	; (80018a0 <HAL_ADC_MspInit+0xcc>)
 800183a:	4a1a      	ldr	r2, [pc, #104]	; (80018a4 <HAL_ADC_MspInit+0xd0>)
 800183c:	601a      	str	r2, [r3, #0]
    hdma_adc1.Init.Direction = DMA_PERIPH_TO_MEMORY;
 800183e:	4b18      	ldr	r3, [pc, #96]	; (80018a0 <HAL_ADC_MspInit+0xcc>)
 8001840:	2200      	movs	r2, #0
 8001842:	605a      	str	r2, [r3, #4]
    hdma_adc1.Init.PeriphInc = DMA_PINC_DISABLE;
 8001844:	4b16      	ldr	r3, [pc, #88]	; (80018a0 <HAL_ADC_MspInit+0xcc>)
 8001846:	2200      	movs	r2, #0
 8001848:	609a      	str	r2, [r3, #8]
    hdma_adc1.Init.MemInc = DMA_MINC_ENABLE;
 800184a:	4b15      	ldr	r3, [pc, #84]	; (80018a0 <HAL_ADC_MspInit+0xcc>)
 800184c:	2280      	movs	r2, #128	; 0x80
 800184e:	60da      	str	r2, [r3, #12]
    hdma_adc1.Init.PeriphDataAlignment = DMA_PDATAALIGN_HALFWORD;
 8001850:	4b13      	ldr	r3, [pc, #76]	; (80018a0 <HAL_ADC_MspInit+0xcc>)
 8001852:	f44f 7280 	mov.w	r2, #256	; 0x100
 8001856:	611a      	str	r2, [r3, #16]
    hdma_adc1.Init.MemDataAlignment = DMA_MDATAALIGN_HALFWORD;
 8001858:	4b11      	ldr	r3, [pc, #68]	; (80018a0 <HAL_ADC_MspInit+0xcc>)
 800185a:	f44f 6280 	mov.w	r2, #1024	; 0x400
 800185e:	615a      	str	r2, [r3, #20]
    hdma_adc1.Init.Mode = DMA_NORMAL;
 8001860:	4b0f      	ldr	r3, [pc, #60]	; (80018a0 <HAL_ADC_MspInit+0xcc>)
 8001862:	2200      	movs	r2, #0
 8001864:	619a      	str	r2, [r3, #24]
    hdma_adc1.Init.Priority = DMA_PRIORITY_VERY_HIGH;
 8001866:	4b0e      	ldr	r3, [pc, #56]	; (80018a0 <HAL_ADC_MspInit+0xcc>)
 8001868:	f44f 5240 	mov.w	r2, #12288	; 0x3000
 800186c:	61da      	str	r2, [r3, #28]
    if (HAL_DMA_Init(&hdma_adc1) != HAL_OK)
 800186e:	480c      	ldr	r0, [pc, #48]	; (80018a0 <HAL_ADC_MspInit+0xcc>)
 8001870:	f002 fae4 	bl	8003e3c <HAL_DMA_Init>
 8001874:	4603      	mov	r3, r0
 8001876:	2b00      	cmp	r3, #0
 8001878:	d001      	beq.n	800187e <HAL_ADC_MspInit+0xaa>
    {
      Error_Handler();
 800187a:	f7ff ff6d 	bl	8001758 <Error_Handler>
    }

    __HAL_LINKDMA(hadc,DMA_Handle,hdma_adc1);
 800187e:	687b      	ldr	r3, [r7, #4]
 8001880:	4a07      	ldr	r2, [pc, #28]	; (80018a0 <HAL_ADC_MspInit+0xcc>)
 8001882:	621a      	str	r2, [r3, #32]
 8001884:	4a06      	ldr	r2, [pc, #24]	; (80018a0 <HAL_ADC_MspInit+0xcc>)
 8001886:	687b      	ldr	r3, [r7, #4]
 8001888:	6253      	str	r3, [r2, #36]	; 0x24
  /* USER CODE BEGIN ADC1_MspInit 1 */

  /* USER CODE END ADC1_MspInit 1 */
  }

}
 800188a:	bf00      	nop
 800188c:	3720      	adds	r7, #32
 800188e:	46bd      	mov	sp, r7
 8001890:	bd80      	pop	{r7, pc}
 8001892:	bf00      	nop
 8001894:	40012400 	.word	0x40012400
 8001898:	40021000 	.word	0x40021000
 800189c:	40010800 	.word	0x40010800
 80018a0:	20000354 	.word	0x20000354
 80018a4:	40020008 	.word	0x40020008

080018a8 <HAL_I2C_MspInit>:
* This function configures the hardware resources used in this example
* @param hi2c: I2C handle pointer
* @retval None
*/
void HAL_I2C_MspInit(I2C_HandleTypeDef* hi2c)
{
 80018a8:	b580      	push	{r7, lr}
 80018aa:	b088      	sub	sp, #32
 80018ac:	af00      	add	r7, sp, #0
 80018ae:	6078      	str	r0, [r7, #4]
  GPIO_InitTypeDef GPIO_InitStruct = {0};
 80018b0:	f107 0310 	add.w	r3, r7, #16
 80018b4:	2200      	movs	r2, #0
 80018b6:	601a      	str	r2, [r3, #0]
 80018b8:	605a      	str	r2, [r3, #4]
 80018ba:	609a      	str	r2, [r3, #8]
 80018bc:	60da      	str	r2, [r3, #12]
  if(hi2c->Instance==I2C1)
 80018be:	687b      	ldr	r3, [r7, #4]
 80018c0:	681b      	ldr	r3, [r3, #0]
 80018c2:	4a2d      	ldr	r2, [pc, #180]	; (8001978 <HAL_I2C_MspInit+0xd0>)
 80018c4:	4293      	cmp	r3, r2
 80018c6:	d152      	bne.n	800196e <HAL_I2C_MspInit+0xc6>
  {
  /* USER CODE BEGIN I2C1_MspInit 0 */

  /* USER CODE END I2C1_MspInit 0 */

    __HAL_RCC_GPIOB_CLK_ENABLE();
 80018c8:	4b2c      	ldr	r3, [pc, #176]	; (800197c <HAL_I2C_MspInit+0xd4>)
 80018ca:	699b      	ldr	r3, [r3, #24]
 80018cc:	4a2b      	ldr	r2, [pc, #172]	; (800197c <HAL_I2C_MspInit+0xd4>)
 80018ce:	f043 0308 	orr.w	r3, r3, #8
 80018d2:	6193      	str	r3, [r2, #24]
 80018d4:	4b29      	ldr	r3, [pc, #164]	; (800197c <HAL_I2C_MspInit+0xd4>)
 80018d6:	699b      	ldr	r3, [r3, #24]
 80018d8:	f003 0308 	and.w	r3, r3, #8
 80018dc:	60fb      	str	r3, [r7, #12]
 80018de:	68fb      	ldr	r3, [r7, #12]
    /**I2C1 GPIO Configuration
    PB6     ------> I2C1_SCL
    PB7     ------> I2C1_SDA
    */
    GPIO_InitStruct.Pin = GPIO_PIN_6|GPIO_PIN_7;
 80018e0:	23c0      	movs	r3, #192	; 0xc0
 80018e2:	613b      	str	r3, [r7, #16]
    GPIO_InitStruct.Mode = GPIO_MODE_AF_OD;
 80018e4:	2312      	movs	r3, #18
 80018e6:	617b      	str	r3, [r7, #20]
    GPIO_InitStruct.Speed = GPIO_SPEED_FREQ_HIGH;
 80018e8:	2303      	movs	r3, #3
 80018ea:	61fb      	str	r3, [r7, #28]
    HAL_GPIO_Init(GPIOB, &GPIO_InitStruct);
 80018ec:	f107 0310 	add.w	r3, r7, #16
 80018f0:	4619      	mov	r1, r3
 80018f2:	4823      	ldr	r0, [pc, #140]	; (8001980 <HAL_I2C_MspInit+0xd8>)
 80018f4:	f002 fdac 	bl	8004450 <HAL_GPIO_Init>

    /* Peripheral clock enable */
    __HAL_RCC_I2C1_CLK_ENABLE();
 80018f8:	4b20      	ldr	r3, [pc, #128]	; (800197c <HAL_I2C_MspInit+0xd4>)
 80018fa:	69db      	ldr	r3, [r3, #28]
 80018fc:	4a1f      	ldr	r2, [pc, #124]	; (800197c <HAL_I2C_MspInit+0xd4>)
 80018fe:	f443 1300 	orr.w	r3, r3, #2097152	; 0x200000
 8001902:	61d3      	str	r3, [r2, #28]
 8001904:	4b1d      	ldr	r3, [pc, #116]	; (800197c <HAL_I2C_MspInit+0xd4>)
 8001906:	69db      	ldr	r3, [r3, #28]
 8001908:	f403 1300 	and.w	r3, r3, #2097152	; 0x200000
 800190c:	60bb      	str	r3, [r7, #8]
 800190e:	68bb      	ldr	r3, [r7, #8]

    /* I2C1 DMA Init */
    /* I2C1_TX Init */
    hdma_i2c1_tx.Instance = DMA1_Channel6;
 8001910:	4b1c      	ldr	r3, [pc, #112]	; (8001984 <HAL_I2C_MspInit+0xdc>)
 8001912:	4a1d      	ldr	r2, [pc, #116]	; (8001988 <HAL_I2C_MspInit+0xe0>)
 8001914:	601a      	str	r2, [r3, #0]
    hdma_i2c1_tx.Init.Direction = DMA_MEMORY_TO_PERIPH;
 8001916:	4b1b      	ldr	r3, [pc, #108]	; (8001984 <HAL_I2C_MspInit+0xdc>)
 8001918:	2210      	movs	r2, #16
 800191a:	605a      	str	r2, [r3, #4]
    hdma_i2c1_tx.Init.PeriphInc = DMA_PINC_DISABLE;
 800191c:	4b19      	ldr	r3, [pc, #100]	; (8001984 <HAL_I2C_MspInit+0xdc>)
 800191e:	2200      	movs	r2, #0
 8001920:	609a      	str	r2, [r3, #8]
    hdma_i2c1_tx.Init.MemInc = DMA_MINC_ENABLE;
 8001922:	4b18      	ldr	r3, [pc, #96]	; (8001984 <HAL_I2C_MspInit+0xdc>)
 8001924:	2280      	movs	r2, #128	; 0x80
 8001926:	60da      	str	r2, [r3, #12]
    hdma_i2c1_tx.Init.PeriphDataAlignment = DMA_PDATAALIGN_BYTE;
 8001928:	4b16      	ldr	r3, [pc, #88]	; (8001984 <HAL_I2C_MspInit+0xdc>)
 800192a:	2200      	movs	r2, #0
 800192c:	611a      	str	r2, [r3, #16]
    hdma_i2c1_tx.Init.MemDataAlignment = DMA_MDATAALIGN_BYTE;
 800192e:	4b15      	ldr	r3, [pc, #84]	; (8001984 <HAL_I2C_MspInit+0xdc>)
 8001930:	2200      	movs	r2, #0
 8001932:	615a      	str	r2, [r3, #20]
    hdma_i2c1_tx.Init.Mode = DMA_NORMAL;
 8001934:	4b13      	ldr	r3, [pc, #76]	; (8001984 <HAL_I2C_MspInit+0xdc>)
 8001936:	2200      	movs	r2, #0
 8001938:	619a      	str	r2, [r3, #24]
    hdma_i2c1_tx.Init.Priority = DMA_PRIORITY_MEDIUM;
 800193a:	4b12      	ldr	r3, [pc, #72]	; (8001984 <HAL_I2C_MspInit+0xdc>)
 800193c:	f44f 5280 	mov.w	r2, #4096	; 0x1000
 8001940:	61da      	str	r2, [r3, #28]
    if (HAL_DMA_Init(&hdma_i2c1_tx) != HAL_OK)
 8001942:	4810      	ldr	r0, [pc, #64]	; (8001984 <HAL_I2C_MspInit+0xdc>)
 8001944:	f002 fa7a 	bl	8003e3c <HAL_DMA_Init>
 8001948:	4603      	mov	r3, r0
 800194a:	2b00      	cmp	r3, #0
 800194c:	d001      	beq.n	8001952 <HAL_I2C_MspInit+0xaa>
    {
      Error_Handler();
 800194e:	f7ff ff03 	bl	8001758 <Error_Handler>
    }

    __HAL_LINKDMA(hi2c,hdmatx,hdma_i2c1_tx);
 8001952:	687b      	ldr	r3, [r7, #4]
 8001954:	4a0b      	ldr	r2, [pc, #44]	; (8001984 <HAL_I2C_MspInit+0xdc>)
 8001956:	635a      	str	r2, [r3, #52]	; 0x34
 8001958:	4a0a      	ldr	r2, [pc, #40]	; (8001984 <HAL_I2C_MspInit+0xdc>)
 800195a:	687b      	ldr	r3, [r7, #4]
 800195c:	6253      	str	r3, [r2, #36]	; 0x24

    /* I2C1 interrupt Init */
    HAL_NVIC_SetPriority(I2C1_EV_IRQn, 5, 0);
 800195e:	2200      	movs	r2, #0
 8001960:	2105      	movs	r1, #5
 8001962:	201f      	movs	r0, #31
 8001964:	f002 fa25 	bl	8003db2 <HAL_NVIC_SetPriority>
    HAL_NVIC_EnableIRQ(I2C1_EV_IRQn);
 8001968:	201f      	movs	r0, #31
 800196a:	f002 fa3e 	bl	8003dea <HAL_NVIC_EnableIRQ>
  /* USER CODE BEGIN I2C1_MspInit 1 */

  /* USER CODE END I2C1_MspInit 1 */
  }

}
 800196e:	bf00      	nop
 8001970:	3720      	adds	r7, #32
 8001972:	46bd      	mov	sp, r7
 8001974:	bd80      	pop	{r7, pc}
 8001976:	bf00      	nop
 8001978:	40005400 	.word	0x40005400
 800197c:	40021000 	.word	0x40021000
 8001980:	40010c00 	.word	0x40010c00
 8001984:	200003ec 	.word	0x200003ec
 8001988:	4002006c 	.word	0x4002006c

0800198c <HAL_SPI_MspInit>:
* This function configures the hardware resources used in this example
* @param hspi: SPI handle pointer
* @retval None
*/
void HAL_SPI_MspInit(SPI_HandleTypeDef* hspi)
{
 800198c:	b580      	push	{r7, lr}
 800198e:	b088      	sub	sp, #32
 8001990:	af00      	add	r7, sp, #0
 8001992:	6078      	str	r0, [r7, #4]
  GPIO_InitTypeDef GPIO_InitStruct = {0};
 8001994:	f107 0310 	add.w	r3, r7, #16
 8001998:	2200      	movs	r2, #0
 800199a:	601a      	str	r2, [r3, #0]
 800199c:	605a      	str	r2, [r3, #4]
 800199e:	609a      	str	r2, [r3, #8]
 80019a0:	60da      	str	r2, [r3, #12]
  if(hspi->Instance==SPI1)
 80019a2:	687b      	ldr	r3, [r7, #4]
 80019a4:	681b      	ldr	r3, [r3, #0]
 80019a6:	4a1f      	ldr	r2, [pc, #124]	; (8001a24 <HAL_SPI_MspInit+0x98>)
 80019a8:	4293      	cmp	r3, r2
 80019aa:	d137      	bne.n	8001a1c <HAL_SPI_MspInit+0x90>
  {
  /* USER CODE BEGIN SPI1_MspInit 0 */

  /* USER CODE END SPI1_MspInit 0 */
    /* Peripheral clock enable */
    __HAL_RCC_SPI1_CLK_ENABLE();
 80019ac:	4b1e      	ldr	r3, [pc, #120]	; (8001a28 <HAL_SPI_MspInit+0x9c>)
 80019ae:	699b      	ldr	r3, [r3, #24]
 80019b0:	4a1d      	ldr	r2, [pc, #116]	; (8001a28 <HAL_SPI_MspInit+0x9c>)
 80019b2:	f443 5380 	orr.w	r3, r3, #4096	; 0x1000
 80019b6:	6193      	str	r3, [r2, #24]
 80019b8:	4b1b      	ldr	r3, [pc, #108]	; (8001a28 <HAL_SPI_MspInit+0x9c>)
 80019ba:	699b      	ldr	r3, [r3, #24]
 80019bc:	f403 5380 	and.w	r3, r3, #4096	; 0x1000
 80019c0:	60fb      	str	r3, [r7, #12]
 80019c2:	68fb      	ldr	r3, [r7, #12]

    __HAL_RCC_GPIOA_CLK_ENABLE();
 80019c4:	4b18      	ldr	r3, [pc, #96]	; (8001a28 <HAL_SPI_MspInit+0x9c>)
 80019c6:	699b      	ldr	r3, [r3, #24]
 80019c8:	4a17      	ldr	r2, [pc, #92]	; (8001a28 <HAL_SPI_MspInit+0x9c>)
 80019ca:	f043 0304 	orr.w	r3, r3, #4
 80019ce:	6193      	str	r3, [r2, #24]
 80019d0:	4b15      	ldr	r3, [pc, #84]	; (8001a28 <HAL_SPI_MspInit+0x9c>)
 80019d2:	699b      	ldr	r3, [r3, #24]
 80019d4:	f003 0304 	and.w	r3, r3, #4
 80019d8:	60bb      	str	r3, [r7, #8]
 80019da:	68bb      	ldr	r3, [r7, #8]
    /**SPI1 GPIO Configuration
    PA5     ------> SPI1_SCK
    PA6     ------> SPI1_MISO
    PA7     ------> SPI1_MOSI
    */
    GPIO_InitStruct.Pin = GPIO_PIN_5|GPIO_PIN_7;
 80019dc:	23a0      	movs	r3, #160	; 0xa0
 80019de:	613b      	str	r3, [r7, #16]
    GPIO_InitStruct.Mode = GPIO_MODE_AF_PP;
 80019e0:	2302      	movs	r3, #2
 80019e2:	617b      	str	r3, [r7, #20]
    GPIO_InitStruct.Speed = GPIO_SPEED_FREQ_HIGH;
 80019e4:	2303      	movs	r3, #3
 80019e6:	61fb      	str	r3, [r7, #28]
    HAL_GPIO_Init(GPIOA, &GPIO_InitStruct);
 80019e8:	f107 0310 	add.w	r3, r7, #16
 80019ec:	4619      	mov	r1, r3
 80019ee:	480f      	ldr	r0, [pc, #60]	; (8001a2c <HAL_SPI_MspInit+0xa0>)
 80019f0:	f002 fd2e 	bl	8004450 <HAL_GPIO_Init>

    GPIO_InitStruct.Pin = GPIO_PIN_6;
 80019f4:	2340      	movs	r3, #64	; 0x40
 80019f6:	613b      	str	r3, [r7, #16]
    GPIO_InitStruct.Mode = GPIO_MODE_INPUT;
 80019f8:	2300      	movs	r3, #0
 80019fa:	617b      	str	r3, [r7, #20]
    GPIO_InitStruct.Pull = GPIO_NOPULL;
 80019fc:	2300      	movs	r3, #0
 80019fe:	61bb      	str	r3, [r7, #24]
    HAL_GPIO_Init(GPIOA, &GPIO_InitStruct);
 8001a00:	f107 0310 	add.w	r3, r7, #16
 8001a04:	4619      	mov	r1, r3
 8001a06:	4809      	ldr	r0, [pc, #36]	; (8001a2c <HAL_SPI_MspInit+0xa0>)
 8001a08:	f002 fd22 	bl	8004450 <HAL_GPIO_Init>

    /* SPI1 interrupt Init */
    HAL_NVIC_SetPriority(SPI1_IRQn, 5, 0);
 8001a0c:	2200      	movs	r2, #0
 8001a0e:	2105      	movs	r1, #5
 8001a10:	2023      	movs	r0, #35	; 0x23
 8001a12:	f002 f9ce 	bl	8003db2 <HAL_NVIC_SetPriority>
    HAL_NVIC_EnableIRQ(SPI1_IRQn);
 8001a16:	2023      	movs	r0, #35	; 0x23
 8001a18:	f002 f9e7 	bl	8003dea <HAL_NVIC_EnableIRQ>
  /* USER CODE BEGIN SPI1_MspInit 1 */

  /* USER CODE END SPI1_MspInit 1 */
  }

}
 8001a1c:	bf00      	nop
 8001a1e:	3720      	adds	r7, #32
 8001a20:	46bd      	mov	sp, r7
 8001a22:	bd80      	pop	{r7, pc}
 8001a24:	40013000 	.word	0x40013000
 8001a28:	40021000 	.word	0x40021000
 8001a2c:	40010800 	.word	0x40010800

08001a30 <HAL_SPI_MspDeInit>:
* This function freeze the hardware resources used in this example
* @param hspi: SPI handle pointer
* @retval None
*/
void HAL_SPI_MspDeInit(SPI_HandleTypeDef* hspi)
{
 8001a30:	b580      	push	{r7, lr}
 8001a32:	b082      	sub	sp, #8
 8001a34:	af00      	add	r7, sp, #0
 8001a36:	6078      	str	r0, [r7, #4]
  if(hspi->Instance==SPI1)
 8001a38:	687b      	ldr	r3, [r7, #4]
 8001a3a:	681b      	ldr	r3, [r3, #0]
 8001a3c:	4a09      	ldr	r2, [pc, #36]	; (8001a64 <HAL_SPI_MspDeInit+0x34>)
 8001a3e:	4293      	cmp	r3, r2
 8001a40:	d10c      	bne.n	8001a5c <HAL_SPI_MspDeInit+0x2c>
  {
  /* USER CODE BEGIN SPI1_MspDeInit 0 */

  /* USER CODE END SPI1_MspDeInit 0 */
    /* Peripheral clock disable */
    __HAL_RCC_SPI1_CLK_DISABLE();
 8001a42:	4b09      	ldr	r3, [pc, #36]	; (8001a68 <HAL_SPI_MspDeInit+0x38>)
 8001a44:	699b      	ldr	r3, [r3, #24]
 8001a46:	4a08      	ldr	r2, [pc, #32]	; (8001a68 <HAL_SPI_MspDeInit+0x38>)
 8001a48:	f423 5380 	bic.w	r3, r3, #4096	; 0x1000
 8001a4c:	6193      	str	r3, [r2, #24]
    /**SPI1 GPIO Configuration
    PA5     ------> SPI1_SCK
    PA6     ------> SPI1_MISO
    PA7     ------> SPI1_MOSI
    */
    HAL_GPIO_DeInit(GPIOA, GPIO_PIN_5|GPIO_PIN_6|GPIO_PIN_7);
 8001a4e:	21e0      	movs	r1, #224	; 0xe0
 8001a50:	4806      	ldr	r0, [pc, #24]	; (8001a6c <HAL_SPI_MspDeInit+0x3c>)
 8001a52:	f002 fe81 	bl	8004758 <HAL_GPIO_DeInit>

    /* SPI1 interrupt DeInit */
    HAL_NVIC_DisableIRQ(SPI1_IRQn);
 8001a56:	2023      	movs	r0, #35	; 0x23
 8001a58:	f002 f9d5 	bl	8003e06 <HAL_NVIC_DisableIRQ>
  /* USER CODE BEGIN SPI1_MspDeInit 1 */

  /* USER CODE END SPI1_MspDeInit 1 */
  }

}
 8001a5c:	bf00      	nop
 8001a5e:	3708      	adds	r7, #8
 8001a60:	46bd      	mov	sp, r7
 8001a62:	bd80      	pop	{r7, pc}
 8001a64:	40013000 	.word	0x40013000
 8001a68:	40021000 	.word	0x40021000
 8001a6c:	40010800 	.word	0x40010800

08001a70 <HAL_UART_MspInit>:
* This function configures the hardware resources used in this example
* @param huart: UART handle pointer
* @retval None
*/
void HAL_UART_MspInit(UART_HandleTypeDef* huart)
{
 8001a70:	b580      	push	{r7, lr}
 8001a72:	b088      	sub	sp, #32
 8001a74:	af00      	add	r7, sp, #0
 8001a76:	6078      	str	r0, [r7, #4]
  GPIO_InitTypeDef GPIO_InitStruct = {0};
 8001a78:	f107 0310 	add.w	r3, r7, #16
 8001a7c:	2200      	movs	r2, #0
 8001a7e:	601a      	str	r2, [r3, #0]
 8001a80:	605a      	str	r2, [r3, #4]
 8001a82:	609a      	str	r2, [r3, #8]
 8001a84:	60da      	str	r2, [r3, #12]
  if(huart->Instance==USART1)
 8001a86:	687b      	ldr	r3, [r7, #4]
 8001a88:	681b      	ldr	r3, [r3, #0]
 8001a8a:	4a34      	ldr	r2, [pc, #208]	; (8001b5c <HAL_UART_MspInit+0xec>)
 8001a8c:	4293      	cmp	r3, r2
 8001a8e:	d160      	bne.n	8001b52 <HAL_UART_MspInit+0xe2>
  {
  /* USER CODE BEGIN USART1_MspInit 0 */

  /* USER CODE END USART1_MspInit 0 */
    /* Peripheral clock enable */
    __HAL_RCC_USART1_CLK_ENABLE();
 8001a90:	4b33      	ldr	r3, [pc, #204]	; (8001b60 <HAL_UART_MspInit+0xf0>)
 8001a92:	699b      	ldr	r3, [r3, #24]
 8001a94:	4a32      	ldr	r2, [pc, #200]	; (8001b60 <HAL_UART_MspInit+0xf0>)
 8001a96:	f443 4380 	orr.w	r3, r3, #16384	; 0x4000
 8001a9a:	6193      	str	r3, [r2, #24]
 8001a9c:	4b30      	ldr	r3, [pc, #192]	; (8001b60 <HAL_UART_MspInit+0xf0>)
 8001a9e:	699b      	ldr	r3, [r3, #24]
 8001aa0:	f403 4380 	and.w	r3, r3, #16384	; 0x4000
 8001aa4:	60fb      	str	r3, [r7, #12]
 8001aa6:	68fb      	ldr	r3, [r7, #12]

    __HAL_RCC_GPIOA_CLK_ENABLE();
 8001aa8:	4b2d      	ldr	r3, [pc, #180]	; (8001b60 <HAL_UART_MspInit+0xf0>)
 8001aaa:	699b      	ldr	r3, [r3, #24]
 8001aac:	4a2c      	ldr	r2, [pc, #176]	; (8001b60 <HAL_UART_MspInit+0xf0>)
 8001aae:	f043 0304 	orr.w	r3, r3, #4
 8001ab2:	6193      	str	r3, [r2, #24]
 8001ab4:	4b2a      	ldr	r3, [pc, #168]	; (8001b60 <HAL_UART_MspInit+0xf0>)
 8001ab6:	699b      	ldr	r3, [r3, #24]
 8001ab8:	f003 0304 	and.w	r3, r3, #4
 8001abc:	60bb      	str	r3, [r7, #8]
 8001abe:	68bb      	ldr	r3, [r7, #8]
    /**USART1 GPIO Configuration
    PA9     ------> USART1_TX
    PA10     ------> USART1_RX
    */
    GPIO_InitStruct.Pin = GPIO_PIN_9;
 8001ac0:	f44f 7300 	mov.w	r3, #512	; 0x200
 8001ac4:	613b      	str	r3, [r7, #16]
    GPIO_InitStruct.Mode = GPIO_MODE_AF_PP;
 8001ac6:	2302      	movs	r3, #2
 8001ac8:	617b      	str	r3, [r7, #20]
    GPIO_InitStruct.Speed = GPIO_SPEED_FREQ_HIGH;
 8001aca:	2303      	movs	r3, #3
 8001acc:	61fb      	str	r3, [r7, #28]
    HAL_GPIO_Init(GPIOA, &GPIO_InitStruct);
 8001ace:	f107 0310 	add.w	r3, r7, #16
 8001ad2:	4619      	mov	r1, r3
 8001ad4:	4823      	ldr	r0, [pc, #140]	; (8001b64 <HAL_UART_MspInit+0xf4>)
 8001ad6:	f002 fcbb 	bl	8004450 <HAL_GPIO_Init>

    GPIO_InitStruct.Pin = GPIO_PIN_10;
 8001ada:	f44f 6380 	mov.w	r3, #1024	; 0x400
 8001ade:	613b      	str	r3, [r7, #16]
    GPIO_InitStruct.Mode = GPIO_MODE_INPUT;
 8001ae0:	2300      	movs	r3, #0
 8001ae2:	617b      	str	r3, [r7, #20]
    GPIO_InitStruct.Pull = GPIO_NOPULL;
 8001ae4:	2300      	movs	r3, #0
 8001ae6:	61bb      	str	r3, [r7, #24]
    HAL_GPIO_Init(GPIOA, &GPIO_InitStruct);
 8001ae8:	f107 0310 	add.w	r3, r7, #16
 8001aec:	4619      	mov	r1, r3
 8001aee:	481d      	ldr	r0, [pc, #116]	; (8001b64 <HAL_UART_MspInit+0xf4>)
 8001af0:	f002 fcae 	bl	8004450 <HAL_GPIO_Init>

    /* USART1 DMA Init */
    /* USART1_TX Init */
    hdma_usart1_tx.Instance = DMA1_Channel4;
 8001af4:	4b1c      	ldr	r3, [pc, #112]	; (8001b68 <HAL_UART_MspInit+0xf8>)
 8001af6:	4a1d      	ldr	r2, [pc, #116]	; (8001b6c <HAL_UART_MspInit+0xfc>)
 8001af8:	601a      	str	r2, [r3, #0]
    hdma_usart1_tx.Init.Direction = DMA_MEMORY_TO_PERIPH;
 8001afa:	4b1b      	ldr	r3, [pc, #108]	; (8001b68 <HAL_UART_MspInit+0xf8>)
 8001afc:	2210      	movs	r2, #16
 8001afe:	605a      	str	r2, [r3, #4]
    hdma_usart1_tx.Init.PeriphInc = DMA_PINC_DISABLE;
 8001b00:	4b19      	ldr	r3, [pc, #100]	; (8001b68 <HAL_UART_MspInit+0xf8>)
 8001b02:	2200      	movs	r2, #0
 8001b04:	609a      	str	r2, [r3, #8]
    hdma_usart1_tx.Init.MemInc = DMA_MINC_ENABLE;
 8001b06:	4b18      	ldr	r3, [pc, #96]	; (8001b68 <HAL_UART_MspInit+0xf8>)
 8001b08:	2280      	movs	r2, #128	; 0x80
 8001b0a:	60da      	str	r2, [r3, #12]
    hdma_usart1_tx.Init.PeriphDataAlignment = DMA_PDATAALIGN_BYTE;
 8001b0c:	4b16      	ldr	r3, [pc, #88]	; (8001b68 <HAL_UART_MspInit+0xf8>)
 8001b0e:	2200      	movs	r2, #0
 8001b10:	611a      	str	r2, [r3, #16]
    hdma_usart1_tx.Init.MemDataAlignment = DMA_MDATAALIGN_BYTE;
 8001b12:	4b15      	ldr	r3, [pc, #84]	; (8001b68 <HAL_UART_MspInit+0xf8>)
 8001b14:	2200      	movs	r2, #0
 8001b16:	615a      	str	r2, [r3, #20]
    hdma_usart1_tx.Init.Mode = DMA_NORMAL;
 8001b18:	4b13      	ldr	r3, [pc, #76]	; (8001b68 <HAL_UART_MspInit+0xf8>)
 8001b1a:	2200      	movs	r2, #0
 8001b1c:	619a      	str	r2, [r3, #24]
    hdma_usart1_tx.Init.Priority = DMA_PRIORITY_HIGH;
 8001b1e:	4b12      	ldr	r3, [pc, #72]	; (8001b68 <HAL_UART_MspInit+0xf8>)
 8001b20:	f44f 5200 	mov.w	r2, #8192	; 0x2000
 8001b24:	61da      	str	r2, [r3, #28]
    if (HAL_DMA_Init(&hdma_usart1_tx) != HAL_OK)
 8001b26:	4810      	ldr	r0, [pc, #64]	; (8001b68 <HAL_UART_MspInit+0xf8>)
 8001b28:	f002 f988 	bl	8003e3c <HAL_DMA_Init>
 8001b2c:	4603      	mov	r3, r0
 8001b2e:	2b00      	cmp	r3, #0
 8001b30:	d001      	beq.n	8001b36 <HAL_UART_MspInit+0xc6>
    {
      Error_Handler();
 8001b32:	f7ff fe11 	bl	8001758 <Error_Handler>
    }

    __HAL_LINKDMA(huart,hdmatx,hdma_usart1_tx);
 8001b36:	687b      	ldr	r3, [r7, #4]
 8001b38:	4a0b      	ldr	r2, [pc, #44]	; (8001b68 <HAL_UART_MspInit+0xf8>)
 8001b3a:	639a      	str	r2, [r3, #56]	; 0x38
 8001b3c:	4a0a      	ldr	r2, [pc, #40]	; (8001b68 <HAL_UART_MspInit+0xf8>)
 8001b3e:	687b      	ldr	r3, [r7, #4]
 8001b40:	6253      	str	r3, [r2, #36]	; 0x24

    /* USART1 interrupt Init */
    HAL_NVIC_SetPriority(USART1_IRQn, 5, 0);
 8001b42:	2200      	movs	r2, #0
 8001b44:	2105      	movs	r1, #5
 8001b46:	2025      	movs	r0, #37	; 0x25
 8001b48:	f002 f933 	bl	8003db2 <HAL_NVIC_SetPriority>
    HAL_NVIC_EnableIRQ(USART1_IRQn);
 8001b4c:	2025      	movs	r0, #37	; 0x25
 8001b4e:	f002 f94c 	bl	8003dea <HAL_NVIC_EnableIRQ>
  /* USER CODE BEGIN USART1_MspInit 1 */

  /* USER CODE END USART1_MspInit 1 */
  }

}
 8001b52:	bf00      	nop
 8001b54:	3720      	adds	r7, #32
 8001b56:	46bd      	mov	sp, r7
 8001b58:	bd80      	pop	{r7, pc}
 8001b5a:	bf00      	nop
 8001b5c:	40013800 	.word	0x40013800
 8001b60:	40021000 	.word	0x40021000
 8001b64:	40010800 	.word	0x40010800
 8001b68:	200004d0 	.word	0x200004d0
 8001b6c:	40020044 	.word	0x40020044

08001b70 <HAL_UART_MspDeInit>:
* This function freeze the hardware resources used in this example
* @param huart: UART handle pointer
* @retval None
*/
void HAL_UART_MspDeInit(UART_HandleTypeDef* huart)
{
 8001b70:	b580      	push	{r7, lr}
 8001b72:	b082      	sub	sp, #8
 8001b74:	af00      	add	r7, sp, #0
 8001b76:	6078      	str	r0, [r7, #4]
  if(huart->Instance==USART1)
 8001b78:	687b      	ldr	r3, [r7, #4]
 8001b7a:	681b      	ldr	r3, [r3, #0]
 8001b7c:	4a0c      	ldr	r2, [pc, #48]	; (8001bb0 <HAL_UART_MspDeInit+0x40>)
 8001b7e:	4293      	cmp	r3, r2
 8001b80:	d112      	bne.n	8001ba8 <HAL_UART_MspDeInit+0x38>
  {
  /* USER CODE BEGIN USART1_MspDeInit 0 */

  /* USER CODE END USART1_MspDeInit 0 */
    /* Peripheral clock disable */
    __HAL_RCC_USART1_CLK_DISABLE();
 8001b82:	4b0c      	ldr	r3, [pc, #48]	; (8001bb4 <HAL_UART_MspDeInit+0x44>)
 8001b84:	699b      	ldr	r3, [r3, #24]
 8001b86:	4a0b      	ldr	r2, [pc, #44]	; (8001bb4 <HAL_UART_MspDeInit+0x44>)
 8001b88:	f423 4380 	bic.w	r3, r3, #16384	; 0x4000
 8001b8c:	6193      	str	r3, [r2, #24]

    /**USART1 GPIO Configuration
    PA9     ------> USART1_TX
    PA10     ------> USART1_RX
    */
    HAL_GPIO_DeInit(GPIOA, GPIO_PIN_9|GPIO_PIN_10);
 8001b8e:	f44f 61c0 	mov.w	r1, #1536	; 0x600
 8001b92:	4809      	ldr	r0, [pc, #36]	; (8001bb8 <HAL_UART_MspDeInit+0x48>)
 8001b94:	f002 fde0 	bl	8004758 <HAL_GPIO_DeInit>

    /* USART1 DMA DeInit */
    HAL_DMA_DeInit(huart->hdmatx);
 8001b98:	687b      	ldr	r3, [r7, #4]
 8001b9a:	6b9b      	ldr	r3, [r3, #56]	; 0x38
 8001b9c:	4618      	mov	r0, r3
 8001b9e:	f002 f9a7 	bl	8003ef0 <HAL_DMA_DeInit>

    /* USART1 interrupt DeInit */
    HAL_NVIC_DisableIRQ(USART1_IRQn);
 8001ba2:	2025      	movs	r0, #37	; 0x25
 8001ba4:	f002 f92f 	bl	8003e06 <HAL_NVIC_DisableIRQ>
  /* USER CODE BEGIN USART1_MspDeInit 1 */

  /* USER CODE END USART1_MspDeInit 1 */
  }

}
 8001ba8:	bf00      	nop
 8001baa:	3708      	adds	r7, #8
 8001bac:	46bd      	mov	sp, r7
 8001bae:	bd80      	pop	{r7, pc}
 8001bb0:	40013800 	.word	0x40013800
 8001bb4:	40021000 	.word	0x40021000
 8001bb8:	40010800 	.word	0x40010800

08001bbc <SDTimer_Handler>:
/* USER CODE BEGIN 0 */
volatile uint8_t FatFsCnt = 0;
volatile uint8_t Timer1, Timer2;

void SDTimer_Handler(void)
{
 8001bbc:	b480      	push	{r7}
 8001bbe:	af00      	add	r7, sp, #0
  if(Timer1 > 0)
 8001bc0:	4b0d      	ldr	r3, [pc, #52]	; (8001bf8 <SDTimer_Handler+0x3c>)
 8001bc2:	781b      	ldrb	r3, [r3, #0]
 8001bc4:	b2db      	uxtb	r3, r3
 8001bc6:	2b00      	cmp	r3, #0
 8001bc8:	d006      	beq.n	8001bd8 <SDTimer_Handler+0x1c>
    Timer1--;
 8001bca:	4b0b      	ldr	r3, [pc, #44]	; (8001bf8 <SDTimer_Handler+0x3c>)
 8001bcc:	781b      	ldrb	r3, [r3, #0]
 8001bce:	b2db      	uxtb	r3, r3
 8001bd0:	3b01      	subs	r3, #1
 8001bd2:	b2da      	uxtb	r2, r3
 8001bd4:	4b08      	ldr	r3, [pc, #32]	; (8001bf8 <SDTimer_Handler+0x3c>)
 8001bd6:	701a      	strb	r2, [r3, #0]

  if(Timer2 > 0)
 8001bd8:	4b08      	ldr	r3, [pc, #32]	; (8001bfc <SDTimer_Handler+0x40>)
 8001bda:	781b      	ldrb	r3, [r3, #0]
 8001bdc:	b2db      	uxtb	r3, r3
 8001bde:	2b00      	cmp	r3, #0
 8001be0:	d006      	beq.n	8001bf0 <SDTimer_Handler+0x34>
    Timer2--;
 8001be2:	4b06      	ldr	r3, [pc, #24]	; (8001bfc <SDTimer_Handler+0x40>)
 8001be4:	781b      	ldrb	r3, [r3, #0]
 8001be6:	b2db      	uxtb	r3, r3
 8001be8:	3b01      	subs	r3, #1
 8001bea:	b2da      	uxtb	r2, r3
 8001bec:	4b03      	ldr	r3, [pc, #12]	; (8001bfc <SDTimer_Handler+0x40>)
 8001bee:	701a      	strb	r2, [r3, #0]
}
 8001bf0:	bf00      	nop
 8001bf2:	46bd      	mov	sp, r7
 8001bf4:	bc80      	pop	{r7}
 8001bf6:	4770      	bx	lr
 8001bf8:	200005eb 	.word	0x200005eb
 8001bfc:	200005ec 	.word	0x200005ec

08001c00 <NMI_Handler>:
/******************************************************************************/
/**
  * @brief This function handles Non maskable interrupt.
  */
void NMI_Handler(void)
{
 8001c00:	b480      	push	{r7}
 8001c02:	af00      	add	r7, sp, #0
  /* USER CODE BEGIN NonMaskableInt_IRQn 0 */

  /* USER CODE END NonMaskableInt_IRQn 0 */
  /* USER CODE BEGIN NonMaskableInt_IRQn 1 */
  while (1)
 8001c04:	e7fe      	b.n	8001c04 <NMI_Handler+0x4>

08001c06 <HardFault_Handler>:

/**
  * @brief This function handles Hard fault interrupt.
  */
void HardFault_Handler(void)
{
 8001c06:	b480      	push	{r7}
 8001c08:	af00      	add	r7, sp, #0
  /* USER CODE BEGIN HardFault_IRQn 0 */

  /* USER CODE END HardFault_IRQn 0 */
  while (1)
 8001c0a:	e7fe      	b.n	8001c0a <HardFault_Handler+0x4>

08001c0c <MemManage_Handler>:

/**
  * @brief This function handles Memory management fault.
  */
void MemManage_Handler(void)
{
 8001c0c:	b480      	push	{r7}
 8001c0e:	af00      	add	r7, sp, #0
  /* USER CODE BEGIN MemoryManagement_IRQn 0 */

  /* USER CODE END MemoryManagement_IRQn 0 */
  while (1)
 8001c10:	e7fe      	b.n	8001c10 <MemManage_Handler+0x4>

08001c12 <BusFault_Handler>:

/**
  * @brief This function handles Prefetch fault, memory access fault.
  */
void BusFault_Handler(void)
{
 8001c12:	b480      	push	{r7}
 8001c14:	af00      	add	r7, sp, #0
  /* USER CODE BEGIN BusFault_IRQn 0 */

  /* USER CODE END BusFault_IRQn 0 */
  while (1)
 8001c16:	e7fe      	b.n	8001c16 <BusFault_Handler+0x4>

08001c18 <UsageFault_Handler>:

/**
  * @brief This function handles Undefined instruction or illegal state.
  */
void UsageFault_Handler(void)
{
 8001c18:	b480      	push	{r7}
 8001c1a:	af00      	add	r7, sp, #0
  /* USER CODE BEGIN UsageFault_IRQn 0 */

  /* USER CODE END UsageFault_IRQn 0 */
  while (1)
 8001c1c:	e7fe      	b.n	8001c1c <UsageFault_Handler+0x4>

08001c1e <DebugMon_Handler>:

/**
  * @brief This function handles Debug monitor.
  */
void DebugMon_Handler(void)
{
 8001c1e:	b480      	push	{r7}
 8001c20:	af00      	add	r7, sp, #0

  /* USER CODE END DebugMonitor_IRQn 0 */
  /* USER CODE BEGIN DebugMonitor_IRQn 1 */

  /* USER CODE END DebugMonitor_IRQn 1 */
}
 8001c22:	bf00      	nop
 8001c24:	46bd      	mov	sp, r7
 8001c26:	bc80      	pop	{r7}
 8001c28:	4770      	bx	lr
	...

08001c2c <SysTick_Handler>:

/**
  * @brief This function handles System tick timer.
  */
void SysTick_Handler(void)
{
 8001c2c:	b580      	push	{r7, lr}
 8001c2e:	af00      	add	r7, sp, #0
  /* USER CODE BEGIN SysTick_IRQn 0 */
	FatFsCnt++;
 8001c30:	4b0d      	ldr	r3, [pc, #52]	; (8001c68 <SysTick_Handler+0x3c>)
 8001c32:	781b      	ldrb	r3, [r3, #0]
 8001c34:	b2db      	uxtb	r3, r3
 8001c36:	3301      	adds	r3, #1
 8001c38:	b2da      	uxtb	r2, r3
 8001c3a:	4b0b      	ldr	r3, [pc, #44]	; (8001c68 <SysTick_Handler+0x3c>)
 8001c3c:	701a      	strb	r2, [r3, #0]
	if(FatFsCnt >= 10)
 8001c3e:	4b0a      	ldr	r3, [pc, #40]	; (8001c68 <SysTick_Handler+0x3c>)
 8001c40:	781b      	ldrb	r3, [r3, #0]
 8001c42:	b2db      	uxtb	r3, r3
 8001c44:	2b09      	cmp	r3, #9
 8001c46:	d904      	bls.n	8001c52 <SysTick_Handler+0x26>
	{
	  FatFsCnt = 0;
 8001c48:	4b07      	ldr	r3, [pc, #28]	; (8001c68 <SysTick_Handler+0x3c>)
 8001c4a:	2200      	movs	r2, #0
 8001c4c:	701a      	strb	r2, [r3, #0]
	  SDTimer_Handler();
 8001c4e:	f7ff ffb5 	bl	8001bbc <SDTimer_Handler>
	}
  /* USER CODE END SysTick_IRQn 0 */
  HAL_IncTick();
 8001c52:	f001 fb8b 	bl	800336c <HAL_IncTick>
#if (INCLUDE_xTaskGetSchedulerState == 1 )
  if (xTaskGetSchedulerState() != taskSCHEDULER_NOT_STARTED)
 8001c56:	f00b ff81 	bl	800db5c <xTaskGetSchedulerState>
 8001c5a:	4603      	mov	r3, r0
 8001c5c:	2b01      	cmp	r3, #1
 8001c5e:	d001      	beq.n	8001c64 <SysTick_Handler+0x38>
  {
#endif /* INCLUDE_xTaskGetSchedulerState */
  xPortSysTickHandler();
 8001c60:	f00c fb32 	bl	800e2c8 <xPortSysTickHandler>
  }
#endif /* INCLUDE_xTaskGetSchedulerState */
  /* USER CODE BEGIN SysTick_IRQn 1 */

  /* USER CODE END SysTick_IRQn 1 */
}
 8001c64:	bf00      	nop
 8001c66:	bd80      	pop	{r7, pc}
 8001c68:	200005ea 	.word	0x200005ea

08001c6c <DMA1_Channel1_IRQHandler>:

/**
  * @brief This function handles DMA1 channel1 global interrupt.
  */
void DMA1_Channel1_IRQHandler(void)
{
 8001c6c:	b580      	push	{r7, lr}
 8001c6e:	af00      	add	r7, sp, #0
  /* USER CODE BEGIN DMA1_Channel1_IRQn 0 */

  /* USER CODE END DMA1_Channel1_IRQn 0 */
  HAL_DMA_IRQHandler(&hdma_adc1);
 8001c70:	4802      	ldr	r0, [pc, #8]	; (8001c7c <DMA1_Channel1_IRQHandler+0x10>)
 8001c72:	f002 faad 	bl	80041d0 <HAL_DMA_IRQHandler>
  /* USER CODE BEGIN DMA1_Channel1_IRQn 1 */

  /* USER CODE END DMA1_Channel1_IRQn 1 */
}
 8001c76:	bf00      	nop
 8001c78:	bd80      	pop	{r7, pc}
 8001c7a:	bf00      	nop
 8001c7c:	20000354 	.word	0x20000354

08001c80 <DMA1_Channel4_IRQHandler>:

/**
  * @brief This function handles DMA1 channel4 global interrupt.
  */
void DMA1_Channel4_IRQHandler(void)
{
 8001c80:	b580      	push	{r7, lr}
 8001c82:	af00      	add	r7, sp, #0
  /* USER CODE BEGIN DMA1_Channel4_IRQn 0 */

  /* USER CODE END DMA1_Channel4_IRQn 0 */
  HAL_DMA_IRQHandler(&hdma_usart1_tx);
 8001c84:	4802      	ldr	r0, [pc, #8]	; (8001c90 <DMA1_Channel4_IRQHandler+0x10>)
 8001c86:	f002 faa3 	bl	80041d0 <HAL_DMA_IRQHandler>
  /* USER CODE BEGIN DMA1_Channel4_IRQn 1 */

  /* USER CODE END DMA1_Channel4_IRQn 1 */
}
 8001c8a:	bf00      	nop
 8001c8c:	bd80      	pop	{r7, pc}
 8001c8e:	bf00      	nop
 8001c90:	200004d0 	.word	0x200004d0

08001c94 <DMA1_Channel6_IRQHandler>:

/**
  * @brief This function handles DMA1 channel6 global interrupt.
  */
void DMA1_Channel6_IRQHandler(void)
{
 8001c94:	b580      	push	{r7, lr}
 8001c96:	af00      	add	r7, sp, #0
  /* USER CODE BEGIN DMA1_Channel6_IRQn 0 */

  /* USER CODE END DMA1_Channel6_IRQn 0 */
  HAL_DMA_IRQHandler(&hdma_i2c1_tx);
 8001c98:	4802      	ldr	r0, [pc, #8]	; (8001ca4 <DMA1_Channel6_IRQHandler+0x10>)
 8001c9a:	f002 fa99 	bl	80041d0 <HAL_DMA_IRQHandler>
  /* USER CODE BEGIN DMA1_Channel6_IRQn 1 */

  /* USER CODE END DMA1_Channel6_IRQn 1 */
}
 8001c9e:	bf00      	nop
 8001ca0:	bd80      	pop	{r7, pc}
 8001ca2:	bf00      	nop
 8001ca4:	200003ec 	.word	0x200003ec

08001ca8 <I2C1_EV_IRQHandler>:

/**
  * @brief This function handles I2C1 event interrupt.
  */
void I2C1_EV_IRQHandler(void)
{
 8001ca8:	b580      	push	{r7, lr}
 8001caa:	af00      	add	r7, sp, #0
  /* USER CODE BEGIN I2C1_EV_IRQn 0 */

  /* USER CODE END I2C1_EV_IRQn 0 */
  HAL_I2C_EV_IRQHandler(&hi2c1);
 8001cac:	4802      	ldr	r0, [pc, #8]	; (8001cb8 <I2C1_EV_IRQHandler+0x10>)
 8001cae:	f003 fa1b 	bl	80050e8 <HAL_I2C_EV_IRQHandler>
  /* USER CODE BEGIN I2C1_EV_IRQn 1 */

  /* USER CODE END I2C1_EV_IRQn 1 */
}
 8001cb2:	bf00      	nop
 8001cb4:	bd80      	pop	{r7, pc}
 8001cb6:	bf00      	nop
 8001cb8:	20000398 	.word	0x20000398

08001cbc <SPI1_IRQHandler>:

/**
  * @brief This function handles SPI1 global interrupt.
  */
void SPI1_IRQHandler(void)
{
 8001cbc:	b580      	push	{r7, lr}
 8001cbe:	af00      	add	r7, sp, #0
  /* USER CODE BEGIN SPI1_IRQn 0 */

  /* USER CODE END SPI1_IRQn 0 */
  HAL_SPI_IRQHandler(&hspi1);
 8001cc0:	4802      	ldr	r0, [pc, #8]	; (8001ccc <SPI1_IRQHandler+0x10>)
 8001cc2:	f006 f945 	bl	8007f50 <HAL_SPI_IRQHandler>
  /* USER CODE BEGIN SPI1_IRQn 1 */

  /* USER CODE END SPI1_IRQn 1 */
}
 8001cc6:	bf00      	nop
 8001cc8:	bd80      	pop	{r7, pc}
 8001cca:	bf00      	nop
 8001ccc:	20000430 	.word	0x20000430

08001cd0 <USART1_IRQHandler>:

/**
  * @brief This function handles USART1 global interrupt.
  */
void USART1_IRQHandler(void)
{
 8001cd0:	b580      	push	{r7, lr}
 8001cd2:	af00      	add	r7, sp, #0
  /* USER CODE BEGIN USART1_IRQn 0 */

  /* USER CODE END USART1_IRQn 0 */
  HAL_UART_IRQHandler(&huart1);
 8001cd4:	4802      	ldr	r0, [pc, #8]	; (8001ce0 <USART1_IRQHandler+0x10>)
 8001cd6:	f006 fc61 	bl	800859c <HAL_UART_IRQHandler>
  /* USER CODE BEGIN USART1_IRQn 1 */

  /* USER CODE END USART1_IRQn 1 */
}
 8001cda:	bf00      	nop
 8001cdc:	bd80      	pop	{r7, pc}
 8001cde:	bf00      	nop
 8001ce0:	20000488 	.word	0x20000488

08001ce4 <EXTI15_10_IRQHandler>:

/**
  * @brief This function handles EXTI line[15:10] interrupts.
  */
void EXTI15_10_IRQHandler(void)
{
 8001ce4:	b580      	push	{r7, lr}
 8001ce6:	af00      	add	r7, sp, #0
  /* USER CODE BEGIN EXTI15_10_IRQn 0 */

  /* USER CODE END EXTI15_10_IRQn 0 */
  HAL_GPIO_EXTI_IRQHandler(GPIO_PIN_13);
 8001ce8:	f44f 5000 	mov.w	r0, #8192	; 0x2000
 8001cec:	f002 fe08 	bl	8004900 <HAL_GPIO_EXTI_IRQHandler>
  HAL_GPIO_EXTI_IRQHandler(GPIO_PIN_14);
 8001cf0:	f44f 4080 	mov.w	r0, #16384	; 0x4000
 8001cf4:	f002 fe04 	bl	8004900 <HAL_GPIO_EXTI_IRQHandler>
  HAL_GPIO_EXTI_IRQHandler(GPIO_PIN_15);
 8001cf8:	f44f 4000 	mov.w	r0, #32768	; 0x8000
 8001cfc:	f002 fe00 	bl	8004900 <HAL_GPIO_EXTI_IRQHandler>
  /* USER CODE BEGIN EXTI15_10_IRQn 1 */

  /* USER CODE END EXTI15_10_IRQn 1 */
}
 8001d00:	bf00      	nop
 8001d02:	bd80      	pop	{r7, pc}

08001d04 <_sbrk>:
 *
 * @param incr Memory size
 * @return Pointer to allocated memory
 */
void *_sbrk(ptrdiff_t incr)
{
 8001d04:	b580      	push	{r7, lr}
 8001d06:	b086      	sub	sp, #24
 8001d08:	af00      	add	r7, sp, #0
 8001d0a:	6078      	str	r0, [r7, #4]
  extern uint8_t _end; /* Symbol defined in the linker script */
  extern uint8_t _estack; /* Symbol defined in the linker script */
  extern uint32_t _Min_Stack_Size; /* Symbol defined in the linker script */
  const uint32_t stack_limit = (uint32_t)&_estack - (uint32_t)&_Min_Stack_Size;
 8001d0c:	4a14      	ldr	r2, [pc, #80]	; (8001d60 <_sbrk+0x5c>)
 8001d0e:	4b15      	ldr	r3, [pc, #84]	; (8001d64 <_sbrk+0x60>)
 8001d10:	1ad3      	subs	r3, r2, r3
 8001d12:	617b      	str	r3, [r7, #20]
  const uint8_t *max_heap = (uint8_t *)stack_limit;
 8001d14:	697b      	ldr	r3, [r7, #20]
 8001d16:	613b      	str	r3, [r7, #16]
  uint8_t *prev_heap_end;

  /* Initialize heap end at first call */
  if (NULL == __sbrk_heap_end)
 8001d18:	4b13      	ldr	r3, [pc, #76]	; (8001d68 <_sbrk+0x64>)
 8001d1a:	681b      	ldr	r3, [r3, #0]
 8001d1c:	2b00      	cmp	r3, #0
 8001d1e:	d102      	bne.n	8001d26 <_sbrk+0x22>
  {
    __sbrk_heap_end = &_end;
 8001d20:	4b11      	ldr	r3, [pc, #68]	; (8001d68 <_sbrk+0x64>)
 8001d22:	4a12      	ldr	r2, [pc, #72]	; (8001d6c <_sbrk+0x68>)
 8001d24:	601a      	str	r2, [r3, #0]
  }

  /* Protect heap from growing into the reserved MSP stack */
  if (__sbrk_heap_end + incr > max_heap)
 8001d26:	4b10      	ldr	r3, [pc, #64]	; (8001d68 <_sbrk+0x64>)
 8001d28:	681a      	ldr	r2, [r3, #0]
 8001d2a:	687b      	ldr	r3, [r7, #4]
 8001d2c:	4413      	add	r3, r2
 8001d2e:	693a      	ldr	r2, [r7, #16]
 8001d30:	429a      	cmp	r2, r3
 8001d32:	d207      	bcs.n	8001d44 <_sbrk+0x40>
  {
    errno = ENOMEM;
 8001d34:	f00c fbe0 	bl	800e4f8 <__errno>
 8001d38:	4603      	mov	r3, r0
 8001d3a:	220c      	movs	r2, #12
 8001d3c:	601a      	str	r2, [r3, #0]
    return (void *)-1;
 8001d3e:	f04f 33ff 	mov.w	r3, #4294967295
 8001d42:	e009      	b.n	8001d58 <_sbrk+0x54>
  }

  prev_heap_end = __sbrk_heap_end;
 8001d44:	4b08      	ldr	r3, [pc, #32]	; (8001d68 <_sbrk+0x64>)
 8001d46:	681b      	ldr	r3, [r3, #0]
 8001d48:	60fb      	str	r3, [r7, #12]
  __sbrk_heap_end += incr;
 8001d4a:	4b07      	ldr	r3, [pc, #28]	; (8001d68 <_sbrk+0x64>)
 8001d4c:	681a      	ldr	r2, [r3, #0]
 8001d4e:	687b      	ldr	r3, [r7, #4]
 8001d50:	4413      	add	r3, r2
 8001d52:	4a05      	ldr	r2, [pc, #20]	; (8001d68 <_sbrk+0x64>)
 8001d54:	6013      	str	r3, [r2, #0]

  return (void *)prev_heap_end;
 8001d56:	68fb      	ldr	r3, [r7, #12]
}
 8001d58:	4618      	mov	r0, r3
 8001d5a:	3718      	adds	r7, #24
 8001d5c:	46bd      	mov	sp, r7
 8001d5e:	bd80      	pop	{r7, pc}
 8001d60:	20005000 	.word	0x20005000
 8001d64:	00000400 	.word	0x00000400
 8001d68:	200005f0 	.word	0x200005f0
 8001d6c:	20002968 	.word	0x20002968

08001d70 <SystemInit>:
  * @note   This function should be used only after reset.
  * @param  None
  * @retval None
  */
void SystemInit (void)
{
 8001d70:	b480      	push	{r7}
 8001d72:	af00      	add	r7, sp, #0

  /* Configure the Vector Table location -------------------------------------*/
#if defined(USER_VECT_TAB_ADDRESS)
  SCB->VTOR = VECT_TAB_BASE_ADDRESS | VECT_TAB_OFFSET; /* Vector Table Relocation in Internal SRAM. */
#endif /* USER_VECT_TAB_ADDRESS */
}
 8001d74:	bf00      	nop
 8001d76:	46bd      	mov	sp, r7
 8001d78:	bc80      	pop	{r7}
 8001d7a:	4770      	bx	lr
 8001d7c:	0000      	movs	r0, r0
	...

08001d80 <bandpass_filter_x>:
 *            1 - 1.942*z^-1 + 1.395*z^-2 - 0.4017*z^-3 + 0.2053*z^-4
 */
// y[n] = 0.3003*(x[n] - 2*x[n-2] + x[n-4])
// + 1.942*y[n-1] - 1.395*y[n-2] + 0.4017*y[n-3] - 0.2053*y[n-4]
//
uint16_t bandpass_filter_x(uint16_t x[], uint16_t y[], uint8_t order){
 8001d80:	e92d 43b0 	stmdb	sp!, {r4, r5, r7, r8, r9, lr}
 8001d84:	b092      	sub	sp, #72	; 0x48
 8001d86:	af00      	add	r7, sp, #0
 8001d88:	60f8      	str	r0, [r7, #12]
 8001d8a:	60b9      	str	r1, [r7, #8]
 8001d8c:	4613      	mov	r3, r2
 8001d8e:	71fb      	strb	r3, [r7, #7]
	uint8_t n = order - 1;
 8001d90:	79fb      	ldrb	r3, [r7, #7]
 8001d92:	3b01      	subs	r3, #1
 8001d94:	f887 303f 	strb.w	r3, [r7, #63]	; 0x3f
	uint16_t output = 0;
 8001d98:	2300      	movs	r3, #0
 8001d9a:	f8a7 3046 	strh.w	r3, [r7, #70]	; 0x46
	//y[n] = (uint16_t) pass_b[1]*y[n-1] + pass_b[2]*y[n-2] + pass_b[3]*y[n-3] + pass_b[4]*y[n-4] + gain_pass_a*(pass_a[0]*x[n] - pass_a[2]*x[n-2] + pass_a[4]*x[n-4]);
	for (int i = 0; i < order; i++){
 8001d9e:	2300      	movs	r3, #0
 8001da0:	643b      	str	r3, [r7, #64]	; 0x40
 8001da2:	e06f      	b.n	8001e84 <bandpass_filter_x+0x104>
	  output += pass_b[i]*y[n-i] + gain_pass_a*pass_a[i]*x[n-i];
 8001da4:	4b40      	ldr	r3, [pc, #256]	; (8001ea8 <bandpass_filter_x+0x128>)
 8001da6:	f107 0428 	add.w	r4, r7, #40	; 0x28
 8001daa:	461d      	mov	r5, r3
 8001dac:	cd0f      	ldmia	r5!, {r0, r1, r2, r3}
 8001dae:	c40f      	stmia	r4!, {r0, r1, r2, r3}
 8001db0:	682b      	ldr	r3, [r5, #0]
 8001db2:	6023      	str	r3, [r4, #0]
 8001db4:	6c3b      	ldr	r3, [r7, #64]	; 0x40
 8001db6:	009b      	lsls	r3, r3, #2
 8001db8:	3348      	adds	r3, #72	; 0x48
 8001dba:	443b      	add	r3, r7
 8001dbc:	f853 4c20 	ldr.w	r4, [r3, #-32]
 8001dc0:	f897 203f 	ldrb.w	r2, [r7, #63]	; 0x3f
 8001dc4:	6c3b      	ldr	r3, [r7, #64]	; 0x40
 8001dc6:	1ad3      	subs	r3, r2, r3
 8001dc8:	005b      	lsls	r3, r3, #1
 8001dca:	68ba      	ldr	r2, [r7, #8]
 8001dcc:	4413      	add	r3, r2
 8001dce:	881b      	ldrh	r3, [r3, #0]
 8001dd0:	4618      	mov	r0, r3
 8001dd2:	f7fe fe31 	bl	8000a38 <__aeabi_i2f>
 8001dd6:	4603      	mov	r3, r0
 8001dd8:	4619      	mov	r1, r3
 8001dda:	4620      	mov	r0, r4
 8001ddc:	f7fe fae2 	bl	80003a4 <__aeabi_fmul>
 8001de0:	4603      	mov	r3, r0
 8001de2:	4618      	mov	r0, r3
 8001de4:	f7fe fcf6 	bl	80007d4 <__aeabi_f2d>
 8001de8:	4680      	mov	r8, r0
 8001dea:	4689      	mov	r9, r1
 8001dec:	4b2f      	ldr	r3, [pc, #188]	; (8001eac <bandpass_filter_x+0x12c>)
 8001dee:	f107 0414 	add.w	r4, r7, #20
 8001df2:	461d      	mov	r5, r3
 8001df4:	cd0f      	ldmia	r5!, {r0, r1, r2, r3}
 8001df6:	c40f      	stmia	r4!, {r0, r1, r2, r3}
 8001df8:	682b      	ldr	r3, [r5, #0]
 8001dfa:	6023      	str	r3, [r4, #0]
 8001dfc:	6c3b      	ldr	r3, [r7, #64]	; 0x40
 8001dfe:	009b      	lsls	r3, r3, #2
 8001e00:	3348      	adds	r3, #72	; 0x48
 8001e02:	443b      	add	r3, r7
 8001e04:	f853 3c34 	ldr.w	r3, [r3, #-52]
 8001e08:	4618      	mov	r0, r3
 8001e0a:	f7fe fcd1 	bl	80007b0 <__aeabi_i2d>
 8001e0e:	a324      	add	r3, pc, #144	; (adr r3, 8001ea0 <bandpass_filter_x+0x120>)
 8001e10:	e9d3 2300 	ldrd	r2, r3, [r3]
 8001e14:	f7fe f99c 	bl	8000150 <__aeabi_dmul>
 8001e18:	4602      	mov	r2, r0
 8001e1a:	460b      	mov	r3, r1
 8001e1c:	4614      	mov	r4, r2
 8001e1e:	461d      	mov	r5, r3
 8001e20:	f897 203f 	ldrb.w	r2, [r7, #63]	; 0x3f
 8001e24:	6c3b      	ldr	r3, [r7, #64]	; 0x40
 8001e26:	1ad3      	subs	r3, r2, r3
 8001e28:	005b      	lsls	r3, r3, #1
 8001e2a:	68fa      	ldr	r2, [r7, #12]
 8001e2c:	4413      	add	r3, r2
 8001e2e:	881b      	ldrh	r3, [r3, #0]
 8001e30:	4618      	mov	r0, r3
 8001e32:	f7fe fcbd 	bl	80007b0 <__aeabi_i2d>
 8001e36:	4602      	mov	r2, r0
 8001e38:	460b      	mov	r3, r1
 8001e3a:	4620      	mov	r0, r4
 8001e3c:	4629      	mov	r1, r5
 8001e3e:	f7fe f987 	bl	8000150 <__aeabi_dmul>
 8001e42:	4602      	mov	r2, r0
 8001e44:	460b      	mov	r3, r1
 8001e46:	4640      	mov	r0, r8
 8001e48:	4649      	mov	r1, r9
 8001e4a:	f7fe fb65 	bl	8000518 <__adddf3>
 8001e4e:	4602      	mov	r2, r0
 8001e50:	460b      	mov	r3, r1
 8001e52:	4614      	mov	r4, r2
 8001e54:	461d      	mov	r5, r3
 8001e56:	f8b7 3046 	ldrh.w	r3, [r7, #70]	; 0x46
 8001e5a:	4618      	mov	r0, r3
 8001e5c:	f7fe fca8 	bl	80007b0 <__aeabi_i2d>
 8001e60:	4602      	mov	r2, r0
 8001e62:	460b      	mov	r3, r1
 8001e64:	4620      	mov	r0, r4
 8001e66:	4629      	mov	r1, r5
 8001e68:	f7fe fb56 	bl	8000518 <__adddf3>
 8001e6c:	4602      	mov	r2, r0
 8001e6e:	460b      	mov	r3, r1
 8001e70:	4610      	mov	r0, r2
 8001e72:	4619      	mov	r1, r3
 8001e74:	f7fe fd06 	bl	8000884 <__aeabi_d2uiz>
 8001e78:	4603      	mov	r3, r0
 8001e7a:	f8a7 3046 	strh.w	r3, [r7, #70]	; 0x46
	for (int i = 0; i < order; i++){
 8001e7e:	6c3b      	ldr	r3, [r7, #64]	; 0x40
 8001e80:	3301      	adds	r3, #1
 8001e82:	643b      	str	r3, [r7, #64]	; 0x40
 8001e84:	79fb      	ldrb	r3, [r7, #7]
 8001e86:	6c3a      	ldr	r2, [r7, #64]	; 0x40
 8001e88:	429a      	cmp	r2, r3
 8001e8a:	db8b      	blt.n	8001da4 <bandpass_filter_x+0x24>
	}
	return output;
 8001e8c:	f8b7 3046 	ldrh.w	r3, [r7, #70]	; 0x46
}
 8001e90:	4618      	mov	r0, r3
 8001e92:	3748      	adds	r7, #72	; 0x48
 8001e94:	46bd      	mov	sp, r7
 8001e96:	e8bd 83b0 	ldmia.w	sp!, {r4, r5, r7, r8, r9, pc}
 8001e9a:	bf00      	nop
 8001e9c:	f3af 8000 	nop.w
 8001ea0:	7dbf4880 	.word	0x7dbf4880
 8001ea4:	3fd3381d 	.word	0x3fd3381d
 8001ea8:	0800ee84 	.word	0x0800ee84
 8001eac:	0800ee98 	.word	0x0800ee98

08001eb0 <notch_filter_1_x>:

//Notch filter
//x[5] = {x[n], x[n-1], x[n-2], x[n-3], x[n-4]}
//y[3] = {y[n], y[n-1],y[n-2]}
uint16_t notch_filter_1_x(uint16_t x[], uint16_t y[], uint8_t order){
 8001eb0:	b5b0      	push	{r4, r5, r7, lr}
 8001eb2:	b08e      	sub	sp, #56	; 0x38
 8001eb4:	af00      	add	r7, sp, #0
 8001eb6:	60f8      	str	r0, [r7, #12]
 8001eb8:	60b9      	str	r1, [r7, #8]
 8001eba:	4613      	mov	r3, r2
 8001ebc:	71fb      	strb	r3, [r7, #7]
	uint8_t n = order - 1;
 8001ebe:	79fb      	ldrb	r3, [r7, #7]
 8001ec0:	3b01      	subs	r3, #1
 8001ec2:	f887 302f 	strb.w	r3, [r7, #47]	; 0x2f
	uint16_t output = 0;
 8001ec6:	2300      	movs	r3, #0
 8001ec8:	86fb      	strh	r3, [r7, #54]	; 0x36
	for (int i = 0; i < order; i ++){
 8001eca:	2300      	movs	r3, #0
 8001ecc:	633b      	str	r3, [r7, #48]	; 0x30
 8001ece:	e052      	b.n	8001f76 <notch_filter_1_x+0xc6>
		output += notch_b_1[i]*y[n-i] + notch_a_1[i]*x[n-i];
 8001ed0:	4a2d      	ldr	r2, [pc, #180]	; (8001f88 <notch_filter_1_x+0xd8>)
 8001ed2:	f107 0320 	add.w	r3, r7, #32
 8001ed6:	ca07      	ldmia	r2, {r0, r1, r2}
 8001ed8:	e883 0007 	stmia.w	r3, {r0, r1, r2}
 8001edc:	6b3b      	ldr	r3, [r7, #48]	; 0x30
 8001ede:	009b      	lsls	r3, r3, #2
 8001ee0:	3338      	adds	r3, #56	; 0x38
 8001ee2:	443b      	add	r3, r7
 8001ee4:	f853 4c18 	ldr.w	r4, [r3, #-24]
 8001ee8:	f897 202f 	ldrb.w	r2, [r7, #47]	; 0x2f
 8001eec:	6b3b      	ldr	r3, [r7, #48]	; 0x30
 8001eee:	1ad3      	subs	r3, r2, r3
 8001ef0:	005b      	lsls	r3, r3, #1
 8001ef2:	68ba      	ldr	r2, [r7, #8]
 8001ef4:	4413      	add	r3, r2
 8001ef6:	881b      	ldrh	r3, [r3, #0]
 8001ef8:	4618      	mov	r0, r3
 8001efa:	f7fe fd9d 	bl	8000a38 <__aeabi_i2f>
 8001efe:	4603      	mov	r3, r0
 8001f00:	4619      	mov	r1, r3
 8001f02:	4620      	mov	r0, r4
 8001f04:	f7fe fa4e 	bl	80003a4 <__aeabi_fmul>
 8001f08:	4603      	mov	r3, r0
 8001f0a:	461d      	mov	r5, r3
 8001f0c:	4a1f      	ldr	r2, [pc, #124]	; (8001f8c <notch_filter_1_x+0xdc>)
 8001f0e:	f107 0314 	add.w	r3, r7, #20
 8001f12:	ca07      	ldmia	r2, {r0, r1, r2}
 8001f14:	e883 0007 	stmia.w	r3, {r0, r1, r2}
 8001f18:	6b3b      	ldr	r3, [r7, #48]	; 0x30
 8001f1a:	009b      	lsls	r3, r3, #2
 8001f1c:	3338      	adds	r3, #56	; 0x38
 8001f1e:	443b      	add	r3, r7
 8001f20:	f853 4c24 	ldr.w	r4, [r3, #-36]
 8001f24:	f897 202f 	ldrb.w	r2, [r7, #47]	; 0x2f
 8001f28:	6b3b      	ldr	r3, [r7, #48]	; 0x30
 8001f2a:	1ad3      	subs	r3, r2, r3
 8001f2c:	005b      	lsls	r3, r3, #1
 8001f2e:	68fa      	ldr	r2, [r7, #12]
 8001f30:	4413      	add	r3, r2
 8001f32:	881b      	ldrh	r3, [r3, #0]
 8001f34:	4618      	mov	r0, r3
 8001f36:	f7fe fd7f 	bl	8000a38 <__aeabi_i2f>
 8001f3a:	4603      	mov	r3, r0
 8001f3c:	4619      	mov	r1, r3
 8001f3e:	4620      	mov	r0, r4
 8001f40:	f7fe fa30 	bl	80003a4 <__aeabi_fmul>
 8001f44:	4603      	mov	r3, r0
 8001f46:	4619      	mov	r1, r3
 8001f48:	4628      	mov	r0, r5
 8001f4a:	f7fe fcc1 	bl	80008d0 <__addsf3>
 8001f4e:	4603      	mov	r3, r0
 8001f50:	461c      	mov	r4, r3
 8001f52:	8efb      	ldrh	r3, [r7, #54]	; 0x36
 8001f54:	4618      	mov	r0, r3
 8001f56:	f7fe fd6f 	bl	8000a38 <__aeabi_i2f>
 8001f5a:	4603      	mov	r3, r0
 8001f5c:	4619      	mov	r1, r3
 8001f5e:	4620      	mov	r0, r4
 8001f60:	f7fe fcb6 	bl	80008d0 <__addsf3>
 8001f64:	4603      	mov	r3, r0
 8001f66:	4618      	mov	r0, r3
 8001f68:	f7fe fdba 	bl	8000ae0 <__aeabi_f2uiz>
 8001f6c:	4603      	mov	r3, r0
 8001f6e:	86fb      	strh	r3, [r7, #54]	; 0x36
	for (int i = 0; i < order; i ++){
 8001f70:	6b3b      	ldr	r3, [r7, #48]	; 0x30
 8001f72:	3301      	adds	r3, #1
 8001f74:	633b      	str	r3, [r7, #48]	; 0x30
 8001f76:	79fb      	ldrb	r3, [r7, #7]
 8001f78:	6b3a      	ldr	r2, [r7, #48]	; 0x30
 8001f7a:	429a      	cmp	r2, r3
 8001f7c:	dba8      	blt.n	8001ed0 <notch_filter_1_x+0x20>
	}
	return output;
 8001f7e:	8efb      	ldrh	r3, [r7, #54]	; 0x36
}
 8001f80:	4618      	mov	r0, r3
 8001f82:	3738      	adds	r7, #56	; 0x38
 8001f84:	46bd      	mov	sp, r7
 8001f86:	bdb0      	pop	{r4, r5, r7, pc}
 8001f88:	0800eeac 	.word	0x0800eeac
 8001f8c:	0800eeb8 	.word	0x0800eeb8

08001f90 <delay_signal_x>:
	return output;
}
*/

// x[5] = {0, 0, 0, 0, 10} -> x[5] = {0, 0, 0, 10, 5}; -> x[5] = {0, 0, 10, 5, 0}
void delay_signal_x(uint16_t x[], uint8_t n_x){
 8001f90:	b480      	push	{r7}
 8001f92:	b085      	sub	sp, #20
 8001f94:	af00      	add	r7, sp, #0
 8001f96:	6078      	str	r0, [r7, #4]
 8001f98:	460b      	mov	r3, r1
 8001f9a:	70fb      	strb	r3, [r7, #3]
	uint8_t n = n_x-1;
 8001f9c:	78fb      	ldrb	r3, [r7, #3]
 8001f9e:	3b01      	subs	r3, #1
 8001fa0:	72fb      	strb	r3, [r7, #11]
	for(int i = 0; i < n; i++){
 8001fa2:	2300      	movs	r3, #0
 8001fa4:	60fb      	str	r3, [r7, #12]
 8001fa6:	e00d      	b.n	8001fc4 <delay_signal_x+0x34>
		x[i] = x[i+1];
 8001fa8:	68fb      	ldr	r3, [r7, #12]
 8001faa:	3301      	adds	r3, #1
 8001fac:	005b      	lsls	r3, r3, #1
 8001fae:	687a      	ldr	r2, [r7, #4]
 8001fb0:	441a      	add	r2, r3
 8001fb2:	68fb      	ldr	r3, [r7, #12]
 8001fb4:	005b      	lsls	r3, r3, #1
 8001fb6:	6879      	ldr	r1, [r7, #4]
 8001fb8:	440b      	add	r3, r1
 8001fba:	8812      	ldrh	r2, [r2, #0]
 8001fbc:	801a      	strh	r2, [r3, #0]
	for(int i = 0; i < n; i++){
 8001fbe:	68fb      	ldr	r3, [r7, #12]
 8001fc0:	3301      	adds	r3, #1
 8001fc2:	60fb      	str	r3, [r7, #12]
 8001fc4:	7afb      	ldrb	r3, [r7, #11]
 8001fc6:	68fa      	ldr	r2, [r7, #12]
 8001fc8:	429a      	cmp	r2, r3
 8001fca:	dbed      	blt.n	8001fa8 <delay_signal_x+0x18>
	}
}
 8001fcc:	bf00      	nop
 8001fce:	bf00      	nop
 8001fd0:	3714      	adds	r7, #20
 8001fd2:	46bd      	mov	sp, r7
 8001fd4:	bc80      	pop	{r7}
 8001fd6:	4770      	bx	lr

08001fd8 <SELECT>:
 * SPI functions
 **************************************/

/* slave select */
static void SELECT(void)
{
 8001fd8:	b580      	push	{r7, lr}
 8001fda:	af00      	add	r7, sp, #0
	HAL_GPIO_WritePin(SD_CS_PORT, SD_CS_PIN, GPIO_PIN_RESET);
 8001fdc:	2200      	movs	r2, #0
 8001fde:	2110      	movs	r1, #16
 8001fe0:	4803      	ldr	r0, [pc, #12]	; (8001ff0 <SELECT+0x18>)
 8001fe2:	f002 fc75 	bl	80048d0 <HAL_GPIO_WritePin>
	HAL_Delay(1);
 8001fe6:	2001      	movs	r0, #1
 8001fe8:	f001 f9dc 	bl	80033a4 <HAL_Delay>
}
 8001fec:	bf00      	nop
 8001fee:	bd80      	pop	{r7, pc}
 8001ff0:	40010800 	.word	0x40010800

08001ff4 <DESELECT>:

/* slave deselect */
static void DESELECT(void)
{
 8001ff4:	b580      	push	{r7, lr}
 8001ff6:	af00      	add	r7, sp, #0
	HAL_GPIO_WritePin(SD_CS_PORT, SD_CS_PIN, GPIO_PIN_SET);
 8001ff8:	2201      	movs	r2, #1
 8001ffa:	2110      	movs	r1, #16
 8001ffc:	4803      	ldr	r0, [pc, #12]	; (800200c <DESELECT+0x18>)
 8001ffe:	f002 fc67 	bl	80048d0 <HAL_GPIO_WritePin>
	HAL_Delay(1);
 8002002:	2001      	movs	r0, #1
 8002004:	f001 f9ce 	bl	80033a4 <HAL_Delay>
}
 8002008:	bf00      	nop
 800200a:	bd80      	pop	{r7, pc}
 800200c:	40010800 	.word	0x40010800

08002010 <SPI_TxByte>:

/* SPI transmit a byte */
static void SPI_TxByte(uint8_t data)
{
 8002010:	b580      	push	{r7, lr}
 8002012:	b082      	sub	sp, #8
 8002014:	af00      	add	r7, sp, #0
 8002016:	4603      	mov	r3, r0
 8002018:	71fb      	strb	r3, [r7, #7]
	while(!__HAL_SPI_GET_FLAG(HSPI_SDCARD, SPI_FLAG_TXE));
 800201a:	bf00      	nop
 800201c:	4b08      	ldr	r3, [pc, #32]	; (8002040 <SPI_TxByte+0x30>)
 800201e:	681b      	ldr	r3, [r3, #0]
 8002020:	689b      	ldr	r3, [r3, #8]
 8002022:	f003 0302 	and.w	r3, r3, #2
 8002026:	2b02      	cmp	r3, #2
 8002028:	d1f8      	bne.n	800201c <SPI_TxByte+0xc>
	HAL_SPI_Transmit(HSPI_SDCARD, &data, 1, SPI_TIMEOUT);
 800202a:	1df9      	adds	r1, r7, #7
 800202c:	2364      	movs	r3, #100	; 0x64
 800202e:	2201      	movs	r2, #1
 8002030:	4803      	ldr	r0, [pc, #12]	; (8002040 <SPI_TxByte+0x30>)
 8002032:	f005 fc99 	bl	8007968 <HAL_SPI_Transmit>
}
 8002036:	bf00      	nop
 8002038:	3708      	adds	r7, #8
 800203a:	46bd      	mov	sp, r7
 800203c:	bd80      	pop	{r7, pc}
 800203e:	bf00      	nop
 8002040:	20000430 	.word	0x20000430

08002044 <SPI_TxBuffer>:

/* SPI transmit buffer */
static void SPI_TxBuffer(uint8_t *buffer, uint16_t len)
{
 8002044:	b580      	push	{r7, lr}
 8002046:	b082      	sub	sp, #8
 8002048:	af00      	add	r7, sp, #0
 800204a:	6078      	str	r0, [r7, #4]
 800204c:	460b      	mov	r3, r1
 800204e:	807b      	strh	r3, [r7, #2]
	while(!__HAL_SPI_GET_FLAG(HSPI_SDCARD, SPI_FLAG_TXE));
 8002050:	bf00      	nop
 8002052:	4b08      	ldr	r3, [pc, #32]	; (8002074 <SPI_TxBuffer+0x30>)
 8002054:	681b      	ldr	r3, [r3, #0]
 8002056:	689b      	ldr	r3, [r3, #8]
 8002058:	f003 0302 	and.w	r3, r3, #2
 800205c:	2b02      	cmp	r3, #2
 800205e:	d1f8      	bne.n	8002052 <SPI_TxBuffer+0xe>
	HAL_SPI_Transmit(HSPI_SDCARD, buffer, len, SPI_TIMEOUT);
 8002060:	887a      	ldrh	r2, [r7, #2]
 8002062:	2364      	movs	r3, #100	; 0x64
 8002064:	6879      	ldr	r1, [r7, #4]
 8002066:	4803      	ldr	r0, [pc, #12]	; (8002074 <SPI_TxBuffer+0x30>)
 8002068:	f005 fc7e 	bl	8007968 <HAL_SPI_Transmit>
}
 800206c:	bf00      	nop
 800206e:	3708      	adds	r7, #8
 8002070:	46bd      	mov	sp, r7
 8002072:	bd80      	pop	{r7, pc}
 8002074:	20000430 	.word	0x20000430

08002078 <SPI_RxByte>:

/* SPI receive a byte */
static uint8_t SPI_RxByte(void)
{
 8002078:	b580      	push	{r7, lr}
 800207a:	b084      	sub	sp, #16
 800207c:	af02      	add	r7, sp, #8
	uint8_t dummy, data;
	dummy = 0xFF;
 800207e:	23ff      	movs	r3, #255	; 0xff
 8002080:	71fb      	strb	r3, [r7, #7]

	while(!__HAL_SPI_GET_FLAG(HSPI_SDCARD, SPI_FLAG_TXE));
 8002082:	bf00      	nop
 8002084:	4b09      	ldr	r3, [pc, #36]	; (80020ac <SPI_RxByte+0x34>)
 8002086:	681b      	ldr	r3, [r3, #0]
 8002088:	689b      	ldr	r3, [r3, #8]
 800208a:	f003 0302 	and.w	r3, r3, #2
 800208e:	2b02      	cmp	r3, #2
 8002090:	d1f8      	bne.n	8002084 <SPI_RxByte+0xc>
	HAL_SPI_TransmitReceive(HSPI_SDCARD, &dummy, &data, 1, SPI_TIMEOUT);
 8002092:	1dba      	adds	r2, r7, #6
 8002094:	1df9      	adds	r1, r7, #7
 8002096:	2364      	movs	r3, #100	; 0x64
 8002098:	9300      	str	r3, [sp, #0]
 800209a:	2301      	movs	r3, #1
 800209c:	4803      	ldr	r0, [pc, #12]	; (80020ac <SPI_RxByte+0x34>)
 800209e:	f005 fda6 	bl	8007bee <HAL_SPI_TransmitReceive>

	return data;
 80020a2:	79bb      	ldrb	r3, [r7, #6]
}
 80020a4:	4618      	mov	r0, r3
 80020a6:	3708      	adds	r7, #8
 80020a8:	46bd      	mov	sp, r7
 80020aa:	bd80      	pop	{r7, pc}
 80020ac:	20000430 	.word	0x20000430

080020b0 <SPI_RxBytePtr>:

/* SPI receive a byte via pointer */
static void SPI_RxBytePtr(uint8_t *buff)
{
 80020b0:	b580      	push	{r7, lr}
 80020b2:	b082      	sub	sp, #8
 80020b4:	af00      	add	r7, sp, #0
 80020b6:	6078      	str	r0, [r7, #4]
	*buff = SPI_RxByte();
 80020b8:	f7ff ffde 	bl	8002078 <SPI_RxByte>
 80020bc:	4603      	mov	r3, r0
 80020be:	461a      	mov	r2, r3
 80020c0:	687b      	ldr	r3, [r7, #4]
 80020c2:	701a      	strb	r2, [r3, #0]
}
 80020c4:	bf00      	nop
 80020c6:	3708      	adds	r7, #8
 80020c8:	46bd      	mov	sp, r7
 80020ca:	bd80      	pop	{r7, pc}

080020cc <SD_ReadyWait>:
 * SD functions
 **************************************/

/* wait SD ready */
static uint8_t SD_ReadyWait(void)
{
 80020cc:	b580      	push	{r7, lr}
 80020ce:	b082      	sub	sp, #8
 80020d0:	af00      	add	r7, sp, #0
	uint8_t res;

	/* timeout 500ms */
	Timer2 = 500;
 80020d2:	4b0a      	ldr	r3, [pc, #40]	; (80020fc <SD_ReadyWait+0x30>)
 80020d4:	f44f 72fa 	mov.w	r2, #500	; 0x1f4
 80020d8:	801a      	strh	r2, [r3, #0]

	/* if SD goes ready, receives 0xFF */
	do {
		res = SPI_RxByte();
 80020da:	f7ff ffcd 	bl	8002078 <SPI_RxByte>
 80020de:	4603      	mov	r3, r0
 80020e0:	71fb      	strb	r3, [r7, #7]
	} while ((res != 0xFF) && Timer2);
 80020e2:	79fb      	ldrb	r3, [r7, #7]
 80020e4:	2bff      	cmp	r3, #255	; 0xff
 80020e6:	d004      	beq.n	80020f2 <SD_ReadyWait+0x26>
 80020e8:	4b04      	ldr	r3, [pc, #16]	; (80020fc <SD_ReadyWait+0x30>)
 80020ea:	881b      	ldrh	r3, [r3, #0]
 80020ec:	b29b      	uxth	r3, r3
 80020ee:	2b00      	cmp	r3, #0
 80020f0:	d1f3      	bne.n	80020da <SD_ReadyWait+0xe>

	return res;
 80020f2:	79fb      	ldrb	r3, [r7, #7]
}
 80020f4:	4618      	mov	r0, r3
 80020f6:	3708      	adds	r7, #8
 80020f8:	46bd      	mov	sp, r7
 80020fa:	bd80      	pop	{r7, pc}
 80020fc:	200005ec 	.word	0x200005ec

08002100 <SD_PowerOn>:

/* power on */
static void SD_PowerOn(void)
{
 8002100:	b580      	push	{r7, lr}
 8002102:	b084      	sub	sp, #16
 8002104:	af00      	add	r7, sp, #0
	uint8_t args[6];
	uint32_t cnt = 0x1FFF;
 8002106:	f641 73ff 	movw	r3, #8191	; 0x1fff
 800210a:	60fb      	str	r3, [r7, #12]

	/* transmit bytes to wake up */
	DESELECT();
 800210c:	f7ff ff72 	bl	8001ff4 <DESELECT>
	for(int i = 0; i < 10; i++)
 8002110:	2300      	movs	r3, #0
 8002112:	60bb      	str	r3, [r7, #8]
 8002114:	e005      	b.n	8002122 <SD_PowerOn+0x22>
	{
		SPI_TxByte(0xFF);
 8002116:	20ff      	movs	r0, #255	; 0xff
 8002118:	f7ff ff7a 	bl	8002010 <SPI_TxByte>
	for(int i = 0; i < 10; i++)
 800211c:	68bb      	ldr	r3, [r7, #8]
 800211e:	3301      	adds	r3, #1
 8002120:	60bb      	str	r3, [r7, #8]
 8002122:	68bb      	ldr	r3, [r7, #8]
 8002124:	2b09      	cmp	r3, #9
 8002126:	ddf6      	ble.n	8002116 <SD_PowerOn+0x16>
	}

	/* slave select */
	SELECT();
 8002128:	f7ff ff56 	bl	8001fd8 <SELECT>

	/* make idle state */
	args[0] = CMD0;		/* CMD0:GO_IDLE_STATE */
 800212c:	2340      	movs	r3, #64	; 0x40
 800212e:	703b      	strb	r3, [r7, #0]
	args[1] = 0;
 8002130:	2300      	movs	r3, #0
 8002132:	707b      	strb	r3, [r7, #1]
	args[2] = 0;
 8002134:	2300      	movs	r3, #0
 8002136:	70bb      	strb	r3, [r7, #2]
	args[3] = 0;
 8002138:	2300      	movs	r3, #0
 800213a:	70fb      	strb	r3, [r7, #3]
	args[4] = 0;
 800213c:	2300      	movs	r3, #0
 800213e:	713b      	strb	r3, [r7, #4]
	args[5] = 0x95;		/* CRC */
 8002140:	2395      	movs	r3, #149	; 0x95
 8002142:	717b      	strb	r3, [r7, #5]

	SPI_TxBuffer(args, sizeof(args));
 8002144:	463b      	mov	r3, r7
 8002146:	2106      	movs	r1, #6
 8002148:	4618      	mov	r0, r3
 800214a:	f7ff ff7b 	bl	8002044 <SPI_TxBuffer>

	/* wait response */
	while ((SPI_RxByte() != 0x01) && cnt)
 800214e:	e002      	b.n	8002156 <SD_PowerOn+0x56>
	{
		cnt--;
 8002150:	68fb      	ldr	r3, [r7, #12]
 8002152:	3b01      	subs	r3, #1
 8002154:	60fb      	str	r3, [r7, #12]
	while ((SPI_RxByte() != 0x01) && cnt)
 8002156:	f7ff ff8f 	bl	8002078 <SPI_RxByte>
 800215a:	4603      	mov	r3, r0
 800215c:	2b01      	cmp	r3, #1
 800215e:	d002      	beq.n	8002166 <SD_PowerOn+0x66>
 8002160:	68fb      	ldr	r3, [r7, #12]
 8002162:	2b00      	cmp	r3, #0
 8002164:	d1f4      	bne.n	8002150 <SD_PowerOn+0x50>
	}

	DESELECT();
 8002166:	f7ff ff45 	bl	8001ff4 <DESELECT>
	SPI_TxByte(0XFF);
 800216a:	20ff      	movs	r0, #255	; 0xff
 800216c:	f7ff ff50 	bl	8002010 <SPI_TxByte>

	PowerFlag = 1;
 8002170:	4b03      	ldr	r3, [pc, #12]	; (8002180 <SD_PowerOn+0x80>)
 8002172:	2201      	movs	r2, #1
 8002174:	701a      	strb	r2, [r3, #0]
}
 8002176:	bf00      	nop
 8002178:	3710      	adds	r7, #16
 800217a:	46bd      	mov	sp, r7
 800217c:	bd80      	pop	{r7, pc}
 800217e:	bf00      	nop
 8002180:	200005f7 	.word	0x200005f7

08002184 <SD_PowerOff>:

/* power off */
static void SD_PowerOff(void)
{
 8002184:	b480      	push	{r7}
 8002186:	af00      	add	r7, sp, #0
	PowerFlag = 0;
 8002188:	4b03      	ldr	r3, [pc, #12]	; (8002198 <SD_PowerOff+0x14>)
 800218a:	2200      	movs	r2, #0
 800218c:	701a      	strb	r2, [r3, #0]
}
 800218e:	bf00      	nop
 8002190:	46bd      	mov	sp, r7
 8002192:	bc80      	pop	{r7}
 8002194:	4770      	bx	lr
 8002196:	bf00      	nop
 8002198:	200005f7 	.word	0x200005f7

0800219c <SD_CheckPower>:

/* check power flag */
static uint8_t SD_CheckPower(void)
{
 800219c:	b480      	push	{r7}
 800219e:	af00      	add	r7, sp, #0
	return PowerFlag;
 80021a0:	4b02      	ldr	r3, [pc, #8]	; (80021ac <SD_CheckPower+0x10>)
 80021a2:	781b      	ldrb	r3, [r3, #0]
}
 80021a4:	4618      	mov	r0, r3
 80021a6:	46bd      	mov	sp, r7
 80021a8:	bc80      	pop	{r7}
 80021aa:	4770      	bx	lr
 80021ac:	200005f7 	.word	0x200005f7

080021b0 <SD_RxDataBlock>:

/* receive data block */
static bool SD_RxDataBlock(BYTE *buff, UINT len)
{
 80021b0:	b580      	push	{r7, lr}
 80021b2:	b084      	sub	sp, #16
 80021b4:	af00      	add	r7, sp, #0
 80021b6:	6078      	str	r0, [r7, #4]
 80021b8:	6039      	str	r1, [r7, #0]
	uint8_t token;

	/* timeout 200ms */
	Timer1 = 200;
 80021ba:	4b14      	ldr	r3, [pc, #80]	; (800220c <SD_RxDataBlock+0x5c>)
 80021bc:	22c8      	movs	r2, #200	; 0xc8
 80021be:	801a      	strh	r2, [r3, #0]

	/* loop until receive a response or timeout */
	do {
		token = SPI_RxByte();
 80021c0:	f7ff ff5a 	bl	8002078 <SPI_RxByte>
 80021c4:	4603      	mov	r3, r0
 80021c6:	73fb      	strb	r3, [r7, #15]
	} while((token == 0xFF) && Timer1);
 80021c8:	7bfb      	ldrb	r3, [r7, #15]
 80021ca:	2bff      	cmp	r3, #255	; 0xff
 80021cc:	d104      	bne.n	80021d8 <SD_RxDataBlock+0x28>
 80021ce:	4b0f      	ldr	r3, [pc, #60]	; (800220c <SD_RxDataBlock+0x5c>)
 80021d0:	881b      	ldrh	r3, [r3, #0]
 80021d2:	b29b      	uxth	r3, r3
 80021d4:	2b00      	cmp	r3, #0
 80021d6:	d1f3      	bne.n	80021c0 <SD_RxDataBlock+0x10>

	/* invalid response */
	if(token != 0xFE) return FALSE;
 80021d8:	7bfb      	ldrb	r3, [r7, #15]
 80021da:	2bfe      	cmp	r3, #254	; 0xfe
 80021dc:	d001      	beq.n	80021e2 <SD_RxDataBlock+0x32>
 80021de:	2300      	movs	r3, #0
 80021e0:	e00f      	b.n	8002202 <SD_RxDataBlock+0x52>

	/* receive data */
	do {
		SPI_RxBytePtr(buff++);
 80021e2:	687b      	ldr	r3, [r7, #4]
 80021e4:	1c5a      	adds	r2, r3, #1
 80021e6:	607a      	str	r2, [r7, #4]
 80021e8:	4618      	mov	r0, r3
 80021ea:	f7ff ff61 	bl	80020b0 <SPI_RxBytePtr>
	} while(len--);
 80021ee:	683b      	ldr	r3, [r7, #0]
 80021f0:	1e5a      	subs	r2, r3, #1
 80021f2:	603a      	str	r2, [r7, #0]
 80021f4:	2b00      	cmp	r3, #0
 80021f6:	d1f4      	bne.n	80021e2 <SD_RxDataBlock+0x32>

	/* discard CRC */
	SPI_RxByte();
 80021f8:	f7ff ff3e 	bl	8002078 <SPI_RxByte>
	SPI_RxByte();
 80021fc:	f7ff ff3c 	bl	8002078 <SPI_RxByte>

	return TRUE;
 8002200:	2301      	movs	r3, #1
}
 8002202:	4618      	mov	r0, r3
 8002204:	3710      	adds	r7, #16
 8002206:	46bd      	mov	sp, r7
 8002208:	bd80      	pop	{r7, pc}
 800220a:	bf00      	nop
 800220c:	200005eb 	.word	0x200005eb

08002210 <SD_TxDataBlock>:

/* transmit data block */
#if _USE_WRITE == 1
static bool SD_TxDataBlock(const uint8_t *buff, BYTE token)
{
 8002210:	b580      	push	{r7, lr}
 8002212:	b084      	sub	sp, #16
 8002214:	af00      	add	r7, sp, #0
 8002216:	6078      	str	r0, [r7, #4]
 8002218:	460b      	mov	r3, r1
 800221a:	70fb      	strb	r3, [r7, #3]
	uint8_t resp;
	uint8_t i = 0;
 800221c:	2300      	movs	r3, #0
 800221e:	73bb      	strb	r3, [r7, #14]

	/* wait SD ready */
	if (SD_ReadyWait() != 0xFF) return FALSE;
 8002220:	f7ff ff54 	bl	80020cc <SD_ReadyWait>
 8002224:	4603      	mov	r3, r0
 8002226:	2bff      	cmp	r3, #255	; 0xff
 8002228:	d001      	beq.n	800222e <SD_TxDataBlock+0x1e>
 800222a:	2300      	movs	r3, #0
 800222c:	e02f      	b.n	800228e <SD_TxDataBlock+0x7e>

	/* transmit token */
	SPI_TxByte(token);
 800222e:	78fb      	ldrb	r3, [r7, #3]
 8002230:	4618      	mov	r0, r3
 8002232:	f7ff feed 	bl	8002010 <SPI_TxByte>

	/* if it's not STOP token, transmit data */
	if (token != 0xFD)
 8002236:	78fb      	ldrb	r3, [r7, #3]
 8002238:	2bfd      	cmp	r3, #253	; 0xfd
 800223a:	d020      	beq.n	800227e <SD_TxDataBlock+0x6e>
	{
		SPI_TxBuffer((uint8_t*)buff, 512);
 800223c:	f44f 7100 	mov.w	r1, #512	; 0x200
 8002240:	6878      	ldr	r0, [r7, #4]
 8002242:	f7ff feff 	bl	8002044 <SPI_TxBuffer>

		/* discard CRC */
		SPI_RxByte();
 8002246:	f7ff ff17 	bl	8002078 <SPI_RxByte>
		SPI_RxByte();
 800224a:	f7ff ff15 	bl	8002078 <SPI_RxByte>

		/* receive response */
		while (i <= 64)
 800224e:	e00b      	b.n	8002268 <SD_TxDataBlock+0x58>
		{
			resp = SPI_RxByte();
 8002250:	f7ff ff12 	bl	8002078 <SPI_RxByte>
 8002254:	4603      	mov	r3, r0
 8002256:	73fb      	strb	r3, [r7, #15]

			/* transmit 0x05 accepted */
			if ((resp & 0x1F) == 0x05) break;
 8002258:	7bfb      	ldrb	r3, [r7, #15]
 800225a:	f003 031f 	and.w	r3, r3, #31
 800225e:	2b05      	cmp	r3, #5
 8002260:	d006      	beq.n	8002270 <SD_TxDataBlock+0x60>
			i++;
 8002262:	7bbb      	ldrb	r3, [r7, #14]
 8002264:	3301      	adds	r3, #1
 8002266:	73bb      	strb	r3, [r7, #14]
		while (i <= 64)
 8002268:	7bbb      	ldrb	r3, [r7, #14]
 800226a:	2b40      	cmp	r3, #64	; 0x40
 800226c:	d9f0      	bls.n	8002250 <SD_TxDataBlock+0x40>
 800226e:	e000      	b.n	8002272 <SD_TxDataBlock+0x62>
			if ((resp & 0x1F) == 0x05) break;
 8002270:	bf00      	nop
		}

		/* recv buffer clear */
		while (SPI_RxByte() == 0);
 8002272:	bf00      	nop
 8002274:	f7ff ff00 	bl	8002078 <SPI_RxByte>
 8002278:	4603      	mov	r3, r0
 800227a:	2b00      	cmp	r3, #0
 800227c:	d0fa      	beq.n	8002274 <SD_TxDataBlock+0x64>
	}

	/* transmit 0x05 accepted */
	if ((resp & 0x1F) == 0x05) return TRUE;
 800227e:	7bfb      	ldrb	r3, [r7, #15]
 8002280:	f003 031f 	and.w	r3, r3, #31
 8002284:	2b05      	cmp	r3, #5
 8002286:	d101      	bne.n	800228c <SD_TxDataBlock+0x7c>
 8002288:	2301      	movs	r3, #1
 800228a:	e000      	b.n	800228e <SD_TxDataBlock+0x7e>

	return FALSE;
 800228c:	2300      	movs	r3, #0
}
 800228e:	4618      	mov	r0, r3
 8002290:	3710      	adds	r7, #16
 8002292:	46bd      	mov	sp, r7
 8002294:	bd80      	pop	{r7, pc}

08002296 <SD_SendCmd>:
#endif /* _USE_WRITE */

/* transmit command */
static BYTE SD_SendCmd(BYTE cmd, uint32_t arg)
{
 8002296:	b580      	push	{r7, lr}
 8002298:	b084      	sub	sp, #16
 800229a:	af00      	add	r7, sp, #0
 800229c:	4603      	mov	r3, r0
 800229e:	6039      	str	r1, [r7, #0]
 80022a0:	71fb      	strb	r3, [r7, #7]
	uint8_t crc, res;

	/* wait SD ready */
	if (SD_ReadyWait() != 0xFF) return 0xFF;
 80022a2:	f7ff ff13 	bl	80020cc <SD_ReadyWait>
 80022a6:	4603      	mov	r3, r0
 80022a8:	2bff      	cmp	r3, #255	; 0xff
 80022aa:	d001      	beq.n	80022b0 <SD_SendCmd+0x1a>
 80022ac:	23ff      	movs	r3, #255	; 0xff
 80022ae:	e042      	b.n	8002336 <SD_SendCmd+0xa0>

	/* transmit command */
	SPI_TxByte(cmd); 					/* Command */
 80022b0:	79fb      	ldrb	r3, [r7, #7]
 80022b2:	4618      	mov	r0, r3
 80022b4:	f7ff feac 	bl	8002010 <SPI_TxByte>
	SPI_TxByte((uint8_t)(arg >> 24)); 	/* Argument[31..24] */
 80022b8:	683b      	ldr	r3, [r7, #0]
 80022ba:	0e1b      	lsrs	r3, r3, #24
 80022bc:	b2db      	uxtb	r3, r3
 80022be:	4618      	mov	r0, r3
 80022c0:	f7ff fea6 	bl	8002010 <SPI_TxByte>
	SPI_TxByte((uint8_t)(arg >> 16)); 	/* Argument[23..16] */
 80022c4:	683b      	ldr	r3, [r7, #0]
 80022c6:	0c1b      	lsrs	r3, r3, #16
 80022c8:	b2db      	uxtb	r3, r3
 80022ca:	4618      	mov	r0, r3
 80022cc:	f7ff fea0 	bl	8002010 <SPI_TxByte>
	SPI_TxByte((uint8_t)(arg >> 8)); 	/* Argument[15..8] */
 80022d0:	683b      	ldr	r3, [r7, #0]
 80022d2:	0a1b      	lsrs	r3, r3, #8
 80022d4:	b2db      	uxtb	r3, r3
 80022d6:	4618      	mov	r0, r3
 80022d8:	f7ff fe9a 	bl	8002010 <SPI_TxByte>
	SPI_TxByte((uint8_t)arg); 			/* Argument[7..0] */
 80022dc:	683b      	ldr	r3, [r7, #0]
 80022de:	b2db      	uxtb	r3, r3
 80022e0:	4618      	mov	r0, r3
 80022e2:	f7ff fe95 	bl	8002010 <SPI_TxByte>

	/* prepare CRC */
	if(cmd == CMD0) crc = 0x95;	/* CRC for CMD0(0) */
 80022e6:	79fb      	ldrb	r3, [r7, #7]
 80022e8:	2b40      	cmp	r3, #64	; 0x40
 80022ea:	d102      	bne.n	80022f2 <SD_SendCmd+0x5c>
 80022ec:	2395      	movs	r3, #149	; 0x95
 80022ee:	73fb      	strb	r3, [r7, #15]
 80022f0:	e007      	b.n	8002302 <SD_SendCmd+0x6c>
	else if(cmd == CMD8) crc = 0x87;	/* CRC for CMD8(0x1AA) */
 80022f2:	79fb      	ldrb	r3, [r7, #7]
 80022f4:	2b48      	cmp	r3, #72	; 0x48
 80022f6:	d102      	bne.n	80022fe <SD_SendCmd+0x68>
 80022f8:	2387      	movs	r3, #135	; 0x87
 80022fa:	73fb      	strb	r3, [r7, #15]
 80022fc:	e001      	b.n	8002302 <SD_SendCmd+0x6c>
	else crc = 1;
 80022fe:	2301      	movs	r3, #1
 8002300:	73fb      	strb	r3, [r7, #15]

	/* transmit CRC */
	SPI_TxByte(crc);
 8002302:	7bfb      	ldrb	r3, [r7, #15]
 8002304:	4618      	mov	r0, r3
 8002306:	f7ff fe83 	bl	8002010 <SPI_TxByte>

	/* Skip a stuff byte when STOP_TRANSMISSION */
	if (cmd == CMD12) SPI_RxByte();
 800230a:	79fb      	ldrb	r3, [r7, #7]
 800230c:	2b4c      	cmp	r3, #76	; 0x4c
 800230e:	d101      	bne.n	8002314 <SD_SendCmd+0x7e>
 8002310:	f7ff feb2 	bl	8002078 <SPI_RxByte>

	/* receive response */
	uint8_t n = 10;
 8002314:	230a      	movs	r3, #10
 8002316:	73bb      	strb	r3, [r7, #14]
	do {
		res = SPI_RxByte();
 8002318:	f7ff feae 	bl	8002078 <SPI_RxByte>
 800231c:	4603      	mov	r3, r0
 800231e:	737b      	strb	r3, [r7, #13]
	} while ((res & 0x80) && --n);
 8002320:	f997 300d 	ldrsb.w	r3, [r7, #13]
 8002324:	2b00      	cmp	r3, #0
 8002326:	da05      	bge.n	8002334 <SD_SendCmd+0x9e>
 8002328:	7bbb      	ldrb	r3, [r7, #14]
 800232a:	3b01      	subs	r3, #1
 800232c:	73bb      	strb	r3, [r7, #14]
 800232e:	7bbb      	ldrb	r3, [r7, #14]
 8002330:	2b00      	cmp	r3, #0
 8002332:	d1f1      	bne.n	8002318 <SD_SendCmd+0x82>

	return res;
 8002334:	7b7b      	ldrb	r3, [r7, #13]
}
 8002336:	4618      	mov	r0, r3
 8002338:	3710      	adds	r7, #16
 800233a:	46bd      	mov	sp, r7
 800233c:	bd80      	pop	{r7, pc}
	...

08002340 <SD_disk_initialize>:
 * user_diskio.c functions
 **************************************/

/* initialize SD */
DSTATUS SD_disk_initialize(BYTE drv)
{
 8002340:	b590      	push	{r4, r7, lr}
 8002342:	b085      	sub	sp, #20
 8002344:	af00      	add	r7, sp, #0
 8002346:	4603      	mov	r3, r0
 8002348:	71fb      	strb	r3, [r7, #7]
	uint8_t n, type, ocr[4];

	/* single drive, drv should be 0 */
	if(drv) return STA_NOINIT;
 800234a:	79fb      	ldrb	r3, [r7, #7]
 800234c:	2b00      	cmp	r3, #0
 800234e:	d001      	beq.n	8002354 <SD_disk_initialize+0x14>
 8002350:	2301      	movs	r3, #1
 8002352:	e0d6      	b.n	8002502 <SD_disk_initialize+0x1c2>

	/* no disk */
	if(Stat & STA_NODISK) return Stat;
 8002354:	4b6d      	ldr	r3, [pc, #436]	; (800250c <SD_disk_initialize+0x1cc>)
 8002356:	781b      	ldrb	r3, [r3, #0]
 8002358:	b2db      	uxtb	r3, r3
 800235a:	f003 0302 	and.w	r3, r3, #2
 800235e:	2b00      	cmp	r3, #0
 8002360:	d003      	beq.n	800236a <SD_disk_initialize+0x2a>
 8002362:	4b6a      	ldr	r3, [pc, #424]	; (800250c <SD_disk_initialize+0x1cc>)
 8002364:	781b      	ldrb	r3, [r3, #0]
 8002366:	b2db      	uxtb	r3, r3
 8002368:	e0cb      	b.n	8002502 <SD_disk_initialize+0x1c2>

	/* power on */
	SD_PowerOn();
 800236a:	f7ff fec9 	bl	8002100 <SD_PowerOn>

	/* slave select */
	SELECT();
 800236e:	f7ff fe33 	bl	8001fd8 <SELECT>

	/* check disk type */
	type = 0;
 8002372:	2300      	movs	r3, #0
 8002374:	73bb      	strb	r3, [r7, #14]

	/* send GO_IDLE_STATE command */
	if (SD_SendCmd(CMD0, 0) == 1)
 8002376:	2100      	movs	r1, #0
 8002378:	2040      	movs	r0, #64	; 0x40
 800237a:	f7ff ff8c 	bl	8002296 <SD_SendCmd>
 800237e:	4603      	mov	r3, r0
 8002380:	2b01      	cmp	r3, #1
 8002382:	f040 80a6 	bne.w	80024d2 <SD_disk_initialize+0x192>
	{
		/* timeout 1 sec */
		Timer1 = 1000;
 8002386:	4b62      	ldr	r3, [pc, #392]	; (8002510 <SD_disk_initialize+0x1d0>)
 8002388:	f44f 727a 	mov.w	r2, #1000	; 0x3e8
 800238c:	801a      	strh	r2, [r3, #0]

		/* SDC V2+ accept CMD8 command, http://elm-chan.org/docs/mmc/mmc_e.html */
		if (SD_SendCmd(CMD8, 0x1AA) == 1)
 800238e:	f44f 71d5 	mov.w	r1, #426	; 0x1aa
 8002392:	2048      	movs	r0, #72	; 0x48
 8002394:	f7ff ff7f 	bl	8002296 <SD_SendCmd>
 8002398:	4603      	mov	r3, r0
 800239a:	2b01      	cmp	r3, #1
 800239c:	d158      	bne.n	8002450 <SD_disk_initialize+0x110>
		{
			/* operation condition register */
			for (n = 0; n < 4; n++)
 800239e:	2300      	movs	r3, #0
 80023a0:	73fb      	strb	r3, [r7, #15]
 80023a2:	e00c      	b.n	80023be <SD_disk_initialize+0x7e>
			{
				ocr[n] = SPI_RxByte();
 80023a4:	7bfc      	ldrb	r4, [r7, #15]
 80023a6:	f7ff fe67 	bl	8002078 <SPI_RxByte>
 80023aa:	4603      	mov	r3, r0
 80023ac:	461a      	mov	r2, r3
 80023ae:	f104 0310 	add.w	r3, r4, #16
 80023b2:	443b      	add	r3, r7
 80023b4:	f803 2c08 	strb.w	r2, [r3, #-8]
			for (n = 0; n < 4; n++)
 80023b8:	7bfb      	ldrb	r3, [r7, #15]
 80023ba:	3301      	adds	r3, #1
 80023bc:	73fb      	strb	r3, [r7, #15]
 80023be:	7bfb      	ldrb	r3, [r7, #15]
 80023c0:	2b03      	cmp	r3, #3
 80023c2:	d9ef      	bls.n	80023a4 <SD_disk_initialize+0x64>
			}

			/* voltage range 2.7-3.6V */
			if (ocr[2] == 0x01 && ocr[3] == 0xAA)
 80023c4:	7abb      	ldrb	r3, [r7, #10]
 80023c6:	2b01      	cmp	r3, #1
 80023c8:	f040 8083 	bne.w	80024d2 <SD_disk_initialize+0x192>
 80023cc:	7afb      	ldrb	r3, [r7, #11]
 80023ce:	2baa      	cmp	r3, #170	; 0xaa
 80023d0:	d17f      	bne.n	80024d2 <SD_disk_initialize+0x192>
			{
				/* ACMD41 with HCS bit */
				do {
					if (SD_SendCmd(CMD55, 0) <= 1 && SD_SendCmd(CMD41, 1UL << 30) == 0) break;
 80023d2:	2100      	movs	r1, #0
 80023d4:	2077      	movs	r0, #119	; 0x77
 80023d6:	f7ff ff5e 	bl	8002296 <SD_SendCmd>
 80023da:	4603      	mov	r3, r0
 80023dc:	2b01      	cmp	r3, #1
 80023de:	d807      	bhi.n	80023f0 <SD_disk_initialize+0xb0>
 80023e0:	f04f 4180 	mov.w	r1, #1073741824	; 0x40000000
 80023e4:	2069      	movs	r0, #105	; 0x69
 80023e6:	f7ff ff56 	bl	8002296 <SD_SendCmd>
 80023ea:	4603      	mov	r3, r0
 80023ec:	2b00      	cmp	r3, #0
 80023ee:	d005      	beq.n	80023fc <SD_disk_initialize+0xbc>
				} while (Timer1);
 80023f0:	4b47      	ldr	r3, [pc, #284]	; (8002510 <SD_disk_initialize+0x1d0>)
 80023f2:	881b      	ldrh	r3, [r3, #0]
 80023f4:	b29b      	uxth	r3, r3
 80023f6:	2b00      	cmp	r3, #0
 80023f8:	d1eb      	bne.n	80023d2 <SD_disk_initialize+0x92>
 80023fa:	e000      	b.n	80023fe <SD_disk_initialize+0xbe>
					if (SD_SendCmd(CMD55, 0) <= 1 && SD_SendCmd(CMD41, 1UL << 30) == 0) break;
 80023fc:	bf00      	nop

				/* READ_OCR */
				if (Timer1 && SD_SendCmd(CMD58, 0) == 0)
 80023fe:	4b44      	ldr	r3, [pc, #272]	; (8002510 <SD_disk_initialize+0x1d0>)
 8002400:	881b      	ldrh	r3, [r3, #0]
 8002402:	b29b      	uxth	r3, r3
 8002404:	2b00      	cmp	r3, #0
 8002406:	d064      	beq.n	80024d2 <SD_disk_initialize+0x192>
 8002408:	2100      	movs	r1, #0
 800240a:	207a      	movs	r0, #122	; 0x7a
 800240c:	f7ff ff43 	bl	8002296 <SD_SendCmd>
 8002410:	4603      	mov	r3, r0
 8002412:	2b00      	cmp	r3, #0
 8002414:	d15d      	bne.n	80024d2 <SD_disk_initialize+0x192>
				{
					/* Check CCS bit */
					for (n = 0; n < 4; n++)
 8002416:	2300      	movs	r3, #0
 8002418:	73fb      	strb	r3, [r7, #15]
 800241a:	e00c      	b.n	8002436 <SD_disk_initialize+0xf6>
					{
						ocr[n] = SPI_RxByte();
 800241c:	7bfc      	ldrb	r4, [r7, #15]
 800241e:	f7ff fe2b 	bl	8002078 <SPI_RxByte>
 8002422:	4603      	mov	r3, r0
 8002424:	461a      	mov	r2, r3
 8002426:	f104 0310 	add.w	r3, r4, #16
 800242a:	443b      	add	r3, r7
 800242c:	f803 2c08 	strb.w	r2, [r3, #-8]
					for (n = 0; n < 4; n++)
 8002430:	7bfb      	ldrb	r3, [r7, #15]
 8002432:	3301      	adds	r3, #1
 8002434:	73fb      	strb	r3, [r7, #15]
 8002436:	7bfb      	ldrb	r3, [r7, #15]
 8002438:	2b03      	cmp	r3, #3
 800243a:	d9ef      	bls.n	800241c <SD_disk_initialize+0xdc>
					}

					/* SDv2 (HC or SC) */
					type = (ocr[0] & 0x40) ? CT_SD2 | CT_BLOCK : CT_SD2;
 800243c:	7a3b      	ldrb	r3, [r7, #8]
 800243e:	f003 0340 	and.w	r3, r3, #64	; 0x40
 8002442:	2b00      	cmp	r3, #0
 8002444:	d001      	beq.n	800244a <SD_disk_initialize+0x10a>
 8002446:	230c      	movs	r3, #12
 8002448:	e000      	b.n	800244c <SD_disk_initialize+0x10c>
 800244a:	2304      	movs	r3, #4
 800244c:	73bb      	strb	r3, [r7, #14]
 800244e:	e040      	b.n	80024d2 <SD_disk_initialize+0x192>
			}
		}
		else
		{
			/* SDC V1 or MMC */
			type = (SD_SendCmd(CMD55, 0) <= 1 && SD_SendCmd(CMD41, 0) <= 1) ? CT_SD1 : CT_MMC;
 8002450:	2100      	movs	r1, #0
 8002452:	2077      	movs	r0, #119	; 0x77
 8002454:	f7ff ff1f 	bl	8002296 <SD_SendCmd>
 8002458:	4603      	mov	r3, r0
 800245a:	2b01      	cmp	r3, #1
 800245c:	d808      	bhi.n	8002470 <SD_disk_initialize+0x130>
 800245e:	2100      	movs	r1, #0
 8002460:	2069      	movs	r0, #105	; 0x69
 8002462:	f7ff ff18 	bl	8002296 <SD_SendCmd>
 8002466:	4603      	mov	r3, r0
 8002468:	2b01      	cmp	r3, #1
 800246a:	d801      	bhi.n	8002470 <SD_disk_initialize+0x130>
 800246c:	2302      	movs	r3, #2
 800246e:	e000      	b.n	8002472 <SD_disk_initialize+0x132>
 8002470:	2301      	movs	r3, #1
 8002472:	73bb      	strb	r3, [r7, #14]

			do
			{
				if (type == CT_SD1)
 8002474:	7bbb      	ldrb	r3, [r7, #14]
 8002476:	2b02      	cmp	r3, #2
 8002478:	d10e      	bne.n	8002498 <SD_disk_initialize+0x158>
				{
					if (SD_SendCmd(CMD55, 0) <= 1 && SD_SendCmd(CMD41, 0) == 0) break; /* ACMD41 */
 800247a:	2100      	movs	r1, #0
 800247c:	2077      	movs	r0, #119	; 0x77
 800247e:	f7ff ff0a 	bl	8002296 <SD_SendCmd>
 8002482:	4603      	mov	r3, r0
 8002484:	2b01      	cmp	r3, #1
 8002486:	d80e      	bhi.n	80024a6 <SD_disk_initialize+0x166>
 8002488:	2100      	movs	r1, #0
 800248a:	2069      	movs	r0, #105	; 0x69
 800248c:	f7ff ff03 	bl	8002296 <SD_SendCmd>
 8002490:	4603      	mov	r3, r0
 8002492:	2b00      	cmp	r3, #0
 8002494:	d107      	bne.n	80024a6 <SD_disk_initialize+0x166>
 8002496:	e00d      	b.n	80024b4 <SD_disk_initialize+0x174>
				}
				else
				{
					if (SD_SendCmd(CMD1, 0) == 0) break; /* CMD1 */
 8002498:	2100      	movs	r1, #0
 800249a:	2041      	movs	r0, #65	; 0x41
 800249c:	f7ff fefb 	bl	8002296 <SD_SendCmd>
 80024a0:	4603      	mov	r3, r0
 80024a2:	2b00      	cmp	r3, #0
 80024a4:	d005      	beq.n	80024b2 <SD_disk_initialize+0x172>
				}

			} while (Timer1);
 80024a6:	4b1a      	ldr	r3, [pc, #104]	; (8002510 <SD_disk_initialize+0x1d0>)
 80024a8:	881b      	ldrh	r3, [r3, #0]
 80024aa:	b29b      	uxth	r3, r3
 80024ac:	2b00      	cmp	r3, #0
 80024ae:	d1e1      	bne.n	8002474 <SD_disk_initialize+0x134>
 80024b0:	e000      	b.n	80024b4 <SD_disk_initialize+0x174>
					if (SD_SendCmd(CMD1, 0) == 0) break; /* CMD1 */
 80024b2:	bf00      	nop

			/* SET_BLOCKLEN */
			if (!Timer1 || SD_SendCmd(CMD16, 512) != 0) type = 0;
 80024b4:	4b16      	ldr	r3, [pc, #88]	; (8002510 <SD_disk_initialize+0x1d0>)
 80024b6:	881b      	ldrh	r3, [r3, #0]
 80024b8:	b29b      	uxth	r3, r3
 80024ba:	2b00      	cmp	r3, #0
 80024bc:	d007      	beq.n	80024ce <SD_disk_initialize+0x18e>
 80024be:	f44f 7100 	mov.w	r1, #512	; 0x200
 80024c2:	2050      	movs	r0, #80	; 0x50
 80024c4:	f7ff fee7 	bl	8002296 <SD_SendCmd>
 80024c8:	4603      	mov	r3, r0
 80024ca:	2b00      	cmp	r3, #0
 80024cc:	d001      	beq.n	80024d2 <SD_disk_initialize+0x192>
 80024ce:	2300      	movs	r3, #0
 80024d0:	73bb      	strb	r3, [r7, #14]
		}
	}

	CardType = type;
 80024d2:	4a10      	ldr	r2, [pc, #64]	; (8002514 <SD_disk_initialize+0x1d4>)
 80024d4:	7bbb      	ldrb	r3, [r7, #14]
 80024d6:	7013      	strb	r3, [r2, #0]

	/* Idle */
	DESELECT();
 80024d8:	f7ff fd8c 	bl	8001ff4 <DESELECT>
	SPI_RxByte();
 80024dc:	f7ff fdcc 	bl	8002078 <SPI_RxByte>

	/* Clear STA_NOINIT */
	if (type)
 80024e0:	7bbb      	ldrb	r3, [r7, #14]
 80024e2:	2b00      	cmp	r3, #0
 80024e4:	d008      	beq.n	80024f8 <SD_disk_initialize+0x1b8>
	{
		Stat &= ~STA_NOINIT;
 80024e6:	4b09      	ldr	r3, [pc, #36]	; (800250c <SD_disk_initialize+0x1cc>)
 80024e8:	781b      	ldrb	r3, [r3, #0]
 80024ea:	b2db      	uxtb	r3, r3
 80024ec:	f023 0301 	bic.w	r3, r3, #1
 80024f0:	b2da      	uxtb	r2, r3
 80024f2:	4b06      	ldr	r3, [pc, #24]	; (800250c <SD_disk_initialize+0x1cc>)
 80024f4:	701a      	strb	r2, [r3, #0]
 80024f6:	e001      	b.n	80024fc <SD_disk_initialize+0x1bc>
	}
	else
	{
		/* Initialization failed */
		SD_PowerOff();
 80024f8:	f7ff fe44 	bl	8002184 <SD_PowerOff>
	}

	return Stat;
 80024fc:	4b03      	ldr	r3, [pc, #12]	; (800250c <SD_disk_initialize+0x1cc>)
 80024fe:	781b      	ldrb	r3, [r3, #0]
 8002500:	b2db      	uxtb	r3, r3
}
 8002502:	4618      	mov	r0, r3
 8002504:	3714      	adds	r7, #20
 8002506:	46bd      	mov	sp, r7
 8002508:	bd90      	pop	{r4, r7, pc}
 800250a:	bf00      	nop
 800250c:	20000014 	.word	0x20000014
 8002510:	200005eb 	.word	0x200005eb
 8002514:	200005f6 	.word	0x200005f6

08002518 <SD_disk_status>:

/* return disk status */
DSTATUS SD_disk_status(BYTE drv)
{
 8002518:	b480      	push	{r7}
 800251a:	b083      	sub	sp, #12
 800251c:	af00      	add	r7, sp, #0
 800251e:	4603      	mov	r3, r0
 8002520:	71fb      	strb	r3, [r7, #7]
	if (drv) return STA_NOINIT;
 8002522:	79fb      	ldrb	r3, [r7, #7]
 8002524:	2b00      	cmp	r3, #0
 8002526:	d001      	beq.n	800252c <SD_disk_status+0x14>
 8002528:	2301      	movs	r3, #1
 800252a:	e002      	b.n	8002532 <SD_disk_status+0x1a>
	return Stat;
 800252c:	4b03      	ldr	r3, [pc, #12]	; (800253c <SD_disk_status+0x24>)
 800252e:	781b      	ldrb	r3, [r3, #0]
 8002530:	b2db      	uxtb	r3, r3
}
 8002532:	4618      	mov	r0, r3
 8002534:	370c      	adds	r7, #12
 8002536:	46bd      	mov	sp, r7
 8002538:	bc80      	pop	{r7}
 800253a:	4770      	bx	lr
 800253c:	20000014 	.word	0x20000014

08002540 <SD_disk_read>:

/* read sector */
DRESULT SD_disk_read(BYTE pdrv, BYTE* buff, DWORD sector, UINT count)
{
 8002540:	b580      	push	{r7, lr}
 8002542:	b084      	sub	sp, #16
 8002544:	af00      	add	r7, sp, #0
 8002546:	60b9      	str	r1, [r7, #8]
 8002548:	607a      	str	r2, [r7, #4]
 800254a:	603b      	str	r3, [r7, #0]
 800254c:	4603      	mov	r3, r0
 800254e:	73fb      	strb	r3, [r7, #15]
	/* pdrv should be 0 */
	if (pdrv || !count) return RES_PARERR;
 8002550:	7bfb      	ldrb	r3, [r7, #15]
 8002552:	2b00      	cmp	r3, #0
 8002554:	d102      	bne.n	800255c <SD_disk_read+0x1c>
 8002556:	683b      	ldr	r3, [r7, #0]
 8002558:	2b00      	cmp	r3, #0
 800255a:	d101      	bne.n	8002560 <SD_disk_read+0x20>
 800255c:	2304      	movs	r3, #4
 800255e:	e051      	b.n	8002604 <SD_disk_read+0xc4>

	/* no disk */
	if (Stat & STA_NOINIT) return RES_NOTRDY;
 8002560:	4b2a      	ldr	r3, [pc, #168]	; (800260c <SD_disk_read+0xcc>)
 8002562:	781b      	ldrb	r3, [r3, #0]
 8002564:	b2db      	uxtb	r3, r3
 8002566:	f003 0301 	and.w	r3, r3, #1
 800256a:	2b00      	cmp	r3, #0
 800256c:	d001      	beq.n	8002572 <SD_disk_read+0x32>
 800256e:	2303      	movs	r3, #3
 8002570:	e048      	b.n	8002604 <SD_disk_read+0xc4>

	/* convert to byte address */
	if (!(CardType & CT_SD2)) sector *= 512;
 8002572:	4b27      	ldr	r3, [pc, #156]	; (8002610 <SD_disk_read+0xd0>)
 8002574:	781b      	ldrb	r3, [r3, #0]
 8002576:	f003 0304 	and.w	r3, r3, #4
 800257a:	2b00      	cmp	r3, #0
 800257c:	d102      	bne.n	8002584 <SD_disk_read+0x44>
 800257e:	687b      	ldr	r3, [r7, #4]
 8002580:	025b      	lsls	r3, r3, #9
 8002582:	607b      	str	r3, [r7, #4]

	SELECT();
 8002584:	f7ff fd28 	bl	8001fd8 <SELECT>

	if (count == 1)
 8002588:	683b      	ldr	r3, [r7, #0]
 800258a:	2b01      	cmp	r3, #1
 800258c:	d111      	bne.n	80025b2 <SD_disk_read+0x72>
	{
		/* READ_SINGLE_BLOCK */
		if ((SD_SendCmd(CMD17, sector) == 0) && SD_RxDataBlock(buff, 512)) count = 0;
 800258e:	6879      	ldr	r1, [r7, #4]
 8002590:	2051      	movs	r0, #81	; 0x51
 8002592:	f7ff fe80 	bl	8002296 <SD_SendCmd>
 8002596:	4603      	mov	r3, r0
 8002598:	2b00      	cmp	r3, #0
 800259a:	d129      	bne.n	80025f0 <SD_disk_read+0xb0>
 800259c:	f44f 7100 	mov.w	r1, #512	; 0x200
 80025a0:	68b8      	ldr	r0, [r7, #8]
 80025a2:	f7ff fe05 	bl	80021b0 <SD_RxDataBlock>
 80025a6:	4603      	mov	r3, r0
 80025a8:	2b00      	cmp	r3, #0
 80025aa:	d021      	beq.n	80025f0 <SD_disk_read+0xb0>
 80025ac:	2300      	movs	r3, #0
 80025ae:	603b      	str	r3, [r7, #0]
 80025b0:	e01e      	b.n	80025f0 <SD_disk_read+0xb0>
	}
	else
	{
		/* READ_MULTIPLE_BLOCK */
		if (SD_SendCmd(CMD18, sector) == 0)
 80025b2:	6879      	ldr	r1, [r7, #4]
 80025b4:	2052      	movs	r0, #82	; 0x52
 80025b6:	f7ff fe6e 	bl	8002296 <SD_SendCmd>
 80025ba:	4603      	mov	r3, r0
 80025bc:	2b00      	cmp	r3, #0
 80025be:	d117      	bne.n	80025f0 <SD_disk_read+0xb0>
		{
			do {
				if (!SD_RxDataBlock(buff, 512)) break;
 80025c0:	f44f 7100 	mov.w	r1, #512	; 0x200
 80025c4:	68b8      	ldr	r0, [r7, #8]
 80025c6:	f7ff fdf3 	bl	80021b0 <SD_RxDataBlock>
 80025ca:	4603      	mov	r3, r0
 80025cc:	2b00      	cmp	r3, #0
 80025ce:	d00a      	beq.n	80025e6 <SD_disk_read+0xa6>
